:020000040000FA
:1000000020100820C5010000C9010000CB0100003C
:10001000CD010000CF010000D10100000000000070
:10002000000000000000000000000000D3010000FC
:10003000D501000000000000D7010000A3A40000CB
:10004000DB010000DB010000DB010000DB01000040
:10005000DB01000037290100DB0100002112010053
:10006000DB010000DB010000DB010000DB01000020
:10007000DB010000DB010000DB010000DB01000010
:10008000DB010000DB010000DB010000DB01000000
:10009000DB010000DB010000DB010000DB010000F0
:1000A000DB010000DB010000DB010000DB010000E0
:1000B0006D340100DB010000DB010000DB0100000A
:1000C000DB01000000F002F800F06DF80AA090E8F3
:1000D000000C82448344AAF10107DA4501D100F003
:1000E00062F8AFF2090EBAE80F0013F0010F18BF63
:1000F000FB1A43F00103184754C2030094C20300E3
:100100000A444FF0000C10F8013B13F0070408BF3D
:1001100010F8014B1D1108BF10F8015B641E05D0DB
:1001200010F8016B641E01F8016BF9D113F0080F90
:100130001EBF10F8014BAD1C0C1B09D16D1E58BF22
:1001400001F801CBFAD505E014F8016B01F8016B59
:100150006D1EF9D59142D6D37047000000230024CC
:1001600000250026103A28BF78C1FBD8520728BFC7
:1001700030C148BF0B607047642914F02183732994
:1001800014F05785002070471FB518F0CDFB14F010
:100190003FFE04000020002118F0B0FB401C60600E
:1001A0001FBD10B510BD14F00EFE1146FFF7ECFF99
:1001B0000AF0F9F914F040FE03B4FFF7F2FF03BCB4
:1001C00014F044FE08480047FEE7FEE7FEE7FEE7BE
:1001D000FEE7FEE7FEE7FEE7FEE7FEE70348044929
:1001E000024A044B70470000C50000002050001078
:1001F00020100820200E0820FEE710B516F070FA37
:1002000016F0FCFA16F0EEFA16F07CFAAFF3008066
:10021000BDE8104016F0B8BA10B517F0C9F817F0DD
:1002200039FF17F01DF9BDE8104017F095BA16F028
:10023000DDBF16F0A5BD09B10020704715F0FABA70
:100240000020704790F900308B4200DA027090F97C
:100250000030934200DD0170704790F900308B420E
:1002600000DA017090F90010914200DD02707047D1
:10027000B0F900308B4200DA0180B0F900109142F1
:1002800000DD02807047B0F900308B4200DA028056
:10029000B0F90030934200DD0180704703688B4263
:1002A00000DA02600368934200DD016070470000DD
:1002B0000FB41CB5084B06AA7B446946009005980C
:1002C00014F08DFC04460020694614F09BFC204687
:1002D0001CBC5DF814FB00004949010070B50646DE
:1002E00014F018FC0468054630460A22002114F078
:1002F000A4FC2C6070BD704770477047FFFFFFFF84
:1003000030B54E482021C0F8A01100BFD0F8A01190
:100310004906FBD500F180000322C0F8842048493B
:10032000C0F828114FF00001C0F82C114FF0010364
:10033000C0F88C30434C446003604FF0AA03C360A4
:100340004FF05504C460A0F1800000BFD0F8885081
:100350006D01FBD540F8802FC360C460C0F88810E1
:10036000394A4264C0F848118168A0F180006FEA00
:1003700011618A073549D0F80C2102F0030207D039
:1003800092B3012A46D0022A4AD0032A51D13BE037
:100390002AB1012A11D0022A27D0032A49D150F8C4
:1003A000882FC2F30E02521C53000268C2F30742A8
:1003B000521CB3FBF2F2264B0CE050F8882FC2F32C
:1003C0000E02521C53000268C2F30742521CB3FBD8
:1003D000F2F2204B5A43C36FA0F18800DBB203F165
:1003E0000103B2FBF3F223E00EE050F8882FC2F3D2
:1003F0000E02521C53000268C2F30742521CB3FBA8
:10040000F2F24FF4FA43E5E7D0F80421104BD2B2F0
:10041000521C0BE0D0F804210E4BD2B2521C05E066
:10042000D0F804214FF4FA43D2B2521CB3FBF2F2DB
:100430000A6043F23A01016030BD000000C00F4085
:10044000000002084F00030048F1004100000010C6
:1004500000093D008096980010B54FF4027010F02E
:100460005BF9FB4C207040F20A2010F055F96070E7
:100470004FF4037010F050F9A07040F20E2010F00D
:100480004BF9E0704FF4047010F046F9207240F21E
:10049000122010F041F960724FF4057010F03CF931
:1004A000A07240F2162010F037F9E0724FF411708C
:1004B00010F032F9207140F2462010F02DF96071F1
:1004C0004FF4127010F028F9A07140F24A2010F099
:1004D00023F9E07110BD002801DA404200B27047F4
:1004E000DC4A516C536C5B1A8342FBD37047DA4988
:1004F000112008727047D948C16941F44021C16197
:10050000C16941F44011C161D5480021C1604FF477
:100510004061C164022141614FF47A7282614FF4FB
:100520004872026242620122026541600921416013
:1005300070472DE9F04F0020CA4A85B04FF4F4719E
:1005400004461454401C00B28842FADBC648417E7F
:1005500071B100214FF0140C7A2301FB03F001EB81
:1005600081039B0001EB81041BB20CEB84045AE273
:10057000804690F825004FF00205C0074FF00306B3
:100580001BD098F81400002816D0B8483227CDE9BF
:100590000204CDE90076032118233A4608460FF0FD
:1005A00062FAB348CDE90204CDE9007603211823AD
:1005B000322208460FF057FAB8E0B8F97800DFF8B1
:1005C0009492DFF8B0A20F27DFF8ACB2A9F10A09C4
:1005D000012853DB1423002100941A460846019495
:1005E0000FF085F91223012100941A460846019460
:1005F0000FF07DF999F8000010F03C0F0BD0C10608
:1006000011D598F81400F0B10F23CDE902A402210E
:100610001A46032013E09948CDE902040F23022172
:100620001A4603200BE010F00C0F0CD098F81400C1
:1006300048B10F23CDE902B402211A460846CDE99C
:1006400000750FF010FA8E48406DC00716D10B23CD
:1006500000221421092000940EF02EFF00235B22BB
:100660001F21092000940EF027FF98F803000423AF
:100670001330C1B2002209200FF076F9B8F97800E2
:10068000022853DB142300941A46002117200194FA
:100690000FF02DF9122300941A460121182001941D
:1006A0000FF025F999F8010010F03C0F0BD0C106AE
:1006B00011D598F81400F0B10F23CDE902A402215E
:1006C0001A46192013E06F48CDE902040F230221D6
:1006D0001A4619200BE010F00C0F0CD098F81400FB
:1006E00048B10F23CDE902B402211A461920CDE901
:1006F00000750FF0B8F96248406D800716D40B23DF
:1007000000221421202000940EF0D6FE0023442263
:100710001F21202000940EF0CFFE98F80300042340
:100720001330C1B2002220200FF01EF9B8F8760075
:10073000DFF820A1C1464FF00A0B4FF00108AAF1E3
:10074000800A00282CD00094142323220021322078
:1007500001940FF0CCF800940223032214213520D9
:1007600001940FF0C4F800940223032214214F20B7
:1007700001940FF0BCF899F825004F46800710D57A
:1007800099F8140000280BD032213948CDE9001621
:10079000CDE902040A46182300212B200FF063F94B
:1007A00089E00B2300221421422000940EF084FEE5
:1007B000002322221F21422000940EF07DFEBAF970
:1007C0007400002805DAF878042300221330C1B23F
:1007D00005E0F8780423C0F12200C1B202224220D1
:1007E0000FF0C2F8B8791E287ED2B7F97E00A0F5C6
:1007F000AA41553978D097F92600052190FBF1F0F0
:10080000ADF81000B9461422002104A8FFF730FD0E
:10081000CDE900844746BDF9103020220021332065
:100820000FF065F899F926000A282FDACDE900754E
:1008300009230C2205213D200FF059F899F92600D3
:1008400002238DE8910005210FA23D20039730E09F
:10085000E40D082014C107200040024000C00240FF
:10086000008001407A16001014C007203D8A010064
:10087000D38A0100A58B0100C38B0100698B0100A5
:1008800000C00920878B01002025000064284FF05C
:1008900009035EDACDE90075122205213A200FF036
:1008A00026F899F9260003238DE8B100FEA2052160
:1008B0003A200FF004F900940E231B2202215C2041
:1008C00001940FF014F800231A1F08215C200094F3
:1008D0000EF0F2FD002304220821762000940EF091
:1008E000EBFD0023272200E043E01F21432000947A
:1008F0000EF0E2FD6FF00F0300221F21692000942B
:100900000EF0DAFD99F805004D46C0F12200C1B2A3
:100910000423022269200FF027F84746BAF97C0029
:100920000421CDE90007CDE90217D0460523DFA257
:10093000162146200FF0C3F8B8F97A00642825DAAA
:10094000CDE9000704230521DAA25D20CDE9026785
:1009500025E0CDE900751822052137200EF0C7FFEC
:1009600099F9260004238DE8D1000521D3A2372070
:100970009FE7BAF97410CDE9026891FBFBF001B270
:10098000CDE900180423CBA2052191E790FBFBF0F1
:1009900000B28DE8D1000423C6A205215A200FF031
:1009A0008EF8A878401CC0B2A87003281CD3AC7085
:1009B000E878401CC0B2E8700D2800D3EC702879AC
:1009C000401CC0B22871202800D32C716879401CCB
:1009D000C0B26871112800D36C71A879401CC0B2F4
:1009E000A871282800D3AC7105B0BDE8F08FB54DD3
:1009F000B54FED5C05EB450517F81560165407EB90
:100A00004505401C6E781654401CAE781654401CA8
:100A1000EE781654401C2E791654401C6D791554EE
:100A2000401C5B1C1BB29C42E1DC491C09B204293E
:100A3000FFF692ADD8E72DE9F04FA448D3B00522D8
:100A40000378002101242AA85093052B02D0212BE2
:100A500002D005E09EA100E0A3A12A910121062277
:100A6000A74E96F825805FEAC87308D0A5A340F882
:100A7000213001F1010102F10102C9B2D2B25FEAF3
:100A8000887308D5A5A340F8213001F1010102F1D6
:100A90000102C9B2D2B25FEA086306D5A5A340F845
:100AA0002130491C521CC9B2D2B2954BF6331D7885
:100AB00015F01C0F06D0A5A540F82150491C521C6A
:100AC000C9B2D2B299465B7813F01C0F06D0A5A329
:100AD00040F82130491C521CC9B2D2B2A74F07F1CD
:100AE0006D033D78B3F90030012D02D0022D03D003
:100AF0000AE04BB9A2A301E033B9A7A340F8213023
:100B0000491C521CC9B2D2B29C4B9B1D1D78552D5D
:100B10000AD103F191052D8835B9A5A540F82150DA
:100B2000491C521CC9B2D2B25D78552D0AD1934DE1
:100B300097356D8835B9A4A540F82150491C521C41
:100B4000C9B2D2B29D78552D0AD18C4D9735AD885A
:100B500035B9A3A540F82150491C521CC9B2D2B2E4
:100B6000DB78552B0AD1854B9733DB8833B9A2A3A9
:100B700040F82130491C521CC9B2D2B2A44B1D7896
:100B800035B1A4A540F82150491C521CC9B2D2B2BB
:100B90005D7835B1A5A540F82150491C521CC9B259
:100BA000D2B29B7823B1A7A3521C40F82130D2B215
:100BB000337AB2465B1CDBB231463372142B09D355
:100BC00000230B72CD796D1CEDB2CD71954201D32E
:100BD0008AF80730694E0DF1080B3D3633463278FE
:100BE00093F9045093F901100BEB850C292A57D087
:100BF000002A56D04248C83B3746007D4F906420BB
:100C0000B3F90430042A93FBF0F64E964AD05B48C1
:100C10003D3090F9046090F9017090F90200BE1B1C
:100C20008646052A3FD0DFF85491112A09F13D0983
:100C300001F0CD80022A01F0DF8048464078801E16
:100C400047B20C2A01F0FA80142A01F01481102A0C
:100C500001F01E81152A01F03C81412A01F04F81EB
:100C6000442A01F0B783452A01F0258441F27C70C3
:100C700041F2D828342A02F0B981362A02F0498498
:100C8000032A02F0A9851E48252AC07C4C9003F057
:100C90005A801B484FF05E09282A90F81E80DDE03C
:100CA00068E1F7E3F7E3F7E3202025002020202088
:100CB00042000000202020410000000020202025CC
:100CC00000000000B2150010E18B01001FC20720D8
:100CD00020C2FBF0E0E2ED2EE7E0F0FFE420207A16
:100CE0003A305A20000000002020CAEEEDF2F0EE6B
:100CF000EBFC20E5ECEAEEF1F2E820200000000039
:100D000014C00720202020C0E2E0F0E8FF20F1E539
:100D1000F2E82121212020200000000020C0E2E094
:100D2000F0E8FF20E1E0F2E0F0E5E82121212020D9
:100D30000000000020C0F1E8ECECE5F2F0E8FF2054
:100D4000C0CAC121212120200000000020C0E2E013
:100D5000F0E8FF20E8F1F2EEF7EDE8EAE0204E31AE
:100D60000000000020C0E2E0F0E8FF20E8F1F2EE31
:100D7000F7EDE8EAE0204E32000000001FC1072036
:100D8000C2EDE5F82EF2E5ECEF2E4E31E7E0E2FBA6
:100D9000F8E5EDE000000000C2EDE5F82EF2E5EC2C
:100DA000EF2E4E31E7E0EDE8E6E5EDE00000000073
:100DB00020202020C0E2E0F0E8FF20D1CA20B93195
:100DC000202020200000000020202020C0E2E0F0B1
:100DD000E8FF20D1CA20B9322020202000000000E6
:100DE00020202020C0E2E0F0E8FF20D1CA20B93363
:100DF000202020200000000020202020C0E2E0F081
:100E0000E8FF20D1CA20B9342020202000000000B3
:100E10005FC2072020C0E2E0F0E8FF20EFF0E5E449
:100E2000EEF5F02E20B931200000000020C0E2E0F5
:100E3000F0E8FF20EFF0E5E4EEF5F02E20B93220E7
:100E40000000000020C0E2E0F0E8FF20EFF0E5E461
:100E5000EEF5F02E20B933200000000002F0998753
:100E600000F5A4701A2A03F01880482A03F076804F
:100E70001F2A03F0F480202A03F04082212A03F085
:100E80006C82222A03F0B182232A03F0F582172A0A
:100E900003F06683A0F5A4703E2AB0F97A300BEB1C
:100EA000830C03F0948300F5A4704078401E40B298
:100EB0003F2A03F0B983402A03F0E885462A03F06D
:100EC0009886DFF8AC94492A04F0A2814A2A04F0FB
:100ED000C281272A04F055820A2A04F057821C2A6C
:100EE00004F077821B2A04F0BC84C8461E2A04F052
:100EF00066851D2A04F08785372A04F0B985A9F58F
:100F0000A4732A2A93F8213004F0E9852B2A04F0EF
:100F10003486A9F5A473DFF85C94B3F94C305F1EF6
:100F2000BC4609F10107382A04F05687392A04F033
:100F300079873A2A05F02D803B2A05F076803C2AF5
:100F400005F025813D2A05F0C981072A05F0868232
:100F5000082AFBD0122AF9D0132AF7D0352AF5D067
:100F6000192AF3D0092A05F09E822C2A05F0A082C6
:100F700005F0A4BA79B101297ED0FF4C02297CD0BA
:100F800003297BD004297AD0052979D0062978D085
:100F9000072977D0ECE7F9A3F8A2F8A1F7A00DF0A4
:100FA00053FC0023022219460AF116049AF817008E
:100FB0000DF059FA608E00230222012180B20DF05B
:100FC00052FAE08D02220023114680B20DF04BFA56
:100FD000F048002307220088194680B20DF043FA3A
:100FE000ED48002307220088012180B20DF03BFA72
:100FF000EA48002307220088022180B20DF033FA6C
:10100000DB480023C8380722B0F87200032180B201
:101010000DF029FAE24800230A22194600780DF063
:1010200022FAE04800230A22012100780DF01BFA81
:10103000DD4800230A22022100780DF014FADB4C6F
:1010400000231322207819460DF00DFA6078002352
:10105000132201210DF007FAA078002313220221A8
:101060000DF001FAC24C0023A41D1122208819465C
:101070000DF0F9F9608806E00EE052E0B6E0F6E027
:1010800008E139E16FE20023112201210DF0EBF9B3
:101090000023A088112291E2C54BC6A11A46CAA01E
:1010A0000DF0D2FBCE48002304220088194680B2FE
:1010B0000DF0D9F9CB4800231A4690F90000012120
:1010C00080B20DF0D0F9AA4C0123183C0E222088E2
:1010D00000210DF0C8F9012360880E2219460DF099
:1010E000C2F9241D01232088132200210DF0BBF931
:1010F00001236088132219460DF0B5F94C4699F882
:1011000000000A2200210DF011FB60780A22012163
:101110000DF00CFBBAF8780000230122022180B206
:101120004DE296A395A295A194A00DF08DFB00230E
:101130002088042219460DF096F9608800230422C5
:1011400001210DF090F9A0880023042202210DF066
:101150008AF9E0880023042203210DF084F900239A
:101160002089092219460DF07EF9608900230922A1
:1011700001210DF078F9A0890023092202210DF048
:1011800072F9E0890023092203210DF06CF9002394
:10119000208A0E2219460DF066F9608A00230E227D
:1011A00001210DF060F9A08A00230E2202210DF02A
:1011B0005AF9E08A00230E2203210DF054F900238E
:1011C000208B132219460DF04EF9608B0023132259
:1011D00001210DF048F9A08B0023132202210DF00C
:1011E00042F900231322E08B0321E8E163A363A209
:1011F00062A162A00DF028FB0023208C0422194676
:101200000DF031F9608C0023042201210DF02BF93F
:10121000A08C0023042202210DF025F9E08C00238C
:10122000042203210DF01FF90023208D0922194605
:101230000DF019F9608D0023092201210DF013F939
:10124000A08D0023092202210DF00DF9E08D00236D
:10125000092203210DF007F90023208E0E221946E2
:101260000DF001F900230E22608E0121A7E143A3B6
:1012700042A242A141A00DF0E7FA00231322194631
:1012800054469AF816000DF0EEF8002313220121BF
:10129000607D94E139A339A238A138A00DF0D4FAC9
:1012A0003348002343380122007819460DF0DBF85B
:1012B0002F48012240380023007811460DF0D3F862
:1012C00038780023012202210DF0CDF828480023B0
:1012D00012300522008819460DF0C5F82448002375
:1012E0003C300522008801210DF0BDF82048002384
:1012F0001E300522008861E13BA0029040A00390CF
:1013000045A004904AA005904FA0069054A00790D5
:1013100059A00CF1040C0890BCE80E005BF8250005
:101320000DF092FA12480222C8383F21B0F9740039
:101330000CF0B6FF564C606D002200F00100242135
:101340000DF077F94D4699F8000023210DF0DCF9F6
:10135000606D0022C0F3400040210DF06AF968780A
:1013600021210DF0D1F9024C183C0022208894E094
:101370005CC107207A1A00104C1500102020202094
:10138000202020202020202020202020202020205D
:10139000000000004AC2072046C207204CC20720B6
:1013A00030C2072031C2072032C2072065C20720A1
:1013B000CE89010020202020202020202020202055
:1013C000202020202020200032202020202020202B
:1013D000202020202020202020202020000000008D
:1013E00034C2072028C20720202020203F202020B0
:1013F0002020202020242023204020210000000045
:101400002020202020202020202020202020204AB2
:101410002020206A00000000202020202020202002
:1014200020202020202020592020207900000000AA
:10143000202020682020206D202020202051207195
:10144000205A207A00000000202020732020205302
:1014500020202020202020432020204400000000C5
:1014600020202066202020462020202020202063CD
:1014700020202064000000002020202020202020A8
:101480002020202020412061204220620000000016
:1014900000C0092096E06CE1FEE34A210DF0C9F896
:1014A000608800226A210DF0C4F8D54C0022592131
:1014B00020780DF0BEF86078002279210DF0B9F89F
:1014C000D04C00226821206880B20DF0B2F8CE48DE
:1014D00000226D21006880B20DF0ABF8CB4D0022E8
:1014E000512128880DF0A5F8C94E002271213088BD
:1014F0000DF09FF8688800225A210DF09AF8708844
:1015000000227A210DF095F8C24D00224121287861
:101510000DF08FF8C04E0022612130780DF089F86F
:101520006878002242210DF084F870780022622150
:101530000DF07FF82068002280B243210DF079F889
:101540006068002280B244210DF073F8B34C002291
:101550006321206880B20DF06CF86068002280B2D0
:10156000642104F078BFAE4B1A46114608460DF0D0
:101570006BF9AC4C20784FF000034FF0060219468F
:101580000CF071FF0023062201219AF820000CF0D4
:101590006AFFB4200FF0C0F880B2002306220221B7
:1015A0000CF061FFA0880023102219460CF05BFFAD
:1015B000B6200FF0B1F8002380B2102202210CF007
:1015C00052FFD5E498A202929D4AB2F90030B2F9D6
:1015D0000220C82B05DDC82A01DD9AA20CE09FA2DB
:1015E0000AE0C82A01DDA3A206E0954AB03AB2F9A2
:1015F0007220C82A01DDA5A20292AAA20392AFA27C
:101600000492B4A20592B9A20692BEA20792C3A206
:101610000892C8A20992CDA20A92D2A20B92D7A296
:101620000C92DCA20D92E1A20E92E6A20F927C4AED
:101630001532109231B16A1A022A01DD891C01E0CB
:10164000A94200DD31719AF80750052D07D296F9AD
:1016500004100BEB8100001D0EC8029809E096F9FA
:10166000042000EB85000BEB8201091D50F8140CDF
:101670000EC90DF0E9F896F90400A0B196F9011031
:1016800089B1884203D1D54880F83C400BE0401A2C
:10169000012802D0022804D005E0D04880F8284074
:1016A00001E0CE480475664C01223E3C6C21208846
:1016B00080B20CF0BEFF02224021B4F902000CF00F
:1016C000EFFD60890122232180B20CF0B2FF208956
:1016D0000122242180B20CF0ACFFC14C20784FF0E5
:1016E00000024FF026010CF0A4FF207900225E21B9
:1016F0000CF09FFF207A002225210CF09AFF207B1E
:1017000000223C210CF095FF217E454800222A3022
:1017100000EB81003E210DF0C6F8A08B00227B215A
:101720000CF087FF9AF8140068B13A200CF017FD0E
:10173000AA4C202525543A200CF011FD25543A20BE
:101740000CF00DFD2554A74C4FF461610022206878
:10175000B0FBF1F080B27A210CF06BFF21683C20E5
:10176000B1FBF0F1B1FBF0F200FB121000225A21A4
:10177000F7E6BAF87620554652B15FEA887210D57E
:10178000274B4F9848B198A29DA1A3A004F094BE06
:10179000A7A3ADA2B2A1B8A0F8E7214A1146084616
:1017A000F4E7BBA20292C04A127852B1BFA20392E0
:1017B000C4A20592C9A2049295F827202AB1CDA20D
:1017C00004E0D2A20392D7A2F3E7DCA20692E1A240
:1017D0000792E6A20892EBA20992F0A20A92F5A261
:1017E0000B92FAA20C92FFA2154E80460D924E98D3
:1017F000B03E30280A4800F1150000D0FEE12EE28C
:101800003EC207207CC207204C00001070C2072097
:101810006CC20720500000105200001084C2072044
:10182000CE890100384002402020CDE5EEEFF0E502
:10183000E4E5EBE5EDEDEEF1F2FC20200000000028
:1018400044C1072020C220F0E0E1EEF2E520C1CF44
:10185000D1312CC1CFD13220000000002020202027
:10186000C220F0E0E1EEF2E520C1CFD1312020200E
:101870000000000020202020C220F0E0E1EEF2E590
:1018800020C1CFD132202020000000002020D0E055
:10189000E1EEF2E020EEF220E1E0F2E0F0E5E82017
:1018A000000000002055E13D2020206CC22049E1CD
:1018B0003D2020202040C020000000002055ED3DAC
:1018C00020202023C22049ED3D2020202024C020BC
:1018D000000000002030253A305E3A302620303CAF
:1018E0002F3E20202F307B200000000020C1E0F29E
:1018F000E0F0E5FF202020202020202020202020B4
:101900000000000020C1CFD1312020202020202045
:1019100020202020202020200000000020C1CFD146
:1019200032202020202020202020202020202020A5
:101930000000000020CDE0E3F0F3E7EAE020202003
:1019400020202020202020200000000020D1E5F2CF
:10195000FC202020202020202020202020202020AB
:101960000000000020D1EFE5F6F4F3EDEAF6E8E838
:1019700020202020202020200000000020C6F3F09E
:10198000EDE0EB20F1EEE1FBF2E8E9202020202061
:101990000000000020C1E0F2E0F0E5E9EDFBE92005
:1019A000E6F3F0EDE0EB20200000000020D3F1F2A0
:1019B000E0EDEEE2EAE82020202020202020202078
:1019C0000000000020D1E1F0EEF120E0E2E0F0E8DC
:1019D000E92020202020202000000000B215001067
:1019E0002040024074C2072020202020EDE520EF97
:1019F000EEE4EAEBFEF7E5EDE020202020200000F9
:101A000020202020202020C1E0F2E0F0E5FF20206F
:101A1000202020202020000020202020202020C066
:101A2000C2C0D0C8DF21212020202020202000009B
:101A3000E220E1E0F2E0F0E5E9EDEEEC20E6F3F0A3
:101A4000EDE0EBE5000000002020202020E2E2E5B0
:101A5000E4E8F2E520E5B820202020200000000086
:101A600020CFF0E82020EDE5EEE1F5EEE4E8ECEE45
:101A7000F1F2E8200000000020C1C0D2C0D0C5DFD4
:101A800020CDC520C2C2C5C4C5CDC0200000000005
:101A9000202020202020C1C0D2C0D0C5DF2020209F
:101AA00020202020000000002EC20720202020F04F
:101AB000E0E7F0FFE6E0E5F2F1FF20202020202023
:101AC0000000000020202049F0E0E7F03D20202029
:101AD0002021C020202020200000000020202055B0
:101AE000E1E0F23D202020202040C22020202020C4
:101AF0000000000020202020C4D22E20EDE5E8F1D7
:101B0000EFF0E0E2E5ED20200000000020202020A2
:101B1000E7E0F0FFE6E0E5F2F1FF202020202020C2
:101B20000000000020202049E7E0F03D2020202098
:101B30002021C02020202020000000002020207430
:101B4000E1E0F2203D20202024B04320202020206E
:101B500000000000202020C7E0F0FFE43D2020200E
:101B60002077252020202020000000002020204376
:101B7000E1E0F23D202020202051C02AF720202043
:101B80000000000020202055FD31203D2020202095
:101B9000205BC220202020200000000020202055B3
:101BA000FD32203D20202020205DC220202020204A
:101BB0000000000020202055FD33203D2020202063
:101BC000207BC22020202020000000002020205563
:101BD000FD34203D20202020207DC22020202020F8
:101BE0000000000020202055FD35203D2020202031
:101BF0002029C2202020202000000000CDF838003D
:101C00000BEB8100001D0EC8AFF27C100CF01CFE27
:101C1000B6F872000122402180B20CF00AFD0222C7
:101C20002121B6F974000CF03BFBB6F870000022DD
:101C3000242180B20CF0FDFC95F9260000227721CA
:101C400080B20CF0F6FCB5F97E00A0F5AA4155393A
:101C500007D14A1E5121B8A00CF025FE06E00D90D8
:101C6000CEE70122512180B20CF0E3FCB6F904105A
:101C700091FBF8F0302802D17978082904D03C286B
:101C800005D17878092802D1AD4880F83C40AD4CA8
:101C900001225B21208800E014E00CF0CAFC60887F
:101CA00001225D210CF0C5FCA08801227B210CF0F3
:101CB000C0FCE08801227D210CF0BBFC01222089C0
:101CC00029214EE4A148A04FBEF1000F406D05D080
:101CD000C0F34000BEF1010F03D006E000F00100A8
:101CE00003E0BAF87820012A02D048B198A008E0B1
:101CF000A3A20292A8A20392AD4A9BA0049228E05C
:101D0000ACA05FEAC87201D0B0A211E019F80E20B1
:101D1000D30601D5B3A20BE0130701D5B7A207E0A4
:101D2000530701D5BBA203E012F03C0F01D1BFA2C3
:101D30000292C4A2844B0392C8A2503B049213F8AF
:101D40000E200AB1CBA200E0D0A20592984A15322B
:101D50000692002E01DCA94200DA397197F904508D
:101D60000BEB8502121D5BF825100CCA0CF06CFD04
:101D700097F902000022401C80B221210CF059FC8E
:101D8000714897F902101838012230F811004021EB
:101D90000CF04FFC6C4897F902101438012230F80F
:101DA000110023210CF045FC674897F902101C38FC
:101DB000002230F8110024210CF03BFC7878022836
:101DC00044F07C835E4880F83C4004F077BBB5A3C8
:101DD000BAA2C0A1C5A00CF037FD594801222121AB
:101DE00080F83C40584C4E3C608880B20CF021FC9E
:101DF0000122402103F03ABE55465FEAC87019D06F
:101E00004F9808B1BFA000E06948A6A3C2A2C8A12C
:101E100002900CF019FD4A4805F14605002280F8B1
:101E20003C40A888232180B20CF003FC0122402111
:101E3000288801E0C4A0E8E780B299E4C8A0029035
:101E4000CDA00390D2A00490594815300590022EE1
:101E500002DD89F8047003E0A94201DA89F8041070
:101E600099F90410D0A00BEB8102121D5BF8211030
:101E70000CCA03F0A8BA5098212807D0D0A04C4B28
:101E80000146029003F11502D3A0F2E7D8A0F6E7CD
:101E9000DD480290DDA0039031B1012908D002296C
:101EA0000AD003290CD00FE0DEA00290E3A00AE0E4
:101EB000E8A00290EDA006E0F2A00290F7A002E0F8
:101EC000F0A00290FBA003900346D0A1CE48029A56
:101ED0005CE45098052810D0B9A0354B024602901A
:101EE0001533FAA1FFA00CF0AFFC01200DF09EFA13
:101EF00000222121BAF870009EE7BDA0EDE7F9A30A
:101F0000F8A2F8A1F7A00CF09FFC04218AF81D109C
:101F10009AF8201001290AD0022909D0032908D0F3
:101F2000062907D00C2906D0F4A10291F2E109E2BA
:101F30000AE215E216E217E22D2D2D2D2D2D0000BF
:101F4000B2150010BA1A00105CC1072000C00920A9
:101F500020202020C1CFD12120C2DBCACBDED7C5B3
:101F6000CD20202000000000202020202020202044
:101F7000C1CFD132202020202020202000000000CE
:101F800020202020CED2D1D3D2D1D2C2D3C5D220CC
:101F900020202020000000002020C220D1D2D0D359
:101FA000CAD2D3D0C520C8C1DDCF20200000000098
:101FB000CE89010020202020C1CFD12120C2CACB50
:101FC000DED7C5CD202020200000000020E0E2E088
:101FD000F0E8FF20F1E5F2E820202020202020205A
:101FE0000000000020E0E2E0F0E8FF20EFE5F0E58F
:101FF000E3F0E5E2202020200000000020E0E2E005
:10200000F0E8FF2055E2FBF53C55ECE8ED20202000
:102010000000000020E0E2E0F0E8FF2055E2FBF5E0
:102020003E55ECE0EAF120200000000020F1EEF146
:10203000F2EEFFEDE8E5202D20EDEEF0ECE02020C3
:10204000000000002055E8F1F2203D202020204033
:10205000C220202020202020000000002049E8F19C
:10206000F2203D2020202023C020202020202020DE
:102070000000000020C4D220EDE5E8F1EFF0E0E23E
:10208000E5ED202020202020000000002074E8F151
:10209000F2203D20202024B043202020202020209A
:1020A0000000000020C2FBF5EEE4202020202020CC
:1020B0002020202020202020000000002049EDE0EA
:1020C000E3F03D202020202020204041202020201F
:1020D000000000002055EDE0E3F03D20202020200E
:1020E000202021C2202020200000000020202020CD
:1020F0002020CDC0C3D0D3C7CAC02020202020209C
:1021000000000000202020C0C2C0D0C8DF20D1C500
:10211000D2C82121212020002046F1E5F2E83D200F
:1021200020202020202040C3F62020200000000096
:102130002055F1E5F2E83D2020202020202023C278
:10214000202020200000000020202020202020D15E
:10215000C5D2DC20202020202020202000000000EC
:1021600020CAEEEDF2F0EEEBFC20E5ECEAEEF1F247
:10217000E82020200000000020C2FBF0E0E2EDE8B3
:10218000E2E0FEF9E8E920E7E0F0FFE4000000000B
:1021900020C0E2F22EE2FBF0E0E2EDE8E22E20E7E2
:1021A000E0F0FFE40000000020202020D1CFC5D6C1
:1021B000D4D3CDCAD6C8C8202020202000000000DB
:1021C00020C2FBEAEBFEF7E5ED20202020202020B6
:1021D00020202020000000002020CACECDD2D0CE6A
:1021E000CBDC20C5CCCACED1D2C820200000000054
:1021F00020C2EAEBFEF7E5ED202020202020202061
:102200002020202000000000E80C0000202020ED0D
:10221000E5E2EEE7ECEEE6E5ED21212120202020AD
:102220000000000020202020CEF2F1F3F2F1F2E2D3
:10223000F3E5F220202020200000000020202020B4
:102240002020E1E0F2E0F0E5FF2020202020202007
:102250000000000020202020202020C0E2E0F0E844
:10226000FF2020202020202000000000202020200F
:1022700020202020F1E5F2E820202020202020202E
:1022800000000000202020202020C1E0F2E0F0E546
:10229000FF202020202020200000000020202020DF
:1022A000F0E0E7F0FFE6E0E5F2F1FF20202020205B
:1022B000000000002020202020E7E0F0FFE6E0E51D
:1022C000F2F1FF20202020200000000020E4EBE8B5
:1022D000F2E5EBFCEDEEF1F2FC202D202021F72EB3
:1022E0000000000020C2DBD0C0C2CDC8C2C0DED911
:1022F000C8C920C7C0D0DFC40000000020E2FBEA4C
:10230000EBFEF7E5ED2020202020202020202020BB
:10231000000000008AF81D40DF48039099F904107E
:10232000E4A00BEB810253685BF82120DBA10CF0E9
:102330008BFA99F9010099F90410884216DA89F8A4
:10234000040019E0E1A000E0E6A00290EBA00390F9
:10235000F0A00490AFF684200590CF480690DDE70A
:10236000F2A0F2E7F7A0F0E7FCA0EEE7411A01299E
:1023700002DD411E89F80410022801D189F8040009
:1023800002200DF053F8FB4C00222521E0890CF0CF
:1023900050F900225E21208A0CF04BF90022262100
:1023A000608A0CF046F900223C21A08A0CF041F929
:1023B000B948E18A153000EB810000223E210CF083
:1023C00072FA00227B21208B0CF033F900222821A5
:1023D000608B76E440F602600EF09EF901B2504642
:1023E000AAF84C10402902DD0021A0F84C10BAF9DF
:1023F0004C0070B1012811D0022819D044DD99F9A0
:10240000011099F9042091422BDA00BF89F80410D9
:102410002CE0A14BA04A153BD7A102E09E4ADCA3C9
:10242000E1A1E7A00CF010FA002089F804002BE0ED
:1024300099F9010099F90410884202DA89F8040038
:1024400004E0411A022901DD801EF7E799F9040032
:1024500010B1012802D017E08F4B10E0CCA38E4AB8
:102460000EE08A1A022A01DD891ECFE799F90410CD
:10247000421E9142F2D0801E8142EDD0D6A3DCA252
:10248000C9A1CFA00CF0E0F901200CF0CFFF99F822
:10249000040028210CF0B3FA99F804005B21401CD9
:1024A000C0B20CF0ACFA99F804007B21801CC0B2D9
:1024B0000CF0A5FA89E4784B153B1A4611460846FC
:1024C0000CF0C2F94FF460600EF026F999F9021091
:1024D00000B24A4240210CF0A4F9400100F58060AE
:1024E00085B24AA928460EF094F950A9281D0EF08D
:1024F00090F9694605F108000EF08BF901A905F184
:102500000C000EF086F948A905F110000EF081F9D3
:1025100049A905F114000EF07CF94FA905F1180046
:102520000EF077F99DF82801552808D0502843D09F
:1025300042287ED053287DD046287CD045E49DF8A3
:102540002A015228B6D1B0A3B5A2BBA1C0A00CF0FD
:102550007BF99DF80400002240210CF06AF89DF8F8
:102560000500002223210CF064F89DF806000022EB
:1025700024210CF05EF89DF80200002225210CF0C9
:1025800058F89DF8000000225E210CF052F89DF8EA
:102590000100401E0C2801D38DF801403E489DF8F3
:1025A0000110153000EB8100002228210CF07BF98E
:1025B0000020AAF84C0008E49DF82A014128BDD16A
:1025C000A948029090A003909DF82001412803D1D2
:1025D0009DF82101412850D00122002109F1040079
:1025E000FDF73BFEA1A00490A6A00590ABA006902D
:1025F00099F904600BEB8600001D0EC85BF82600FD
:102600000CF022F99DF8240100223E210CF011F873
:102610009DF8250100223D210CF00BF89DF82601C4
:10262000002229210CF005F800229DF822015B21EF
:1026300002E063E1D2E254E30BF0FBFF9DF82001DE
:1026400000223C210BF0F5FF9DF82101401E0C28D3
:1026500001D38DF8214110489DF82111153000EB70
:10266000810000225D210CF01EF99DF83C019DF8CF
:102670003D1100EB012080B27DE18EA0049093A07B
:1026800002AD0346059007CD0CF0DEF8BAF84A001B
:1026900000222B2180B225E3E3890100C2DBD0C0F8
:1026A000C2CDC8C2C0DED9C8C920C7C0D0DFC420CF
:1026B00000000000202020C0C2D2CECCC0D2C8D79B
:1026C000C5D1CAC8C92020200000000020F0E0E7E2
:1026D00020E220ECE5F1FFF6202020202020202021
:1026E0000000000020F0E0E720E2203220ECE5F1DD
:1026F000FFF6E020202020200000000020E4EBE88E
:10270000F2E5EBFCEDEEF1F2FC20202028F72E2084
:102710000000000020EEF7E5F0E5E4EDEEE520E254
:10272000EAEBFEF7E5EDE8E50000000020F0E0E769
:1027300020E2203320ECE5F1FFF6E02020202020ED
:102740000000000020F0E0E720E220EFEEEBE3EEF7
:10275000E4E02020202020200000000020F0E0E71E
:1027600020E220E3EEE42020202020202020202052
:102770000000000094C0072020C6F3F0EDE0EB203D
:10278000EFF3F1F220202020202020200000000084
:1027900020CEF7E8F1F2E8F2FC20E6F3F0EDE0EB12
:1027A00020202020000000002028202020202020A1
:1027B0002020202020202020202020200000000099
:1027C000202020C6D3D0CDC0CB20D1CEC1DBD2C8F3
:1027D000C920202000000000207B20202020202075
:1027E0002020202020202020202020200000000069
:1027F000205B20202020202020202020202020209E
:10280000202020200000000020203025282020301B
:102810005E2030403A30233A30242020000000006F
:102820002020202020202020C8C1DDCF20202020F3
:102830002020202000000000202020E8EBE820E2FB
:10284000EAEBFEF7E5EDE8E520202020000000009F
:1028500020202020CFE5F0E5E7E0E3F0F3E7EAE031
:102860002020202000000000040D00002020202057
:102870002020F3F1F2F0E0EDE5EDE0202020202033
:10288000000000002020305B5D2020303C20303EE6
:102890003A303D3A3029202000000000202020203E
:1028A0002055ECE8ED3D20202BC2202020202020C8
:1028B0000000000020202020EDE520F3F1F2F0E000
:1028C000EDE5EDE020202020000000002020202069
:1028D0002055F1E5F2E83D20202BC22020202020C9
:1028E000000000009DF80110FF48002200EB81006D
:1028F00028210BF0D8FFAAF84C40DBE59DF82A010F
:10290000432809D0532839D05A287ED00525572886
:102910007CD04B287BD0CDE5AFF2C8600290F3A00D
:102920000390AFF21C1004909DF82001412803D1C0
:102930009DF82101412814D00122002109F1040051
:10294000FDF78BFCAFF2DC000590AFF2C8000690FB
:1029500099F904600BEB8600001D0EC85BF8260099
:1029600028E0AFF2B0007AE08DF8214147E000BFE7
:102970009DF82901401C00222B210EE3AFF22C70A0
:102980000290E0A00390AFF2801004909DF8200127
:10299000412803D19DF821014128E2D001220021E4
:1029A00009F10400FDF759FCAFF240100590AFF2B9
:1029B0002C1049E00BF048FF9DF8240100223E2135
:1029C0000BF037FE9DF8250100223D210BF031FE72
:1029D0009DF82601002229210BF02BFE9DF82201F3
:1029E00000225B210BF025FE9DF8200100223C21F6
:1029F0000BF01FFE9DF82101401E0C28B4D29DF85B
:102A00002111B94800EB810002E006E02EE06FE002
:102A100000225D210BF047FFAAE7C0A00290C5A0ED
:102A20000390CAA004909DF82001412803D19DF88D
:102A30002101412812D00122002109F10400FDF7F3
:102A40000CFCC8A00590CDA0069099F904500BEBA2
:102A50008501091D5BF825000EC9ABE7CDA002ADCD
:102A60000346059007CD0BF0EFFE81E7CFA0029063
:102A7000D4A00390D9A00490B4A00590DDA0069046
:102A8000E2A00790E7A00890ECA00990F1A00A90BE
:102A900099F904600BEB8601091D5BF826000EC94D
:102AA00040E000BF8DF8014068E000BF9DF82101C3
:102AB000002206EB800077210BF0F5FEBDF8400107
:102AC00001227A210BF0B5FD9DF803009DF8071057
:102AD000012200EB012080B23C210BF0AAFDBDF8E1
:102AE000420101223E210BF0A4FDAAF84C50E1E482
:102AF000DE480290B3A00390B8A0049093A0059084
:102B0000DBA00690C1A00790C6A00890DEA00990A7
:102B1000E3A00A9099F904700BEB8700001D0EC822
:102B20005BF827000BF090FE9DF829010022401C65
:102B300021210BF07EFD9DF80400002240210BF0C6
:102B400078FD9DF80500002223210BF072FD9DF811
:102B50000600002224210BF06CFD9DF802000022EB
:102B600025210BF066FD9DF8000000225E210BF090
:102B700060FD9DF80100401E0C2893D29DF80100D5
:102B8000594E002206EB800028210BF08CFE9DF8A8
:102B90002401002269210BF04CFD9DF82501002243
:102BA0006C210BF046FD9DF82601002273210BF0ED
:102BB00040FD9DF82201002271210BF03AFD9DF8A5
:102BC0002001002272210BF034FD9DF82101401EEE
:102BD0000C28FFF46BAF8DF8214167E7B6A0029097
:102BE0009DF82A014C2806D0542806D0552806D036
:102BF000752806D007E0B6A004E0BBA002E0C0A0A4
:102C000000E0C5A00390AFF2004004909DF82001C1
:102C1000412803D19DF82101412861D001220021E2
:102C200009F10400FDF719FBAFF2C0300590AFF2D7
:102C3000AC30069099F904600BEB8600001D0EC8BD
:102C40005BF826000BF000FE9DF8240100223E21D7
:102C50000BF0EFFC9DF8250100223D210BF0E9FC73
:102C60009DF82601002229210BF0E3FC9DF82201AA
:102C700000225B210BF0DDFC9DF8200100223C21AD
:102C80000BF0D7FC9DF82101401E0C2801D38DF8D4
:102C900021419DF821111448002200EB81005D21A3
:102CA0000BF001FE9DF829010022401C2B210BF0A6
:102CB000C0FC9DF80400002240210BF0BAFC9DF8F6
:102CC0000500002223210BF0B4FC9DF80600002231
:102CD00024210BF0AEFC00229DF80200252127E103
:102CE0003EE146E159E10000F88901002020202062
:102CF0002020E1E0F2E0F0E5E82020202020202064
:102D00000000000020E0F1E8ECECE5F2F0E8FF2044
:102D1000E1E0F2E0F0E5E82000000000202020C221
:102D2000FBF0E0E2EDE8E2E0FEF9E8E92020202017
:102D30000000000020202020202020E7E0F0FFE419
:102D40002020202020202020000000002030252FDF
:102D50002820202F305E2030403A30233A30242083
:102D600000000000202020202020E7E0E2E5F0F82D
:102D7000E5ED2020202020200000000020305B2FE7
:102D80005D20202F303C20303E3A303D3A30292023
:102D90000000000020202020EDE520E7E0E2E5F043
:102DA000F8E5ED2020202020000000002020202039
:102DB000202020D0E0E7F0FFE42020202020202069
:102DC0000000000020202020202020E1E0F2E0F0A0
:102DD000E5E82020202020200000000020CDE0F7A2
:102DE000E0EBEE202020202020202020202020208A
:102DF000000000002020202020202020202055E15D
:102E0000E0F23D20203CC2200000000020CAEEED90
:102E1000E5F6202020202020202020202020202017
:102E2000000000002030712F7720202F30722030DA
:102E3000693A306C3A3073200000000020202020D6
:102E400020202020202055E1E0F23D20203EC2201D
:102E50000000000020202020CEF2E4E0EDEE202053
:102E600020207AE02AF72E2000000000E80C000065
:102E700020202020202020202055E1E0F23D2020AD
:102E80003CC2202000000000202020202020202004
:102E90002055E1E0F23D20203EC22020000000004D
:102EA00020A8ECEAEEF1F2FC20202020207AE02A93
:102EB000F72E202000000000202020C0E2E0F0E8F3
:102EC000FF20C1CFD1204E2B202020200000000069
:102ED0002020202020EEF2EAEBFEF7E8EBF1FF20C5
:102EE0002020202000000000202020202020EFE5CE
:102EF000F0E5E3F0E5E220202020202000000000A3
:102F0000202020E7E0E2FBF8E5EDEE2055E2FBF5BE
:102F10002E20202000000000202020E7E0EDE8E641
:102F2000E5EDEE2055E2FBF52E202020000000000C
:102F30000BF07FFB9DF8000000225E210BF079FB77
:102F40009DF80100401E0C2801D38DF801409DF82A
:102F50000110B648002200EB8100282103F00DB9D2
:102F6000AFF2B06002AD0346059007CD0BF06CFCEC
:102F700098E6AFF620500290ADA00390AFF27870C3
:102F80000490B14802AD0346059007CD0BF05CFC00
:102F90009DF829010022401C21210BF04AFB9DF8DD
:102FA0000400002240210BF044FB9DF805000022A4
:102FB00023210BF03EFB9DF80600002224210BF09C
:102FC00038FB9DF80200002225210BF032FB9DF812
:102FD000000000225E210BF02CFB9DF80100401E3A
:102FE0000C28FFF47FAC8DF801407BE4974EA3F5ED
:102FF000B851883901D196A05AE0834201D19AA0F4
:1030000056E0434501D19EA052E0A3F59050CC3844
:1030100001D1A1A04CE0A3F5B8507A3801D1A4A009
:1030200046E0A3F5B850753801D1A7A040E0A3F55C
:103030009050CA3801D1AAA03AE0A3F59050C53803
:1030400001D1ADA034E040F67810834201D1B0A0A8
:103050002EE040F66C118B4201D1B3A028E0A3F51D
:103060009052E83A01D1B6A022E0A3F5B852983ABE
:1030700001D1B9A01CE0A3F59052D43A01D1BCA073
:1030800016E0A3F5B852843A01D1BFA010E0A3F531
:103090001062923A01D1C2A00AE0A3F51062793A17
:1030A00001D1C5A004E08342D1D08B42D5D0C8A0C5
:1030B0000290CDA00390D2A00490D7A00590DCA0F0
:1030C0000690E1A00790E6A00890EBA00990F0A080
:1030D0000A90F5A00B90FAA00C90FF480CF1040C9C
:1030E0000D90BCE80E005BF825000BF0ADFB99F8E5
:1030F0000400082802D1F94880F83C40B6F90600DF
:103100003446202805DA0022212180B20BF091FA02
:1031100005E04FF0FF322121F1A00BF0C4FBB4F920
:1031200008000D2805DA0022402180B20BF081FA58
:1031300005E04FF0FF324021E9A00BF0B4FBB4F9F9
:103140000A00642805DA0022232180B20BF071FA0C
:1031500005E04FF0FF322321E1A00BF0A4FB3B4C34
:10316000E04D8034E069A84206DB6FF004023F21A5
:10317000DDA00BF098FB03E000223F210BF0DFF80D
:1031800000222B2109200BF054FA002228210520CF
:103190000BF04FFA206AA84206DB6FF004022921E7
:1031A000D1A00BF080FB03E0002229210BF0C7F82F
:1031B000206AA84206DB6FF004022921CAA00BF0A6
:1031C00072FB03E0002229210BF0B9F8606AA842E3
:1031D00006DB6FF004023C21C3A00BF064FB03E0AC
:1031E00000223C210BF0ABF8A06AA84206DB6FF08E
:1031F00004023E21BCA00BF056FB03E000223E215E
:103200000BF09DF86FF0030422465B21B8A00BF091
:103210004AFB22462421B6A00BF045FB224625217D
:10322000B3A00BF040FB22465E2167E1F889010064
:1032300020EFF0E5E4EEF5F0E0EDE8F2E5EBFF205D
:10324000B9212020000000007C13000094C007205A
:10325000202020C8C1DDCF3232302F36302D32341D
:103260004120202000000000202020C8C1DDCF32F6
:1032700032302F36302D3132412020200000000026
:10328000202020C8C1DDCF3232302F34382D3234E7
:103290004120202000000000202020C8C1DDCF32C6
:1032A00032302F34382D31324120202000000000F0
:1032B000202020C8C1DDCF3232302F36302D3130C2
:1032C0004120202000000000202020C8C1DDCF3296
:1032D00032302F36302D35412020202000000000D4
:1032E000202020C8C1DDCF3232302F34382D31308C
:1032F0004120202000000000202020C8C1DDCF3266
:1033000032302F34382D354120202020000000009D
:10331000202020C8C1DDCF3232302F32342D32345C
:103320004120202000000000202020C8C1DDCF3235
:1033300032302F32342D3132412020200000000065
:10334000202020C8C1DDCF3232302F34382D343028
:103350004120202000000000202020C8C1DDCF3205
:1033600032302F36302D3430412020200000000034
:10337000202020C8C1DDCF3232302F34382D3230FA
:103380004120202000000000202020C8C1DDCF32D5
:1033900032302F36302D3230412020200000000006
:1033A000202020C8C1DDCF3232302F32342D3530CD
:1033B0004120202000000000202020C8C1DDCF32A5
:1033C00032302F32342D32354120202000000000D1
:1033D000202020D2E8EF20EDE5E8E7E2E5F1F2E594
:1033E000ED20202000000000C4E0F2E020E8E7E348
:1033F000EEF22E2030212F30402F3023000000002D
:10340000F8E0F1F1E82020202020532F4E3030301A
:1034100030303F2000000000D3CAD33230322E2B90
:103420002820532F4E30303030302920000000004B
:10343000CFCE202020202020202076202020205B9E
:103440002020202000000000C1CFD131202D2020DD
:103450002020532F4E30303030303C200000000010
:10346000C1CFD132202D20202020532F4E3030309C
:1034700030303E20000000005253323332202020F2
:103480002020207620202024202020200000000062
:1034900043414E20504448202D20207620202025D6
:1034A000202020200000000043414E2053444820AB
:1034B0002D2020762020205E2020202000000000EB
:1034C00045746865726E65742D2020762020202654
:1034D0002020202000000000A4200000B2150010D1
:1034E0002A2A000040420F002A2A2A2A2A2A0000FB
:1034F0002D2D2D2D2D2D2D2D2D000000AFF2100086
:103500000BF0D1F922462621AFF21C000BF0CBF9CB
:103510005EE1FF4EA3F5B851883902D1AFF2D02059
:1035200064E0834202D1AFF2C0205FE0434502D1A4
:10353000AFF2B4205AE0A3F59050CC3802D1AFF2EC
:10354000A82053E0A3F5B8507A3802D1AFF2A020FA
:103550004CE0A3F5B850753802D1AFF2942045E0A5
:10356000A3F59050CA3802D1AFF28C203EE0A3F50B
:103570009050C53802D1AFF2802037E0A3F510603B
:10358000783802D1AFF2782030E0A3F510606C38C3
:1035900002D1AFF26C2029E0A3F59050E83802D1B7
:1035A000AFF2642022E0A3F5B8508E3801D1D9A043
:1035B0001CE0A3F59050D43802D1AFF24C2015E0B6
:1035C000A3F5B8507F3801D1D8A00FE0A3F5106063
:1035D000923802D1AFF2382008E0A3F510607938B4
:1035E00002D1AFF22C2001E0AFF21C200290AFF22A
:1035F00008200390AFF2F8100490D2A00590AFF22B
:10360000B8100690AFF2A8100790D4480CF1040C43
:103610000890BCE80E005BF825000BF015F9B6F930
:1036200006003546202805DA0022212180B20BF061
:1036300000F806E04FF0FF322121AFF25C100BF0F2
:1036400032F9B5F908000D2805DA0022402180B2D0
:103650000AF0EFFF06E04FF0FF324021AFF280109A
:103660000BF021F9B5F90A00642805DA00222321BC
:1036700080B20AF0DEFF06E04FF0FF322321AFF206
:10368000A0100BF010F9A24EB54D8036F069A8429B
:1036900007DB6FF004023F21AFF2B4100BF003F927
:1036A00003E000223F210AF04AFE00222B214FF4C2
:1036B00061700AF0BEFF0022282105200AF0B9FF40
:1036C000306AA84207DB6FF004022921AFF2E8104C
:1036D0000BF0E9F803E0002229210AF030FE706ABD
:1036E000A84207DB6FF004023C21AFF204200BF08C
:1036F000DAF803E000223C210AF021FEB06AA84279
:1037000007DB6FF004023E21AFF224200BF0CBF870
:1037100003E000223E210AF012FE99F9040003287A
:1037200003D199F80110092913D099F90110A1B119
:10373000012915D002291FD0032925D004292BD017
:1037400005292ED0062934D0072938D0082939D0A8
:103750003EE0844880F83C403AE078BB142238E0F0
:10376000022835DAC0F10100C0B202225FF00C017C
:103770000BF0ACF802F0A2BE022829DAC0F1010079
:103780000222C0B20F21F3E7022821DAC0F10100C2
:103790000222C0B21221EBE7032819DAC0F10200BD
:1037A00012E0042814DAC0F103000622C0B203219B
:1037B000DEE704280CDAC0F1030005E008E0C0F100
:1037C000040001E0C0F105000A22C0B21146CFE7B3
:1037D000002200210846CBE763A0029068A0039076
:1037E0006DA0049072A0059077A006907CA0079031
:1037F00081A0089086A009908BA00A9090A00B90C1
:1038000095A00C909AA00D909FA00E90A4A00F9050
:10381000A9A01090AEA01190B3A01290B8A01390E0
:10382000BDA01490C2A01590C7A01690CCA0179070
:10383000D1A01890D6A01990DBA01A90E0A01B9000
:10384000E5A01C90EAA01D90EFA01E90F4481F90E8
:10385000F4A02090F9A02190022E02DD89F80470D6
:1038600003E0A94201DA89F8041099F90410F9A0DB
:103870000BEB8102121D5BF821100CCA0AF0E4FF69
:1038800001200BF0D3FD99F9040011283EDABAF8B3
:1038900050000022401C3C21544680B20AF0C9FE70
:1038A000B4F860004FF000024FF0280110B1DC487E
:1038B0001F3801E0DA481A380AF0F5FFB4F85A0068
:1038C0004FF000024FF0290108B1E8A000E0E9A0A4
:1038D0000AF0E9FF94F82400552818D06FF003028D
:1038E0007921E6A00AF0DFFF34F8520F01222121EE
:1038F00080B20AF09EFE60880122402180B20AF068
:1039000098FEA0880122232180B2BBE1CEE106E22D
:1039100094C00720202020C8C1DDCF3232302F369E
:10392000302D33304120202000000000202020C80E
:10393000C1DDCF3232302F36302D313541202020BD
:1039400000000000D3CAD330302B2E302820532F54
:103950004E3030303030292000000000A42000001C
:1039600040420F00B215001020D1F2E0EDE4E0F08B
:10397000F2EDFBE520202020202020200000000088
:1039800020C2F0E5ECFF20E820E4E0F2E020202077
:10399000202020200000000020D1F2F0F3EAF2F312
:1039A000F0E0202020202020202020200000000007
:1039B00020CCEDE5ECEEEDE8EAE020202020202010
:1039C000202020790000000020CEF1EDEEE2EDEEA7
:1039D000E920E8F1F2EEF7ED2E204E3C0000000069
:1039E00020C7E22EF1E8E3ED2E2020202820202021
:1039F000202020200000000020CEF2EAEBFEF7E5B8
:103A0000EDE8E520F1E8E3EDE0EBE0200000000068
:103A10002020E0E2E0F0E8E82020202029202020FB
:103A2000202020200000000020C0CFC220E8F1F2BA
:103A3000EEF7EDE8EAEEE220202020200000000072
:103A4000205420EFF0EEE2E5F0EAE8202020F6E551
:103A5000EFE820200000000020E1E0F2E0F0E5E8DF
:103A6000202020202071ECE8ED2E20200000000016
:103A700020556D61783D2020202020202021C2206B
:103A800020202020000000002055E130B03D202003
:103A9000202020202040C2202020202000000000E4
:103AA0002055E13230B03D20202020202023C220AC
:103AB00020202020000000002055F1E8E3ED3D200B
:103AC00020202020205EC220202020200000000096
:103AD00020556D696E2EF1E5F2E83D202026C220CA
:103AE0002020202000000000205530E13D20202033
:103AF00020202020203EC220202020200000000086
:103B00002049E1EA2E3D202020202020206AC020EC
:103B100020202020000000002049E72EECE0F52EB8
:103B20003D202020204AC02020202020000000002E
:103B300020496D61783D202020202020205D4120FB
:103B40002020202000000000204B696D61783D207E
:103B500020202020207B202020202020000000008A
:103B6000204BE2FBF02EE7E0F02E3D202020205BF2
:103B700020202020000000002054E72EE2EAEB2E57
:103B8000E02EF12E2021F120202020200000000036
:103B900020746D61783D2020202020202024B04317
:103BA00020202020000000002045746865726E65AA
:103BB0007420202020202020202020200000000031
:103BC00020C2EDE5F8EDE8E520E4E0F2F7E8EAE808
:103BD000202020200000000020CFEEFDEBE5ECE5EA
:103BE000EDF2EDFBE920EA2DEBFC2E2000000000B9
:103BF00020E1E0F2E0F0E5E8202020202020202055
:103C0000205125200000000020C0E2E0F0E8E9EDAE
:103C1000FBE520F0E5EBE52020202020000000005F
:103C2000E389010020CAE0EBE8E1F0EEE2EAE820F7
:103C300020202020202020200000000020D2E5F1BC
:103C4000F2202020202020202020202020202020A2
:103C5000000000002020202020D3D1D2C0CDCEC231
:103C6000CAC820202020202000000000E0E2F2EE60
:103C7000EC2E0000F0F3F7ED2E000000E2FBEAEB83
:103C80002E0000000AF0D5FC608901225E2180B27E
:103C90000AF0CFFCA0890022262180B20AF0C9FCDC
:103CA000608B01223E2180B20AF0C3FC0AF1580465
:103CB00000222088242180B20AF0BBFC6089022205
:103CC0006A2180B20AF0B5FCA08903225B2180B290
:103CD0000AF0AFFCE08901225D2180B20AF0A9FC64
:103CE000208A01227B2180B20AF0A3FC608A012293
:103CF0004A2180B20AF09DFCE08A0022212180B294
:103D00000AF097FC608B0022712180B20AF091FCCE
:103D1000B4F91C0088B100225121FEF78DB86FF074
:103D200007027921E9A00AF0BEFDEB4800227921C3
:103D3000B0F86C000AF07DFCD6E56FF0010251216D
:103D4000E6A002F01ABAE7A00290ECA00390F1A05E
:103D50000490F6A00590FB4806904C9A2AB1A0F179
:103D600015029AF81C004BF82020A94202DA89F8C3
:103D7000041003E0022E01DD89F8047099F90410A3
:103D8000F1A00BEB8102121D5BF821100CCA01F0AF
:103D90001ABB9AF809005446401CC0B28AF80900C0
:103DA0000F2809D3002008F1010808F0FF01607214
:103DB000A177032900D3A077E9480290E14815389C
:103DC0000390A07F20B1012804D0022819D003E07D
:103DD000E4A000E0E9A0049002ADEEA00ECD0AF050
:103DE00033FDBD48C83090F9010060B101280ED004
:103DF000022810D0032812D0042814D0052816D089
:103E000018E0EAA0E7E7EF4981F82A9012E0ED49CF
:103E100081F82D900EE0EB4981F830900AE0E949F5
:103E200081F8339006E0E74981F8369002E0E549F1
:103E300081F83A90E44D28784FF000024FF02601C7
:103E40000AF0F7FB287900225E210AF0F2FB287ABB
:103E5000002225210AF0EDFB287B00223C210AF0FC
:103E6000E8FB297EB7480022153000EB81003E2197
:103E70000AF019FDA88B00227B210AF0DAFB207DD5
:103E800000287ED03A200AF06AF9CE4D20242C5426
:103E90003A200AF064F92C546CE4CCA202929AF80D
:103EA0002220D046552A09D0CE4A0392A54A153A77
:103EB00004920592069288F81D4017E098F8232096
:103EC000552AC9A2039207D0C64A04929D4A153AC0
:103ED00005920692022207E0C9A20492C14A059205
:103EE000984A153A0692032288F81D20A94201DA61
:103EF000017102E0022E00DD077190F90410C6A0E6
:103F00000BEB8102121D5BF821100CCA0AF09CFC1D
:103F100001200BF08BFA98F822004FF00002552890
:103F20004FF021010DD08748B0F11A000AF0BBFC18
:103F300098F823004FF0000255284FF0400103D0BD
:103F400086E080481F38F1E77E481F380AF0ABFC56
:103F5000614800222321B0F86A00DEE6B4A2029292
:103F6000B9A20392BEA20492C3A20592C8A206926D
:103F70007B4A3032079218320892CBA20992714ADA
:103F800000E0A3E30A92A94201DA017102E0022EE5
:103F900000DD077190F90440C9A00BEB8401D1E961
:103FA00001235BF824100AF04FFC01200BF03EFACD
:103FB000C94C207828B3012829D06FF004022121B0
:103FC000C6A000BF0AF06FFC607830B301282AD089
:103FD0006FF004024021C1A00AF065FCA07840B354
:103FE00001282CD06FF004022321BCA00AF05BFC56
:103FF000E07850B301282ED06FF004022821B7A03A
:104000009FE6504821216FF002021A38DAE74D4846
:1040100021216FF002021F38D4E74A4840216FF097
:1040200002021A38D8E7474840216FF002021F38D1
:10403000D2E7444823216FF002021A38D6E74148FC
:1040400023216FF002021F38D0E76FF0020228210F
:104050003C481A3875E66FF00202282137E3A1A226
:10406000029285A203923E4A30320492183205929F
:104070008DA20692334A0792A94201DA017102E049
:10408000022E00DD077190F904108DA00BEB810268
:10409000121D5BF821100CCA0AF0D6FB01200BF0B0
:1040A000C5F98D48007810B1012805D00AE02548EF
:1040B000002228211A3803E02248002228211F3834
:1040C0000AF0F1FB8AF83440E6E60000F7E5F0E597
:1040D000E72079F12E00000094C00720C2DBCACB94
:1040E0002E00000020C8C1DDCF3232302F36302DF7
:1040F0003132C02D312F32200000000020C8C1DD38
:10410000CF3232302F36302D3132C02D322F322087
:104110000000000020C8C1DDCF3232302F34382DEE
:104120003132C02D312F32200000000020C8C1DD07
:10413000CF3232302F34382D3132C02D322F322051
:1041400000000000E3890100D1D2C0CDC4C0D0D2AC
:10415000CDDBC520D3D1D22E2DCAC820000000004F
:10416000D4180000202020209A209C202D20E2FB43
:10417000E1EEF0202020202000000000202020BFC1
:10418000209D202D20F3F1F2E0EDEEE2EAE0202088
:104190000000000020D3D1D2C0CDCEC2CAC02020A2
:1041A000C2D0C5CCC5CDC8200000000020202020F2
:1041B00020A420202D20E2FBF5EEE420202020206A
:1041C00000000000B21500102040024020C0CFC205
:1041D0002031E920F3F0EEE2E5EDFC202120202063
:1041E00000000000A420000020C0CFC22032E9203F
:1041F000F3F0EEE2E5EDFC2040202020000000007E
:1042000020CFE5F0E8EEE420C0CFC232202020200D
:104210002023F72E00000000202020C0CFC220C89D
:10422000D1D2CED7CDC8CACEC220202000000000F7
:1042300020D0E5EBE520E0E22EB93120202020203F
:10424000202020210000000020D0E5EBE520E0E266
:104250002EB9322020202020202020400000000005
:1042600020D0E5EBE520E0E22EB93320202020200D
:10427000202020230000000020D0E5EBE520F1E025
:10428000ECEEEAE0EBE8E1F0EEE2EAE80000000044
:1042900020D0E5EBE520E1E0F2E0F0E5E8202020A9
:1042A000202020280000000020C1CFD1312BC1CF19
:1042B000D1322020202020202020202000000000BB
:1042C0002020202020202020D2C5D1D22020202034
:1042D0002020202000000000C41A0010D0C0C1CE51
:1042E000D72E000020D0E5EBE520E0E2E0F0E8FF8B
:1042F000202020202820202000000000A94201DAF0
:10430000017102E0022E00DD0771F14BF1A2F7A16D
:10431000FCA00AF099FA01200BF088F8FF48007918
:1043200020B1012807D003280AD00FE0E848002276
:104330003C211A3808E0E64800223C211F3803E0FF
:1043400000223C21AFF26C000AF0ADFAF4480222E0
:104350003A21B0F9740001F0BFBBA94201DA017142
:1043600002E0022E00DD0771D94BEEA2F3A1F9A005
:104370000AF06AFA01200BF059F8E848407920B1B8
:10438000012809D002280FD018E000224021F7A010
:104390000AF089FA1E200EE000224021F5A00AF062
:1043A00082FA40F2CA3006E000224021F3A00AF06F
:1043B0007AFA45F25550DA49A1F87E00002224210C
:1043C000EFA00AF070FAD6480122B0303C210088F4
:1043D0000AF02FF9D2480122B4303E2100880AF0B9
:1043E00028F900222321E848ACE0A94201DA017152
:1043F00002E0022E00DD0771B54BE4A2CFA1E9A0D7
:104400000AF022FA01200BF011F8C448807920B19B
:10441000012809D002280FD018E000224021D3A0A3
:104420000AF041FA1E200EE000224021D1A00AF03D
:104430003AFA40F2CA3006E000224021CFA00AF04A
:1044400032FA45F25550B6498031088000222421C5
:10445000CBA00AF028FAB2480122B0305B21408894
:104460000AF0E7F8AE480122B4305D2140880AF036
:10447000E0F80022232164E0D0A20292A9A20392D4
:10448000C2A20492924A0592A94201DA017102E0A5
:10449000022E00DD077190F90410CEA00BEB810213
:1044A000121D5BF821100CCA0AF0CEF901200AF0A7
:1044B000BDFF9A48C07920B1012809D002280FD049
:1044C0001AE000224021A9A00AF0EDF91E200EE01A
:1044D00000224021A7A00AF0E6F940F2CA3006E027
:1044E00000224021A5A00AF0DEF945F255508C4982
:1044F000A1F87E008031088000222421A0A00AF0CB
:10450000D2F9874D0122B0353C2128880AF091F874
:104510002E1D012230883E210AF08BF89A48002295
:104520002321008880B20AF084F8688801225B2188
:104530000AF07FF8708801225D210AF07AF80022E3
:104540002121AA48008880B20AF073F8A848012205
:104550002421008880B20AF06CF88AF835409BE488
:10456000A4A20292A9A20392AEA20492B3A20592BF
:10457000574A0692A94201DA017102E0022E00DDDB
:10458000077190F90440B3A00BEB8401D1E901233A
:104590005BF824100AF058F901200AF047FF0AF1ED
:1045A000760400226088212180B20AF042F8208837
:1045B0000022402180B20AF03CF8A088002223218A
:1045C00080B20AF036F800222421E088C5E4A7A0D2
:1045D000ACA202904BF82320B0A2CCF80420B5A2E4
:1045E000CCF80820B9A2CCF80C20BAF97C40384AA3
:1045F000234458464BF823200BEB8303B94A5A60F7
:104600009A60474AC832A94201DA117102E0022ECB
:1046100000DD177192F9044000EB8401B2A0D1E9EA
:1046200001235BF82410D0E3B5A20292BAA2039250
:10463000BFA20492C4A20592C9A20692CEA207927A
:10464000D3A2374C0892224AC8340992A94201DA0F
:10465000217102E0012E00DD207194F90410D8A030
:104660000BEB810253685BF82120CFA10AF0ECF834
:1046700002200AF0DBFE94F902000022401C80B206
:10468000212109F0D6FF94F90210D348002230F915
:104690001100402109F004FECF4994F9020030399D
:1046A00031F8101081B16FF001022321AFF63420F0
:1046B0000AF0F9F8C84994F90200243931F81010C9
:1046C00019B16FF0010289E1C1E1CAE181E381E33F
:1046D000E38901002049E1E0F23D20202020202054
:1046E00020202020203A41200000000020D0E5EBCF
:1046F000E52020202020202020203C2020202020D9
:104700000000000020D2C5D1D220D1C0CCCECAC07A
:10471000CBC8C1D0CEC2CAC000000000C41A00106D
:1047200094C007202055313D202020203CC2204944
:10473000313D202020203EC0000000002055F03DEB
:10474000402020242020202020F8E8EC3D202023B9
:10475000000000002020202020D2C5D1D220C1CFCF
:10476000D13120202020202000000000556D696EEE
:1047700000000000556D61780000000055323000E7
:10478000282020202429000042C207202055323D45
:10479000202020205BC22049323D202020205DC007
:1047A000000000002020202020D2C5D1D220C1CF7F
:1047B000D132202020202020000000002055F03D94
:1047C00040202024202020202020202320202021C1
:1047D00000000000202020D2C5D1D220C1CFD1318D
:1047E0002BC1CFD1322020200000000044C207207E
:1047F00046C2072020C1E0F2E0F0E5E920202020B9
:1048000020202020202020400000000020C8F1F2BD
:10481000EEF7EDE8EAEEE220202020202020202103
:104820000000000020C4E0F2F7E8EAEEE220F2E542
:10483000ECEFE5F02E2020230000000020D1F3F55E
:10484000E8F520EAEEEDF2E0EAF2EEE220202024A4
:1048500000000000202020202020D1D2D0D3CAD2B6
:10486000D3D0C020202020200000000020C4E0F28F
:10487000F7E8EA20F2E5ECEFE5F02E204E312020BB
:104880000000000020D1F3F5EEE920EAEEEDF2E0C1
:10489000EAF2204E312020200000000020D1F3F564
:1048A000EEE920EAEEEDF2E0EAF2204E322020209E
:1048B0000000000020D1F3F5EEE920EAEEEDF2E091
:1048C000EAF2204E332020200000000020D1F3F532
:1048D000EEE920EAEEEDF2E0EAF2204E342020206C
:1048E000000000007C1300002020C2CDC5D8CDC838
:1048F000C520C4C0D2D7C8CAC820202000000000EC
:1049000020F2E5ECEFE5F0E0F2F3F0E020202020EB
:104910002040B0430000000020746D61782020200A
:1049200020202020202020202023B0430000000051
:1049300020746D696E20202020202020202020203F
:104940002024B0430000000020D0E5EBE52020202B
:104950002020202020202020205B2020000000009C
:1049600020C7E2F3EA202020202020202020202041
:10497000205D20200000000020C4E8F1EFEBE5E915
:10498000202020202020202020282020000000009F
:1049900020534E4D502054524150202020202020A2
:1049A0002029202000000000202020D2C5CCCFC527
:1049B000D0C0D2D3D0DB204E212020200000000028
:1049C0002020C2CDC5D8CDC8C920C4C0D2D7C8CA3E
:1049D000202020200000000098C107202421AFF6ED
:1049E000645009F060FF00BF94F90200FA496FF0CB
:1049F000010231F810004FF05B0188B3AFF684502C
:104A000009F051FFF44994F90200891D6FF0010289
:104A100031F810004FF05D0170B3AFF6A05000BF49
:104A200009F041FFEC4894F902100C306FF00102DC
:104A300030F811004FF0280100B3AFF6C05000BFAE
:104A400009F031FFE44994F902001231B3E0E24980
:104A50000022123931F91000232109F021FC29E646
:104A600008E0DD490022891F31F91000242109F0F6
:104A700017FCB9E7D9A0C3E7D8A0D1E7D7A0DFE7F3
:104A8000D6A001F07ABBAFF60C60FAE7D5A0029091
:104A9000DAA00390DFA00490AFF254100590AFF2BB
:104AA00040100690AFF230100790AFF21C10CA4CC5
:104AB0000890DE48243C0990A94201DA217102E005
:104AC000022E00DD277194F90410D9A00BEB8102AE
:104AD000121D5BF821100CCA09F0B6FE01200AF085
:104AE000A5FC94F902000022401C80B2212109F0AB
:104AF000A0FDB94994F9020034394FF00002085C76
:104B00004FF04001FF2860D0CFA000BF09F0CBFEDE
:104B1000B14994F902001E314FF0000231F8100043
:104B20004FF02301F0B3C8A009F0BDFEAA4994F9E3
:104B300002000C3931F81010A9B36FF005022421DE
:104B4000AFF6C86009F0AFFEA34994F90200263120
:104B50006FF0010231F810004FF05B0120B3AFF6A7
:104B6000E46000BF09F09FFE9B4994F902002E31DA
:104B70006FF0010231F810004FF05D0190B3AFF615
:104B8000047000BF09F08FFE934894F9021036308C
:104B90006FF0010230F811004FF0280138B3AFF682
:104BA000247002E013E014E01DE009F07CFE8A4965
:104BB00094F902003E316FF0010231F810004FF01D
:104BC000290100287FF45FAF5AE7A1A09EE7A0A0CB
:104BD000AAE781490022891F31F91000242109F038
:104BE0005FFBB1E701E07DA0BCE77CA0CAE77BA04A
:104BF000D7E78E4B4AAC49330DCB0DC496A002903B
:104C00009BA00390A0A00490A5A00590AAA0069048
:104C1000AFA00790B4A00890B9A00990BEA00A90D8
:104C2000C3A00B90C8A00C90CDA00D90D2A00E9068
:104C3000D7A00F90DCA01090E1A01190E6A01290F8
:104C4000EBA01390F0A01490F5A01590FAA0624C80
:104C50001690FF48EC3C1790A08B28B9FC480390B5
:104C6000A0F6285004900590DFF86C81A942A8F1C5
:104C7000240802DA88F8041003E0022E01DD88F827
:104C8000047098F90450F3A00BEB8501D1E90123DE
:104C90005BF8251009F0D8FD01200AF0C7FBA08BB6
:104CA00020B16FF002022121F0A004E06FF00302B6
:104CB0002121AFF6D83009F0F6FDE08B20B16FF07E
:104CC00002024021E9A004E06FF003024021AFF6A8
:104CD000F43009F0E8FD98F801102320022946D0AD
:104CE0005FF00001CDE90001B4F92630B4F92420C9
:104CF000B4F92210B4F9200009F0F9FB98F801107A
:104D00002420042938D00021CDE90001B4F92E3047
:104D1000B4F92C20B4F92A10B4F9280009F0E7FB03
:104D200098F80110292006292BD00021CDE9000197
:104D3000B4F96230B4F96020B4F95E10B4F95C00E3
:104D400009F0D5FBB4F8580000225B2180B209F0CD
:104D500070FCB4F85A0000225D2180B209F069FCB1
:104D6000B4F930006FF00D05FF280FD017E098F868
:104D70000210491CC9B2B5E798F80210491CC9B223
:104D8000C2E798F80210491CC9B2CFE7618EFF292B
:104D900005D1A18EFF2902D1E18EFF2916D098F806
:104DA000012025210B2A12D05FF00002CDE900126C
:104DB000B4F93630B4F93420B4F9321009F097FB65
:104DC000B4F93800FF2803D068E143E252E157E12B
:104DD0005BE146E3D2E2000080C10720E2EAEB2E6D
:104DE0000000000020F2E5EAF3F92EF1EEF1F22ED8
:104DF00020402020202020200000000020E0E2E0D1
:104E0000F0E8E9EDEEE520F1EEF1F2EEFFEDE8E598
:104E1000000000002020202020202020202D202302
:104E2000202020202020202000000000E389010015
:104E30002020D1D3D5CEC920CACECDD2C0CAD2204F
:104E40004E21202000000000EDE5E7E0ECEA2E0016
:104E5000E7E0ECEAEDF3F2002045746865726E65F8
:104E6000742020202020202020202120000000006D
:104E70002044484350EAEBE8E5EDF22020202020D2
:104E80002020402000000000204950E0E4F0E5F13F
:104E90002020202020202020202020200000000092
:104EA00020203030302E3030302E3030302E303028
:104EB000232020200000000020CCE0F1EAE020EFD9
:104EC000EEE4F1E5F2E820202020202000000000A0
:104ED00020203030302E3030302E3030302E3030F8
:104EE000242020200000000020D8EBFEE720202016
:104EF0002020202020202020202020200000000032
:104F000020203030302E3030302E3030302E3030C7
:104F1000292020200000000020CFEEF0F22EF7F232
:104F2000E5EDE8FF202020202020205B000000008D
:104F300020CFEEF0F22EE7E0EFE8F1E8202020208D
:104F40002020205D0000000020436F6D6D756E69AC
:104F50007479203C20202020202020200000000008
:104F600020C0E4F0E5F1E0F220E4EBFF20545241F0
:104F700050204E310000000020203030302E3030E4
:104F8000302E3030302E3030252020200000000020
:104F900020C0E4F0E5F1E0F220E4EBFF20545241C0
:104FA00050204E320000000020203030302E3030B3
:104FB000302E3030302E30305E20202000000000B7
:104FC00020C0E4F0E5F1E0F220E4EBFF2054524190
:104FD00050204E330000000020203030302E303082
:104FE000302E3030302E30302620202000000000BF
:104FF00020C0E4F0E5F1E0F220E4EBFF2054524160
:1050000050204E340000000020203030302E303050
:10501000302E3030302E30302A202020000000008A
:1050200020C0E4F0E5F1E0F220E4EBFF205452412F
:1050300050204E350000000020203030302E30301F
:10504000302E3030302E303028202020000000005C
:10505000A420000020D3D1D2C0CDCEC2CAC82045E2
:10506000746865726E65742000000000C2CACB2EA1
:10507000000000002A462521FAA009F014FC9FE652
:1050800098F80220521CD2B290E6618FFF2905D118
:10509000A18FFF2902D1E18FFF2914D098F80110C8
:1050A0000D2916D05FF00001CDE90091B4F93E3032
:1050B000B4F93C20B4F93A1009F019FAB4F94000F7
:1050C000FF280BD016E02A465E21E6A009F0EBFB94
:1050D000F4E798F80210491CC9B2E5E7B4F84210A9
:1050E000FF2907D1B4F84410FF2903D1B4F84610C2
:1050F000FF2914D098F8012026210F2A15D000226C
:10510000CDE90012B4F94630B4F94420B4F94210A4
:1051100009F0EDF9B4F94800FF280BD016E02A4653
:105120002621D0A009F0BFFBF4E798F80220521C1A
:10513000D2B2E5E7B4F84A10FF2907D1B4F84C1011
:10514000FF2903D1B4F84E10FF2914D098F801209C
:105150002A21112A15D00022CDE90012B4F94E30CF
:10516000B4F94C20B4F94A1009F0C1F9B4F950006F
:10517000FF280BD016E02A462A21BAA009F093FB9B
:10518000F4E798F80220521CD2B2E5E7B4F85210C6
:10519000FF2907D1B4F85410FF2903D1B4F85610F1
:1051A000FF2928D098F801202821132A29D000228D
:1051B000CDE90012B4F95630B4F95420B4F95210C4
:1051C00009F095F9AC4A00204AA9135C0B54401C25
:1051D000C0B20928F9D300208DF8310198F80100F8
:1051E00098F802200A2811D000233C214AA809F08F
:1051F00061F901F063B92A4628219AA009F053FB0E
:10520000E0E798F80220521CD2B2D1E70123ECE784
:105210009AA002909FA00390A4A00490A9A005903A
:105220004846BEF11E0F03D14F9A0AB1AB4A059210
:10523000AB4A0692A94201DA017102E0022E00DDBA
:10524000077199F904000BEB8002121D5BF8201026
:105250000CCAA4A0B7E0A9A00290AEA00390B3A08E
:105260000490B8A00590BDA00690C2A00790C7A06A
:105270000890CCA00990D1A00A9099484C460B9078
:10528000A94201DA217102E0022E00DD277194F9B2
:105290000410D0A00BEB8102121D5BF821100CCA88
:1052A00009F0D2FA01200AF0C1F894F902000022B4
:1052B000401C80B2212109F0BCF994F90200CB4DC9
:1052C0006FF002024FF0400135F81000C00702D025
:1052D00083481F3801E082481A3809F0E4FA94F94B
:1052E00002006FF002024FF0230135F81000800732
:1052F00002D57B481F3801E079481A3809F0D3FA03
:1053000094F902006FF002024FF0240135F810000A
:10531000400702D572481F3801E071481A3809F079
:10532000C2FA94F902006FF002024FF0260135F83C
:105330001000000702D56A481F3801E068481A3893
:1053400009F0B1FA94F902006FF002024FF0250162
:1053500035F81000C00602D561481F3801E06048EA
:105360001A3809F0A0FA94F902006FF002024FF027
:105370005E0135F8100080067EF56AAE58481F3889
:10538000A4E39BA3A0A2A6A1ABA0F5E3B048029022
:10539000603803901830049018300590AD4806909E
:1053A0004F4807904846022E01DD077102E0A942EE
:1053B00000DA017199F90410A7A00BEB8102121D0C
:1053C0005BF821100CCA09F03FFA01200AF02EF810
:1053D0000FE7A7A00290ACA00390B1A00490B6A0E4
:1053E0000590B8F1000F1BD0B9A00690ACA00790B3
:1053F000BDA00890C2A00990A9A00A90C6A00B90D9
:10540000CBA00C90D0A00D90D5A00E903448A0F168
:105410001502CDE90F024E9B1192302B04D005E00E
:10542000D5A00690DAA0E2E7CDE90E02C846A1B108
:10543000012912D0022910D003290FD004290DD040
:1054400005290BD006290AD0072908D0082906D03B
:10545000022E05DD88F80470B2E1A5E1A6E1A7E11E
:10546000AAE1AFE320202020EDE5E0EAF2E8E2E562
:10547000ED20202020000000BE0D082020D0E5EB0C
:10548000E520B931202020202020202020202020AD
:105490000000000020D0E5EBE520B93220202020DC
:1054A00020202020202020200000000020D0E5EB3C
:1054B000E520B9332020202020202020202020207B
:1054C0000000000020C7E0E2EEE4F1EAE8E520F3A6
:1054D000F1F2E0EDEEE2EAE8000000007C130000EB
:1054E000E3890100202020C0C2C0D0C8C9CDDBC5DF
:1054F00020D0C5CBC52020200000000020C0E2E065
:10550000F0E8FF20F1E5F2E82020202020202040D4
:105510000000000020C0E2E0F0E8FF20E1E0F2E05F
:10552000F0E5E820202020230000000020C0E2E079
:10553000F0E8FF20C1CFD1202020202020202024EF
:105540000000000020C0E2E0F0E8FF20EFF0E5E41A
:10555000EE2D2020202020200000000020F5F0E08B
:10556000EDE8F2E5EBE5E9202020202020202026B0
:105570000000000020C0E2E0F0E8FF20F1F3F5E8D1
:10558000F5202020202020200000000020EAEEED61
:10559000F2E0EAF2EEE22020202020202020202548
:1055A0000000000020C0E2E0F0E8FF20E2EDE5F8B6
:1055B000EDE5E920202020200000000020F2E5ECAD
:1055C000EFE5F0E0F2F3F0FB202020202020205E29
:1055D00000000000202020D0C5CBC520C0C2C0D014
:1055E000C8C820B9212020200000000062C1072087
:1055F000202020EDE0E3F0F3E7EAE820342D31301D
:10560000C020202000000000202020D3F1F2E0ED97
:10561000EEE2E8F2E520F2EEEA20202000000000B1
:105620002020C1C0D2C0D0C5DF20CDC0C3D0D3C7D9
:10563000CAC0202000000000C2EAEBFEF7E8F2E555
:1056400020E0E2F22DF2FB20D1C5D2DC0000000008
:105650004C190000C03B00002020202020CAC0CBF5
:10566000C8C1D0CEC2CAC020202020200000000027
:105670002055E1E0F2203D202020202040C22020C3
:10568000202020200000000020EEF2EAE0EBE8E11C
:10569000F0F3E9F2E52055E1E0F2202000000000FF
:1056A0002020EDE0E6E0F2E8E5EC209A20E8EBE8E7
:1056B000209C2020000000002049E1E0F2203D2055
:1056C0002020202023C020202020202000000000B7
:1056D00020EEF2EAE0EBE8E1F0F3E9F2E52049E15F
:1056E000E0F22020000000002074E1E0F2203D20E4
:1056F00020202024B0432020202020200000000073
:1057000020EEF2EAE0EBE8E1F0F3E9F2E52074E103
:10571000E0F22020000000002055272B27FD31203B
:10572000202020202020205BC2202020000000001C
:105730002055272B27FD3220202020202020205DEF
:10574000C2202020000000002055272B27FD3320F9
:10575000202020202020207BC220202000000000CC
:105760002055272B27FD3420202020202020207D9D
:10577000C220202000000000202020EDE0E6ECE820
:10578000F2E520A420E4EBFF202020200000000010
:10579000EAE0EBE8E1F0EEE2EAE820EDF3EBFF20EF
:1057A00049E1E0F200000000002002E0032000E0F8
:1057B000062088F8040003E0A94201DA88F8041002
:1057C00098F904500BEB8501D1E901235BF8251012
:1057D000FDA009F039F8012009F028FE012240213E
:1057E000FF4EB6F8720080B208F023FF0222232198
:1057F000B6F9740008F0ECFC06F5997501222888CA
:105800005B2108F016FF688801225D2108F011FF76
:10581000A88801227B2108F00CFFE88801227D2165
:1058200008F007FF9AF82700554640B1287D30B1AF
:105830006FF004022421EBA009F035F805E0002206
:105840002421B6F9700008F02BFD98F80100032818
:1058500003D1A87F08B985F8334005F82F4F6C7045
:10586000C7E4E34855460290B8F1000F72D0E1A0BA
:105870000390AFF2D4100490DD4818380590E3A0EF
:105880000690AFF2E4100790D948D54A303078320C
:10589000089012F80E004E46E8B3E2484C9A099080
:1058A0000AB1E1A209920A90DE4815300B90153832
:1058B0000C900D9081B3012956D0022954D00329B0
:1058C00054D0042952D0052950D0062950D0072998
:1058D0004ED008294CD0092041B20BEB8102307127
:1058E000121D5BF821100CCAD5A008F0ADFF0120F5
:1058F00009F09CFD96F902000022401C80B2212193
:1059000008F097FEB64896F90210B030012230F840
:105910001100402101E022E026E008F08AFEB048B4
:1059200096F90210B430012230F81100232108F05A
:1059300080FEAB4896F90210AC30002230F811001E
:10594000242108F076FE96F9020098B101281FD0B4
:1059500026E0FFE7AFF2E0100390BFA08BE7C4A002
:105960000990AFF2C4209EE70020B5E70320B3E71B
:105970000620B1E7707808B9A87F20B185F83140DA
:1059800085F830400CE085F82F4085F8324007E07C
:10599000707808B9A87F68B185F8324085F82F4043
:1059A0008F494FF46170A1F87E008031088085F83E
:1059B00035401EE485F8304085F83140F0E7B2A06C
:1059C000029098481530039015380490022E02DD9D
:1059D00088F8047003E0A94201DA88F8041099F904
:1059E0000410AFA00BEB8102121D5BF821100CCA52
:1059F00008F02AFF012009F019FD00224021BAF821
:105A00004A00FCF719BAAFF298300290AFF2583062
:105A10000390AFF22C300490824815300590022E8E
:105A200002DD88F8047003E0A94201DA88F8041066
:105A300099F9041064A00BEB8102121D5BF8211090
:105A40000CCA08F001FF012009F0F0FC644C0122AF
:105A500070344021608880B208F0EBFD02222321DF
:105A6000B4F9040008F0B4FB002224212088C8E720
:105A70006C4C91A2153402924BF82340944BCCF815
:105A800004305A465746CCF80830012E02DD88F81B
:105A9000040003E0A94201DA88F8041099F904002F
:105AA00002EB80015BF820204B688AA18FA008F0F0
:105AB000CBFE022009F0BAFC49488E30007830B1A4
:105AC000387D20B16FF00402212146A055E38D48B6
:105AD00000222121B0F9000008F0E2FBA4E2552BDE
