:020000040000FA
:1000000080770010E1000000E5000000E70000003C
:10001000E9000000EB000000ED000000000000001F
:10002000000000000000000000000000EF000000E1
:10003000F100000000000000F30000000BEF0200E0
:10004000F7000000E91B03001D1C0300F70000007F
:10005000F70000003F4E0300F7000000F70000002B
:10006000F7000000F7000000F7000000F7000000B4
:10007000F7000000F7000000F7000000F7000000A4
:10008000F7000000F7000000F7000000F700000094
:10009000F7000000F7000000076E0000F700000006
:1000A000F7000000C94B0300F7000000F700000054
:1000B00069650300F7000000F7000000F70000008A
:1000C000F7000000F7000000F7000000DFF80CD098
:1000D00036F0FEFA004800477FF0020080770010FB
:1000E00005480047FEE7FEE7FEE7FEE7FEE7FEE71E
:1000F000FEE7FEE7FEE7FEE7CD000000FEE710B5F5
:1001000038F0B2F938F03EFA38F030FA38F0BEF98B
:10011000AFF30080BDE8104038F0FAB910B539F0FF
:100120000BF839F07BFE39F05FF8BDE8104039F08C
:10013000D7B938F01FBF38F0E7BC09B100207047CD
:1001400037F03CBA0020704730B54FF000003D4B0F
:10015000A3F1140202F10A04115C61B1255CA94209
:1001600009D1195C39B1A1F10101C9B2195411B910
:100170004FF000011154115C215400F10100C0B294
:100180000A28E9D330BD70B54FF000042D4EA6F11A
:10019000140604F10104E4B2355D1DB1854201D0BD
:1001A0000A2CF6D3305527480C3040F8241028305C
:1001B00040F824203438035570BD4FF00001214A27
:1001C000A2F1140201F10101C9B2535C834201D0D2
:1001D0000A29F7D3535C834212D11A480C3050F8E5
:1001E000213019480360174B343353F821304360F2
:1001F0004FF000005054134A50544FF00100704724
:10020000002070474FF000010E4AA2F1140201F1E4
:100210000101C9B2535C834201D00A29F7D3525C71
:1002200082420CD107480C3050F821200648026069
:10023000044A343252F821104160012070470020F6
:10024000704700005CED0720A80000100D4BDA603D
:100250001870597070470B4A1161907070470949C6
:10026000088170470749B1F90800002809D0A0F1BA
:10027000010000B20881002803D10146084601F0C0
:1002800096BB70470CC0072090F900308B4200DA13
:10029000027090F90030934200DD0170704790F9D0
:1002A00000308B4200DA017090F90010914200DDBD
:1002B00002707047B0F900308B4200DA0180B0F96B
:1002C0000010914200DD02807047B0F900308B428F
:1002D00000DA0280B0F90030934200DD01807047FF
:1002E0000146002000E0401C0A5C002AFBD1704758
:1002F000004870479CB6030070477047FFFFFFFF40
:10030000002802DAC0F1000000B270474FF0000090
:10031000FC4A4FF02001115400F10100C0B2C8287E
:10032000F9D3704701464FF00000F64A00F1010092
:10033000C0B2135C8B4201D0C828F7D3704710B508
:100340004FF00001F04C4FF00A020346B0FBF2F010
:1003500002FB1033635401F10101C9B20529F4D342
:1003600010BDF0B5E94D4FF0010129704FF00501C6
:10037000E54B4FF020064FF000072A7842B15A189B
:1003800012F8014C24B9814202D902F8016C07E04D
:1003900003EB010212F8014D04F1300414702F70C8
:1003A000A1F10101C9B20029E7D1F0BDFEB50346B4
:1003B0004FF02B07002B04DAC3F1000003B24FF01B
:1003C0002D074FF000004FF00A046D4693FBF4F642
:1003D00004FB16332B5433B200F1010040B20A285B
:1003E000F4DB4FF001034FF000044FF009004FF031
:1003F000200643B115F800C0BCF1000F03D19042B4
:1004000001DD2E5408E02B5C03F130032B544FF038
:10041000000304F10104E4B2A0F1010040B200289D
:10042000E7DA2D2F04D1204604F10104E4B22F5461
:100430008AB160B207E005EB000313F8013C2B54CE
:10044000A0F1010040B29042F5DC4FF02E00A8541C
:1004500004F10104E4B20846FFF764FF4FF0000125
:10046000A84A06E0A0EB01066B5C935501F101017F
:1004700049B2A142F6DBFEBDFEB503464FF02B07A5
:10048000002B03DAC3F100034FF02D074FF00000FB
:100490004FF00A046D461E4693FBF4F304FB13660B
:1004A0002E5400F1010040B20A28F4DB4FF00103A2
:1004B0004FF000044FF009004FF0200643B115F84B
:1004C00000C0BCF1000F03D1904201DD2E5408E0C2
:1004D0002B5C03F130032B544FF0000304F10104B3
:1004E000E4B2A0F1010040B20028E7DA2D2F04D1D8
:1004F000204604F10104E4B22F548AB160B207E04F
:1005000005EB000313F8013C2B54A0F1010040B2AD
:100510009042F5DC4FF02E00A85404F10104E4B23F
:100520000846FFF7FFFE4FF00001764A06E0A0EB19
:1005300001066B5C935501F1010149B2A142F6DB62
:10054000FEBD2DE9FE414FF02B0C002803DAC0F16F
:1005500000004FF02D0C4FF000044FF00A056F46DD
:10056000064690FBF5F005FB10663E5504F10104CC
:1005700064B20A2CF4DB4FF001054FF000044FF099
:1005800009004FF0200645B117F80080B8F1000FC0
:1005900003D1984201DD3E5408E03D5C05F1300591
:1005A0003D544FF0000504F10104E4B2A0F1010054
:1005B00040B20028E7DABCF12D0F05D1204604F146
:1005C0000104E4B207F800C08BB160B207E007EBAA
:1005D000000515F8015C3D54A0F1010040B29842BD
:1005E000F5DC4FF02E00F85404F10104E4B201EB05
:1005F000810002EB8000C1B24FF00000414A06E0EA
:10060000A1EB00053B5C535500F1010040B2A04254
:10061000F6DBBDE8FE8170B50D4616461C46FFF7B9
:100620008EFE601CC0B2FFF79CFE05EB850006EB5A
:100630008000C1B24FF00000334B324DA04201D2D6
:100640001A5C6A5407D31A5C202A04D064B105EB03
:10065000010606F8012CA1F10101C9B200F1010067
:10066000C0B20528EAD370BD6A54F4E730B5044639
:1006700008461546FFF756FEFF280CD0214A07E032
:1006800000EB050304F10104D15400F10100C0B2F4
:1006900021780029F4D130BD70B50D461446FFF71E
:1006A0004EFE601CC0B2FFF75CFE2846FFF73AFE24
:1006B0004FF00001144A134D24B9535C202B01D094
:1006C0002B5415E0A14202D2535C2B5410E008D108
:1006D0004FF02E032B5405EB0006535C06F8013C4B
:1006E00006E0535C202B03D005EB000606F8013C26
:1006F000A0F10100C0B201F10101C9B20529DBD3AB
:1007000070BD000050C20720ACC30720E0000010FD
:100710001044002801DA084403E0884201DBA0EB22
:100720000100C0B270472DE9FE4F04460D464FF45C
:10073000606031F07BFF62424021FFF7E9FF4FEA42
:10074000401000F58060044602A9204631F0F5FF14
:1007500001A904F1080031F0F0FF694604F10C0032
:1007600031F0EBFF2846FFF7DDFD83469DF80800DA
:10077000DFF8F0A5DFF8F0954FF040064FF03005B8
:100780004FF021074FF023084FF0200455282FD0B9
:10079000CF22D12150287DD042287CD053287BD035
:1007A00049287AD14FF0C8010BF10100C0B209F815
:1007B0000B104FF0ED0200F10101C9B209F8002061
:1007C0004FF0E20201F10100C0B209F801209DF8EA
:1007D000091009297DD201F1310100F10102D2B2E3
:1007E00009F8001002F10100C0B209F80240FEE36E
:1007F0009DF80A00522815D14FF0C2010BF10100FB
:10080000C0B209F80B104FF0EA0200F10101C9B2C1
:1008100009F800204FF0EB0201F1010000F0FF0B9E
:1008200009F801200BF10100C0B209F80B4000F1FA
:100830000101CAB209F8004002F10100C1B209F891
:10084000024001F10100C0B209F801409DF8041016
:10085000BAF83C2091424FD19DF805109AF8382003
:10086000914249D19DF806109AF82C20914243D12B
:1008700000F10101C9B209F8005001F10100C0B254
:1008800009F801704FF03A0200F10101C9B209F80C
:10089000002003E076E02CE1FEE32BE001F1010013
:1008A000C0B209F8015000F10101C9B209F80060B5
:1008B00001F10100C0B209F8012000F10101C9B243
:1008C00009F8005009F801809DF800004FF000027F
:1008D00000E0FEE34FF02101FFF7DEFE9DF801008E
:1008E00000224021FFF7D8FE9DF8020000222321BC
:1008F000FFF7D2FEBDE8FE8F00F10101C9B209F891
:10090000004001F10100C0B209F8015000F10101FD
:10091000C9B209F8007001F10100C0B209F8016024
:1009200000F10101C9B209F8004001F10100C0B2B3
:1009300009F8014000F10101C9B209F8005009F8B5
:1009400001809DF806004FF000024FF02101FFF7F3
:10095000A3FE9DF8040000222321FFF79DFE9DF8D1
:100960000500401E0C2803D34FF001008DF8050050
:100970009DF80510FD48002200EB81004021FFF7A3
:1009800075FEB7E70BF10100C0B209F80B2000F1CA
:100990000102D2B209F8001002F10100C0B209F858
:1009A000024000F10101C9B209F8004001F1010063
:1009B000C0B209F8014000F10101C9B209F80040D4
:1009C00001F10102D0B209F801409DF80410BAF813
:1009D0003C20914247D19DF805109AF83820914269
:1009E00041D19DF806109AF82C2091423BD100F19C
:1009F0000101C9B209F8005001F10100C0B209F8C3
:100A000001704FF03A0200F10101C9B209F800206B
:100A100001F10100C0B209F8015000F10101C9B2B1
:100A200009F8006001F10100C0B209F8012000F1ED
:100A30000101C9B209F8005009F801809DF80000D1
:100A40004FF000024FF02101FFF726FE9DF8010054
:100A500000224021FFF720FE9DF802000022232102
:100A6000FFF71AFE46E700F10101C9B209F800409C
:100A700001F10100C0B209F8015000F10101C9B251
:100A800009F8007001F10100C2B209F8016002F139
:100A90000100C0B209F8024000F10101C9B209F831
:100AA000004001F10100C0B209F8015009F80080CE
:100AB0009DF806004FF000024FF02101FFF7ECFD1A
:100AC0009DF8040000222321FFF7E6FD9DF80500B4
:100AD000401E0C2803D34FF001008DF805009DF84F
:100AE0000510A248002200EB81004021FFF7BEFD67
:100AF00000E79DF80A0043287DD14FF0C1010BF1BA
:100B00000100C0B209F80B104FF0E00200F1010142
:100B1000C9B209F800204FF0F20201F10100C0B2A1
:100B200009F801209DF80920092A13D202F13102A7
:100B300000F10101C9B209F800204FF0C00201F133
:100B40000100C0B209F8012000F10101C9B209F8A1
:100B5000004030E0A2F109015A291DD202F1010240
:100B60004FF00A0CB2FBFCF303F1300B00F1010172
:100B7000C9B209F800B00CFB132202F1300201F1F6
:100B80000100C0B209F801204FF0C00200F10101DC
:100B9000C9B209F800200EE000F10101C9B209F85C
:100BA000004001F10100C0B209F8014000F101016B
:100BB000C9B209F8004001F10100C0B209F80140D2
:100BC0009DF80410BAF83C2091424DD19DF80510D3
:100BD0009AF83820914247D19DF806109AF82C20B7
:100BE000914241D100F10101C9B209F8005001F16F
:100BF0000100C0B200E080E009F801704FF03A0255
:100C000000F10101C9B209F8002001F10100C0B2F0
:100C100009F8015000F10101C9B209F8006001F1C1
:100C20000100C0B209F8012000F10101C9B209F8C0
:100C3000005001F1010000F0FF0B09F801809DF860
:100C400000004FF000024FF02101FFF725FD9DF855
:100C5000010000224021FFF71FFD9DF80200002245
:100C60002321FFF719FD48E000F10101C9B209F89D
:100C7000004001F10100C0B209F8015000F101018A
:100C8000C9B209F8007001F10100C0B209F80160B1
:100C900000F10101C9B209F8004001F10100C0B240
:100CA00009F8014000F10101C9B209F8005001F151
:100CB000010000F0FF0B09F801809DF806004FF0DD
:100CC00000024FF02101FFF7E7FC9DF8040000222D
:100CD0002321FFF7E1FC9DF80500401E0C2803D3FB
:100CE0004FF001008DF805009DF805101F48002207
:100CF00000EB81004021FFF7B9FC9DF80A00532862
:100D00007ED14FF0C1010BF10100C0B209F80B1008
:100D10004FF0E00200F10101C9B209F800204FF0E4
:100D2000F20201F10100C0B209F801209DF809109A
:100D30004FF0430309291BD201F1310100F10102F7
:100D4000D2B209F800104FF0C00002F1010101F029
:100D5000FF0C09F802000CF10100C1B209F80C30D7
:100D60002AE000000040024050C2072098AD030076
:100D700009395A2911D24FF0C00200F10101C9B25C
:100D800009F8002001F10100C0B209F8013000F1BA
:100D90000101C9B209F800400EE000F10101C9B239
:100DA00009F8004001F10100C0B209F8014000F16A
:100DB0000101C9B209F8004001F10100C0B209F80F
:100DC00001409DF80410BAF83C2091424DD19DF8A5
:100DD00005109AF83820914247D19DF806109AF8EC
:100DE0002C20914241D100F10101C9B209F8005013
:100DF00001F10100C0B209F801704FF03A0200E0C1
:100E00007CE000F10101C9B209F8002001F1010004
:100E1000C0B209F8015000F10101C9B209F800603F
:100E200001F10100C0B209F8012000F10101C9B2CD
:100E300009F8005001F1010000F0FF0B09F80180F2
:100E40009DF800004FF000024FF02101FFF724FC55
:100E50009DF8010000224021FFF71EFC9DF80200D2
:100E600000222321FFF718FC48E000F10101C9B27C
:100E700009F8004001F10100C0B209F8015000F189
:100E80000101C9B209F8007001F10100C2B209F80C
:100E9000016002F10100C0B209F8024000F1010155
:100EA000C9B209F8004001F10100C0B209F80150CF
:100EB00000F1010101F0FF0B09F800809DF8060028
:100EC0004FF000024FF02101FFF7E6FB9DF8040010
:100ED00000222321FFF7E0FB9DF80500401E0C28AF
:100EE00003D34FF001008DF805009DF80510FF4871
:100EF000002200EB81004021FFF7B8FB9DF80A00BB
:100F00005A2875D14FF0C2000BF10101C9B209F89E
:100F10000B004FF0C70201F10100C0B209F8012037
:100F200000F10101C9B209F8004001F10100C0B2AD
:100F300009F8014000F10101C9B209F8004001F1CE
:100F40000100C2B209F8014002F10100C0B209F883
:100F500002409DF80410BAF83C2091424ED19DF811
:100F600005109AF83820914248D19DF806109AF859
:100F70002C20914242D100F10101C9B209F8005080
:100F800001F10100C0B209F801704FF03A0300F11D
:100F90000101CAB209F8003002F10100C1B209F83A
:100FA000025001F10100C0B209F8016000F1010135
:100FB000C9B209F8003001F10100C0B209F80150CE
:100FC00000F1010101F0FF0B09F800809DF800001D
:100FD0004FF000024FF02101FFF75EFB9DF801008A
:100FE00000224021FFF758FB9DF8020001E056E384
:100FF0004DE000222321FFF74FFB48E000F1010103
:10100000C9B209F8004001F10100C0B209F801506D
:1010100000F10101C9B209F8007001F10100C0B28C
:1010200009F8016000F10101C9B209F8004001F1BD
:101030000100C0B209F8014000F10101C9B209F88C
:10104000005001F1010000F0FF0B09F801809DF84C
:1010500006004FF000024FF02101FFF71DFB9DF845
:10106000040000222321FFF717FB9DF80500401E16
:101070000C2803D34FF001008DF805009DF80510F2
:101080009A48002200EB81004021FFF7EFFA9DF81B
:101090000A0057287ED100E002E24FF0C1010BF1B7
:1010A0000100C0B209F80B104FF0E00200F101019D
:1010B000C9B209F800204FF0F20001F10102D3B2E9
:1010C00009F801009DF809104FF0F00E092913D21C
:1010D00000E0CAE201F1310103F10100C0B209F8F8
:1010E000031000F10101C9B209F800E001F10100AB
:1010F000C2B209F801402EE0A1F109005A281BD222
:1011000001F101014FF00A0BB1FBFBF202F1300CCF
:1011100003F10100C0B209F803C00BFB121202F187
:10112000300200F10101C9B209F8002001F101000B
:10113000C2B209F801E00EE003F10100C0B209F803
:10114000034000F10101C9B209F8004001F10100BA
:10115000C2B209F8014002F10100C0B209F8024030
:101160009DF80410BAF83C2091424DD19DF805102D
:101170009AF83820914247D19DF806109AF82C2011
:10118000914241D100F10101C9B209F8005001F1C9
:10119000010000E081E0C0B209F801704FF03A02AE
:1011A00000F10101C9B209F8002001F10100C0B24B
:1011B00009F8015000F10101C9B209F8006001F11C
:1011C0000100C0B209F8012000F10101C9B209F81B
:1011D000005001F1010000F0FF0B09F801809DF8BB
:1011E00000004FF000024FF02101FFF755FA9DF883
:1011F000010000224021FFF74FFA9DF80200002273
:101200002321FFF749FA48E000F10101C9B209F8CA
:10121000004001F10100C2B209F8015002F10100E1
:10122000C0B209F8027000F10101C9B209F800600A
:1012300001F10100C0B209F8014000F10101C9B299
:1012400009F8004001F10100C0B209F8015000F1B5
:10125000010101F0FF0B09F800809DF806004FF036
:1012600000024FF02101FFF717FA9DF80400002259
:101270002321FFF711FA9DF80500401E0C2803D327
:101280004FF001008DF805009DF805101748002269
:1012900000EB81004021FFF7E9F99DF80A004B2897
:1012A0007FF426AC4FF0C1010BF10100C0B209F888
:1012B0000B1003464FF0E00C00F10100C1B209F839
:1012C00003C04FF0F20301F10102D0B209F801307E
:1012D0009DF80910092918D201F1310100F101022C
:1012E000D2B209F800104FF0EA0101E098AD030016
:1012F00002F10100C0B209F802104FF0E50200F15E
:101300000101C9B209F8002030E0A1F109025A2A0E
:101310001DD201F101014FF00A0BB1FBFBF303F108
:10132000300C00F10102D2B209F800C00BFB13111E
:1013300001F1300102F10100C0B209F802104FF0D2
:10134000EA0200F10101C9B209F800200EE000F143
:101350000101C9B209F8004001F10100C0B209F869
:10136000014000F10101C9B209F8004001F101009A
:10137000C0B209F801409DF80410BAF83C2091422F
:1013800048D19DF805109AF83820914242D19DF835
:1013900006109AF82C2091423CD100F10101C9B20B
:1013A00009F8005001F10100C0B209F801704FF0D6
:1013B0003A0200F10101C9B209F8002001F101006F
:1013C000C0B209F8015000F10101C9B209F800608A
:1013D00001F10100C0B209F8012000F10101C9B218
:1013E00009F8005009F801809DF800004FF0000254
:1013F0004FF02101FFF750F99DF801000022402134
:10140000FFF74AF99DF8020000222321FFF744F973
:10141000BDE8FE8F00F10101C9B209F8004001F1F9
:101420000100C0B209F8015000F10101C9B209F888
:10143000007001F10100C0B209F8016000F1010182
:10144000C9B209F8004001F10100C0B209F8014039
:1014500000F10101C9B209F8005009F801809DF8B6
:1014600006004FF000024FF02101FFF715F99DF83B
:10147000040000222321FFF70FF99DF80500401E0C
:101480000C2803D34FF001008DF805009DF80510DE
:10149000FF48002200EB81004021FFF7E7F8B7E7A3
:1014A0004FF0C1030BF10100C0B209F80B3000F19D
:1014B0000103DBB209F8002003F10100C0B209F812
:1014C00003109DF80920092A0CD202F1310200F123
:1014D0000101C9B209F8002001F10100C0B209F808
:1014E000014024E0A2F109015A2916D202F10102B9
:1014F0004FF00A0BB2FBFBF303F1300C00F10101DA
:10150000C9B209F800C00BFB132202F1300201F14D
:101510000100C0B209F8012009E000F10101C9B2DF
:1015200009F8004001F10100C0B209F8014000F1E2
:101530000101C9B209F8004001F10100C0B209F887
:1015400001409DF80410BAF83C20914247D19DF823
:1015500005109AF83820914241D19DF806109AF86A
:101560002C2091423BD100F10101C9B209F8005091
:1015700001F10100C0B209F801704FF03A0200F128
:101580000101C9B209F8002001F10100C0B209F857
:10159000015000F10101C9B209F8006001F1010038
:1015A000C0B209F8012000F10101C9B209F80050E8
:1015B00009F801809DF800004FF000024FF0210172
:1015C000FFF76AF89DF8010000224021FFF764F858
:1015D0009DF8020000222321FFF75EF818E700F1D2
:1015E0000101C9B209F8004001F10100C0B209F8D7
:1015F000015000F10101C9B209F8007001F10100C8
:10160000C0B209F8016000F10101C9B209F8004057
:1016100001F10100C0B209F8014000F10101C9B2B5
:1016200009F8005009F801809DF806004FF000020B
:101630004FF02101FFF730F89DF80400002223212C
:10164000FFF72AF89DF80500401E0C2803D34FF041
:1016500001008DF805009DF805108D48002200EB73
:1016600081004021FFF702F8D2E6A1F109025A2ACF
:1016700016D201F101014FF00A06B1FBF6F303F1B6
:10168000300500F10102D2B209F8005006FB131137
:1016900001F1300102F10100C0B209F8021009E0C5
:1016A00000F10101C9B209F8004001F10100C0B226
:1016B00009F8014009F80040AAE6F0B504460846DA
:1016C00016461F46FEF72EFE02461046714DFF28B5
:1016D00006D108E0295404F1010400F10100C0B270
:1016E00021780029F6D16C480078002806D0002F18
:1016F00004D002EB06014FF05F006854F0BD2DE905
:10170000F04F0746DDE90905884691469A46FEF7FF
:1017100009FE614B20215F4C0A224FF0640C012D21
:1017200009D11E783EB104EB0006A6F10E06B17099
:101730007170317017E097FBF2FB02FB1B7E04EB2C
:1017400000060EF1300E06F80CEC9BFBF2FE02FBDD
:101750001EBB0BF1300B06F80DBC97FBFCF707F135
:10176000300706F80E7C022D09D11E783EB104EB3D
:101770000006A6F10A06B1707170317017E098FB8F
:10178000F2F702FB178B04EB0006A6F10A060BF139
:10179000300B86F802B097FBF2FB02FB1B7707F1D8
:1017A0003007777098FBFCF707F130073770032D8F
:1017B00009D11E783EB104EB0006A6F10606B17011
:1017C0007170317017E099FBF2F702FB179804EB88
:1017D0000006A6F1060608F1300886F8028097FB9D
:1017E000F2F802FB187707F13007777099FBFCF7E6
:1017F00007F130073770042D09D11B783BB1215414
:101800002044A0F1020041700170BDE8F08F9AFB06
:10181000F2F102FB11A303F13003235491FBF2F325
:1018200002FB13112044A0F1020001F130014170CC
:101830009AFBFCF101F130010170E6E717B501EB0D
:10184000810002EB8000C2B29DF80030134803F023
:101850000F01445C0F498C54A2F10102D2B200EB9B
:1018600013131B788B54A2F10102D2B29DF8013000
:1018700003F00F04045D8C54A2F10102D2B200EB1C
:1018800013131B788B54A2F10102D2B208E00000BE
:1018900098AD030050C207205CC0072016AE0300BD
:1018A0009DF8023003F00F04045D8C54A2F1010294
:1018B000D2B200EB13131B788B54A2F10102D3B206
:1018C0009DF8032002F00F04045DCC54A3F1010342
:1018D000DBB200EB12100078C8541EBD10B501EB4E
:1018E000810102EB8101C9B2B34A00F00F03D45C5D
:1018F000B24B5C54A1F10101C9B202EB10100078A7
:10190000585410BD30B5AE490124AC4B91F90120BB
:1019100091F904108A4204D100EB800003F82040C2
:1019200030BD4D1CAA4206D100F1010000EB800041
:1019300003F8204030BD8D1CAA4206D100F1020000
:1019400000EB800003F8204030BDCD1CAA4206D138
:1019500000F1030000EB800003F8204030BD0D1DB6
:10196000AA4206D100F1040000EB800003F82040F9
:1019700030BD4D1DAA4206D100F1050000EB8000EC
:1019800003F8204030BD8D1DAA4206D100F10600AB
:1019900000EB800003F8204030BDC91D8A42FBD116
:1019A00000F1070000EB800003F8204030BD854BBC
:1019B0001A88A2F10102104400B21880824A00EB9A
:1019C000800002447E4813680360127902714278F5
:1019D00011444170704770B57A4DB5F9004004F17B
:1019E00001062E80784D04EB84042544744C26684F
:1019F0002E6026792E71207061702271A37070BDE7
:101A00002DE9F04180460F461646FEF77FFC6B4CF1
:101A10004FF0000518F8010B04F8010B05F1010562
:101A2000EDB2142DF6D34FF0000017F8011B04F8A7
:101A3000011B00F10100C0B21428F6D34FF00000E2
:101A400016F8011B04F8011B00F10100C0B21428B4
:101A5000F6D34FF0000013F8011B04F8011B00F14E
:101A60000100C0B21428F6D3BDE8F08110B5029C85
:101A7000FFF7C6FF5248C378827841789320FFF77A
:101A8000AAFF642094FBF0F0BDE81040C0B2FEF75E
:101A9000E6BB2DE9FE430D464FEA401000F580609D
:101AA000044602A9204630F048FE01A904F10800CE
:101AB00030F043FE694604F10C0030F03EFE28464B
:101AC000FEF730FC3D4C4FF0200600F10101C9B299
:101AD00026544FF0300701F10100C0B267544FF0B7
:101AE000210800F10101C9B204F800804FF040095B
:101AF00001F10100C0B204F8019000F10101C9B286
:101B0000265401F10100C0B2665400F10101C9B2CE
:101B100027544FF0230201F10100C5B262549DF831
:101B200006004FF000024FF02101FEF7B5FD9DF8D1
:101B3000040000222321FEF7AFFD9DF80500401EA2
:101B40000C2803D34FF001008DF805009DF8050027
:101B50001E49002201EB80004021FEF787FD05F1C0
:101B60000100C0B2665500F10101C9B2275401F16C
:101B70000100C0B204F801804FF03A0200F1010107
:101B8000C9B2225401F10100C0B2675400F1010151
:101B9000CDB204F800909DF800004FF000024FF025
:101BA0002101FEF779FD9DF8010000224021FEF79A
:101BB00073FD6655BDE8FE8316AE030050C20720D4
:101BC000D0C1072080C007206864001098AD0300D2
:101BD0002DE9FC410446FE4E4FF00007F775F07CFE
:101BE0004FF00103022808D0FA49095D552906D0B3
:101BF0004FF06500F075BDE8FC81F375FBE704EB81
:101C0000440101EB0412F44901EB820595F83D1003
:101C1000CA0703D04FF06600F075ECE795F83F2057
:101C2000920703D54FF06700F075E4E7890703D505
:101C30004FF06800F075DEE7E84AB5F90810B2F930
:101C40000020914203DD4FF06900F075D3E7524266
:101C5000914203DA4FF06A00F075CCE7DC490128C5
:101C6000097D00D111B1012804D005E04FF06B00CF
:101C7000F075C0E701297ED04FF06400F075F37471
:101C8000A6F8523019464FF4F87030F0CDFD347597
:101C9000A6F8544021464FF4FA7030F0C5FDAF610C
:101CA000CF48002130F9140030F0BEFD7775A6F85A
:101CB000567039464FF4FB7030F0B6FDC9480088C5
:101CC00000F1010000F0070005EB4000008C0190DE
:101CD000C54DA88B00904FF063024FF0010168469C
:101CE000FEF7DDFABA4C9DF8000098342070287E8B
:101CF00000900C2201216846FEF7D1FA9DF8000001
:101D00006070287B00901F2201216846FEF7C7FA09
:101D10009DF80000A0709DF80400E0704FF4FC7086
:101D2000216830F0BCFD287A009017220021684617
:101D3000FEF7B5FA9DF800002071287900903B224B
:101D400000216846FEF7ABFA9DF800006071287824
:101D500000903B2200216846FEF7A1FA9DF80000A2
:101D6000A0719DF80500E0714FF4FE70616830F0DD
:101D700096FD40E7FFE74FF06C00F0753BE72DE97B
:101D8000F047934CE07C01287DD121460126097D56
:101D9000607DC1F1010206FA02F1914F8E4D0AB247
:101DA00010B1012834D038E01423CA21C820FEF72E
:101DB000EAF914234FF0FF32CE21CD20FEF7E3F9EC
:101DC000207D00EB400101EB001005EB8000B0F935
:101DD0000800FEF795FA217D01EB410202EB0112AA
:101DE00005EB820293691844906148F6A04398423B
:101DF00013DBA0EB0300906137F8110030F016FC04
:101E0000401C01B2207D37F9100030F00DFD04E0D8
:101E10001423CA21C820FEF7B6F9217D4FF4F879C2
:101E200001EB410000EB011005EB80004FF00008D2
:101E3000B0F902206D48B0F9000000EB8000B2EB71
:101E4000400F47DAB4F84E0000F1010000B2A4F8E8
:101E50004E001E2840DBE07C012822D1607D00BBC3
:101E600037F8110030F0E2FB01B26148227D30F911
:101E7000120030F0D9FC207D37F8100030F0D6FB8E
:101E800081B2207D00E049E004F088FD5948217DC1
:101E900030F91100002130F0C7FC4FF032002083F0
:101EA0006083207D4B49C0F10100085C552808D0B3
:101EB00084F81380A4F852800021484630F0B4FC26
:101EC0000AE06675A4F8566001214FF4FB7030F00B
:101ED000ABFC01E0A4F84E80217D01EB410000EB5A
:101EE000011005EB8000B0F90220C1F1010000EB08
:101EF000400101EB001005EB8000B0F902008242C6
:101F00000CDB607D012809D184F81380A4F852808D
:101F10004846BDE8F047002130F086BCBDE8F087B8
:101F200070B505464FF00006294CE07C18BB04F163
:101F300012044FF002016170A4F840104FF4F870E1
:101F400030F072FC2587C5EB05104FEA80010D4685
:101F5000E1874FF4F97030F067FC29464FF4FF70C9
:101F600030F062FC30466087A0864FF001064FF0EB
:101F7000010004F0DCFD304670BD10B5144CE07C6F
:101F8000022813D104F11204208F04F0D0FD4FF089
:101F90000000A086208760876070A4F8400001469A
:101FA000BDE810404FF4F87030F03EBC10BD70B585
:101FB0000D4C203C94F838000F4D297808440C282B
:101FC0001CD9A08F401C01B2B82030F02DFC1AE0C3
:101FD00008000010F6C00720B8ED0720A2C00720B7
:101FE0000CA703005CC10720204002409CC00720D2
:101FF00028A7030008A7030065C00720B4F93C1018
:10200000B82030F011FC94F83810287801440C29DD
:1020100007D994F838100C380144B62030F004FC8D
:1020200005E094F838100144B62030F0FDFB94F838
:102030002C001C2804D91C21B42030F0F5FB04E04E
:1020400094F82C10B42030F0EFFB04F12004217A36
:102050004FF0AE0030F0E8FB2179B02030F0E4FB27
:102060002178BDE87040B22030F0DEBB10B5FF48EB
:10207000FF4C007830B3FF48828FFF4909888A42BD
:1020800020D190F83820FD4909888A421AD190F869
:102090002C10FB4A1288914214D190F82810F94A6A
:1020A000128891420ED190F82410F74A128891427A
:1020B00008D190F82000F5490988884202D14FF0F4
:1020C0000100A075A07D00280CD0F1480088C0B2A6
:1020D000FFF726FF002805D04FF00000A075BDE8EF
:1020E000104064E710BD70B5E14CE07C022844D19B
:1020F000B4F848004FF461610025884215D200F120
:10210000010080B2A4F8480088420ED3A4F84850D9
:10211000B4F84A0048B1A0F1010024F84A0F6088E1
:1021200000F101006080A4F14A04B4F846003C28A4
:1021300023D200F1010080B2A4F846003C281CD351
:1021400024F8465F6089A0F1010001B261814FF47B
:10215000F97030F069FB6089A4F1460400280CD1C5
:10216000E574A4F8525001464FF4F87030F05CFB6F
:10217000BDE87040002004F0DABC70BDC5486FF0C7
:102180003B010088C0EB001001EB8000B849488794
:1021900070472DE9F05FDFF8D882DFF8FCA2002558
:1021A000B8F83A00BD4E401C01B2BA48A8F83A103F
:1021B000DFF8EC92B0F900000A27C0EB00124FF0F4
:1021C000010B08F14004B1EB820F61DBF0B3A8F81A
:1021D0003A502570657088F80D50B248007855283F
:1021E00011D1B6F9020050280DDDB6F90800FEF74E
:1021F00087F8B9F90010884203DB96F83D00C00764
:1022000001D084F800B0A7484078552811D1B6F91C
:102210004E0050280DDDB6F95400FEF771F8B9F9FB
:102220000010884203DB96F88900C00701D084F8CB
:1022300001B09D48007880B9BAF90000FEF760F857
:10224000B9F90010884206DB984800E020E090F8D9
:102250003D00C00701D088F80DB09548007838B926
:1022600098F80E0020B198F8130028B1022803D086
:102270002570657088F80D50207801281FD060788F
:1022800001281CD098F80D00012818D0A8F83C505F
:102290004146B8F93C00DFF8D881002808F15C0815
:1022A0007ED0A0F1010000B28B468887052809DDA9
:1022B0000F231E226421E120FDF765FF0AE0A8F844
:1022C0003C70E5E7002805DD0F231E226921E1208F
:1022D000FDF759FFBBF83C00052811D1B6F90800FD
:1022E000FEF70EF8A8F80000B6F95400FEF708F85B
:1022F000A8F80200BAF90000FEF702F8ABF81E00D9
:102300005B48808F002854D1B6F90800FDF7F8FF2C
:10231000DFF85CB10BF1600BABF80000B6F95400CC
:10232000FDF7EEFFABF80200BAF90000FDF7E8FF99
:10233000DFF83CA1AAF82000AAF83E50B8F9000046
:10234000BBF900100844B9F90010884202DA20787D
:10235000012830D0B6F90200C82804DD257000211C
:10236000084604F070F8B8F90200BBF902100844FE
:10237000B9F90010884202DA607801281ED0B6F957
:102380004E00C82804DD65700021012004F05BF8D0
:10239000BAF91E00BAF920100844B9F9001000E09B
:1023A0000FE0884205DA9AF80D00012801D1AAF859
:1023B0003E70BDE8F09FAAF83E70D4E7AAF83E70E0
:1023C000E6E7B1F93E00F0B3A0F1010000B20F461C
:1023D000C887052806DD0F23C8226421E120FDF708
:1023E000D2FE07E0002805DD0F23C8226921E12085
:1023F000FDF7C9FEF88F052810D1B6F90800FDF7E2
:102400007FFFA8F80000B6F95400FDF779FFA8F89F
:102410000200BAF90000FDF773FFF8831448C08F7B
:102420000028C6D1B6F90800FDF76AFF104F6037E3
:102430003880B6F95400FDF763FF7880BAF90000E0
:10244000FDF75EFF00E06BE0DFF824A0AAF82000B3
:102450008AF80C50B8F90000B7F900100844B9F92F
:102460000010884227DA2078012823E065C0072081
:10247000080000100040024004C1072002C10720EC
:1024800000C10720FAC00720FCC00720FEC00720BB
:1024900006C10720B2C007205EC10720B8ED0720A3
:1024A000A2C00720F6C0072043C0072050EE072037
:1024B0006BC007202ED0B6F90200C82804DD2570B5
:1024C0000021084603F0BFFFB8F90200B7F9021077
:1024D0000844B9F90010884202DA607801281CD05B
:1024E000B6F94E00C82804DD65700021012003F014
:1024F000AAFFBAF91E00BAF920100844B9F9001071
:102500008842BFF656AF9AF80D00012889D18AF8A3
:102510000CB04EE78AF80CB0D6E78AF80CB0E8E7C2
:10252000087B88460028F4D00F2300226E21E1208A
:10253000FDF729FEB6F90800FDF7E2FEB9F9001033
:10254000884207DD2078012804D125700021084643
:1025500003F079FFB6F95400FDF7D2FEB9F9001087
:10256000884206DD6078012803D16570002103F000
:102570006AFFBAF90000FDF7C3FEB9F900108842FE
:1025800008DD98F80D00012804D188F80D500020CE
:1025900003F016FE207830B9607820B998F80D0065
:1025A00008B988F80C50E620FDF707FE18B1FF487F
:1025B0000068E7280AD0FE48FE49B0F90000B1F9EA
:1025C000001000EB8000B1EB400FA2DA88F80C504D
:1025D0002078F94D01280FD1B9F90000B5F90010A4
:1025E000400090FBF7F0884206DA96F83D00C007FD
:1025F00002D1012103F027FF6078012810D1B9F939
:102600000000B5F90010400090FBF7F0884207DAAF
:1026100096F88900C00703D10121084603F013FF93
:1026200098F80D0001287FF474AFB9F90000B5F9EE
:102630000010400090FBF7F08842C6DADF4890F8BF
:102640003D00C007EFD1BDE8F05F012003F0B8BD49
:1026500070B5DB4C208F401C00B22087B0F5E16FD5
:1026600002DB4FF000002087B4F93800B0F5DF6FCF
:1026700011D90F2301226421D220FDF784FD0F23FD
:102680000022D821D720FDF77EFD0F230022D8217C
:10269000DC20FDF778FDB4F93800A0F5E0610739DA
:1026A00018D1C84EC84CC94D30882188884205D001
:1026B000B4F90010B5F9000030F0B6F87088618800
:1026C000884207D0B4F90210B5F90200BDE87040A5
:1026D00030F0AAB870BD10B5BD4C208800F10100E3
:1026E00020804FF008024FF000012046FDF7EDFD7D
:1026F000B849B4F9000001EB40004A880284B1F8FF
:102700004E10A0F86C1010BD70B5B34DB348B44A6C
:10271000B5F90010B0F9003092F9000099421FDAC3
:10272000B04C0A280FDAB04BB3F900300F2B0ADD9A
:1027300000F1010040B210700A2809DB218001205D
:1027400003F09DF804E00A2802DB4FF00A00107045
:10275000B5F90000B4F90010884200DA208070BD9D
:10276000FDDD0028FBD0A0F1010040B21070002870
:10277000F5DCBDE87040002003F081B82DE9FF5F73
:102780009A489B4B9C4A90F89C0303909B49B3F951
:1027900000B0984CB2F900A0B1F90010984B994DD7
:1027A000DFF8649241F2707845F2116645F2FA570B
:1027B0000291072836D08249DFF850C2DFF838A2EC
:1027C0008A8C8B49BAF900A0C346B1F90010B9F858
:1027D00000004A43BCF90610BCF914C001FB0AF121
:1027E000DFF818A291FBFBF1BAF900A009B20CFBCB
:1027F0000AFC9CFBFBFC0FFA8CFCB04256D192FB0E
:10280000F8F000B220801980A5F800C0724A10804C
:10281000814200DA1180B2F9000084457FDAA2F823
:1028200000C07CE07A48DFF898C1017842780CF16A
:10283000840C01EB02218AB2ACF80020019281786D
:10284000C27801EB02218AB2ACF80220017990F83B
:1028500005E001EB0E2189B2ACF8041001FB0BF18D
:1028600091FBF8F10FFA81FCA4F800C002FB0AF218
:1028700092FBF8F109B21980019A029B02FB03F264
:1028800092FBF8F212B22A808379C07903EB002020
:10289000604B18805048A0F800C0614500DA018004
:1028A000B0F900108A423ADA028038E0A0F5AC4A6A
:1028B000BAF12F0A05D01AF1280A02D0BAF1140A87
:1028C00014D149F6404092FBF0F000B2208019800C
:1028D000A5F800C0404A1080814200DA1180B2F9A8
:1028E000000084451BDAA2F800C018E04A49B1F99B
:1028F00000203349898C5143B84203D0A0F5AA4245
:10290000FB3A06D148F6B80091FBF0F03249088056
:1029100005E04FF4FA7091FBF0F02F49088003981E
:10292000072803D03D483B4900880880DFF8DCA039
:10293000BAF900203A49B1F9000050434FF4FA6562
:1029400090FBF5F0234C6080BAF90830354AB2F9B3
:10295000000000FB03F04FF42F7390FBF3F0A08016
:10296000BAF91800B1F9021001FB00F191FBF5F082
:10297000A4F84E00BAF90210B2F9020000FB01F00F
:1029800090FBF3F0A4F850004FF0DC00FDF73AFCA8
:1029900045F2136140B90C4800880A4A1288A0EB3E
:1029A0000200DFF884C041E083E00000A8000010CE
:1029B0009CC0072060C1072062C1072050EE07209D
:1029C00008000010B8000010CA22001034A703004D
:1029D0005CC10720B8ED072066C107209EC0072014
:1029E000B4C30720B2C307207EC0072090EF0720A2
:1029F00090C3072068C10720C800001092C30720B9
:102A00006AC107206CC10720F8C0072008ED072025
:102A100032F3072074C1072088C307206EC1072046
:102A2000B400001080C3072084C30720BCF9002035
:102A300002FB00F2B9F8000045F6386B4FF4967EC1
:102A4000584503D0A0F5BC43923B02D192FBFEF265
:102A50000CE0B84203D0884201D0B04202D192FBD0
:102A6000F5F203E04FF47A7392FBF3F22281FF4A0E
:102A70005288FF4B5B88A2EB0302BCF9023003FBD8
:102A800002F3584503D0A0F5BC42923A02D193FB21
:102A9000FEF00CE0B84203D0884201D0B04202D12F
:102AA00093FBF5F003E04FF47A7093FBF0F0A4F899
:102AB0005400BAF90C3040F6B73EA3F2213B002295
:102AC0004FF0010CF34501D2227301E084F80CC0F1
:102AD000E848B0F90000584344F6206A90FBFAF049
:102AE000A0F211106081E44840F6B73EB0F90E0044
:102AF000A0F2213AF24502D284F8582001E084F88D
:102B000058C0DFF874A3DFF86CE3BEF902E00EFBF7
:102B100000FE44F620609EFBF0F0A0F21110D74CAE
:102B2000A4F85600BAF90440D548B0F9000004FBF7
:102B300000F44FF4FA6094FBF0F0D24D2880B9F81D
:102B40000000A0F5AA47FA3F04D14FF4C87794FBE0
:102B5000F7F403E04FF4FA7794FBF7F427B22F80F1
:102B6000BAF90A9040F6B73AA9F22135C64C554554
:102B700001D2226001E0C4F800C0C44DB5F9005094
:102B800005FB09F944F6206E99FBFEF9A9F211192B
:102B9000DFF8FCE2AEF80090D34501D2226001E0FC
:102BA000C4F800C05D4344F6206395FBF3F3A3F241
:102BB0001113B74D2B80B74BDFF8DC9293F8A0527E
:102BC000092D4ED193F8A352DFF8D0A21E2D40D28A
:102BD00093F8A65293F8A7B2D64605EB0B25CAF890
:102BE000005093F8A8A293F8A9B20AEB0B2ACEF8EA
:102BF00004A093F8AAB293F8ABE20BEB0E2BDFF82C
:102C0000A0E20FFA8BFBAEF800B0BBF1000F28D1A9
:102C1000A5EB0A0AA34DB5F9005005FB0AF5A0F58E
:102C2000A84ABAF5FD7A0DD0BAF1010A0AD0884255
:102C300008D0B04206D0BAF1340103D0283101D017
:102C4000143903D14FF4FA6195FBF1F5A9F800505E
:102C500007E0CAF80020CAF8042091490A80A9F8C0
:102C60000020864D6F800097B9F900102981DFF8A8
:102C70003892B9F80070DFF834A2BAF900607E43E8
:102C80004FF47A6E96FBFEF6894FB6B23E80DFF8BF
:102C900024B2642E02D2ABF8006003E0864E368880
:102CA000ABF80060B9F80290BAF9026006FB09F6C9
:102CB00096FBFEF67E80814EB6F900A0804FB7F9F4
:102CC000009009FB0AF999FBF8FADFF8F891A9F8E6
:102CD00000A0B6F902B0B7F902A00AFB0BFA9AFB02
:102CE000F8FAA9F802A0B6F904A0B7F9047007FB36
:102CF0000AF797FBF8F7A9F80470B6F906A0724F27
:102D0000B7F9009009FB0AF999FBF8FADFF8BC91D2
:102D1000A9F800A0B6F908B0B7F902A00AFB0BFAAF
:102D20009AFBF8FAA9F802A0B6F90AA0B7F904606C
:102D300006FB0AF696FBF8F6A9F80460544E77886D
:102D400007F211170FFA87F8614FA7F80080B688CD
:102D500006F211160FFA86F9A7F802906668F6B225
:102D60003E72A468E4B27C725A4F06B914B1012EC7
:102D70000AD00AE008EB090404EBD4746FF48876F7
:102D800006EB64043C801EE00CB12EB106E0A9F213
:102D90001119A7F8009016E0012C02D0012E05D0E1
:102DA00011E0A8F21118A7F800800CE0012C0AD15C
:102DB000494C2478052C03D2484C24883C8002E0FE
:102DC0004FF014043C80464C2678552E06D1009FC7
:102DD000C82F03DDDFF80C81A8F834106478552C77
:102DE00009D1B5F94E40C82C05DDB5F954408C42E7
:102DF00001DD3C4FBC86A0F5AC442F3C03D0283409
:102E000001D0143C01D1374CA1864FF00004364864
:102E1000B0F9008074E0C4EBC40000EB400003EBA9
:102E20008000C778192F61D2877990F8079007EB57
:102E300009274762077A90F8099007EB092707628C
:102E4000877A90F80B9007EB0927C761077B8762A9
:102E5000477B80F85270877B80F84270077C90F83F
:102E6000119007EB0927C76447E03FE0CA22001032
:102E7000B8000010BC00001008ED0720B8ED0720D6
:102E8000C600001060C1072040080820C0000010E4
:102E90000AC2072090EF07205EC10720D0C3072099
:102EA0008AC1072084C3072010C207208AC30720D5
:102EB00016C207207EC1072066C107209A64001051
:102EC000C6C307201CC20720F400001022C207203E
:102ED0009A08082076C1072077C0072082C1072002
:102EE000F6C0072008000010E4C00720C26142625B
:102EF0000262826280F84220C26404F10104E4B2FA
:102F0000444588DB4FF00A0791FBF7F0B5F9541000
:102F1000DFF80C9491FBF7F10844C0F100000FFAC0
:102F200080FAA9F800A0FF4C22804FF0000012E0C8
:102F3000C0EBC00101EB410103EB810191F803B04B
:102F4000BBF1050F04D2496AB4F800B0594421809E
:102F500000F10100C0B24045EADB2088504400B2D5
:102F6000A9F80000002801DAA9F80020A9F800203B
:102F700022804FF0000012E0C0EBC00101EB4101E4
:102F800003EB810191F803A0BAF1050F04D2496A5D
:102F9000B4F800A05144218000F10100C0B24045C6
:102FA000EADB218802EB010000B2A9F8000000284A
:102FB00001DAA9F80020DFF870834FF00600C8F8A6
:102FC0001800DA48B0F90090B9F1000F77D04FF04F
:102FD000000472E004F11400C0EBC00000EB4000FC
:102FE00003EB8000C17819294BD2817990F807A0B2
:102FF00001EB0A2A04EB440108EB4111C1F81CA0C3
:1030000090F808A090F809B00AEB0B2AC1F82CA0A0
:1030100090F80AA090F80BB00AEB0B2AC1F818A0A0
:1030200090F80CA0C1F820A090F80DA081F846A05F
:1030300090F80EA090F80FB00AEB0B2AC1F828A068
:1030400090F810A090F811B00AEB0B2AC1F824A058
:103050008A7090F812A081F859A090F813A081F816
:103060005AA090F814A081F858A090F815A081F803
:103070005BA090F816A081F85CA0C07D81F85D008F
:1030800018E004EB440008EB4010C261C2628261A8
:10309000026280F84620426282624FF0190181701C
:1030A00080F8592080F85A2080F8582080F85B205A
:1030B00080F85C2004F10104E4B24C458ADB552E13
:1030C00026D19B480088012822D19A498A84B1F9E7
:1030D00022000A2803DD4FF00200888404E0C88B38
:1030E000012801D1A1F824C0888C002810D1B1F9A1
:1030F000080000F1050090FBF7F0688048892881FE
:10310000B1F90C0010B1C0F10000288188886881F5
:10311000BDE8FF9F884A89491078042801D001281A
:1031200005D1507818B986480078552803D08548CD
:1031300000880870704708780028FBD0A0F10100D3
:10314000087070478048416821F4402141F4802193
:103150004160416821F4403141F48031416041686F
:1031600021F4404141F480414160416C21F440210F
:1031700041F400214164416C21F4403141F40031BB
:103180004164416C21F4404141F4004141646F4885
:10319000016821F0E0610160016841F40011016003
:1031A000016821F480310160016821F47F4141F41C
:1031B000807101604FF48071C16065484FF48001F7
:1031C000016070472DE9F041624C60882188401A07
:1031D00000B203F0D4FDA61D3080A0886188401A9B
:1031E00000B203F0CCFD7080A0882188401A00B2A4
:1031F00003F0C5FDB0804FF49671A4F18A058842B2
:1032000002DAA088E8840CE0B6F90200884202DA0B
:103210006088E88405E0B6F90000884201DA208879
:10322000E884AF7800262FB34B48B5F92610026822
:103230000A44026042680A44426082680A4482602A
:10324000C2681144C160E98D01F1010109B2E9854B
:10325000B1F5805F00DBEE85B5F92E108A0531D11E
:103260004FEAA12150F821204FEA2222AA8440F8F7
:10327000216027E03948EC782A7900EB8413B5F90E
:10328000261043F8221090070FD1014653F820C0B2
:10329000614400F10100C0B21028F7D34FEA2110B9
:1032A0002D49A1F1200121F81400641CE0B2E8705E
:1032B000102807D3EE7002F10102D0B22871102855
:1032C00000D32E716E7007F1010707F00100A8709E
:1032D0001E4A30B1106820F0FF0000F104001060B9
:1032E00060E0E978080706D4106820F0FF0000F1DC
:1032F0000100106005E0106820F0FF0000F10200FE
:1033000010601748036843F080530360036A43F07A
:1033100080430362036E43F080630366CB0721E0C2
:1033200062C10720C0C30720B0FC0720E6C0072009
:10333000E0C0072044EF0720D0C107203EC007208F
:1033400066C0072008C1072000C0024000400340BB
:1033500000E100E09200001028ED072008E90720B6
:1033600000C009200AD0436943F0805343618B07B2
:1033700009D4436B23F08043436308E0436923F09F
:1033800080534361F3E7436B43F080434363490752
:1033900004D4416F21F08061416703E0416F41F047
:1033A00080614167106840F080701060BDE8F08176
:1033B000F0B5FF4CB4F91C0018B1A0F10100A083D6
:1033C0008DE04FF00005E5722846FB49F94BB1F955
:1033D000002012E0C0EBC00101EB410103EB8101D1
:1033E0008E78012E06D1C978142903D2E17A01F131
:1033F0000101E17200F10100C0B29042EADBE67A1D
:10340000022E6CD341F28830A0666566E5664FF007
:10341000000117E0C1EBC10000EB400003EB8000AE
:103420008778012F0BD1406A676EB84200DD606675
:10343000A76EB84200DAA066E76E3844E06601F194
:103440000101C9B29142E5DBE06E90FBF6F626671A
:10345000A06E012100B9A166606E4FF0640700FB09
:1034600007F0A76E90FBF7F06067A02800DDA1725F
:10347000782800DAA572A07A012830D14FF0000137
:103480006FF0310429E0C1EBC10000EB400003EB19
:1034900080008578012D1DD1456AB54205DDB0F863
:1034A0005050A5F10105A0F8505005DAB0F8505081
:1034B00005F10105A0F85050B0F95050A54201DACD
:1034C000A0F85040B0F95050322D03DD4FF03205D6
:1034D000A0F8505001F10101C9B29142D3DB00BF05
:1034E000F0BD2DE9F041B5480168B54A01EA020195
:1034F0000160B44C216841F47C712160C16921F400
:103500004021C161216E41F000712166416821F0C6
:1035100040614160206840F000502060AB48AA4DF7
:10352000AC490278AA4895F83C30B1F9001000780F
:10353000134307D030B1052904DDA36943F4807338
:10354000A36103E0E36943F48073E36195F8883095
:10355000134307D030B1052904DDA06940F04000D5
:10356000A06103E0E06940F04000E061D220FCF798
:1035700049FE994D70B16868012801D028B10DE06D
:10358000A06940F00050A06108E0E06940F0005000
:10359000E06103E0E06940F00050E061D220FCF718
:1035A00031FE8E4E10B1286866283AD03068C007C8
:1035B00043D0E06F40F00070E0678948894F008891
:1035C000A0F5AA41FA3901D0491E74D1D220FCF7E6
:1035D00019FE10B12868662834D03068C0073DD085
:1035E000E06F40F00070E067D220FCF70BFE10B1F6
:1035F00028686A2837D0306810F4FF6F42D0A0697D
:1036000040F08000A061D220FCF7FCFD10B12868DA
:1036100067283CD0387878B3A06940F01000A061EA
:10362000C4E6686820B1E06F40F00070E067C4E76E
:10363000A06F40F00070A067BFE7A06F40F000707F
:10364000A067BAE7686820B1E06F40F00070E067FB
:10365000CAE7A06F40F00070A067C5E7A06F40F018
:103660000070A067C0E7686838B10128CBD1A069B5
:1036700040F08000A061C6E717E0E06940F08000FC
:10368000E061C0E7E06940F08000E061BBE76868A6
:1036900030B10128C4D1A06940F01000A06185E6D6
:1036A000E06940F01000E06180E6E06940F0100061
:1036B000E0617BE6FFE7A0F5AC41073962D1D2209B
:1036C000FCF7A0FD10B12868672823D0387878B3BC
:1036D000A06940F01000A061D220FCF793FD10B16A
:1036E000286866282AD03068C00733D0E06F40F0E1
:1036F0000070E067D220FCF785FD10B128686A28C9
:103700002DD0306810F4FF6F37D0A06940F08000F2
:10371000A0614BE6686830B10128DDD1A06940F0B6
:103720001000A061D8E7E06940F01000E061D3E745
:10373000FFE7E06940F01000E061CDE7686820B184
:10374000A06940F00070A061D4E7E06940F000702B
:10375000E061CFE7E06B40F00070E063CAE76868C3
:1037600030B101289BD1A06940F08000A0611DE626
:10377000E06940F08000E06118E6E06940F0800018
:10378000E06113E6A0F5AC411B3972D1D220FCF701
:1037900039FD10B12868672851D03878F0B3A06996
:1037A00040F01000A061D220FCF72CFDF8B11BE026
:1037B0000800001090EF0720E4C0072000C002407E
:1037C000FF00F0FF00C00920B8ED0720B100001095
:1037D00041C007207EC00720A800001024C0072099
:1037E000F8C0072044C00720286866283AD030680F
:1037F000C00744D0E06F40F00070E067D220FCF7D3
:1038000001FD10B128686A283ED0306810F4FF6FBF
:1038100048D0A06940F08000A06100E01DE0D22007
:10382000FCF7F0FC10B128686A2840D0306810F42A
:10383000FF6F4AD0A06940F02000A061B6E568683B
:1038400030B10128AFD1A06940F01000A061AAE713
:10385000E06940F01000E061A5E7E06940F0100089
:10386000E061A0E7686828B1A06940F00070A0613D
:10387000C4E72FE0E06940F00070E061BEE7E06B74
:1038800040F00070E063B9E7686830B10128C4D146
:10389000A06940F08000A061BFE7E06940F08000CF
:1038A000E061BAE7E06940F08000E061B5E7686890
:1038B00030B10128C2D1A06940F02000A06175E5B7
:1038C000E06940F02000E06170E5E06940F0200030
:1038D000E0616BE5D220FCF795FC10B12868662802
:1038E00016D03068C0071FD0E06F40F00070E0676E
:1038F000D220FCF787FC10B128686A2819D03068FC
:1039000010F4FF6F23D0A06940F02000A0614DE5C6
:10391000686820B1A06940F00070A061E8E7E06944
:1039200040F00070E061E3E7E06B40F00070E063BE
:10393000DEE7686830B10128C1D1A06940F02000FD
:10394000A06133E5E06940F02000E0612EE5E06928
:1039500040F02000E06129E52DE9F05FFF4E4FF0D7
:10396000010A4FF00008707C0A2809D200F101001A
:10397000C0B270740A2803D386F8118086F812A0AA
:10398000A6F84280A6F84480CD20FCF73BFCF44F1B
:10399000DFF8D0B3A0B3F44A4FF6FF711068CE2819
:1039A00001D1A6F84410CF2802D15368A6F84430BC
:1039B000D12802D15368A6F84230D22801D1A6F806
:1039C0004210D02806D15068A6F842006FEA0000E5
:1039D000A6F844004FF0000437E0B6F844000AFAB5
:1039E00004F919EA000F0CD0C4EBC40000EB40004E
:1039F00007EB800030F8401F01F10101018008E071
:103A000028E0C4EBC40000EB400007EB8000A0F806
:103A10004080C4EBC40000EB400007EB800505F1DB
:103A2000400032220021FCF745FCB5F94000142883
:103A300001DD85F82CA0B6F8420019EA000F01D08C
:103A400085F82C8004F10104E4B2BBF90000844243
:103A5000C3DD47E0B07CB8B34FF000010846BBF9C6
:103A600000200AE0C0EBC00303EB430307EB830332
:103A700083F82CA000F10100C0B29042F2DD4FF0BB
:103A80000000BA4BB3F9005012E0C0EBC00303EBE7
:103A9000430307EB83039C78022C01D0012C04D153
:103AA00083F82C8001F10101C9B200F10100C0B21C
:103AB000904201DAA942E8DBAD48B0F900003C28A9
:103AC00010DA4FF000000BE00CE0C0EBC00101EB9E
:103AD000410107EB810181F82C8000F10100C0B2A7
:103AE0009042F2DD4FF000004FF06304BBF900306C
:103AF0000FE0C0EBC00101EB410107EB8101CA6B94
:103B000022B181F82C40A2F10102CA6300F1010048
:103B1000C0B29842EDDB86F8128086F80E804FF036
:103B200000000FE0C0EBC00101EB410107EB810198
:103B30008978012903D1B17B01F10101B17300F151
:103B40000100C0B29842EDDBBDE8F09F2DE9F041E5
:103B50000646C6EBC600824900EB400011F8202063
:103B6000032A77D101EB800494F84250A80717D5B7
:103B7000B4F946104FF49662914222DA01F1010144
:103B800008B2A4F8460090421BDBA4F846206078F7
:103B9000C00716D101220021304601F0C7FF10E016
:103BA000B4F9461069B1A1F1010108B2A4F84600C8
:103BB00038B96078C00704D000221146304601F0C1
:103BC000B5FF29074FF00A074FF0000015D5B4F9EB
:103BD00048100A2926DA01F1010108B2A4F84800C8
:103BE0000A281FDBA4F84870607880071AD40122E5
:103BF0001146304601F09AFF14E0B4F9481000294C
:103C00000DDDA1F1010108B2A4F8480050B94FF050
:103C100000024FF00101304601F088FF02E001DAB6
:103C2000A4F84800E80616D5B4F94A100A2920DAA3
:103C300001F1010108B2A4F84A000A2819DBA4F82E
:103C40004A706078400714D401220221304601F006
:103C50006DFF0EE046E0B4F94A0050B1A0F101005A
:103C600000B2A4F84A0020B900220221304601F037
:103C70005DFF6078000703D04FF00400A07017E0EC
:103C80003C48007830B1E078142803D94FF00500A3
:103C9000A0700DE094F84200800603D54FF00200BA
:103CA000A07005E0E078142802D24FF00100A07067
:103CB000E0780A2806D394F82C0040F0800084F8BD
:103CC0002C0005E094F82C0000F07F0084F82C0014
:103CD0002249B4F95000B1F91810084420634FF498
:103CE0007A7060639CE470B54FF000002249234D68
:103CF0004FF00104B1F90C20034604FA00F10A4226
:103D000001D02C5400E02B5400F10100C0B20C286B
:103D1000F3D31B4E28781B4C317881420BD0B4F979
:103D20000010012907DB01287ED0002301220B218E
:103D300015A02CF06DFF7178687881420BD0B4F932
:103D40000010022907DB01286FD0002302220B217B
:103D500012A02CF05DFFB178A87829E008000010CF
:103D600090EF0720E4C00720A8000010EC0000102E
:103D70007EC007206BC007209A640010B808082096
:103D8000E20A0820EEC007204176746F6D6174204E
:103D90002331206973204F46460000004176746F3E
:103DA0006D6174202332206973204F464600000065
:103DB00081420BD0B4F90010032907DB012872D02F
:103DC000002303220B21FCA02CF022FFF178E878DD
:103DD00081420BD0B4F90010042907DB012879D007
:103DE000002304220B21F9A02CF012FF317928794D
:103DF00081420BD0B4F90010052907DB012871D0EE
:103E0000002305220B21F6A02CF002FF71796879BE
:103E100081420ED0B4F9001006290ADB012868D0CF
:103E2000002306220B2101E03EE044E0F1A02CF04B
:103E3000EFFEB179A87981420BD0B4F900100729BF
:103E400007DB01285CD0002307220B21EEA02CF019
:103E5000DFFEF179E87981420BD0B4F9001008292E
:103E600007DB012853D0002308220B21EBA02CF004
:103E7000CFFE317A287A81420BD0B4F9001009299B
:103E800007DB01284AD0002309220B21E8A02CF0EF
:103E9000BFFE4FF00000295C315400F10100C0B2B8
:103EA0000C28F8D370BD0EE001231A460B21E5A0C3
:103EB0002CF0AEFE3FE7012302220B21E6A02CF0FE
:103EC000A7FE48E706E0012303220B21E7A02CF020
:103ED0009FFE7BE7012304220B21E9A02CF098FE32
:103EE00084E7FFE7012305220B21EAA02CF090FED6
:103EF0008CE7012306220B21EBA02CF089FE98E72A
:103F0000012307220B21EDA02CF082FEA1E7012363
:103F100008220B21EEA02CF07BFEAAE70123092248
:103F20000B21F0A02CF074FEB3E770B5C820FCF7AD
:103F300069F9F1490022A8B3F04B01241868C92897
:103F40001CD0CA282FD0104600EB400303EB00130F
:103F500001F8232000F10100C0B20228F4D34FF091
:103F6000000000EB400303EB001311F82350142D65
:103F700039D901EB830383F83C4038E04FF000006F
:103F800000EB400303EB001511F82530322B03D270
:103F900003F1010301F8253000F10100C0B202284D
:103FA000EED3DCE729E04FF000005E6804FA00F38E
:103FB0001E420CD000EB400303EB001511F8253036
:103FC000322B0AD203F1010301F8253005E000EBA2
:103FD000400303EB001301F8232000F10100C0B2FD
:103FE0000228E3D3BBE701EB830383F83C2000F115
:103FF0000100C0B20228B4D354E74FF0000000EB38
:10400000400303EB001301F8232001EB830383F843
:104010003C2000F10100C0B20228F0D342E72DE9B4
:10402000F041B74DB748B84CB5F90010B0F90020D1
:10403000B4F90000914203DD00F10100208003E0AB
:1040400002DAA0F10100208006220021AE48FCF730
:1040500031F9B4F90000AD490126052800DD0E70E4
:104060000024012800DA0C70A949B5F90000A94A1A
:10407000B1F90010A84F8B1E98420FDA92F9001088
:104080001E291EDA01F1010149B211701E2918DB47
:104090003988A1F101013980147012E088420FDDE6
:1040A00092F900101E290CDA01F1010149B21170D8
:1040B0001E2906DB398801F101013980147000E006
:1040C00014709649B1F90010884205DD14220021D0
:1040D0009148FCF7EFF807E091480021008809308B
:1040E00002B28D48FCF7E6F8F020FCF78BF828B117
:1040F00082480168F12901D140683880B7F9001081
:104100008848012901DC067000E004708648DFF869
:104110001C82B0F90000A0F13201282921D8B5F99C
:104120000010834F814203DD388800F101003880A0
:104130008048B0F90000814203DA3888A0F101001C
:104140003880062200217A48FCF7B4F8B7F900005D
:10415000052801DD88F80060012804DA88F80040AD
:1041600001E088F800407448744FB0F90000A0F1F5
:1041700032011E291FD8B5F90010714D814203DDAF
:10418000288800F1010028806E48B0F900008142C3
:1041900003DA2888A0F1010028800622002168485F
:1041A000FCF788F8B5F90000052800DD3E7001280D
:1041B00000DA3C7096E5C7E04176746F6D6174205B
:1041C0002333206973204F46460000004176746F08
:1041D0006D6174202334206973204F46460000002F
:1041E0004176746F6D6174202335206973204F46CA
:1041F000460000004176746F6D617420233620699B
:1042000073204F46460000004176746F6D61742044
:104210002337206973204F46460000004176746FB3
:104220006D6174202338206973204F4646000000DA
:104230004176746F6D6174202339206973204F4675
:10424000460000004176746F6D617420233120694F
:1042500073204F4E200000004176746F6D61742012
:104260002332206973204F4E200000004176746F86
:104270006D6174202333206973204F4E20000000AD
:104280004176746F6D6174202334206973204F4E22
:10429000200000004176746F6D6174202335206921
:1042A00073204F4E200000004176746F6D617420C2
:1042B0002336206973204F4E200000004176746F32
:1042C0006D6174202337206973204F4E2000000059
:1042D0004176746F6D6174202338206973204F4ECE
:1042E000200000004176746F6D61742023392069CD
:1042F00073204F4E20000000B8ED0720A8000010EA
:1043000076C10720C2C00720FA000010B2000010DA
:10431000C4C00720B000001086C10720C6C0072017
:1043200080C107207CC30720CCC00720B10000104B
:10433000CCC30720CEC00720C8C007207DC30720FC
:10434000FC000010CAC007203C70CBE42DE9FE4FF2
:104350000546FF4931F9150018B1A0F1010021F817
:104360001500FB4A121D32F9150018B1A0F1010029
:1043700022F8150005EB4500F64B00EB051003EBAA
:104380008004F54B0290B4F90800B3F9003098426C
:1043900003DD4FF0640321F81530002803DA4FF0F5
:1043A000640022F81500EA4831F815307838002703
:1043B0004BB132F8153033B1B0F85A30A3B140F6F2
:1043C000B831A0F85810A0F8587094F83E00401C7E
:1043D000C0B284F83E000A2801D384F83E70DF4E54
:1043E0003088322809D017E04FF41673A0F85A30FD
:1043F00021F8157022F81570E5E794F83C0058B9DB
:10440000B4F90200502807DA94F83D00C00703D140
:104410000121284602F017F8B6F90000D04EC8284E
:104420000FDDB4F90800FBF76BFFB6F90010884206
:1044300007DD94F83D00C00703D00021284602F0B4
:1044400002F8C748B4F90810B0F9000040428142B0
:1044500014DD607B0A280DD200F10100C0B2607348
:104460000A2871D3A07B00286ED0A773284601F0DC
:1044700015FE69E04FF00A00607365E064DA607B66
:10448000F0B3A0F10100C0B26073C8BBA07BB8BBA1
:104490004FF00100A073B348008800F1010000F064
:1044A000070004EB4000008C0090AF4EB08B0190F1
:1044B0004FF063024FF0010101A8FBF7F0FE04F199
:1044C0001C049DF804002076307E01904FF00C0211
:1044D0004FF0010101A8FBF7E2FE9DF804006076B1
:1044E000307B01901F22012101A8FBF7D8FE9DF827
:1044F0000400A0769DF80000E076307A019000E09C
:1045000022E01722002101A8FBF7C9FE9DF8040054
:104510002077307901903B22002101A8FBF7BFFEF4
:104520009DF804006077307801903B22002101A8BB
:10453000FBF7B5FE9DF80400A0779DF80100E07739
:1045400027806780A4F11C0448F6A04894F83E0038
:10455000B0BBB4F90810606908446061DFF80CB2C0
:10456000DFF80C92DFF80CA240452ADB3AF915106F
:10457000A1F5AA40553802D13BF8156001E03AF8A0
:10458000156039F815002EF051F880B2B0420ED205
:104590006169A1F50041A1F54A61616139F9152010
:1045A00000F1010001B210462EF03EF933E032D99D
:1045B00039F9150031B22EF037F9C4F814802AE029
:1045C00056E06D49884226DC3AF91510A1F5AA405B
:1045D000553802D13BF8156001E03AF8156039F81A
:1045E00015002EF023F880B2B04205D939F9150034
:1045F00031B22EF019F9304658B161694144616118
:1046000039F91520A0F1010001B210462EF00CF985
:1046100001E05948606139F815002EF007F80146AD
:104620003AF91500A0F5AA42553A01D13BF9150017
:104630004FF47A7201FB02F158B1B1FBF0F04FF088
:104640000A01B0FBF1F020824C480088012803D019
:1046500008E04FF00000F2E74949029801EB400002
:10466000408A208204F1100064220021FBF722FE20
:10467000A07B012813D1A08B40450FD2B4F90800CC
:10468000FBF73EFEA18B084480B2A083404506D3D1
:10469000A783E08B00F10100E08300E0A7833949A4
:1046A000B4F90A00B1F90010884201DD207BE8B3BB
:1046B000B4F84000A0F10100A4F840004FF41679CE
:1046C00004F140004A460021FBF7F4FDB4F9400034
:1046D00040F24E26B04205DB94F83F1041F0010154
:1046E00084F83F100A2805DC94F83F0020F0010010
:1046F00084F83F002449B4F90A00B1F90010884257
:1047000001DD207B18B3B4F84200A0F10100A4F849
:10471000420004F142004A460021FBF7CBFDB4F908
:104720004200B04207DB94F83F1000E040E041F067
:10473000020184F83F100A2805DC94F83F0020F0BD
:10474000020084F83F00606C40453FDA1EE036E02E
:1047500080000010B8ED0720AAC007207CC0072009
:10476000A2C007205CC1072020400240B0C1072042
:1047700008A70300B8C107206073FFFFE0C007204F
:1047800044EF0720BCC00720BAC0072000F1010099
:10479000606440451BDB6764FA4E36F815002DF067
:1047A00045FF401C01B236F915002EF03DF80EE031
:1047B000B4F8400000F10100A4F840007EE7B4F82E
:1047C000420000F10100A4F84200A2E76764EE4E47
:1047D000308800285FD0ED48B0F90000484508DA7D
:1047E000B4F902004FEAE07100EB91704FEAA000CB
:1047F00006E0B4F902004FF0050190FBF1F000B2C1
:104800004FEA4000A188A0EB010000B2FBF778FD61
:1048100000EB80004FEA400000B24FF00C0190FB2B
:10482000F1F000B2E080B6F90010884235DDB4F94D
:104830000800FBF765FD0146D548B0F9000000EB24
:104840008000814229DAD3487321B0F9000048433F
:10485000642190FBF1F0B4F9021000B288421CDA36
:1048600094F83D00800718D4B4F8480000F1010026
:1048700000B2A4F84800A0F53061B83903D1012195
:10488000284601F045FFB4F9481040F6BD3081429A
:1048900001DBA4F84800BDE8FE8FA4F84870FAE7F1
:1048A00038B5BD48BD4C008838B1BD48006840B13E
:1048B0004FF01400ADF8000007E0B44800882080F5
:1048C0002AE0B8480088ADF80000B74ABDF90010EA
:1048D0001160B6480029B0F9000015DB282902DD77
:1048E0004FF028011160B249B1F90010A1EB0001AD
:1048F00001EB81014FEA4101126801FB02F14FF027
:10490000C80291FBF2F10844AA49C97C022902D1EC
:10491000A948B0F900002080BE20FBF773FC28B145
:10492000A6480168BF2901D140682080B4F9000081
:104930004FF0620100FB01F14FF0640291FBF2F1D4
:104940009F4B19804FF0660100FB01F090FBF2F0E5
:104950009C49088038BD2DE9F041964CB4F92200FD
:1049600010B1A0F1010060849748984D008828801C
:10497000974F0A26B7F90800002806DAFBF7C0FCB3
:1049800090FBF6F0298808442880B7F954000028E5
:1049900006DAFBF7B5FC90FBF6F02988084428807E
:1049A0008C48B5F90010B0F9000091FBF0F000F16F
:1049B0000100C0B2E073884AB2F9002091FBF2F125
:1049C00001F10101C9B22174844B4FF03C05B3F9E8
:1049D0000020904202DD1880658405E0914203DAF0
:1049E000608C08B9198065847D4801887D4809B1CB
:1049F00001881980B0F90020BDE8F0410121774815
:104A0000FBF758BC2DE9F05F77486A4CB0F900100D
:104A1000E186B4F9580018B1A0F10100A4F85800DB
:104A2000B4F95A0018B1A0F10100A4F85A0068487E
:104A30004FF00A0590F83F20920703D190F88B00C1
:104A4000800702D091FBF5F0E086A07900260127CF
:104A50000A2807D200F10100C0B2A0710A2801D3D0
:104A6000A671E771E120FBF7CDFBDFF880C14B4B6E
:104A7000DFF87C8140F2F23B78B350490868642843
:104A800008D069280BD06E280FD0E52822D0E62860
:104A900024D072E14868618B084420836DE1486846
:104AA000618BA1EB0000208367E1208BA0F1010066
:104AB00000B220831E2806DD3649BCF90000B1F99A
:104AC00000108842E5DA0A230022E721E620FBF7FE
:104AD0005AFB52E1486820834FE136E0BCF9000000
:104AE000B3F90010884216DDA0EB01000A2807DDAB
:104AF000B4F91800002803DDA0F1050020833CE193
:104B0000B4F91800002805D0E179002902D0A0F1FD
:104B10000100208331E10BDA081A0A2809DDB4F913
:104B2000180040F2F731884203DA00F105002083D3
:104B300023E1B4F91800B0F57F7F05DAE1790029A7
:104B400002D000F10100208317E1E079002871D044
:104B50002848008818B198F8A30228286AD9B4F91F
:104B60001A006086B4F93410E28E91FBF5F9B9EBC6
:104B7000420F45DDB4F8581019B1A0F1010060866C
:104B8000F3E039E024A70300BEC00720ACC0072033
:104B9000A2C007209CC00720DAC0072078C10720E8
:104BA000400808200AC20720BCC3072092C0072083
:104BB00094C0072008000010A4C00720A80000101F
:104BC000BAC30720EA000010C0C30720EE0000109F
:104BD000B8ED0720A6C00720A8C00720EC000010F1
:104BE000B8C00720E4C00720AAC0072060C1072082
:104BF00090EF07208AC10720A0F10A006086B4E088
:104C00000EDAC2EB021A8A450ADAB4F8581019B162
:104C1000A0F101006086A8E0A0F103006086A4E096
:104C2000C2EB021A8A4506DD914504DDA0F10100C0
:104C300060869AE0A1E0BCF900C0B3F90030DFF86B
:104C40002495DFF824A59C4563DAB9F90090BAF9F8
:104C500000A0A9EB0A09A3EB090AE24527DD002918
:104C60000ADAB4F8581019B100F1010060867CE04E
:104C700000F10A00608678E002EB82038B420ADDD5
:104C8000B4F8581019B100F1010060866DE000F130
:104C90000200608669E0C2EB421303EB8212B2FBB2
:104CA000F5F28A4261DD00F1010060865DE04FEAC5
:104CB000E97A09EB9A79A3EBA909E1451ADD02EB40
:104CC00082038B420ADDB4F8581019B100F10100DB
:104CD00060864AE000F10200608646E0C2EB4213C3
:104CE00003EB8212B2FBF5F28A423EDD00F10100D5
:104CF00060863AE05B1E9C4537DAC2EB421303EB59
:104D00008212B2FBF5F28A422FDD00F101006086CB
:104D10002BE02ADDB9F90010BAF90020891ACA1867
:104D200062450ADAB4F8581019B1A0F101006086A2
:104D30001BE0A0F10A00608617E0CA1701EB927130
:104D400003EBA10161450ADAB4F8581019B1A0F1DA
:104D50000100608609E0A0F10200608605E05B1CAE
:104D60009C4502DDA0F1010060865A460A21FF48F9
:104D7000FBF7A0FA608E6083208366722672FC487F
:104D8000B0F900200CE0C0EBC00101EB410108EBE1
:104D90008101C9781E2900D2677200F101002072DA
:104DA000207A9042EFDB607A20B94FF416702083AE
:104DB00060836086ED485A460A211A38FBF77AFA72
:104DC000E671BDE8F09F2DE9F05F4FF00000EB4A7F
:104DD000E84BE94D4FF0010A4FF00A0B0646B2F9D5
:104DE000004025E0E649E74F095C37F91110B1F5BD
:104DF000FA6F0EDA19560A2908DA01F1010149B2EF
:104E000019540A2911DB05F800A00EE003F800B0E0
:104E10000BE01956002907DBA1F1010149B2195431
:104E2000002902DC2E5400E01E5400F10100C0B243
:104E3000A042D7DB4FF00004DFF84C93D34FDFF8EC
:104E4000508383E0D34830F9140010B9295D01295B
:104E50000FD008B1285D60B119F90400002819DBF2
:104E6000A0F1010040B209F80400002814DC3E550E
:104E700012E019F904000A2809DA00F1010040B231
:104E800009F804000A2807DB07F804A004E009F881
:104E900004B001E009F8046018F80410385D81429C
:104EA0004ED0B24A323A118E01F101011186012829
:104EB00007D054B3012C2FD0022C34D0032C39D07E
:104EC0003EE034B1012C0BD0022C10D0032C15D0B5
:104ED00036E001231A460F21AFA02BF099FE2FE0F8
:104EE000012302220F21AFA02BF092FE28E0012324
:104EF00003220F21AEA02BF08BFE21E00123042220
:104F00000F21AEA02BF084FE1AE0002301220F2116
:104F1000ADA02BF07DFE13E0002302220F21AFA0F5
:104F20002BF076FE0CE0002303220F21B0A02BF023
:104F30006FFE05E0002304220F21B2A02BF068FED3
:104F4000385D08F8040004F10104E4B28B48B0F9BC
:104F500000008442FFF676AF33E7AF4A4FF001001E
:104F60001070AE4908705070487070472DE9F05FBE
:104F7000AC48DFF8B492DFF8A882B0F900C0B9F904
:104F800000007A4CC0EB0011323CB8F902706FF0AF
:104F90001D0A6FF0950B00259F4EB4F93A000AEBFD
:104FA00081020BEB8103674505DCDFF880C2BCF9A9
:104FB00000C0674504DA824202DD834200DA3570C0
:104FC0009B4FB8F908C0B7F900E0944FBCEB4E0F07
:104FD00004DCCEF1000EBCEB4E0F04DA824202DD9F
:104FE000834200DA3D706FF0090202EB81018142D9
:104FF00020D1E07CF0B9307801281BD13878012825
:1050000018D14FF4D6702DF011FB8A49B1F9001078
:1050100088420FD08848008860B198F83D00C007EA
:1050200008D14FF4D6702DF0FFFB8448017801F1D0
:10503000010101707B48B8F90210B0F9000081420B
:1050400006DC7A48B8F94E10B0F9000081420EDA59
:10505000B9F90000B4F93A10C0EB00100AEB800275
:105060008A4204DD0BEB8000884200DA75707049DB
:10507000B8F95400B1F90010B0EB410F03DC49421C
:10508000B0EB410F0EDAB9F90000B4F93A10C0EBF9
:1050900000100AEB80028A4204DD0BEB800088429C
:1050A00000DA7D70B9F90000C0EB00116FF0090063
:1050B00000EB8100B4F93A10884221D1E07CF8B9C4
:1050C000707801281CD17878012819D14FF4E57542
:1050D00028462DF0ABFA5749B1F9021088420FD09B
:1050E0005548008802280BD198F88900C00707D1DD
:1050F00028462DF099FB5148017801F1010101701A
:10510000B9F900006FF00101C0EB001001EB800065
:10511000B4F93A10884202D1BDE8F05F1DE750E6CD
:105120002DE9F0034648474F474E00784FF0000CFA
:105130004FF00108A8B145483946B0F9005044483D
:10514000B1F90010B0F900904248B0F9002042488F
:10515000B0F900304148B0F900404148B0F90000D2
:1051600080E0AAE092C0072094C007203A00001017
:10517000E4C00720E100001097C10720EAC0072023
:1051800003A7030008ED0720B5C307209BC1072034
:10519000E500001028C20720534B20233120416C2A
:1051A00061726D00534B20233220416C61726D009F
:1051B000534B20233320416C61726D00534B2023ED
:1051C0003420416C61726D00534B20233120416CBF
:1051D00061726D206973206F66660000534B202357
:1051E0003220416C61726D206973206F6666000029
:1051F000534B20233320416C61726D206973206F03
:1052000066660000534B20233420416C61726D2090
:105210006973206F66660000C2C30720F0000010AB
:10522000B8ED0720EA000010B2C00720BAC307207B
:10523000A2C00720B8C10720E2C00720F20000107A
:1052400061C00720D8C307207EC3072060C10720A4
:10525000D6C0072068C107206AC107206CC107209B
:105260009EC007204D4513DA824203DB834201DBF7
:1052700084420DDAC748B0F90020914221DA01F1E9
:10528000010108B2388090421BD186F800C018E0B6
:10529000DFF804C3BCF900C0654512DD824210DDB1
:1052A00083420EDD84420CDD59B1A1F1010108B247
:1052B000388030B986F8008003E0A7F800C086F88F
:1052C00000803078002807D1BDE8F0030F230122C9
:1052D0006E21D220FAF757BFBDE8F00370472DE9E1
:1052E000F04F87B0AD48AE4CAE49AF4A007894F964
:1052F0000030B1F90010B2F9002048B102283CD0CA
:1053000001287ED04FF00100207007B0BDE8F08F7B
:10531000A64FDFF89C82B7F90A003D7BB7F95660CB
:1053200098F800C097F8587098F801802BB1012BBD
:10533000EBD1BCF1550F15D110E0BCF1550F02D1E6
:10534000884207DC35B9B8F1550FDED18E4201DC59
:10535000002FDAD04FF001002070D6E79042D4DA67
:10536000002DD2D1B8F1550F03D19642CDDA002FDE
:10537000CBD14FF000002070C7E78F4E8D48B56A43
:10538000B0F90000F67818B18D427ADC1E2E78D282
:10539000DFF824C20128DCF87C709CF857C0CDF8F7
:1053A00018C006DD8F426CDCDDF818C0BCF11E0FA2
:1053B00067D2DFF804C20228DCF8D080CDF8148070
:1053C0009CF8ABC0CDF810C008DDDDF814C08C45EA
:1053D00057DCDDF810C0BCF11E0F52D2DFF8D8C187
:1053E0000328DCF82481CDF80C809CF8FFC0CDF8B0
:1053F00008C00ADDDDF80CC08C4542DCDDF808C0D1
:1054000000E080E0BCF11E0F3BD2DFF8AC81042845
:10541000D8F878C198F85381CDF8048006DD8C4522
:105420002FDCDDF80480B8F11E0F2AD2DFF8889156
:105430000528D9F8CC8199F8A791CDF8009006DD20
:1054400088451EDCDDF80090B9F11E0F19D2DFF897
:1054500068A106289AF8FBE1DAF8209204DD894574
:105460000FDCBEF11E0F0CD2DFF84CB10728DBF8C1
:1054700074A29BF84FB208DD8A4502DCBBF11E0F17
:1054800003D34FF0010020703FE7012BFCD118B18E
:105490009542F9DA0A2EF7D2022804DB9742F3DAB2
:1054A00006990A29F0D2032805DB05999142EBDA27
:1054B00004990A29E8D2042805DB03999142E3DA2A
:1054C00002990A29E0D2052804DB9445DCDA019927
:1054D0000A29D9D2062804DB9045D5DA00990A2991
:1054E000D2D2072804DB9145CEDABEF10A0FCBD227
:1054F000082804DB9245C7DABBF10A0FC4D24FF08B
:105500000000207001E72D482D4D2E4EB0F900000F
:10551000B5F90050366810B18D421DDCE6B9284F50
:10552000DFF8A0C00128B7F90270DCF804C004DD80
:105530008F4211DCBCF1000F0ED1DFF88480DFF860
:1055400084900228B8F90480D9F8089008DD8845CD
:1055500002DCB9F1000F03D04FF001002070D4E657
:10556000012B91D118B195428EDA002E8CD10228F0
:1055700004DB974288DABCF1000F85D1032804DBF5
:105580009045BFDAB9F1000FBCD14FF00000207098
:10559000BBE60000D4C00720D8C0072060C00720A9
:1055A00008000010D0C00720D2C00720B8ED0720A7
:1055B000F6C00720E4C0072090EF0720E8C00720CE
:1055C0000AC207204008082030B5FF48FF4B017889
:1055D000186819B140F00100186002E020F00100E5
:1055E00018604FF00000FA4D4FF0010400EB40014D
:1055F00001EB001105EB810191F83D10C9070AD0BC
:1056000000F1010204FA02F11A6822EA010242EAF8
:1056100001021A6007E000F101011A6804FA01F1C1
:1056200022EA01021A6000F10100C0B20228DDD3B3
:105630004FF00000E74DC0EBC00202EB420105EB6A
:105640008101497851B100F1030104FA01F21968AE
:1056500021EA020141EA0201196007E000F10301B9
:1056600004FA01F2196821EA0201196000F101004F
:10567000C0B20C28DFD34FF00000D44D05F1140563
:10568000295C51B100F10F0104FA01F2196821EA15
:10569000020141EA0201196007E000F10F0104FA7A
:1056A00001F2196821EA0201196000F10100C0B29B
:1056B0000628E5D34FF00000C74D295C012936D0FC
:1056C00000F1190104FA01F2196821EA02011960D6
:1056D00000F10100C0B20428EFD39C68186820EAEA
:1056E0000401D9605A6842EA01025A60BB490D8838
:1056F00015B122F000725A604A881AB15A6822F035
:1057000080625A608A881AB15A6822F000625A6030
:10571000C98819B1596821F08051596024EA000400
:105720006FEA04011961AE4A12885AB10DE000F126
:10573000190104FA01F2196821EA020141EA0201A1
:105740001960C5E761F0010119611A69596801EA38
:1057500002015960986030BDF8B54FF46065284685
:105760002CF064FF00F1010004463F2C01D94FF0FA
:10577000000421B228462DF057F840F60266304664
:105780002CF054FF3F2800D0204601B230462DF0C7
:105790004BF828462CF04AFF4FF4806101EB40148F
:1057A0004FF055008DF800004FF000068DF80160B5
:1057B0004FF052008DF802008DF8036069462046D4
:1057C0002DF0B7F800966946201D2DF0B2F8854DF2
:1057D000A88B8DF80000287E8DF80100287B8DF8BD
:1057E00002008DF80360694604F108002DF0A1F86D
:1057F000287A8DF8000028798DF8010028788DF836
:1058000002008DF80360694604F10C002DF091F858
:105810004FF041058DF800508DF801508DF8025081
:105820008DF80350694604F110002DF082F88DF8D0
:1058300000508DF801508DF802508DF803506946E4
:1058400004F114002DF075F88DF800508DF801501A
:105850008DF802508DF80350694604F118002DF0C0
:1058600068F88DF800508DF801508DF802508DF8D1
:105870000350694604F11C002DF05BF8F8BD2DE9DA
:10588000F843584F5049203F4FF460654FF00008EF
:105890004FF48069012802D000287ED043E14FF008
:1058A0000100087028462CF0C1FE00F101000446FA
:1058B0003F2C01D94FF0000421B228462CF0B4FF50
:1058C00040F6026630462CF0B1FE3F2800D020465C
:1058D00001B230462CF0A8FF28462CF0A7FE09EBB9
:1058E00040154FF050008DF800008DF801804FF00A
:1058F00041048DF802408DF80380694628462DF05A
:1059000018F8CDF800806946281D2DF012F807F12F
:105910002007B88B8DF80000387E8DF80100387BA9
:105920008DF802008DF80380694605F108002DF01E
:1059300000F8387A8DF8000038798DF80100387851
:105940008DF802008DF80380694605F10C002CF0FB
:10595000F0FF8DF800408DF801408DF802408DF881
:105960000340694605F110002CF0E3FF8DF800407C
:105970008DF801408DF802408DF80340694605F12D
:1059800014002CF0D6FF8DF800408DF801408DF802
:1059900002408DF80340694600E032E005F118004E
:1059A0002CF0C7FF8DF800408DF801408DF80240C3
:1059B0008DF80340694605F11C002CF0BAFF002366
:1059C0000122022108A019E06BC0072020C0072097
:1059D000B8ED072090EF07209BC1072038C20720B1
:1059E0009AC00720204002404D61696E20706F7799
:1059F0006572206973206F66660000002BF008F95D
:105A000091E081F80080F948016821F0010101600E
:105A1000F749098819B1416821F001014160284620
:105A20002CF004FE0646344609EB44156946284628
:105A30002CF083FE9DF80000502806D19DF801004F
:105A400018B99DF80200412808D014B1A4F101044E
:105A500001E04FF03F04B442E6D164E0694605F14D
:105A600010002CF06AFE9DF8000041280BD19DF833
:105A70000100412807D19DF80200412803D19DF87B
:105A80000300412808D014B1A4F1010401E04FF053
:105A90003F04B442C8D146E007F12007B88B8DF827
:105AA0000000387E8DF80100387B8DF802008DF8FB
:105AB0000380694605F110002CF03BFF387A8DF821
:105AC000000038798DF8010038788DF802008DF8E3
:105AD0000380694605F114002CF02BFFC5480178BE
