:020000040000FA
:1000000040150010D9000000DD000000DF000000F6
:10001000E1000000E3000000E50000000000000037
:10002000000000000000000000000000E7000000E9
:10003000E900000000000000EB000000530C00008D
:10004000EF000000EF000000EF000000EF000000F4
:10005000EF000000971400000B1F0000EF000000ED
:10006000EF000000EF000000EF000000EF000000D4
:10007000EF000000EF000000EF000000EF000000C4
:10008000EF000000EF000000EF000000EF000000B4
:10009000EF000000EF000000EF000000EF000000A4
:1000A000EF000000871D0000EF000000EF000000DF
:1000B000EF000000EF000000EF000000EF00000084
:1000C000EF000000DFF80CD000F03CF800480047DB
:1000D0007D0E00004015001005480047FEE7FEE7D2
:1000E000FEE7FEE7FEE7FEE7FEE7FEE7FEE7FEE7E8
:1000F000C500000090F900308B4200DA017090F9E1
:100100000030934200DD02707047B0F900308B423E
:1001100000DA0180B0F90030934200DD02807047C0
:1001200040EA01039B0703D009E008C9121F08C079
:10013000042AFAD203E011F8013B00F8013B521EF9
:10014000F9D27047064C074D06E0E06840F0010325
:1001500094E8070098471034AC42F6D3FFF7B6FF97
:10016000B0020000D002000002E008C8121F08C15F
:10017000002AFAD170477047002001E001C1121F28
:10018000002AFBD1704700004006EE02DE01540158
:100190000001C8009F0081006800560046003A0038
:1001A000310026001E00160011000D000A00060096
:1001B00000B5DF6A0BBED46116A3C97C1DA8C27747
:1001C0002C99F3462792F84D3A8FE5503184EE5B37
:1001D00058ED873253E68C394EFB912445F09A2F27
:1001E00074C1AB1E7FCAA01562D7BD0869DCB60317
:1001F000B0056FDABB0E64D1A61379CCAD1872C707
:100200009C2943F6972248FD8A3F55E081345EEBF6
:10021000E85D3782E3563C89FE4B2194F5402A9FE6
:10022000C4711BAECF7A10A5D2670DB8D96C06B3D6
:10023000D5600ABFDE6B01B4C3761CA9C87D17A2C6
:10024000F94C2693F2472D98EF5A3085E4513B8EB6
:100250008D3852E7863359EC9B2E44F190254FFAA6
:10026000A1147ECBAA1F75C0B70268DDBC0963D696
:1002700065D0BA0F6EDBB10473C6AC1978CDA71286
:1002800049FC962342F79D285FEA803554E18B3E76
:100290003D88E2573683E95C2B9EF4412095FF4A66
:1002A00011A4CE7B1AAFC57007B2D86D0CB9D36656
:1002B0006827000000000010E00000006801000056
:1002C00048280000E00000106014000078010000E1
:1002D000000000000000000000000000000000001E
:1002E000000000000000000000000000000000000E
:1002F000000000000000000000000000FFFFFFFF02
:100300004FF020007649086000BF7548006810F083
:10031000400FFAD04FF06300724908607248734989
:10032000C1F8A8014FF00000714908604FF00100CA
:10033000704908607048714908604FF00100A1F1F0
:10034000040108604FF0AA006D4908604FF05500A5
:100350006649C1F88C0000BF6848001D006810F0B5
:10036000806FF9D04FF00300664908604FF0AA0093
:100370005E49C1F88C004FF05500614908604FF0AC
:1003800000006149086049F25810604908604FF068
:1003900000005649C1F8C8015D480068C0F301601B
:1003A000032868D15348006810F0030006D00128E4
:1003B00023D002283FD003285CD100E000BF54487E
:1003C0000068C0F30E0000F101004FEA4001474809
:1003D000D0F88800C0F3074000F10100B1FBF0F055
:1003E0004C4900FB01F03F490968C9B201F1010124
:1003F000B0FBF1F0484908603CE045480068C0F3B4
:100400000E0000F101004FEA40013848D0F88800A2
:10041000C0F3074000F10100B1FBF0F03F4900FBE1
:1004200001F030490968C9B201F10101B0FBF1F0F6
:10043000394908601EE036480068C0F30E0000F13C
:1004400001004FEA40012948D0F88800C0F3074076
:1004500000F10100B1FBF0F04FF4FA4100FB01F0B4
:1004600020490968C9B201F10101B0FBF1F02A4944
:10047000086000BF2FE01F48006810F0030006D09E
:10048000012810D0022819D0032823D100E000BF92
:1004900014480068C0B200F101001E49B1FBF0F041
:1004A0001D49086016E00F480068C0B200F1010065
:1004B0001A49B1FBF0F0184908600BE009480068E0
:1004C000C0B200F101004FF4FA41B1FBF0F0124963
:1004D000086000BF00BF43F23A000449086070475B
:1004E000A0C10F4004C10F401010020000C00F4017
:1004F000ACC10F400CC10F402700010084C00F4069
:100500008CC00F4080C00F4008C10F40C4C00F40D6
:1005100088C00F4000093D00000000108096980040
:10052000FF4A1268114600BFFD4A1268521A824201
:10053000FAD3704710B5FB48007850B9FA480088E4
:10054000FA490880F84840884880F74880888880C1
:100550002CE0F74989680846C0EB80114FEA410159
:1005600008464FF47A7190FBF1F1084601B2EF4B67
:100570001980EF49496808464FF07A0100FB01F005
:100580004FF47A7190FBF1F1084601B25980E849C5
:10059000096808464FF07A0100FB01F04FF47A71C8
:1005A00090FBF1F1084601B2998000BFE048006974
:1005B0000246C2EB42204FEA4000024642F210706F
:1005C000B2FBF0F00246A2F21110024610B2D94975
:1005D0000880D9480078002872D04FF000031946EF
:1005E000D64B1B781846A0F10103DBB21846D44B5A
:1005F0001B5CA3F130034FF0010404FB0311A0F1D5
:100600000103DBB21846CE4B1B5CA3F130034FF065
:100610000A0404FB0311A0F10103DBB21846A0F1A8
:100620000103DBB21846C64B1B5CA3F130034FF04D
:10063000640404FB0311E0B3A0F10103DBB218462C
:10064000BF4B1B5CA3F130034FF47A7404FB03111E
:1006500078B3A0F10103DBB21846B94B1B5CA3F1E0
:10066000300342F2107404FB031110B3A0F1010334
:10067000DBB21846B24B1B5CA3F13003B14C04FB58
:100680000311B0B1A0F10103DBB21846AC4B1B5C07
:10069000A3F13003AC4C04FB031150B1A0F10103F2
:1006A000DBB21846A64B1B5CA3F13003A74C04FB3E
:1006B0000311A74B19604FF000039F4C237000BF3C
:1006C000A448007800284FD04FF000031946A24BF1
:1006D0001B78A3F10303DBB21846A0F10103DBB2E0
:1006E00018469E4B1B5CA3F130034FF0010404FB42
:1006F0000311A0F10103DBB21846984B1B5CA3F178
:1007000030034FF00A0404FB0311A0F10103DBB234
:100710001846924B1B5CA3F130034FF0640404FBBA
:100720000311A0F10103DBB21846A0F10103DBB213
:1007300018468A4B1B5CA3F130034FF47A7404FB18
:10074000031148B1A0F10103DBB21846834B1B5CD7
:10075000A3F1300304FB03110BB2814C23804FF053
:1007600000037C4C237000BF10BD10B57D4A526859
:10077000D20F43D07B4A5268C2F30B127A4B7B4CA8
:10078000247803EB04237A4C247843F82420784A15
:10079000127812F0030F19D14FF0000108460CE057
:1007A000714A724B1B7802EB032252F820200A4454
:1007B000114600F10102D2B210464028F0DB4FEAA8
:1007C000A1125B4B694C247843F82420674A1278C5
:1007D000521CD2B2654B1A70062A0FDB4FF0000292
:1007E0001A70634A127802F10102614B1A701A46BC
:1007F0001278402A02DB4FF000021A705D4A5268FC
:1008000022F4404242F480425A4B5A601A465268DF
:1008100022F4403242F480325A601A46126822F0C2
:10082000300242F020021A601A46526C22F4404212
:1008300042F400425A641A46526C22F4403242F4A6
:1008400000325A641A46126C22F0300242F0200242
:100850001A64444A126842F40012424B1A601A4663
:10086000126822F480321A601A46126822F47F72EB
:1008700042F060021A603D4A12783AB91A4612688C
:1008800022F0FF0202F101021A603FE0374A1278BB
:10089000012A08D1334A126822F0FF0202F1020253
:1008A000304B1A6032E0314A1278022A08D12D4AC0
:1008B000126822F0FF0202F102022A4B1A6025E0C0
:1008C0002A4A1278032A08D1264A126822F0FF0227
:1008D00042F08002234B1A6018E0244A1278042A5E
:1008E00008D1204A126822F0FF0242F080021D4B1C
:1008F0001A600BE01D4A1278052A07D1194A1268BE
:1009000022F0FF0202F10102164B1A60154A12682A
:1009100022F0E06242F08072124B1A6010BD0000BB
:100920008400001004000010620000106800001035
:10093000E0060010080000107200001071000010A6
:10094000F8060010A086010040420F008096980033
:100950001400001075000010740000100207001051
:100960001800001000400340E0000010420000109A
:100970004000001000C0024000B58BB04FF02802CC
:10098000FC496846FFF7CCFB14220121FA48FFF727
:10099000B1FBFA480078F0B9F94890F90000F6493F
:1009A00091F90010884206DAF548007800F101005C
:1009B00040B2F3490870F24890F90000EE4991F90D
:1009C0000010884253DDEE480078A0F1010040B2EB
:1009D000EB4908704BE0EB48B0F900001E281EDD23
:1009E000E948007800F1010040B2E7490870084684
:1009F00090F900001E283ADB4FF000000870E04834
:100A0000007800F1010040B2DD490870084690F915
:100A1000000014282BDB4FF01400087027E0D948A1
:100A2000B0F900001C281EDAD748007800F1010058
:100A300040B2D5490870084690F900001E2816DB20
:100A40004FF000000870CE480078A0F1010040B2DD
:100A5000CB490870084690F90000012807DC4FF0E8
:100A60000100087003E04FF00000C7490870C44857
:100A700090F90000A0F101003DF810000A904FF439
:100A8000C8624FF005010AA8FFF73FFBBDF9280037
:100A9000BE4988644FF0400008650BB000BD10B53A
:100AA000BB48008800F1010000B2B94908804FF04E
:100AB0000A024FF00001B648FFF727FBB448B0F92F
:100AC00000000A2803DB4FF00100AC49087010BD9C
:100AD00010B5AA480078002854D1AE4800880128F3
:100AE00004D14FF00000AC49088003E04FF0000053
:100AF000AA490880AA48B0F90000BE281CDAA84814
:100B0000B0F90200BE2817DDA448008800F10100FA
:100B100000B2A24908804FF014024FF000019F4834
:100B2000FFF7F3FA9D48B0F90000142808DB4FF0F6
:100B300002009849088003E04FF0000097490880C0
:100B40009748B0F90000C82818DD9348008800F1E4
:100B5000010000B2904908804FF496724FF00001F6
:100B60008D48FFF7D2FA8C48B0F90000B0F5967FB7
:100B700008DB4FF001008749088003E04FF00000D8
:100B80008549088010BD8748006A40F000508549BB
:100B9000086285484078012805D10846406B80F0FE
:100BA0000050486305E07F48406B20F000507D49CD
:100BB0004863704777480088012804D14FF000004F
:100BC0007949487003E04FF0010077494870704759
:100BD00076484FF0804148604FF0000008614FF0C8
:100BE000030008704FF0AA0008724FF05500087219
:100BF00070474FF0AA004FF0804108724FF0550047
:100C0000087270474FF011006949087270476948CF
:100C1000C06820F4401040F400106649C8604FF0EE
:100C200000005A49C8604FF48040C8644FF0020089
:100C3000486140F6C41088614FF07D0088644FF031
:100C4000410008654FF0020048604FF0090048601D
:100C5000704700B55848006800F101005649086027
:100C6000FFF791FF55480088401C00B253490880A7
:100C70000A287DDB4FF0000008804FF0010050494A
:100C800008705048007860B14E480078A0F101002B
:100C90004C4908700846007818B94FF000004A49DE
:100CA00008704A48007828B148480078A0F101004F
:100CB0004649087046480088401C00B244490880F4
:100CC000142806DB4FF0000008804FF00100414976
:100CD000087041480088401C00B23F49088019282C
:100CE00006DB4FF0000008804FF001003B49087020
:100CF0003B480088401C00B2394908800A2837DB8D
:100D00004FF0000008804FF0010036490870364867
:100D1000008800F1010000B2334908800846B0F9AC
:100D20000000B0F5FA7F0BDB4FF0000008802F4881
:100D3000B0F900002E4908804FF000002B490880D0
:100D40002C480088401C00B22A4908800A2806DB8B
:100D50004FF0000008804FF0010027490870274835
:100D60000088401C00B22549088014285BDB47E05E
:100D700083E00000880100000C0000100400001057
:100D80005A000010080000105B00001000800140B5
:100D9000060000106E0000100E0000101000001081
:100DA0006800001000C009200A000010404B4C00F1
:100DB0000040024000C002408400001032000010D9
:100DC0002000001089000010C1000010C0000010B9
:100DD000340000102200001038000010270000101E
:100DE00028000010210000104400001048000010EE
:100DF000460000102A000010230000102C000010F4
:100E00004FF0000008804FF00100FF490870FF48D4
:100E1000007820B14FF00000FC49087003E04FF06B
:100E20000100FA490870FA480088401C00B2F849ED
:100E30000880322812DB4FF0000008804FF00100DC
:100E4000F4490870F448007820B14FF00000F249EE
:100E5000087003E04FF00100EF490870EF48008888
:100E6000401C00B2ED490880642806DB4FF000000A
:100E700008804FF00100EA49087000BD86B0FFF716
:100E80003FFAE848006842F21072B0FBF2F0A0F1BD
:100E90000101B1F1807F00D327E021F07F40A0F174
:100EA00001004FF0E02250614FF0FF304FF01F0281
:100EB00000280ADA4FEAC2634FEA1363DA4C00F003
:100EC0000F05A5F10405635505E04FEAC2634FEA3B
:100ED0001363D64C235400BF4FF000004FF0E022C4
:100EE00090614FF00700106100BFD148406820F0CA
:100EF0000C00CF494860CF48006840F40030CD492D
:100F000008600846C06940F40030C8610846006ABD
:100F100040F0006008620846006820F480600860C5
:100F2000C548006840F00050C1F88000FFF76AFE35
:100F3000FFF76DFE4FF41651012000F041FF4FF412
:100F40001651002000F03CFFBC4800F0A5FD9E219A
:100F5000002000F0DEFDFFF70FFD4FF00100B84963
:100F60000880FFF727FEB248406820F00C00B04927
:100F70004860B048006840F40030AE490860084658
:100F8000806940F400308861A948406820F0300052
:100F9000A7494860A748006840F48020A549086038
:100FA0000846C06940F48020C8614FF4FA60FFF73A
:100FB000B7FAFFF70DFEF5E1FFF71BFEA148007839
:100FC00028B14FF000009F49087001F0F4FA9E48E4
:100FD000007880B99648406820F030009449486015
:100FE0009448006840F48020924908600846C0692F
:100FF00040F48020C8619548007828B14FF0000087
:101000009249087000F037FB9148007818B14FF012
:1010100000008F4908708F48007828B14FF0000019
:101020008C490870FFF7A1FB8B48007898B14FF00E
:10103000000089490870FFF74BFD8848007850B9D7
:101040007C48006C40F001007A4908640846406D15
:1010500080F0010048656C48007810B34FF0000044
:1010600069490870FFF7A6FDFFF719FDFFF762FA5F
:101070007B48007800F10100794908700846007843
:10108000FF2802D14FF0FA00087006200521042243
:101090000323CDE90021029002220121084600F03D
:1010A000B1F95C48007820B34FF00000594908704E
:1010B0004FF06400FFF734FA6A48007830B901F065
:1010C0002EFA4FF001006749087012E06548007879
:1010D000012806D101F0DBF94FF0020061490870E8
:1010E00007E060480078032803D14FF000005D4915
:1010F00008704B480078B8B14FF0000048490870BC
:10110000FFF73AFC4FF03300574908705548007814
:10111000022809D14FF00000544908605449087072
:101120004FF003004F4908705148007808BB4FF05A
:10113000AF008DF804004FF03F008DF805004FF030
:1011400021008DF806004FF08D008DF807004FF05C
:101150000A008DF808004FF0050101A801F018F908
:101160004FF00000434908704FF0010040490870FB
:1011700000BF3F480078022825D14FF006008DF8C7
:1011800004004FF030008DF805004FF035008DF869
:1011900006004FF0B1008DF807004FF08D008DF87C
:1011A00008004FF00A008DF809004FF0060101A871
:1011B00001F0EEF84FF000002E4908704FF00300E8
:1011C0002B49087000BF2A48007805287AD14FF0D3
:1011D00081008DF804004FF0D2008DF805004FF02B
:1011E000B1008DF806004FF082008DF807004FF037
:1011F000C5008DF808004FF0D4008DF809004FF0BD
:1012000030008DF80A0037E0240000103C00001088
:101210002E000010250000103D00001030000010CE
:10122000260000100000001018ED00E000E400E0CF
:1012300000C0024000C0092080C009200100140045
:101240006E000010CE000010C000001094000010CE
:10125000210000102700001023000010540000108F
:101260005500001076000010180700101C00001038
:10127000C2000010C80000104FF050008DF80B00A5
:101280004FF0C5008DF80C004FF028008DF80D00D0
:101290004FF0A9008DF80E004FF003008DF80F00FD
:1012A0004FF0B7008DF810004FF00D0101A801F0CC
:1012B0006FF84FF000003C4908704FF006003B49C2
:1012C000087000BF394800780A2841D14FF08100EA
:1012D0008DF804004FF0D2008DF805004FF0B100FA
:1012E0008DF806004FF082008DF807004FF0500097
:1012F0008DF808004FF0CF008DF809004FF0D700AF
:101300008DF80A004FF0C5008DF80B004FF050002B
:101310008DF80C004FF028008DF80D004FF0A9005B
:101320008DF80E004FF003008DF80F004FF0E40031
:101330008DF810004FF00D0101A801F029F84FF0D1
:101340000000194908704FF00B001849087000BFE1
:10135000164800780E2825D14FF081008DF8040042
:101360004FF042008DF805004FF030008DF8060078
:101370004FF003008DF807004FF0F5008DF80800DE
:101380004FF0050101A801F003F84FF000000649F5
:1013900008704FF01400054908704FF0030004492D
:1013A000087000BF08E60000C8000010C20000106E
:1013B0007600001000BFDE490988B1F5806FFAD0D1
:1013C000DB49098821B9DB49097D11F0600F16D18D
:1013D000D949DA4A12888854D8490988491C89B2FF
:1013E000D64A1180B1F5806F02D14FF00001118013
:1013F000CF49098801F10101CD4A118001E0CD49B1
:10140000087070472DE9FF4F04460E4617469B466D
:10141000DDE90E9ADDF834804FF0000005468DF8C6
:1014200000608DF801708DF802B08DF803808DF8A2
:1014300004908DF805A0034608E01DF8030080EA3B
:101440000500054603F10100C0B20346A342F4DBE8
:101450000DF804401DF8040080EA0500054604F17B
:1014600001000DF800504FF00A0104F102000DF8E0
:1014700000104FF00000034608E01DF80310084676
:10148000FFF798FF03F10100C0B20346E01C83425E
:10149000F3DBBDE8FF8F30B500BFA64CA468E4B213
:1014A00020464FEA6004204600F007042046032847
:1014B00035D1A04C217D11F09E0F05D0A04C2160AC
:1014C0009C4C2478234630BD11F0010F26D0994C56
:1014D00022789C4C9C4D2D8862554FF001049B4D09
:1014E0002C70994C248804F10104A4B2964D2C80F0
:1014F000B4F5806F02D14FF000042C80944C248806
:10150000641CA4B2924D2C80B4F5806F65D14FF06D
:1015100000042C804FF001048E4D2C705DE00228F9
:1015200027D1844C2278874C874D2D8862554FF007
:101530000104864D2C70844C248804F10104A4B26B
:10154000814D2C80B4F5806F02D14FF000042C80C7
:101550007F4C2488641CA4B27D4D2C80B4F5806F30
:101560003BD14FF000042C804FF00104794D2C70DA
:1015700033E0062806D1724C246844F48074704D20
:101580002C602AE0012828D16A4C217D11F0200F1F
:101590001FD00446704D2C70654C2488ECB1644C0F
:1015A0002488A4F10104624D2C80634C6B4D2D887E
:1015B000645D604D2C70694C248804F10104A4B270
:1015C000664D2C80B4F5806F07D14FF000042C805D
:1015D00003E04FF00004604D2C7000BF73E77047CC
:1015E00000EB010212B21046B0F5806F03DBA0F5EC
:1015F000806212B21046002803DA00F5806212B24F
:101600001046704770B505464FF000000346064689
:101610004C48405D0A2800D02BE06FF001012846BD
:10162000FFF7DEFF4749085C06464FF000042046FE
:10163000034610E06FF00100801B18440146284665
:10164000FFF7CEFF3F49085C80EA0400044603F13F
:101650000100C0B20346B342ECDD4FF0FF31284633
:10166000FFF7BEFF3749085CA04200D001E001202F
:1016700070BD0020FCE770B53648007848B14FF0E7
:1016800000003149088036490880314908803149D5
:1016900008702F480088002848D04FF0FF312A48B2
:1016A000008800B2FFF79CFF2649085C0A283DD15C
:1016B0006FF002012448008800B2FFF791FF214932
:1016C0000D5C642D32DA4FF0FF311F48008800B204
:1016D000FFF786FF0646FFF795FF38B36FF002006D
:1016E000401B01461848008800B2FFF779FF1C49EB
:1016F00008804FF000040DE021461948008800B230
:10170000FFF76EFF0F49085C1649085504F1010008
:10171000C0B20446AC42EFDB0B4800881049088099
:101720004FF000000A490880FFF759FF70BD000024
:10173000A000001000C00040860B00109C000010AC
:10174000A4000010860700109600001094000010FE
:101750009A000010A20000108C0000109E000010E3
:1017600098000010220700102DE9F04307ACF0CCE0
:101770004FF4002CDFF85485DFF8549599F8009069
:1017800048F829C04FF4C77CDFF84885DFF840955A
:1017900099F8009048F829C0DFF83CC5DFF830859B
:1017A00098F800800CF82800DFF8248598F800806D
:1017B0000CEB880C8CF80110DFF81CC5DFF81085E5
:1017C00098F800800CEB880C8CF80220DFF808C534
:1017D000DFF8FC8498F800800CEB880C8CF8033060
:1017E000DFF8F8C4DFF8E88498F800800CF82840A7
:1017F000DFF8DC8498F800800CEB880C8CF8015042
:10180000DFF8D8C4DFF8C88498F800800CEB880CA7
:101810008CF80260DFF8C4C4DFF8B48498F8008064
:101820000CEB880C8CF80370DFF8A4C49CF800C0A3
:101830000CF1010CDFF8988488F800C0C4469CF8CD
:1018400000C0BCF1080F03DB4FF0000C88F800C0AB
:10185000DFF88CC49CF800C0BCF1000F4DD0DFF85D
:101860006CC4DFF8808498F800805CF828C0DFF84A
:101870007884C8F830C0DFF85CC4DFF8688498F872
:1018800000805CF828C0DFF86084C8F834C0DFF856
:1018900048C4DFF8508498F800805CF828C0DFF86E
:1018A0004884C8F838C0DFF834C4DFF8388498F8C2
:1018B00000805CF828C0DFF83084C8F83CC04FF0E6
:1018C000210CC8F804C0DFF81CC49CF800C00CF15F
:1018D000010CDFF8108488F800C0C4469CF800C0F2
:1018E000BCF1080F03DB4FF0000C88F800C04FF08C
:1018F000000CDFF8EC8388F800C0BDE8F0830FB57A
:10190000FA48007800B97BE0F948007808282ED121
:10191000F748407808282AD1F6484078F5490978F0
:10192000F54A527AF44B1B7ACDE90032CDE9021028
:10193000F14840780346F04800780246DE2108204E
:10194000FFF712FF4FF00000EC490880EC490870E7
:10195000E7484088EB490880E54880884880E448AB
:10196000C0888880E248C079E749087047E0E048CD
:101970000078092825D1DE484078092821D10020A7
:101980000090019002900390E0480378E0480088BE
:10199000C2B2DE210920FFF7E7FED548807840B2C9
:1019A000DC490870D248C078DB490870D04800791B
:1019B000DA4908704FF00000D0490880D04908701B
:1019C0001DE0CB4800780A2819D1C94840780A2878
:1019D00015D1D348C078D2498978D14A5278D04BB2
:1019E0001B78CDE90032CDE90210CE48407803469D
:1019F000CC4800780246DE210A20FFF7B5FE00BF82
:101A00004FF00000B94908700FBDC749097801F1CE
:101A10000101C54A1170C549498901F10101C34A53
:101A20005181AB490978AF4A127891422CD0A7492D
:101A3000AC4A127851F82210AB4A1163A549A94A61
:101A4000127851F82210A84A5163A349A54A127886
:101A500051F82210A44A9163A049A24A127851F881
:101A60002210A14AD1634FF0210151609D490978AC
:101A700001F101019B4A117011460978082907DB21
:101A80004FF00001117003E04FF00101944A117012
:101A90009549C968C8B2704710B50146A4480068A6
:101AA00040F40050A34AC2F8C400A348006820F0E4
:101AB0000F00A14A10601046006840F00500106059
:101AC0004FF000009D4A10804FF001009C4A1060CA
:101AD000854A10604FF0000010619060104641612F
:101AE0004FF0000010604FF019004FF0010202FAB1
:101AF00000F24FEA50134FF0E02404EB8303C3F8E5
:101B0000002100BF4FF00300774A10614FF0010041
:101B100010BD2DE9F04705460B464FF00100DFF8F8
:101B200020A2CAF800008548008828B943F2FF7057
:101B3000DFF810A2CAF800008048B0F900000228BF
:101B400002DB0020BDE8F087C3F30A00034643EA46
:101B5000453003464FF000010CE001EB4100DFF897
:101B6000E4A15AF8200080B2984200D907E001F1C0
:101B7000010001467148B0F900008142EDD300BF79
:101B800001EB4100DFF8BCA15AF8206001EB4100F5
:101B90004AF820306948008800F1010000B2DFF8FF
:101BA0009CA1AAF800000DE001F10100014601EB43
:101BB0004100DFF890A15AF8207001EB41004AF88B
:101BC00020603E465D48B0F900008142ECD34FF002
:101BD000000001465A4841605B4C4FF0000220E093
:101BE0004FEA420000EB4000DFF858A15AF820000D
:101BF0001FFA80F84FF0010000EB420000EB4000BC
:101C00005AF820001FFA80F909EB084CC4F800C00C
:101C100001F10400014604F10400044602F1010050
:101C20000246DFF818A1BAF900A00AF1010A0AEB8E
:101C3000DA7AB2EB6A0FD3D341488160C1600161A7
:101C400041614FF00000DFF8F8A0CAF800004FF043
:101C5000010077E7F0B52448006A3C49084234D1D6
:101C60002148006AC0F3090000EB4000354901EB50
:101C7000800004461C48006A354900EA0100054618
:101C8000344845EA000005461748406AC0F30A0098
:101C900040EA05000546256004F1040004461248A8
:101CA000806A206004F1040004460F48C06A206086
:101CB00045F040700546A4F1080004462560214F18
:101CC00007F104074FF0000650E057E01C10001029
:101CD000AB0000103C1000105C1000107C100010D5
:101CE000AA000010AC00001000400440AE0000103C
:101CF000B410001008000010E006001006000010EC
:101D00000400001062000010540000105500001084
:101D10006E0000100C0000101A0000101B000010D4
:101D20001400001018000010B10000100C07001083
:101D3000C4C00F4000C00F4000C00240A800001007
:101D400000C003409C10001000800340000400C04D
:101D500000000FC00020000138781549885507F1B0
:101D60000100074606F10100C0B20646082EF3DB6B
:101D70004FF001000F490870FFF7C1FD4FF004005C
:101D80000D494860F0BD00B50B48C0680B490860BC
:101D90000846006810F0010F01D0FFF75BFF07480D
:101DA000006810F0020F01D0FFF72FFE00BD000009
:101DB000B4100010AE00001000400440B400001049
:101DC0002DE9F04107468846002F47D1FF480068BB
:101DD00020F0F000FD4908600846006840F050001F
:101DE0000860FB480068C0F3811636B1012E09D0A7
:101DF000022E0AD0032E0DD000BFF64800684FEA2D
:101E000090040CE0F348046809E0F24800684FEAE7
:101E1000500404E0EF4800684FEAD00400BF00BF60
:101E20004FF08300EC4908734FEA1410B0FBF8F54B
:101E30004FEA152008710D704FF0030008734FF042
:101E4000070008724FF0050000F073FC4FF0070028
:101E5000E14948604FF00100BDE8F081012F52D107
:101E6000DA48006820F0404040F08040D7490860E0
:101E70000846406820F0030000F101004860D448A3
:101E80000068C0F3012636B1012E09D0022E0AD017
:101E9000032E0DD000BFCF4800684FEA90040CE03D
:101EA000CC48046809E0CB4800684FEA500404E0DD
:101EB000C84800684FEAD00400BF00BF4FF083005D
:101EC000C64908734FEA1410B0FBF8F005464FF00E
:101ED000060005464FEA15200871084605704FF0C8
:101EE000C10088624FF0030008734FF007000872CA
:101EF0004FF0060000F01DFC4FF00300B7494860AA
:101F00004FF00100A8E70020A6E770B500BFB34876
:101F10008068C0B204464FEA6400044604F007003B
:101F20000446032C16D115F0010F12D0AB480178EE
:101F3000AB48AC4A12688154AA48006800F101001D
:101F4000A849086008460068C82802D14FF0000080
:101F50000860DBE1022C7ED1A04800780646A2484A
:101F60000078002878D178220021A048FEF7C2F836
:101F70009F489E49097846549E48007864283DD180
:101F8000C02E3AD199480078012836DD974A127858
:101F9000A2F1010252B210462CE0954A125CC02A0E
:101FA00024D10146914A1278A2EB010202F101020A
:101FB000914B1A704FF00002104609E001EB00024D
:101FC0008B4B9A5C8D4B1A5400F1010252B21046B1
:101FD000864A1278521A8242F0DA4FF00102884B98
:101FE0001A704FF00002814B1A7005E0A0F1010257
:101FF00052B210460028D0DA00BF39E17D4800789F
:1020000001282DD17F48006840F400207D490860F8
:102010000846406980F40020486175487349097892
:10202000405C0A280AD17748006840F400207549CE
:1020300008600846406980F4002048616C486B499C
:102040000978405C0A28D8D169488079C528D4D15C
:102050004FF0020001E012E110E16649087007E16B
:102060006448007803280ED1614860490978405CD3
:102070000328C2D15E4800788128BED14FF0040009
:102080005C490870F4E05B480078042804D14FF004
:10209000050058490870EBE05648007806281BD127
:1020A000534852490978405C00F07F002828A4D1A9
:1020B0004FF007004F4908704FF000005249087078
:1020C0005249087048708870C870087148718871EA
:1020D000C87108724872CBE046480078072825D1BD
:1020E000434842490978405C00F07F0029280CD120
:1020F0004FF008003F490870434800784449087091
:102100004FF0010043490870B2E039483749097877
:10211000405C00F07F003D493B4A127888543A48C1
:10212000007800F1010038490870A1E031480078DA
:1021300008280CD12E482D490978405C00F07F001A
:10214000032803D14FF009002A49087090E029487C
:102150000078092804D14FF00A002649087087E06A
:10216000244800780B281BD1214820490978405C7D
:1021700000F07F0028287BD14FF00C001D4908702B
:102180004FF0000024490870244908704870887096
:10219000C870087148718871C8710872487267E028
:1021A000144800780C2853D1114810490978405C34
:1021B00000F07F0029283AD14FF00D000D4908703A
:1021C00015480078164908702CE0000000C0024055
:1021D000A8C10F400000001000C0004000000140F6
:1021E00040110010BC000010C1000010C800001019
:1021F00008120010C2000010CF000010E4120010FE
:10220000CE00001000C0092070000010F806001079
:10221000710000107200001073000010020700101F
:10222000740000104FF00100FE49087020E0FE48E5
:10223000FE490978405C00F07F00FD49FD4A1278B4
:102240008854FC48007800F10100FA4908700FE05A
:10225000F94800780D280BD1F348F4490978405C1F
:1022600000F07F00032803D14FF00E00F249087000
:10227000EE48007800F10100EC49087046E0062CB9
:1022800044D0012C42D1ED48057D15F0200F39D006
:102290004FF00100EA490870EA480078E0B1E948E7
:1022A0000078A0F10100E7490870E748E74909789C
:1022B000405CE2490870E548007800F10100C0B2D6
:1022C000E2490870642802D14FF0000008704FF016
:1022D0006400DF49087019E0DE48406820F03000F3
:1022E000DC494860DC48006840F48020DA49086036
:1022F0000846C06940F48020C8614FF00300D74908
:10230000087003E04FF00000CD49087070BD30B593
:1023100002460B464FF0000420464FF001042146D0
:1023200009E0545C84EA0004CD4D2C5D204601F1A7
:102330000104E4B221469942F3DB30BD00BFC1493C
:1023400009786429FBD0BF49097821B9BB49097DC7
:1023500011F0600F15D1BC49C24A12788854C149A6
:102360000978491CC9B2BF4A1170642902D14FF0E3
:1023700000011170B349097801F10101B14A1170EE
:1023800005E0AE4908704FF06401B14A1170704722
:1023900070B59CB005460C464FF00000064603465B
:1023A00006E0E85C0DF8030003F10100C0B203464B
:1023B000A342F6DBA748406820F03000A5494860FA
:1023C000A548006840F48020A34908600846806959
:1023D00040F4802088614FF00100A34908704FF05D
:1023E0000000034608E01DF803100846FFF7A6FFAB
:1023F00003F10100C0B20346A342F4DB1CB070BD80
:1024000030B5034610461D780D7001F101052946CF
:1024100003F101052B464FF001052C4631E01D78F4
:10242000C02D10D14FF0DB050D7001F101052946DB
:102430004FF0DC050D7001F10105294600F10105A1
:10244000EDB2284616E01D78DB2D0ED10D7001F19E
:10245000010529464FF0DD050D7001F10105294602
:1024600000F10105EDB2284604E01D780D7001F180
:102470000105294603F101052B4604F10105EDB2E2
:102480002C46551EA542CADC1D780D7030BD10B516
:102490008AB04FF0C0008DF814004FF048008DF85E
:1024A0001500724800788DF81600714800788DF894
:1024B00017004FF000008DF818008DF819008DF806
:1024C0001A008DF81B008DF81C008DF81D004FF0D0
:1024D000D0008DF81E004FF001008DF81F004FF066
:1024E00032008DF820004FF00D0105A8FFF70FFF17
:1024F0008DF821004FF0C0008DF822004FF00F0240
:10250000694605A8FFF77CFF044621466846FFF7A9
:102510003FFF4FF06400484908700AB010BD10B585
:102520008AB04FF0C0008DF814004FF048008DF8CD
:1025300015004E4800788DF816004D4800788DF84B
:1025400017004FF000008DF818008DF819008DF875
:102550001A008DF81B008DF81C008DF81D004FF03F
:10256000D1008DF81E004FF001008DF81F004FF0D4
:1025700031008DF820004FF000008DF821004FF061
:102580000E0105A8FFF7C3FE8DF822004FF0C00032
:102590008DF823004FF01002694605A8FFF730FFC1
:1025A000044621466846FFF7F3FE4FF064002249D7
:1025B00008700AB010BD70B58DB06D462D4800781A
:1025C00006464FF00000044662E02B48005DDB2821
:1025D00054D12949601C085CDC280ED14FF00C0056
:1025E000287004F10100C0B2044605F1010005465F
:1025F000A6F10100C0B2064646E01F49601C085C17
:10260000DD2841D14FF0DB00287004F10100C0B299
:10261000044605F101000546A6F10100C0B20646D8
:1026200032E000007500001008120010C800001011
:102630000207001073000010C200001000000140EB
:10264000B8000010CD00001080120010CC00001067
:10265000C000001000C0024000C009208900001026
:10266000B0010000CB000010C10000101A000010E3
:102670001B000010CF000010E41200103448005D71
:10268000287005F10100054604F10100C0B20446BE
:1026900030480078844298DBB01EC0B201466846DC
:1026A000FFF735FEB11E1DF8011088423FD19DF89D
:1026B000010048283BD19DF8020018BB9DF803009B
:1026C00000BB9DF804002449097888422FD19DF869
:1026D000050022490978884229D19DF80700012880
:1026E00011D19DF8080032280DD19DF809009DF800
:1026F0000A1000EB012000EB80004FEA400000B21E
:102700001749088013E09DF8070001280FD19DF8B4
:10271000080031280BD19DF809009DF80A1000EB44
:1027200001209DF80B1000EB01400E4908600DB030
:1027300070BD00F01F024FF0010101FA02F14FEAF3
:1027400050124FF0E02303EB8202C2F800117047F1
:10275000E4120010CF0000101A0000101B0000103F
:10276000180000101400001000093D0001000000D6
:102770002F00010111000000000000000000000017
:1027800000000E0900000000000000000000000032
:102790000000000000000000000000000000000039
:1027A0000000000000000000000000000000000029
:1027B0000000000000000000000000000000000019
:1027C0000000000000000000000000000000000009
:1027D00000000000000000000000000000000000F9
:1027E00000000000000000000000000000000000E9
:1027F00000000000010000000000000000000000D8
:1028000000000000000000000000000000000000C8
:1028100000000100000000000000000000000000B7
:102820000100000000000000640000000000000043
:102830000000000000000000000000000000000098
:08284000000000000000000090
:04000005000000C532
:00000001FF
