:020000040000FA
:10000000D0490010CD010000D1010000D301000053
:10001000D5010000D7010000D90100000000000058
:10002000000000000000000000000000DB010000F4
:10003000DD01000000000000DF010000CBBD00007A
:10004000E30100007B0400007B050000E3010000E9
:10005000E3010000B5070100E3010000E301000037
:10006000E3010000E3010000E3010000E301000000
:10007000E3010000E3010000E3010000E3010000F0
:10008000E3010000E3010000E3010000E3010000E0
:10009000E3010000E30100003D300000E301000047
:1000A000E3010000E3010000E3010000E3010000C0
:1000B000E9090000E3010000E3010000E3010000A2
:1000C000E3010000E3010000E301000000F002F89A
:1000D00000F06DF80AA090E8000C82448344AAF175
:1000E0000107DA4501D100F062F8AFF2090EBAE873
:1000F0000F0013F0010F18BFFB1A43F0010318475C
:1001000034570300745703000A444FF0000C10F8F2
:10011000013B13F0070408BF10F8014B1D1108BF85
:1001200010F8015B641E05D010F8016B641E01F825
:10013000016BF9D113F0080F1EBF10F8014BAD1C75
:100140000C1B09D16D1E58BF01F801CBFAD505E093
:1001500014F8016B01F8016B6D1EF9D59142D6D3ED
:10016000704700000023002400250026103A28BF15
:1001700078C1FBD8520728BF30C148BF0B60704719
:10018000642910F04187732911F091810020704794
:100190001FB514F0C3FF11F04FFA04000020002136
:1001A00014F0A6FF401C60601FBD10B510BD11F01B
:1001B0001DFA1146FFF7ECFF0BF008FE11F052FAA2
:1001C00003B4FFF7F2FF03BC11F058FA08480047E8
:1001D000FEE7FEE7FEE7FEE7FEE7FEE7FEE7FEE7F7
:1001E000FEE7FEE703480449024A044B704700005B
:1001F000CD000000D0470010D0490010D0470010BB
:10020000FEE710B512F072FE12F000FF12F0F2FEDF
:1002100012F07EFEAFF30080BDE8104012F0BCBECD
:1002200010B513F0C7FC14F031FB13F019FDBDE855
:10023000104013F089BE13F0D3BB13F0ABB909B172
:100240000020704711F002BF002070471E4BDA609B
:100250001870597070471C48C16800290DD0491E9C
:10026000C1600AD1194902780A7042784A700A714D
:100270000021C1700171417181717047124A116191
:10028000907070471048016900290BD0491E016128
:1002900008D10E4A8178117000215170C17001712E
:1002A0004171817170470849088170470648B0F96B
:1002B0000810002907D0491E09B20181002902D186
:1002C000084602F072BA70471CC0072050010010A7
:1002D0000FB41CB5084B06AA7B44694600900598EC
:1002E00011F0BBF804460020694611F0C9F8204619
:1002F0001CBC5DF814FB0000A5110100FFFFFFFF0F
:1003000030B546480021C0F820110322C0F88420EF
:100310004FF40033C0F82831C0F82C11C0F88C100D
:100320003F4B436001230360AA23C3605524C4608C
:10033000A0F18000D0F888506D01FBD540F8802FE7
:10034000C360C460C0F88810364A4264C0F84811DF
:100350008268A0F180006FEA126292073249D0F8F9
:100360000C2102F0030207D092B3012A44D0022AE2
:1003700046D0032A4DD13BE02AB1012A11D0022AEE
:1003800027D0032A45D150F8882FC2F30E02521C01
:1003900053000268C2F30742521CB3FBF2F2234B34
:1003A0000CE050F8882FC2F30E02521C5300026872
:1003B000C2F30742521CB3FBF2F21D4B5A43C36F08
:1003C000A0F18800DBB203F10103B2FBF3F21FE0FE
:1003D0000EE050F8882FC2F30E02521C5300026840
:1003E000C2F30742521CB3FBF2F24FF4FA43E5E7C3
:1003F000D0F804210D4B07E0D0F804210C4B03E0AA
:10040000D0F804214FF4FA43D2B2521CB3FBF2F2FB
:100410000A6043F23A01016030BD000080C00F4025
:10042000C70003004A91004008C0072000093D00B2
:100430008096980070B542F2273359430022022477
:10044000FF230425012660B1012809D16E484460CC
:10045000C26081610360456146604168C907FCD1A3
:1004600070BD4FF040204460C2608161036045610F
:1004700046604168C907FCD170BD2DE9F0414FF0DD
:10048000402001250560614801680024491C016085
:100490005F48614E04805F48057071695F48604A3B
:1004A000C1F38021017013785E48994202D003881D
:1004B0005B1C038011705C490A88521C12B20A80CE
:1004C000142A02DB0C8059490D7059490A88521CC4
:1004D00012B20A800A2A4ADB0C8056490D7056492E
:1004E0000A88521C12B20A80B2F5FA7F04DB534A22
:1004F0000C80018811800480514F3888401C00B264
:1005000038800A2804DB4F483C80057001F09CF8D5
:100510003888052801D101F097F84B480188491C1B
:1005200009B20180142908DB048048480570484856
:10053000017809B1047000E0057046480188491C43
:1005400009B20180322908DB048043480570434822
:10055000017809B1047000E0057041480188491C28
:1005600009B20180642902DB04803E480570F0690D
:1005700040F00100F061BDE8F081234901200860EE
:1005800022484168491C41607047012110B11E4852
:10059000416070474FF04020FAE7002110B11A483F
:1005A000416070474FF04020FAE728B11648416893
:1005B00041F00201416070474FF04020F7E710B56D
:1005C0000022124C032318B1012808D0002010BDCE
:1005D00022604FF0402081614361012004E06260AD
:1005E000094881614361022000F002F8012010BD3A
:1005F00000F01F020121914040094FF0E02202EB80
:100600008000C0F800117047008000400CC0072037
:10061000C001001030C0072000C009203EC00720E4
:10062000CC0100103CC0072038C00720BA010010E0
:1006300032C007202E000010CA0100105400001024
:10064000BC0100102F00001034C007203000001043
:1006500034000010BE010010310000103500001001
:1006600036C0072032000010C1F12002904010B5C2
:10067000FF4A4FF4007453150EE0002801DA946528
:1006800000E0D46500BF00BF00BF936500BF00BF9E
:1006900000BFD3654000491E0029EED110BD70B5E2
:1006A0000546F4480078012813D04FF0A04045F4E7
:1006B000807181620121416200210213436BDB07DB
:1006C00002D0491C9142F9D300214162056BA8B2C6
:1006D00070BDE74C206C40F40070206420214FF086
:1006E000FF30FFF7C1FF04210620FFF7BDFF052102
:1006F0000120FFF7B9FF05212846FFF7B5FF00F0FD
:10070000D1F90025284661154FEA4505A16500BFCE
:1007100000BF00BFE165626D920501D545F001059E
:10072000401C1028F0D300F0BDF9D0E770B50546A5
:10073000D0480C46007801280ED04FF0A04245F476
:1007400080709062D46200201113536BDB0702D0DB
:10075000401C8842F9D370BDC548016C41F400715A
:10076000016420214FF0FF30FFF77EFF04210520B8
:10077000FFF77AFF05210120FFF776FF05212846C4
:10078000FFF772FF02210846FFF76EFF1021204697
:10079000FFF76AFFBDE8704000F084B92DE9FC471F
:1007A000B44C002536202570009062686946684682
:1007B000904701982521B1EB106F01D101202070E5
:1007C000AD480268AD4942F080420260AC488160A9
:1007D0002178E9B30269A64922F470220261086C0B
:1007E00040F48070C1F840004FF0A0444FF44F40F7
:1007F00020607820C4F800016420401EFDD14FF035
:100800000208C4F80080302060604001606143F25B
:100810000F7020611227E7607801C4F800014FF4DF
:100820000060A0616426761EFDD1A5614FF40041F1
:100830000020FFF77BFF4FF480190020FFF72FFF08
:1008400010F4084F02D0761C4E45F6D3022000E08B
:1008500024E0FFF724FF06460320FFF720FF4FF6B2
:10086000F0710840874940EA064088420DD14FF4B4
:1008700040510020FFF75AFF00260120FFF70FFF2D
:10088000800602D4761C4E45F7D300264FF48039FB
:100890001020FFF704FFC10709D105E0C16821F06E
:1008A0000F01491DC1609FE7761C4E45F0D34107FB
:1008B0000CD5616841F001016160D4F80021152177
:1008C00042F48062C4F80021A16000E0A7608007C4
:1008D00001D5A56102E04FF48070A0616A4881886B
:1008E0002164418861640088A064684B684EA3F16C
:1008F0006401002001F1200200EB400703EB4727D1
:1009000041F8307001EBC0077E6042F8305002EBD6
:10091000C007401C7D600428EED3C4F80811C4F859
:100920000C210320C4F81001C4F8185157490020C5
:10093000584E243901F1180200EB400306EB432323
:1009400041F8303001EBC0035D6042F82050401C9C
:100950000328F1D304F1AC0421676267C4F87880FE
:10096000E5674FF02600C4F854014FF08800C4F842
:10097000380F4FF6FF70C4F83C0F606D40F0030075
:10098000606554F8AC0D40F001002060BDE8FC87C4
:1009900041484FF080510160704740484FF080510E
:1009A00001607047F0B54FF0A04CDCF82811374DCE
:1009B0000388243D021D55F83140DB1C9B0805D0FF
:1009C00040CA271D26603C465B1EF9D1008805EB16
:1009D000C102401E40F04040491C5060032900D134
:1009E0000021CCF82811F0BD2DE9F0414FF0A045D1
:1009F00036E000BFC5F8E80F000731D5D5F818413B
:100A00002AE02248443850F8340041001ED5C0F393
:100A10000A06F61E40F2EA518E4217D820490842D3
:100A200014D146F0004010F0CFFE78B1174A011DF6
:100A3000643AF61C52F83430B20805D040CB0F1D92
:100A40000E603946521EF9D113F030F8641C042CA4
:100A500000D10024C5F81841D5F81401A042D0D126
:100A6000D5F8E00FD5F8E41F0840C3D1BDE8F08108
:100A700000C0092014C00720C4C00F400501155054
:100A800000C00240905C002000C007206C130010E2
:100A9000FF0500806C2B001000E100E080E100E029
:100AA0000000901B0748026C411522F4007202649A
:100AB000816500BF00BF00BFC16500BF00BF00BFB0
:100AC0007047000000C00920FF49886048680006A0
:100AD000FCD58868C0B27047FC48016841F04041CD
:100AE0000160416821F003014160416841F00C015F
:100AF00041604268082142F030024260F248C16021
:100B0000202101607047F148016821F040410160F7
:100B1000416821F003014160416821F00C0141600E
:100B20004268002122F030024260E74801607047CD
:100B300000B5FFF7D1FFE64A106840F00060106092
:100B4000D06940F00060D0610620FFF7BDFF10685B
:100B500040F000601060906940F0006090615DF8C6
:100B600004EBD0E700B5FFF7B7FFD94A106840F0B3
:100B700000601060D06940F00060D0610520FFF790
:100B8000A3FFFF20FFF7A0FF0346106840F00060BE
:100B90001060906940F000609061FFF7B4FF184664
:100BA00000BD01B5FFF7DEFFC007FBD1FFF794FFE3
:100BB000C74A106840F000601060D06940F00060E3
:100BC000D061106840F000601060D06940F00060B3
:100BD000D0610320FFF778FF9DF80100FFF774FF55
:100BE0009DF80000FFF770FFFF20FFF76DFF034641
:100BF000106840F000601060906940F00060906103
:100C0000106840F000601060906940F000609061F2
:100C1000FFF779FF184608BD11B5AD4C206840F0CC
:100C200002002060A06940F00200A061FFF79AFF77
:100C3000C007FBD1FFF750FF206840F00060206044
:100C4000E06940F00060E0610320FFF73DFF9DF8A0
:100C50000100FFF739FF9DF80000FFF735FFFF2087
:100C6000FFF732FF0246FF20FFF72EFF02EB0023C3
:100C7000206840F000602060A06940F00060A06142
:100C8000206840F000602060A06940F00060A06132
:100C9000FFF739FFE06940F00200E061184618BD37
:100CA0002DE93140FFF75EFFC007FBD1FFF714FFCE
:100CB000874A106840F000601060D06940F0006022
:100CC000D0610320FFF700FF9DF80100FFF7FCFE55
:100CD0009DF80000FFF7F8FEFF20FFF7F5FE034642
:100CE000FF20FFF7F1FE0446FF20FFF7EDFE05466B
:100CF000FF20FFF7E9FE05EB002004EB002003EBEB
:100D00000023106840F000601060906940F00060BF
:100D10009061106840F000601060906940F00060E1
:100D20009061FFF7F0FE184638BD13B54FEA010495
:100D3000FFF718FFC007FBD1FFF7CEFE644A10682B
:100D400040F000601060D06940F00060D061032086
:100D5000FFF7BAFE9DF80100FFF7B6FE9DF8000010
:100D6000FFF7B2FEFF20FFF7AFFE2070FF20FFF776
:100D7000ABFE6070FF20FFF7A7FEA070FF20FFF71B
:100D8000A3FEE070106840F000601060906940F0D1
:100D900000609061106840F000601060906940F061
:100DA00000609061BDE81C40ADE677B50D46164683
:100DB000FFF7D8FEC007FBD1FFF78EFE444B186843
:100DC00040F000601860D86940F00060D8610320EE
:100DD000FFF77AFE9DF80100FFF776FE9DF8000010
:100DE000FFF772FE002406E0FF20FFF76DFE641C93
:100DF00005F8010BE4B2B442F6D3186840F0006085
:100E00001860986940F000609861186840F00060D0
:100E10001860986940F000609861BDE87E4072E615
:100E200013B50C46FFF79EFEC007FBD1FFF780FE0F
:100E3000FFF752FE264A106840F000601060D0694B
:100E400040F00060D0610220FFF73EFE9DF80100F7
:100E5000FFF73AFE9DF80000FFF736FE2046FFF749
:100E600033FE0346106840F000601060906940F067
:100E700000609061106840F000601060906940F080
:100E800000609061FFF73FFE18461CBD2DE903404E
:100E9000FFF768FEC007FBD1FFF74AFEFFF71CFE15
:100EA0000B4A106840F000601060D06940F00060AC
:100EB000D0610220FFF708FE9DF80100FFF704FE55
:100EC0009DF8000006E000000000024000C0024063
:100ED00000C00920FFF7F8FD9DF80400FFF7F4FDBE
:100EE0009DF805301846FFF7EFFD106840F00060F0
:100EF0001060906940F000609061106840F0006000
:100F00001060906940F000609061FFF7FCFD1846AA
:100F10000CBD03B5FFF726FEC007FBD1FFF708FEA7
:100F2000FFF7DAFD3C4A106840F000601060D069BD
:100F300040F00060D0610220FFF7C6FD9DF801007F
:100F4000FFF7C2FD9DF80000FFF7BEFD9DF804000D
:100F5000FFF7BAFD9DF80500FFF7B6FD9DF8060006
:100F6000FFF7B2FD9DF807301846FFF7ADFD10689A
:100F700040F000601060906940F00060906110687F
:100F800040F000601060906940F000609061FFF7F1
:100F9000BAFD18460CBD13B54FEA0104FFF7E2FD98
:100FA000C007FBD1FFF7C4FDFFF796FD1A4A106892
:100FB00040F000601060D06940F00060D061022015
:100FC000FFF782FD9DF80100FFF77EFD9DF8000010
:100FD000FFF77AFD2078FFF777FD6078FFF774FD63
:100FE000A078FFF771FDE3781846FFF76DFD1068F4
:100FF00040F000601060906940F0006090611068FF
:1010000040F000601060906940F000609061FFF770
:101010007AFD18461CBD000000C00920FF48016A87
:1010200021F07F710162816900BF41F4000181619B
:1010300000BF00BF00BF00BF00BF00BF00BF00BFB8
:1010400000BFC16900BF41F00051C16100BF00BFD6
:1010500000BF00BF00BF00BF00BF00BF00BF81696D
:1010600041F080418161416B8901FCD47047EB48BC
:10107000016A21F07F710162816900BF41F40001C2
:10108000816100BF00BF00BF00BF00BF00BF00BF45
:1010900000BF00BFC16900BF41F00051C16100BF86
:1010A00000BF00BF00BF00BF00BF00BF00BF00BF48
:1010B000816941F080718161416B8901FCD4704785
:1010C000D64A00B50346106840F0C1401060FFF7F3
:1010D000A5FF00BF00BF00BF00BF00BF00BF00BF33
:1010E00000BF00BF00BFD06940F00050D06100BF1A
:1010F00000BF00BF00BF00BF00BF00BF00BF00BFF8
:1011000000BFD06940F40000D06100BF00BF00BF45
:1011100000BF00BF00BF00BF00BF00BF00BF106A1C
:1011200040F07F701062906B40EA83409063D06B18
:10113000D943C9B240EA8140D06300BF00BF00BFBD
:1011400000BF00BF00BF00BF00BF00BF00BFD0692D
:1011500040F08040D06100BF00BF00BF00BF00BFB3
:1011600000BF00BF00BF00BF00BF00BDAB4A00B55D
:101170000346106840F000501060106840F0C070E6
:101180001060FFF774FF00BF00BF00BF00BF00BFCB
:1011900000BF00BF00BF00BF00BFD06940F00050DB
:1011A000D06100BF00BF00BF00BF00BF00BF00BFD5
:1011B00000BF00BF00BFD06940F40000D06100BF95
:1011C00000BF00BF00BF00BF00BF00BF00BF00BF27
:1011D00000BF106A40F07F701062906B40EA83405D
:1011E0009063D06BD943C9B240EA8140D06300BF5D
:1011F00000BF00BF00BF00BF00BF00BF00BF00BFF7
:1012000000BFD06940F08070D06100BF00BF00BF58
:1012100000BF00BF00BF00BF00BF00BF00BF00BDD8
:101220007E4A00B50346106840F0C0401060106868
:1012300040F400001060FFF7F1FE00BF00BF00BFE8
:1012400000BF00BF00BF00BF00BF00BF00BF90696C
:1012500040F00050906100BF00BF00BF00BF00BF62
:1012600000BF00BF00BF00BF00BFD06940F4000056
:10127000D06100BF00BF00BF00BF00BF00BF00BF04
:1012800000BF00BF00BF106A40F07F701062906B1B
:1012900040EA83409063D06BD943C9B240EA8140B1
:1012A000D06300BF00BF00BF00BF00BF00BF00BFD2
:1012B00000BF00BF00BFD06940F08040D06100BFD8
:1012C00000BF00BF00BF00BF00BF00BF00BF00BF26
:1012D00000BF184600BD514A00B50346106840F0F3
:1012E00000501060106840F0C0701060FFF7BFFE43
:1012F00000BF00BF00BF00BF00BF00BF00BF00BFF6
:1013000000BF00BF906940F00050906100BF00BF77
:1013100000BF00BF00BF00BF00BF00BF00BF00BFD5
:10132000D06940F40000D06100BF00BF00BF00BF23
:1013300000BF00BF00BF00BF00BF00BF106A40F089
:101340007F701062906B40EA83409063D06BD9430A
:10135000C9B240EA8140D06300BF00BF00BF00BFF8
:1013600000BF00BF00BF00BF00BF00BFD06940F09A
:101370008070D06100BF00BF00BF00BF00BF00BFD2
:1013800000BF00BF00BF00BF00BD10B540F0B804F3
:101390002046FFF795FE2046BDE81040E6E610B572
:1013A0000446FFF78DFE2046BDE81040DEE610B58E
:1013B00040F0C0042046FFF783FE2046BDE8104001
:1013C000D4E61748416821F440114160816821F05A
:1013D00040518160816821F440318160816821F051
:1013E00040618160816821F440418160416821F061
:1013F00030014160416821F0C0014160416821F441
:1014000040714160416821F440614160416821F4CC
:1014100040514160416821F4404103E000C009208F
:1014200000C002404160416821F44031416042689F
:10143000814922F440224260086A804A10430862CF
:101440000A68002042F0C3420A60CA6B401C42F0A6
:101450008062CA636428F8DB794A002000BF401C20
:101460009042FBDB00208B6B401C43F080638B635E
:101470003228F8DB002000BF401C9042FBDB7047A5
:101480006D484FF00051C16189118161C9018161CD
:1014900000BF00BF00BF00BF426B9201F9D4C16121
:1014A0007047002000BF401C00B26428FADB704780
:1014B00030B50346FFF7E4FF5F494FF40000886151
:1014C0008201CA61C2018A6144008C618D6B45EA68
:1014D00083458D63CD6BDB43DBB245EA8343CB634E
:1014E000CA61CC61C86130BD5648416821F44011E1
:1014F0004160816821F040618160816821F0405144
:101500008160816821F440318160816821F440412B
:101510008160416821F030014160416821F0C001E3
:101520004160416821F440714160416821F44061AB
:101530004160416821F440514160416821F44041DB
:101540004160416821F44031416042683A4922F4E7
:1015500040224260086A394A104308620A68002043
:1015600042F0C3420A60CA6B401C42F08062CA6308
:101570000A28F8DB00204FF4FA7200BF401C9042AA
:10158000FBDB00204CF250328B6B401C43F080633D
:101590008B639042F8DBE2208AE730B500242046D6
:1015A000FFF7F3FE0020FFF7FAFE00255820FFF7B3
:1015B00037FE7A20FFF78FFE6D1CEDB23C2DF5D97A
:1015C000641CE4B2032CEAD930BD00B5AF20FFF7AC
:1015D00077FDAF205DF804EBC8E500B5AE20FFF75E
:1015E0006FFDAE205DF804EBC0E5F0B58446002049
:1015F000FFF7DDFE5FF0000606EB4600C0EB86104D
:101600000CEB400404F13D053046FFF7BEFE002020
:10161000FFF7C5FE00272078FFF702FE2878FFF7C6
:101620005AFE7F1C641C6D1CFFB23D2FF3D3761C49
:10163000F6B2032EE0D9F0BD00C009200000FC077F
:101640007088020000C002401E4810B5026A1E49A0
:1016500042F0006202624A68D30709D01B4B1B8824
:1016600033B1836B062443F0006383634C7003E063
:10167000C36B43F00063C363500848600878401EA2
:1016800010F0FF00087003D12020087088684860BF
:1016900010BD10B50C4A002320244F2908D0412941
:1016A00009D052290BD0532908D15360936004E02C
:1016B000C2E9010301E050609060147010BD9060B9
:1016C00010BD000000C00920000000106C000010D8
:1016D0000020FE4A20211154401CC0B2C828FAD371
:1016E00070470146F94A0020401CC0B2135C8B428F
:1016F00001D0C828F8D3704710B50021F44C0A2255
:10170000B0FBF2F302FB13006054491CC9B2184647
:101710000529F5D310BDF0B5EE4B01212027197036
:101720000521EB4A002601E01C7844B1541814F856
:10173000015C25B9814202D904F8017C05E0541806
:1017400014F8015D303525701E70491E11F0FF013F
:10175000EAD1F0BD70B50D461446002802DAC04348
:10176000401C00B2FFF7C8FF601CC0B2FFF7D3FFF8
:101770002846FFF7B6FFFF2819D0D54AD34B0021E2
:10178000A14201D2555C13E004D14FF02E051D5447
:10179000555C03E0555C202D03D04CB11E1806F8B3
:1017A000015C401E491CC9B2C0B20529E8D370BD16
:1017B0001D54F6E7F0B50D461446002801DA404204
:1017C00000B2FFF799FF601CC0B2FFF7A4FF2846E4
:1017D000FFF787FFBE4ABD4B002164B9555C202D41
:1017E00009D056187678202E03D12D261F1807F819
:1017F000016C1D540FE0A14201D2555CF9E704D100
:101800004FF02E051D54555C02E0555C202D02D092
:101810001E1806F8015C401E491CC9B2C0B2052959
:10182000DBD3F0BDFEB52B23002802DA404200B224
:101830002D2300250A266C4690FBF6F706FB1700C1
:1018400060556D1C6DB238B20A2DF5DB01260025FE
:101850000920202700E046B114F800C0BCF1000FB9
:1018600003D1904201DD275405E0265C3036265432
:1018700000266D1CEDB2401E40B20028EBDA2D2B85
:1018800002D163556D1CEDB26AB168B205E0231850
:10189000461E13F8013C235470B29042F7DC2E2010
:1018A0006D1CA054EDB20846FFF71BFF0021874ACC
:1018B00004E0635C461A491C935549B2A942F8DB1F
:1018C000FEBDFEB52B23002801DA40422D23002562
:1018D0000A266C46074690FBF6F006FB1077675524
:1018E0006D1C6DB20A2DF5DB01260025092020278D
:1018F00000E046B114F800C0BCF1000F03D19042E3
:1019000001DD275405E0265C3036265400266D1C88
:10191000EDB2401E40B20028EBDA2D2B02D1635508
:101920006D1CEDB26AB168B205E02318461E13F8CB
:10193000013C235470B29042F7DC2E206D1CA05461
:10194000EDB20846FFF7CDFE0021604A04E0635C7B
:10195000461A491C935549B2A942F8DBFEBDFEB5B3
:101960002B26002801DA40422D2600240A276D4646
:10197000844690FBF7F007FB10CC05F804C0641C0C
:1019800064B20A2CF4DB0127002009244FF0200C5C
:1019900000E04FB115F804E0BEF1000F04D19C4205
:1019A00002DD05F804C005E02F5D30372F55002714
:1019B000401CC0B2641E64B2002CEADA2D2E02D1A3
:1019C0002E54401CC0B26BB144B205E02E1916F87B
:1019D000017C661E2F5574B29C42F7DC2E24401CFD
:1019E000EC54C0B201EB810102EB8101CAB20021CB
:1019F000364B04E06C5C561A491C9C5549B2814236
:101A0000F8DBFEBD70B50D4616461C46FFF774FEAA
:101A1000601CC0B2FFF77FFE05EB850006EB80007F
:101A2000C1B22B4A294B0020A04201D2155C5D5463
:101A300006D3155C202D03D04CB15E1806F8015C6E
:101A4000491E401CC0B2C9B20528EDD370BD5D541B
:101A5000F6E72DE9FF4F8146DDE90D048A469346FE
:101A6000FFF73FFE2022DFF8708018490A234FF06D
:101A7000640C012C09D198F8005035B10D18A5F16E
:101A80000E05AA706A702A7028E099FBF3F603FB32
:101A900016970D183037A5F10E05022CAF7096FB86
:101AA000F3F703FB176606F130066E7099FBFCF640
:101AB00006F1300605F80E6B10D198F800606EB193
:101AC000A5F10A05AA706A702A7029E0A20208200E
:101AD000D0010010D5010010350000109AFBF3F67C
:101AE00003FB16A70D183037A5F10A05032CAF70BC
:101AF00096FBF3F703FB176606F130066E709AFB50
:101B0000FCF606F13006674605F80A6B08D198F82E
:101B100000602EB1A5F10605AA706A702A7022E055
:101B20009BFBF3F603FB16B70D183037A5F106053E
:101B3000042CAF7096FBF3F703FB176606F1300633
:101B40006E709BFBFCF606F13006674605F8066BE7
:101B500009D198F8004034B1A5F102050A546A7021
:101B60002A70BDE8FF8F039C94FBF3F203FB124441
:101B700030340C5492FBF3F403FB14220844A0F11C
:101B8000020030324270039991FBF7F101F130010C
:101B90000170E6E770B50D461446FFF7ADFD601C19
:101BA000C0B2FFF7B8FD2846FFF79BFDFF4B0021B1
:101BB000FF4A24B95D5C202D01D015540FE0A142ED
:101BC00001D25D5CF9E704D14FF02E0515545D5C40
:101BD00002E05D5C202D02D0161806F8015C401E64
:101BE000491CC9B2C0B20529E3D370BD17B501EBDA
:101BF000810002EB8000C2B29DF80030ED4803F096
:101C00000F0100EB1313445CE9498C54521ED2B20D
:101C10001C78531E8C54DAB29DF8013003F00F0487
:101C200000EB1313045D8C54521ED2B21C78531E69
:101C30008C54DAB29DF8023003F00F0400EB13135A
:101C4000045D8C54521ED2B21C78531E8C54DAB2EE
:101C50009DF8033003F00F04045D8C54521E00EB1A
:101C60001310D2B2007888541EBD10B50446084641
:101C7000FFF737FDCF4904F00F028B5CCC4A01EB34
:101C800014111354401EC0B20978115410BD01EB59
:101C9000810102EB8101C74A10B500F00F03C9B200
:101CA000D45CC34B02EB10105C54491EC9B20078DF
:101CB000585410BD01EB810130B502EB8101CBB26C
:101CC000C11700EB117424F00F01401AB949B84A4A
:101CD000405CD0542011C41700EB147424F00F059D
:101CE0005B1E401BDBB2405CD0542011C41700EBDC
:101CF000147424F00F055B1E401BDBB2405CD05413
:101D00005B1ED8B22311C95C115430BD01EB8101B7
:101D100002EB8101CBB2A74910B500F001028C5C47
:101D2000A34AD45444085B1E04F00100DBB2085CF3
:101D3000D0545B1ED8B2630803F001045B080C5D4D
:101D40001454401E03F00104C0B20C5D14545B082F
:101D5000401E03F00104C0B20C5D14545B08401E29
:101D600003F00104C0B20C5D14545B08401E03F084
:101D70000104C0B20C5D1454401EC4B25808085C83
:101D8000105510BD104400B2002801DA084402E0EA
:101D9000884201DB401A00B2704787490020087072
:101DA00048708870854948707047F0B505460E4602
:101DB0001746FFF78DFC7E4C5FF0000015F8011B05
:101DC000621C401C2170C0B214461428F6D30020B7
:101DD00016F8011B621C401C2170C0B21446142866
:101DE000F6D3002017F8011B621C401C2170C0B202
:101DF00014461428F6D3002013F8011B621C401C63
:101E00002170C0B214461428F6D3F0BD30B5044694
:101E100008461546FFF765FCFF2809D0644A21787B
:101E2000002905D04319641C401CD154C0B2F6E708
:101E300030BDF0B5624E634D96F9004004EB840767
:101E4000641C34705D4C3D4426682E6026792E71EA
:101E5000207061702271A370F0BD10B5029CFFF775
:101E6000A4FF5648C378827841784820FFF7E1FF05
:101E7000642094FBF0F0BDE81040C0B2FEF713BA46
:101E800000EB800001EB80004F4908704F48027062
:101E900070472DE9FE4340010D4600F58060044681
:101EA00002A9FEF742FF694604F10800FEF73DFF74
:101EB00001A904F10C00FEF738FF2846FFF711FCDA
:101EC0003B4C202630252654401CC0B24FF0210840
:101ED0002554401CC0B22F2104F80080401CC0B221
:101EE0004FF040092154401CC0B24FF0230C04F8BD
:101EF0000090401CC0B200222654401CC0B22654A0
:101F0000401CC0B22154401CC0B221212554401CA9
:101F1000C0B204F800C0401CC7B29DF80200FFF731
:101F200039FE9DF8000000222321FFF733FE9DF8C3
:101F30000100401E0C2802D301208DF801009DF8FD
:101F400001002349002201EB80004021FFF75EFFE2
:101F5000E6557F1CF8B23A212554401CC0B200223D
:101F600004F80080401CC0B22154401CC0B225546B
:101F7000401CC0B204F80090401CC0B22154401C68
:101F8000C0B221212554401CC0B204F800C09DF805
:101F90000400FFF7FFFD9DF8050000224021FFF738
:101FA000F9FD00229DF80600232113E0D001001066
:101FB000A2020820565901000C0100105001001027
:101FC00024000010700208203700001038000010B4
:101FD0009B590100FFF7DEFDBDE8FE832DE9FE4FB2
:101FE00004460D464FF46060FEF716FE6242402143
:101FF00000B2FFF7C7FE400100F58060044602A969
:10200000FEF793FE694604F10800FEF78EFE01A973
:1020100004F10C00FEF789FE2846FFF762FB064636
:102020009DF8080040273025DFF804B5DFF804A547
:1020300020244FF0210C4FF02309552820D0CF2227
:10204000D123502873D0422872D0532871D0492808
:102050006BD1C8210AF80610761CF1B2ED220AF8FD
:102060000120491CC9B2E2220AF80120491C9DF84E
:1020700009205046C9B2092A7ED2313242548CE33B
:102080009DF80A0052280ED1C2210AF80610761CCB
:10209000F1B2EA220AF80120491CC9B2EB220AF87F
:1020A0000120491CCEB250460AF80640761CF1B217
:1020B0000AF80140491CC9B220E300BF9DF8012085
:1020C00096F838309A4267D19DF8022096F82C3065
:1020D0009A4261D14554491CC9B23A2200F801C064
:1020E000491CC9B24254491CC9B24554491CC9B221
:1020F0004754491CC9B24254491CC9B20022455434
:10210000491CC9B20AF801909DF804002121FFF78B
:1021100041FD9DF8050000224021FFF73BFD9DF8A1
:10212000060000222321FFF735FDBDE8FE8F0BE0FE
:1021300033E0B0E29DF80110FF48002200EB81007F
:102140004021FFF763FEF0E70AF80620761CF1B2A3
:1021500050460AF80130491CC9B20AF80140491C2E
:10216000C9B20AF80140491CC9B20AF80140491C29
:10217000C9B20AF8014000E0FCE2491CC9B27EE2A3
:102180009DF8013092F83860B34205D19DF80230D5
:1021900092F82C2093429DD0BEE29DF80A0043287D
:1021A0007ED1C1210AF80610761CF1B2E0220AF8AD
:1021B0000120491CC9B2F2220AF80120491C9DF8ED
:1021C0000900C9B24FF0C00E09280BD231300AF80D
:1021D0000100491CC8B20AF800E0401CC0B20AF86D
:1021E000004016E0A0F109025A2A15D2401C0A2329
:1021F000B0FBF3F808F130020AF80120491C03FB98
:102200001800C9B230300AF80100491CC8B20AF8F7
:1022100000E0401CC1B20BE00AF80140491CC9B201
:102220000AF80140491CC9B20AF80140491CC9B268
:1022300050460AF80140491C9DF80020BBF83C308C
:10224000C9B25E469A423BD19DF8012096F83830DB
:102250009A4235D19DF8022096F82C309A422FD11F
:102260004554491CC9B23A2200F801C0491CC9B200
:102270004254491CC9B24554491CC9B24754491C6F
:10228000C9B24254491CC9B200224554491CC9B2C2
:102290000AF80190491CCEB29DF80400212100E00B
:1022A00045E0FFF777FC9DF8050000224021FFF78D
:1022B00071FC9DF8060000222321FFF76BFC36E03D
:1022C0004454491CC9B200224554491CC9B200F803
:1022D00001C0491CC9B24754491CC9B24454491CE5
:1022E000C9B24454491CC9B24554491CC9B20AF880
:1022F0000190491CCEB29DF802002121FFF74AFC53
:102300009DF8000000222321FFF744FC9DF8010006
:10231000401E0C2802D301208DF801009DF8011009
:102320008548002200EB81004021FFF76FFD9DF8FA
:102330000A005A285CD1C2210AF80610761CF1B2B4
:10234000C7220AF80120491CC9B250460AF80140C8
:10235000491CC9B25E460AF80140491CC9B20AF8D4
:102360000140491CC9B24454491CC9B24454491CD7
:102370009DF80020BBF83C30C9B29A4239D19DF893
:10238000012096F838309A4233D19DF8022096F811
:102390002C309A422DD14554491CC9B23A2200F83A
:1023A00001C0491CC9B24254491CC9B24554491C18
:1023B000C9B24754491CC9B24254491CC9B200228F
:1023C0004554491CC9B20AF80190491CCEB29DF887
:1023D00004002121FFF7DEFB9DF8050000224021CB
:1023E000FFF7D8FB9DF8060000222321FFF7D2FB60
:1023F00036E04454491CC9B200224554491CC9B2B4
:1024000000F801C0491CC9B24754491CC9B2445420
:10241000491CC9B24454491CC9B24554491CC9B2EB
:102420000AF80190491CCEB29DF802002121FFF765
:10243000B1FB9DF8000000222321FFF7ABFB9DF8C4
:102440000100401E0C2802D301208DF801009DF8E8
:1024500001103948002200EB81004021FFF7D6FC33
:102460009DF80A00572869D1C1210AF80610761C88
:10247000F1B2E0220AF80120491CC9B2F2220AF89E
:102480000120491CCEB29DF8091050464FF0F00EC5
:10249000092906D231318155761CF1B200F801E0EC
:1024A00019E0A1F109025A2A11D2491C0A23B1FBF1
:1024B000F3F808F130028255761C03FB1811F6B2CE
:1024C00030318155761CF1B200F801E006E0845508
:1024D000761CF1B24454491CC9B24454491CC9B2D7
:1024E0005E464454491C9DF80020BBF83C30C9B2FC
:1024F0009A4241D19DF8012096F838309A423BD15A
:102500009DF8022096F82C309A4235D14554491C4A
:10251000C9B23A2200F801C0491CC9B24254491C50
:10252000C9B24554491CC9B24754491CC9B206E056
:1025300000400240A20208209B59010053E042548F
:10254000491CC9B200224554491CC9B20AF801907D
:10255000491CCEB29DF804002121FFF71BFB9DF81A
:10256000050000224021FFF715FB9DF80600002220
:102570002321FFF70FFB36E04454491CC9B2002267
:102580004554491CC9B200F801C0491CC9B247549E
:10259000491CC9B24454491CC9B24454491CC9B26B
:1025A0004554491CC9B20AF80190491CCEB29DF8A5
:1025B00002002121FFF7EEFA9DF8000000222321FE
:1025C000FFF7E8FA9DF80100401E0C2802D3012015
:1025D0008DF801009DF801109F48002200EB81005A
:1025E0004021FFF713FC9DF80A004B287FF4ABADA8
:1025F000C1210AF80610761CF1B2E0220AF8012087
:10260000491CC9B2F2220AF80120491C9DF80900B0
:10261000C9B209280BD231300AF80100491CC8B2EE
:10262000EA210AF80010401CC0B2E52115E0A0F133
:1026300009025A2A16D2401C0A23B0FBF3F808F10B
:1026400030020AF80120491C03FB1800C9B23030DF
:102650000AF80100491CC8B2EA210AF80010401C1F
:10266000C1B20BE00AF80140491CC9B20AF80140A6
:10267000491CC9B20AF80140491CC9B250465A4621
:102680004454491C9DF80030BBF83C60C9B2B342C9
:102690003FF476AD40E0C1210AF80610761CF1B295
:1026A0000AF80120491CC9B20AF80130491CC8B215
:1026B0009DF80910092903D231310AF8001016E0FB
:1026C000A1F109025A2A10D2491C4FF00A08B1FBA5
:1026D000F8F606F130020AF80020401C08FB16113B
:1026E000C0B230310AF8001005E00AF80040401C82
:1026F000C0B20AF80040401CC1B250465E46445485
:10270000491CC9B24454491C9DF80020BBF83C3018
:10271000C9B29A423FF4D2AC4454491CC9B2002217
:102720004554491CC9B200F801C0491CC9B24754FC
:10273000491CC9B24454491CC9B24454491CC9B2C9
:102740004554491CC9B20AF801909DF802002121A4
:10275000FFF720FA9DF8000000222321FFF71AFA64
:102760009DF80100401E0C28FFF4E4AC01208DF818
:102770000100DFE4A2F109035A2B0DD2521C0A25F5
:10278000B2FBF5F303F130064654491C05FB132256
:10279000C9B23032425403E04454491CC9B24454D3
:1027A000491CC9B20AF80140BFE42C4B1A78521EEA
:1027B000104440B21870002801DA0020187093F914
:1027C0000030274A03EB830326481A44136803604A
:1027D00012790271427811444170704730B5214935
:1027E0000123214D91F9012091F9041000EB80049F
:1027F0008A4202D105F8243030BD1B4D4C1C00EB41
:10280000800005EB8000A24201D1037530BD8C1C15
:10281000A24202D180F8283030BDCC1CA24202D1A5
:1028200080F83C3030BD0C1DA24202D180F85030FF
:1028300030BD4C1DA24202D180F8643030BD8C1DE9
:10284000A24202D180F8783030BDC91D8A42FBD146
:1028500080F88C3030BD00009B590100240000102E
:102860007002082050010010A202082090F90030E8
:102870008B4200DA027090F90030934200DD017063
:10288000704790F900308B4200DA017090F9001027
:10289000914200DD02707047B0F900308B4200DADF
:1028A0000180B0F90010914200DD02807047B0F95C
:1028B00000308B4200DA0280B0F90030934200DD34
:1028C0000180704703688B4200DA0260036893421C
:1028D00000DD0160704700002DE9F84F9E460A9B1D
:1028E000202931D2CC1701EB5475EE106FF03C0764
:1028F00006FB07F425F0070500EB44044D1BDFF849
:10290000349704F5B774002A34D0A0B2C5F107019A
:10291000C9B24FF0010404FA01F40244494611DC43
:1029200025E023B1012B05D0022B06D008E00D5C79
:10293000254304E00D5C654001E00D5C25400D542D
:10294000401C80B28242ECDCBDE8F88F23B1012B41
:1029500005D0022B06D008E00D5C254304E00D5C99
:10296000654001E00D5C25400D54401E80B282425E
:10297000ECDBE9E7BEF1000FE6D0B2B201EB0E06E8
:102980004FEAE67406EB54771FFA85FA27F007053D
:10299000C7F3CF04A6EB0505AFB276DDA24244D162
:1029A000D0463FE023B1012B13D0022B24D035E0D9
:1029B000C2F1030101EB4105C5EB811100EB4106BA
:1029C000C8F1070C19F80610012505FA0CF5294382
:1029D0000FE0C2F1030101EB4105C5EB811100EBF2
:1029E0004106C8F1070C19F80610012505FA0CF587
:1029F000694009F8061011E0C2F1030101EB41053D
:102A0000C5EB811100EB4105C8F1070C19F8056011
:102A1000012101FA0CF18E4309F8056008F1010863
:102A20001FFA88F8B845BDD38BE0CD1701EB557C74
:102A3000CCF3CF05C5F1030505EB4506C6EB8515BF
:102A400000EB45082CF007054E1BFF25F5407144AF
:102A5000CE1701EB56760096C6F3CF06C6F10306F5
:102A600006EB460CCCEB861600EB460B009E26F0E0
:102A70000706891B89B2C1F10806FF21B1402BB1BD
:102A8000012B0ED0022B19D023E05EE019F808C00C
:102A90004CEA050C09F808C019F80BC04CEA010C07
:102AA00009E019F808C08CEA050C09F808C019F803
:102AB0000BC08CEA010C09F80BC00AE019F808C039
:102AC0002CEA050C09F808C019F80B608E4309F8C8
:102AD0000B60A11A01297FF74CAF511C1FFA81FC32
:102AE0002DE023B1012B0DD0022B19D023E0CCF126
:102AF000030101EB4105C5EB811100EB41054FF0EE
:102B0000FF360AE0CCF1030101EB4105C5EB811171
:102B100000EB410519F80560F64309F805600AE085
:102B2000CCF1030505EB4506C6EB851500EB450624
:102B3000002109F806100CF1010C1FFA8CFCA445C9
:102B4000CFD3BEF1000FBFF614AFA24240D1AAF11D
:102B5000010139E023B1012B12D0022B22D032E047
:102B6000C2F1030404EB4405C5EB841400EB440CF0
:102B7000C1F1070619F80C400125B5402C430EE0C1
:102B8000C2F1030404EB4405C5EB841400EB440CD0
:102B9000C1F1070619F80C400125B5406C4009F851
:102BA0000C4010E0C2F1030404EB4405C5EB8414AF
:102BB00000EB440CC1F1070619F80C500124B44095
:102BC000A54309F80C50491E89B2B942C2D2BBE6EE
:102BD00023B1012B21D0022B3ED05DE0C2F10301D5
:102BE00001EB4105C5EB811100EB410CCAF1080670
:102BF00019F80C50FF2101FA06F6354309F80C507C
:102C0000C4F1030505EB4506C6EB851500EB45054C
:102C1000F94019F805600E433CE0C2F1030101EBF5
:102C20004105C5EB811100EB410CCAF1080619F80A
:102C30000C50FF2101FA06F6754009F80C50C4F15A
:102C4000030505EB4506C6EB851500EB4505F94088
:102C500019F805604E401DE0C2F1030101EB41058A
:102C6000C5EB811100EB410CCAF1080619F80C50B4
:102C7000FF2101FA06F6B54309F80C50C4F103052B
:102C800005EB4506C6EB851500EB4505F94019F83F
:102C900005608E4309F80560111B012997DD521E5E
:102CA00091B22BE023B1012B0DD0022B19D023E0E0
:102CB000C1F1030202EB4205C5EB821200EB4205B3
:102CC0004FF0FF360AE0C1F1030202EB4205C5EB0B
:102CD000821200EB420519F80560F64309F8056019
:102CE0000AE0C1F1030505EB4506C6EB851500EBCF
:102CF0004506002209F80620491E89B2A142D1D812
:102D000022E62DE9F8470446DDE9090A8946164618
:102D10009846A51850B90DE0434600224946204682
:102D2000CDF800A0FFF7D8FD641C24B2A542F3DA69
:102D3000BDE8F887434600222046CDF800A0FFF703
:102D4000CBFD09EB0807781E01B20023324620466E
:102D5000CDF800A0FFF7C0FD6D1EC8F100002CB239
:102D600003B239B200222046CDF800A0FFF7B4FD2F
:102D7000704202B2002349462046CDF800A0FFF77A
:102D8000ABFDD5E72DE9F84180460E461D461AB148
:102D9000022A16D1002427E0002410E0002337196E
:102DA000621B394640460093FFF796FD00232A1B1D
:102DB000394640460093FFF78FFD641CE4B2AC42F5
:102DC000ECD3BDE8F8810023371B621B394640462F
:102DD0000093FFF781FD00232A1B394640460093EC
:102DE000FFF77AFD641CE4B2AC42ECD3E9E72DE9CD
:102DF000F8474FF0FF35C3F120039D4005EA020379
:102E000023FA01F20092DFF82C82099C08EB000102
:102E10009DF800709DF801C09DF802909DF803A0F8
:102E200018F8002091F87A3091F8F45091F86E611A
:102E30007CB17A4008F8002083EA0C0381F87A30EC
:102E400085EA090581F8F45086EA0A0681F86E6180
:102E50006EE73A4308F8002043EA0C0381F87A3021
:102E600045EA090581F8F45046EA0A06EEE72DE93D
:102E7000FC4F07460CA88946B0E8100916469A464A
:102E800000251CE005FB0480611E5346415C8DF863
:102E90000710A11E415C8DF80610E11E415C8DF803
:102EA0000510211F405C8DF80400781900B2CDF8A0
:102EB00000B04946019AFFF79AFF6D1C2DB2B5424A
:102EC000E0DBBDE8FC8F2DE9FF4F9AB082468B46D0
:102ED000DDE927542B200021DDF8A480202615AF42
:102EE0007E54491C09B20A29FADB0021B94605E0E3
:102EF00012F801C009F801C0491C09B29942F7DB78
:102F0000002D02DA684205B22D2000214FF00A0C94
:102F10000DF1480795FBFCF20CFB12557D54491C42
:102F200049B215B20A29F5DB01250021092200E08A
:102F300045B117F802C0BCF1000F03D1A24201DD78
:102F4000BE5405E0BD5C3035BD540025491CC9B2F6
:102F5000521E52B2002AEBDA2D2802D17854491CB5
:102F6000C9B26CB14AB205E0BD1815F8016C551E26
:102F7000BE546AB2A242F7DC2E22491C3A55C9B2AD
:102F80000022CC4607E0A8EB0205BC5C6544521C5D
:102F900005F8014C52B28A42F5DB2D2806D1A8EB88
:102FA000020161445B1C01F8010C1BB2002102AE5E
:102FB0001BE000BF1CF801201F4F02EB420501EB94
:102FC000410217F8154006F8124007EB450406EBDE
:102FD000420265785570A5789570E578D5702579A9
:102FE0001571491C647909B254719942E2DB2D28AC
:102FF00006D1A8EB010149445B1C01F8010C1BB28E
:10300000002403EB43050EE0305D8DF863002A9B3E
:103010000AEB0400009300B208235946189AFFF700
:10302000E6FE641C24B2B4EB450FEDDB1EB0BDE838
:10303000F08F00006A0308205653010030B5FF48A6
:10304000016821F0E06101604268FD49C2F30B12A2
:1030500001F14E054A800B885B1C0B80A1F1E40353
:10306000997C4C1CE4B225F811209C74032C03D2EB
:10307000016841F08071016030BD10B54FF40270FD
:10308000FDF7CAFDEF4C207040F20A20FDF7C4FDA9
:1030900060704FF40370FDF7BFFDA07040F20E208A
:1030A000FDF7BAFDE07010BDE54A1C32916A936AE3
:1030B0005B1A8342FBD37047E349112008727047C3
:1030C000E248C16941F44021C161C269002142F472
:1030D0004012C261DE48C1604FF44061C164022108
:1030E00041614FF47A7282614FF4487202624FF488
:1030F0009672426201220265416009214160704777
:10310000CF490120E43981F82E007047F0B5002046
:10311000D04B85B04FF4F47105461D54401C00B2ED
:103120008842FADBC64CE43C607870B100204FF076
:10313000140C7A2100FB01F200EB800189000CB233
:1031400000EB80010CEB81064BE2607FC00718D0DA
:10315000607CF0B30023C04A032132208DE80F00C9
:10316000024618230846FFF782FE0023BB4A0321CC
:1031700032208DE80F00024618230846FFF777FE3D
:10318000A7E0AF4EB4F95E00B54F103E012852DB08
:103190000023CDE900330021142314220846FFF751
:1031A000B0FD0023CDE9003301211223122208468D
:1031B000FFF7A7FD307810F03C0F0FD0C10610D5F7
:1031C000607CF0B1A74A002302210F208DE80F0098
:1031D00000E07EE003460246032010E00023A24AFE
:1031E000F2E710F00C0F0CD0607C50B100239F4A26
:1031F00002210F208DE80F00034602460846FFF724
:1032000036FE7869C00516D4002300930B230022F4
:1032100014210920FFF760FB00235B221F210920F6
:103220000093FFF759FBE07804231330C1B200226A
:103230000920FFF7A7FDB4F95E00022849DB00234F
:10324000CDE900331423142200211720FFF759FD84
:103250000023CDE900331223122201211820FFF7A9
:1032600050FD707810F03C0F06D0C10607D5607C89
:10327000A8B100237B4A09E000237D4A06E010F054
:103280000C0F0CD0607C50B1784A002302210F2033
:103290008DE80F00034602461920FFF7E8FD786924
:1032A000800516D4002300930B2300221421202034
:1032B000FFF712FB002344221F2120200093FFF779
:1032C0000BFBE07804231330C1B200222020FFF76B
:1032D00059FD5B4EB4F85C000A27643E58B30023E6
:1032E000CDE900331423232200213220FFF709FD0A
:1032F0000023CDE900330223032214213520FFF7F8
:1033000000FD0023CDE900330223032214214F20C6
:10331000FFF7F7FC607F80070ED5607C58B1002373
:103320004E4A032132208DE80F0002461823002167
:103330002B20FFF79CFD77E0002300930B23002256
:1033400014214220FFF7C8FA002322221F21422025
:103350000093FFF7C1FAB6F95000002805DAE078CB
:10336000042300221330C1B205E0E0780423C0F149
:103370002200C1B202224220FFF704FDA0790A28F0
:103380007CD2B4F96400A0F5AA4155394CD094F927
:103390001E00052190FBF1F0ADF810001422002171
:1033A00004A8FFF779FA00230122CDE90023BDF933
:1033B0001030202200213320FFF7A3FC94F91E00D7
:1033C0000A2815DA02230122CDE9002309230C2261
:1033D00005213D20FFF795FC012394F91E001A46B4
:1033E00000218DE80F000223052122A23D2019E0D3
:1033F0004FF002034FF00102CDE9002364284FF0A3
:1034000009037FDA122205213A20FFF77AFC94F9AA
:103410001E000123022200218DE80F00032316A2C3
:1034200005213A20FFF74FFD0023CDE900330E239D
:103430001B2202215C20FFF764FC20E000400340D7
:1034400008010010300908200040024000C002407E
:10345000008001406A030820B25101004852010077
:1034600000C009201A530100DE5201003853010048
:10347000FC520100202500002020250053E00023FD
:103480001A1F08215C200093FFF726FA002304226C
:10349000082176200093FFF71FFA002327221F211F
:1034A00043200093FFF718FA002300936FF00F03F7
:1034B00000221F216920FFF70FFA60790423C0F171
:1034C0002200C1B202226920FFF75CFC0123B6F999
:1034D0005A00042219468DE80F000523FCA216218C
:1034E0004620FFF7F0FCB6F95800642828DA0123DB
:1034F000032219468DE80F0004230521F6A25D2062
:103500002AE0FFE7182205213720FFF7FAFB94F99C
:103510001E000123032200218DE80F000423052152
:10352000EFA237207EE7B6F95000012390FBF7F0B9
:1035300000B2032219468DE80F000423E6A26FE7CC
:1035400090FBF7F000B20123032200218DE80F0069
:103550000423E1A205215A20FFF7B5FCA078401C06
:10356000C0B2A07003281CD3A570E078401CC0B284
:10357000E0700D2800D3E5702079401CC0B22071A6
:10358000202800D325716079401CC0B260711128D9
:1035900000D36571A079401CC0B2A071142800D37B
:1035A000A57105B0F0BDD049D04F095D01EB4105D3
:1035B00017F81510995407EB4505511C6F785F54A7
:1035C000921C1146AF785F54521CEF789F54511CE7
:1035D0002F795F54921C69791546521C641C595509
:1035E00024B2A642DFDC401C00B20428FFF6A1ADE5
:1035F000D7E72DE9F04FBE48C7B005210378002278
:10360000012520A84393052B02D0212B02D005E0F1
:10361000B8A100E0BDA1012220910621C14C94F87F
:103620001DC05FEACC7308D0BFA340F8223002F17E
:10363000010201F10101D2B2C9B25FEA8C7306D571
:10364000BFA340F82230521C491CD2B2C9B2B54BBC
:10365000D4331E7816F01C0F06D0BFA640F82260A7
:10366000521C491CD2B2C9B299465B7813F01C0FA8
:1036700006D0BFA340F82230521C491CD2B2C9B2B6
:10368000DFF8A08208F1F10808F16B0398F80060F8
:10369000B3F90030012E02D0022E03D00AE04BB95C
:1036A000B9A301E033B9BEA340F82230521C491C33
:1036B000D2B2C9B29B4BF7331E78552E0AD103F113
:1036C0008F06368836B9BCA640F82260521C491CC9
:1036D000D2B2C9B25B78552B07D1BD4B5B8823B9F9
:1036E000BCA3491C40F82230C9B2227A521CD2B283
:1036F0002272142A08D300222272E3795B1CDBB207
:10370000E3718B4200D3E271B14F0DF1080A5A3FC9
:103710003B463A7893F9046093F901100AEB86036B
:10372000A7F1AC0B292A9E467ED0F2B37D48042A2D
:1037300090F8118079D0384690F9043090F90170F2
:1037400090F90200FB1A052A42906FD00BF1AC09E8
:10375000112A6CD0022A6BD048464078801E4FFA5E
:1037600080F80C2A65D0142A7ED0102A7DD0152A24
:103770007CD0412A7BD0442A7AD0452A79D0694F1F
:1037800041F2D82041F2CC2CB7F96A70342A71D0BA
:10379000362A70D0032A6FD06248252A077C6CD065
:1037A000C07D282A6AD01A2A00E0CAE367D0CC4636
:1037B000DFF838921F2A6FD0202A6ED0212A6DD0D0
:1037C000222A6CD0232A6BD0E146172A69D03E2AE0
:1037D00068D0462A67D00BF1AC0C3F2A9CF801C098
:1037E000ACF1010C4FFA8CFCE6465DD0402A5CD06F
:1037F000272A5BD00A2A5AD04FF0090C1C2A57D02E
:103800001B2A56D01E2A55D01D2A54D0372A53D0F1
:1038100044482A2A407E50D02B2A4FD04148DFF816
:10382000CCB1B0F934C005E0E2E0F1E3F1E3F1E35B
:10383000F1E3F1E3ABF13F0BACF101000BF1010758
:10384000382A3CD0C846392A3AD03A2A39D03B2ABD
:1038500038D03C2A37D04E463D2A35D0072A34D0BE
:10386000082A32D0122A0BE0FEE3FEE3FEE3FEE379
:10387000FEE3FEE3FEE3FEE3FEE3FEE3FEE3FEE340
:1038800023D0132A21D0352A1FD0192A1DD0092A66
:103890001CD02C2A1BD053E3F2E3F2E3F2E3F2E371
:1038A000F2E3F2E3F2E3F2E3F2E3F2E3F2E3F2E370
:1038B000F2E3F2E3F2E3F2E3F2E3F2E3F2E3F2E360
:1038C000F2E3F2E3F2E3F2E3F2E3F2E3F2E3F2E350
:1038D0002020202042000000202020410000000085
:1038E0002020202500000000A202082056530100DD
:1038F0000B02001020C2FBF0E0E2ED2EE7E0F0FF4B
:10390000E420207A3A305A20000000002020CAEE3D
:10391000EDF2F0EEEBFC20E5ECEAEEF1F2E820202F
:103920000000000024000010202020C0E2E0F0E8A9
:10393000FF20F1E5F2E821212120202000000000F5
:1039400020C0E2E0F0E8FF20E1E0F2E0F0E5E8216D
:10395000212120200000000020C0E2E0F0E8FF204C
:10396000E8F1F2EEF7EDE8EAE0204E310000000069
:1039700020C0E2E0F0E8FF20E8F1F2EEF7EDE8EA3F
:10398000E0204E3200000000C2EDE5F82EF2E5EC3A
:10399000EF2E4E31E7E0E2FBF8E5EDE0000000003D
:1039A000C2EDE5F82EF2E5ECEF2E4E31E7E0EDE862
:1039B000E6E5EDE00000000020D1F0E0E1EEF2E00D
:1039C000EB20F8EBE5E9F4204E3120200000000068
:1039D000AA01001020D1F0E0E1EEF2E0EB20F8EBDC
:1039E000E5E9F4204E32202000000000A90708205D
:1039F00069B101296DD0FF4D02297ED003297DD008
:103A000005297CD006297BD007297AD098E2FAA331
:103A1000F9A2F9A1F8A0FEF7C8F9FD480023032296
:103A20000088194680B2FDF7EDFFFA480023032213
:103A30000088012180B2FDF7E5FFF7480023072247
:103A40000088194680B2FDF7DDFFF4480023072205
:103A50000088012180B2FDF7D5FFF148002307223D
:103A60000088022180B2FDF7CDFFBBF84E00002395
:103A70000722032180B2FDF7C5FFEA4800230A228E
:103A800019460078FDF7BEFFE74800230A2201210E
:103A90000078FDF7B7FFE54800230A2202210078ED
:103AA000FDF7B0FF94F91E0000231322194680B2DF
:103AB000FDF7A8FFB4F8640000231322012180B2AF
:103AC000FDF7A0FFB4F8660000231322022180B2A4
:103AD0008EE1D74BD7A11A46DCA0FEF766F9E14D7F
:103AE0000023072228880121FDF78CFF6888002326
:103AF00007220221FDF786FF04E01AE054E079E096
:103B0000AEE04AE1A888002307220321FDF77AFFEF
:103B1000E888002311220121FDF774FF2889002382
:103B200011220221FDF76EFF002311226889032173
:103B30005EE1B1A3B0A2B0A1AFA0FEF736F90023B9
:103B4000288803221946FDF75DFF688800230322B9
:103B50000121FDF757FFA888002303220221FDF76A
:103B600051FF0322E88800231146FDF74BFF002395
:103B7000288909221946FDF745FF68890023092293
:103B80000121FDF73FFFA889002309220221FDF74B
:103B900039FFE889002309220321FDF733FF0023C1
:103BA0001322288A012123E1A14B1A461146084617
:103BB000FEF7FBF80023688913221946FDF722FF60
:103BC0000322002194F82000FEF761F8002303226D
:103BD0000121E07FFDF716FFBBF852000023082209
:103BE000022180B2FDF70EFF00231222032194F878
:103BF0002500FDE080A380A27FA17FA0FEF7D5F87D
:103C000099480023012290F90000194680B2FDF77F
:103C1000F9FE95480122C01C002390F900001146CE
:103C200080B2FDF7EFFE98F8000000230122022188
:103C3000FDF7E8FE8C480023533005220088194622
:103C4000FDF7E0FE884800237D3005220088012131
:103C5000FDF7D8FE844800235F3005220088C6E0C7
:103C600082A0029087A003908CA0049091A0059060
:103C700096A006909BA00790A0A00890DEE90112F4
:103C8000DB685AF82600FEF790F802223F21BBF9C4
:103C90005000FDF7C7FD9F4D68690022C0F300206A
:103CA0002421FDF777FF4E4699F800002321FDF708
:103CB000DCFF68690022C0F340204021FDF76AFF65
:103CC00070782121FDF7D1FF674D002229354A2167
:103CD0002888FDF75FFF688800226A21FDF75AFFF8
:103CE0008D4D002259212878FDF754FF6878002275
:103CF0007921FDF74FFF894D00226821286880B2A5
:103D0000FDF748FF864800226D21006880B2FDF76C
:103D100041FF844F002251213888FDF73BFF824E3E
:103D2000002271213088FDF735FF788800225A2162
:103D3000FDF730FF708800227A21FDF72BFF7B4EC4
:103D4000002241213078FDF725FF794F00226121C3
:103D50003878FDF71FFF707800224221FDF71AFF27
:103D6000787800226221FDF715FF2868002280B2D2
:103D70004321FDF70FFF6868002280B24421FDF760
:103D800009FF6C4D00226321286880B2FDF702FF15
:103D90006868002280B26421FBE3254B1A46114675
:103DA0000846FEF702F8644D28784FF000034FF004
:103DB00006021946FDF726FE002306220121207E79
:103DC000FDF720FE6820FCF727FF80B200230622C3
:103DD0000221FDF717FEA888002310221946FDF7DF
:103DE00011FE6A20FCF718FF002380B21022022186
:103DF000A4E00000580208202020202020202020BD
:103E00002020202020202020202020200000000032
:103E10002402001020020010320200102E020010B6
:103E2000340200101C0200101D0200101E020010BF
:103E3000715901002020202020203E202020202019
:103E400020202020202020200000000020CAC0CDFB
:103E5000202D20EEF2EBE0E4EAE0202020202020DC
:103E600000000000B40708200F01001020202020CF
:103E70003F202020202020202024202320402021FB
:103E800000000000202020202020202020202020B2
:103E90002020204A2020206A00000000202020202E
:103EA0002020202020202020202020592020207980
:103EB00000000000202020682020206D20202020ED
:103EC00020512071205A207A000000002020207309
:103ED0002020205320202020202020432020204468
:103EE00000000000202020662020204620202020E6
:103EF00020202063202020640000000020202020BB
:103F000020202020202020202041206120422062EB
:103F10000000000000C0092026020010600200100E
:103F2000780200104A0200104602001072C00720FA
:103F300074C007206802001038400240FDF762FD9F
:103F400030E3A7A20292AC4AB2F90030B2F90220E3
:103F5000C82B05DDC82A01DDA8A20AE0ADA208E051
:103F6000C82A01DDB1A204E0BBF94E20C82A01DD58
:103F7000B4A20292B9A20392BEA20492C3A2059275
:103F8000C8A20692CDA20792D2A20892D7A2099205
:103F9000DCA20A92E1A20B92E6A20C92EBA20D9295
:103FA000F0A20E92F5A20F92FAA21092FF4A11927D
:103FB00029B1731A3A46022B04DD891C04E0002162
:103FC0003A4601E0B14200DD3971E679052E07D2AB
:103FD00092F904100AEB8100001D0EC8029809E056
:103FE00092F9042000EB86000AEB8201091D50F8CB
:103FF000140C0EC9FDF7D9FE97F90410C9B197F951
:104000000100B0B1814208D1E94880F83C5010E08D
:104010009DE0C8E250E363E382E3081A012802D07E
:10402000022804D005E0E24880F8285001E0E0488A
:1040300005750BF14E05012228886C2180B2FDF731
:10404000A9FD02224021B5F90200FDF7EBFBA8898A
:104050000122232180B2FDF79DFD688901222421E0
:1040600080B2FDF797FD27E079E385E3A7E3A7E3B7
:10407000A7E3A7E3A7E3A7E3A7E3A7E3A7E3A7E3F0
:10408000A7E3A7E3A7E3A7E3A7E3A7E3A7E3A7E3E0
:10409000A7E3A7E3A7E3A7E3A7E3A7E3A7E3A7E3D0
:1040A000A7E3A7E3A7E3A7E3A7E3A7E3A7E3A7E3C0
:1040B000A7E3A7E3A7E3A7E3BE4D28784FF00002EC
:1040C0004FF02601FDF766FD287900225E21FDF7FD
:1040D00061FD287A00222521FDF75CFD287B002266
:1040E0003C21FDF757FD297EB0480022153000EB3A
:1040F00081003E21FDF78AFEA88B00227B21FDF77F
:1041000049FD607C68B13A20FDF7EBFAA84E202506
:1041100035543A20FDF7E5FA35543A20FDF7E1FA37
:104120003554A54D4FF4616100222868B0FBF1F0D1
:1041300080B27A21FDF72EFD29683C20B1FBF0F119
:10414000B1FBF0F200FB121000225A2121E2B4F878
:104150005C0060B15FEA8C7013D5944BB8F1000F2E
:10416000A3F1150308D095A29AA1A0A026E3A5A3C8
:10417000AAA2B0A1B5A021E38C4A153A114608467F
:104180001CE3B8A00290BD48007850B1BCA00390D9
:10419000C1A00590C6A0049094F8210028B1CAA03F
:1041A00004E0CFA00390D4A0F3E7D9A00690DEA04E
:1041B0000790E3A008907D4809900AEB8100001D5C
:1041C0000EC8A8A0FDF7F1FD0BF14C060122708886
:1041D000402180B2FDF7DEFC02222121BCE100007B
:1041E0002020CDE5EEEFF0E5E4E5EBE5EDEDEEF1D9
:1041F000F2FC2020000000003801001020C220F056
:10420000E0E1EEF2E520C1CFD1312CC1CFD1322097
:104210000000000020202020C220F0E0E1EEF2E5C6
:1042200020C1CFD1312020200000000020202020FC
:10423000C220F0E0E1EEF2E520C1CFD13220202013
:10424000000000002020D0E0E1EEF2E020EEF220BD
:10425000E1E0F2E0F0E5E820000000002055E13D5B
:104260002020206CC22049E13D2020202040C02099
:10427000000000002055ED3D20202023C22049ED04
:104280003D2020202024C020000000002030253ABE
:10429000305E3A302620303C2F3E20202F307B20CD
:1042A0000000000020C1E0F2E0F0E5FF2020202027
:1042B00020202020202020200000000020C1CFD17D
:1042C00031202020202020202020202020202020DD
:1042D0000000000020C1CFD132202020202020204B
:1042E00020202020202020200000000020CDE0E31E
:1042F000F0F3E7EAE02020202020202020202020CA
:104300000000000020D1E5F2FC2020202020202009
:1043100020202020202020200000000020D1EFE5D8
:10432000F6F4F3EDEAF6E8E8202020202020202013
:104330000000000020C6F3F0EDE0EB20F1EEE1FB21
:10434000F2E8E920202020200000000020C1E0F257
:10435000E0F0E5E9EDFBE920E6F3F0EDE0EB20200D
:104360000000000020CFE0F1EFEEF0F2202020204E
:1043700020202020202020200000000020D3F1F267
:10438000E0EDEEE2EAE8202020202020202020207E
:104390000000000020D1E1F0EEF120E0E2E0F0E8E2
:1043A000E920202020202020000000008659010064
:1043B000A2020820204002405002001020202020AD
:1043C000EDE520EFEEE4EAEBFEF7E5EDE02020205E
:1043D0002020000020202020202020C1E0F2E0F05A
:1043E000E5FF202020202020202000002020202069
:1043F000202020C0C2C0D0C8DF21212020202020C2
:1044000020200000E220E1E0F2E0F0E5E9EDEEEC52
:1044100020E6F3F0EDE0EBE5000000002020202096
:1044200020E2E2E5E4E8F2E520E5B82020202020C3
:104430000000000020CFF0E82020EDE5EEE1F5EEF1
:10444000E4E8ECEEF1F2E8200000000020C1C0D268
:10445000C0D0C5DF20CDC520C2C2C5C4C5CDC020D7
:1044600000000000202020202020C1C0D2C0D0C5E4
:10447000DF20202020202020000000001A02001051
:10448000202020F0E0E7F0FFE6E0E5F2F1FF202059
:10449000202020200000000020202049F0E0E7F04C
:1044A0003D2020202021C0202020202000000000CE
:1044B00020202055E1E0F23D202020202040C22095
:1044C000202020200000000020202020C4D22E2008
:1044D000EDE5E8F1EFF0E0E2E5ED2020000000007E
:1044E00020202020E7E0F0FFE6E0E5F2F1FF2020C9
:1044F000202020200000000020202049E7E0F03D9F
:10450000202020202021C02020202020000000008A
:1045100020202074E1E0F2203D20202024B0432020
:104520002020202000000000202020C7E0F0FFE431
:104530003D20202020772520202020200000000082
:1045400020202043E1E0F23D202020202051C02AFD
:10455000F720202000000000B6F90400FDF762F902
:1045600030880022242180B2FDF714FB94F91E004C
:104570000022772180B2FDF70DFBB4F96400A0F5AD
:10458000AA41553906D14A1E5121A0A0FDF73EFC93
:1045900005E0FEE30122512180B2FDF7FBFA7878B5
:1045A00004287ED087E000289B48DFF868824069B5
:1045B00005D0429AC0F34020012A03D006E0C0F3A0
:1045C000002003E0B4F85E20012A02D048B193A095
:1045D00008E09EA20292A3A20392A84A95A0049288
:1045E0002BE0A7A05FEACC7201D0ABA212E0429F01
:1045F00019F80720D70601D5ADA20BE0170701D5A2
:10460000B1A207E0570701D5B5A203E012F03C0FB5
:104610000CD0B9A20292BEA20392C3A204927D4F13
:10462000429A563FBA5C1AB1C5A202E0CAA2F1E7AB
:10463000CFA20592914A153206924746002B01DC23
:10464000B14200DA397197F904600AEB8602121D53
:104650005AF826100CCAFDF7A8FB97F902000022B1
:10466000401C80B22121FDF795FA6A4897F90210A3
:104670001838012230F811004021FDF78BFA654807
:1046800097F902101438012230F811002321FDF7A8
:1046900081FA604897F902101C38002230F81100A6
:1046A00000E005E02421FDF775FA7878022802D1B0
:1046B000B54880F83C5079E3B4A3BAA2BFA1C5A025
:1046C000FDF773FBB0480122212180F83C500BF12B
:1046D0005805688880B2FDF75DFA01224021FEE3AB
:1046E0005FEACC7018D0B8F1000F01D0BFA000E095
:1046F0006248A6A3C2A2C8A10290FDF756FBA24839
:104700000022232180F83C50608E80B2FDF742FAEF
:1047100001224021208E01E0C5A0EAE780B238E303
:10472000C9A00290CEA00390D3A0049053481530A6
:104730000590AFF63C100690022B02DD89F804804C
:1047400003E0B14201DA89F8041099F90410D0A00D
:104750000AEB8102121D5AF821100CCAD2E34398C9
:10476000212807D0D0A0454B0146029003F1150245
:10477000D3A0C7E3D8A0F6E7AFF670600290DCA044
:10478000039031B1012908D002290AD003290CD0A5
:104790000FE0DDA00290E2A00AE0E7A00290ECA00A
:1047A00006E0F1A00290F6A002E0EFA00290FAA0CD
:1047B00003900346CEA1AFF6AC60029AA4E3F7E102
:1047C0000DE284E2F3E2A0E3A1E3A1E3A1E3A1E32C
:1047D000A1E3A1E3A1E3A1E3A1E3A1E3A1E3A1E3B9
:1047E000A1E3A1E3A1E3A1E3A1E3A1E3A1E3A1E3A9
:1047F000A1E3A1E3A1E3A1E3A1E3A1E3A1E3A1E399
:10480000A1E3A1E3A1E3A1E3A1E300002D2D2D2D60
:104810002D2D00005001001000C009202020202074
:10482000C1CFD12120C2DBCACBDED7C5CD2020200D
:10483000000000002020202020202020C1CFD132E5
:1048400020202020202020200000000020202020E8
:10485000CED2D1D3D2D1D2C2D3C5D22020202020D3
:10486000000000002020C220D1D2D0D3CAD2D3D0A1
:10487000C520C8C1DDCF2020000000007159010013
:1048800020202020C1CFD12120C2CACBDED7C5CD68
:10489000202020200000000020E0E2E0F0E8FF20DF
:1048A000F1E5F2E820202020202020200000000058
:1048B00020E0E2E0F0E8FF20EFE5F0E5E3F0E5E2FC
:1048C000202020200000000020E0E2E0F0E8FF20AF
:1048D00055E2FBF53C55ECE8ED20202000000000FF
:1048E00020E0E2E0F0E8FF2055E2FBF53E55ECE089
:1048F000EAF120200000000020E7E0E1EBEEEAE82A
:10490000F0EEE2E0ED20E8E7E2EDE5200000000057
:104910002055E8F1F2203D2020202040C220202018
:1049200020202020000000002049E8F1F2203D2056
:1049300020202023C0202020202020200000000054
:1049400020C4D220EDE5E8F1EFF0E0E2E5ED202033
:10495000202020200000000020F1EEF1F2EEFFED1B
:10496000E8E5202D20EDEEF0ECE020200000000036
:104970002074E8F1F2203D20202024B043202020A4
:104980002020202000000000A202082020C2FBF509
:10499000EEE4202020202020202020202020202085
:1049A000000000002049EDE0E3F03D202020202021
:1049B0002020404120202020000000002055EDE074
:1049C000E3F03D2020202020202021C22020202094
:1049D00000000000202020202020CDC0C3D0D3C75D
:1049E000CAC020202020202000000000202020C05D
:1049F000C2C0D0C8DF20D1C5D2C8212121202000CB
:104A00002046F1E5F2E83D2020202020202040C370
:104A1000F6202020000000002055F1E5F2E83D20BE
:104A200020202020202023C2202020200000000061
:104A300020202020202020D1C5D2DC2020202020B2
:104A4000202020200000000020CAEEEDF2F0EEEB66
:104A5000FC20E5ECEAEEF1F2E82020200000000066
:104A600020C2FBF0E0E2EDE8E2E0FEF9E8E920E751
:104A7000E0F0FFE40000000020C0E2F22EE2FBF0D4
:104A8000E0E2EDE8E22E20E7E0F0FFE400000000C5
:104A900020202020D1CFC5D6D4D3CDCAD6C8C82097
:104AA000202020200000000020C2FBEAEBFEF7E5FA
:104AB000ED202020202020202020202000000000A9
:104AC0002020CACECDD2D0CECBDC20C5CCCACED110
:104AD000D2C820200000000020C2EAEBFEF7E5ED7E
:104AE0002020202020202020202020200000000046
:104AF000202020EDE5E2EEE7ECEEE6E5ED212121D8
:104B0000202020200000000020202020CEF2F1F301
:104B1000F2F1F2E2F3E5F220202020200000000074
:104B2000202020202020E1E0F2E0F0E5FF202020FE
:104B3000202020200000000020202020202020C055
:104B4000E2E0F0E8FF2020202020202000000000EC
:104B50002020202020202020F1E5F2E82020202025
:104B60002020202000000000202020202020C1E064
:104B7000F2E0F0E5FF2020202020202000000000AF
:104B800020202020F0E0E7F0FFE6E0E5F2F1FF2052
:104B900020202020000000002020202020E7E0F03E
:104BA000FFE6E0E5F2F1FF202020202000000000D9
:104BB0004398052810D0AFF2101002460290E44B43
:104BC000E4A1EAA0FDF7F1F80120FDF707FE0022BD
:104BD0002121B4F85800A1E5AFF20410EDE7E3A3FA
:104BE000E2A2E2A1E1A0FDF7E0F80420A075207E9A
:104BF000012821D0022821D003282BD006282BD031
:104C00000C282BD0DFA00290A575D148CDF80C0060
:104C100099F90400E1A10AEB800253685AF82020B8
:104C2000E4A0FDF7C2F899F9010099F9041088424F
:104C300016DA89F8040019E0E4A000E0E9A0029087
:104C4000EEA00390F3A00490AFF6C0100590C0480A
:104C50000690DDE7F5A0F2E7FAA0F0E7FFA0EEE7A7
:104C6000411A012902DD411E89F80410022801D1F0
:104C700089F804000220FDF7B1FD0022252134F857
:104C8000740FFCF787FF00225E216088FCF782FF2B
:104C900000222621A088FCF77DFF00223C21E0882D
:104CA000FCF778FFAA482189153000EB810000222B
:104CB0003E21FDF7ABF8608900227B21A4F174044A
:104CC000FCF768FF00222821BBF8000026E540F62B
:104CD0000260FBF7A1FF00B2A086402801DD0020A2
:104CE000A086B4F9341071B1012911D0022919D06C
:104CF00044DD99F9010099F9042090422BDA00BFB4
:104D000089F804002CE0924B914A153BD9A102E0AE
:104D10008F4ADEA3E3A1E9A0FDF747F8002089F858
:104D200004002BE099F9010099F90410884202DA95
:104D300089F8040004E0411A022901DD801EF7E72A
:104D400099F9040010B1012802D017E0804B10E05F
:104D5000CEA37F4A0EE0821A022A01DD801ECFE731
:104D600099F904004A1E9042F2D0891E8842EDD083
:104D7000D8A3DEA2CBA1D1A0FDF717F80120FDF743
:104D80002DFD99F804002821FDF728F999F8040071
:104D900000E0FDE3401CC0B25B21FDF71FF999F86C
:104DA00004007B21801CC0B2FDF718F97CE0684B41
:104DB000153B1A4611460846FCF7F7FF4FF46060B2
:104DC000FBF72AFF99F9021000B24A424021FCF792
:104DD000D9FF400100F5806086B241A93046FBF75B
:104DE000A4FF45A9301DFBF7A0FF694606F10800A6
:104DF000FBF79BFF01A906F10C00FBF796FF3FA90B
:104E000006F11000FBF791FF40A906F11400FBF733
:104E10008CFF46A906F11800FBF787FF9DF80401F7
:104E2000552806D0502840D0422869D0532868D051
:104E30003AE09DF80601522836D1B2A3B7A2BDA12F
:104E4000C2A0FCF7B2FF9DF8040000224021FCF74D
:104E5000A1FE9DF8050000222321FCF79BFE9DF892
:104E6000060000222421FCF795FE9DF80200002296
:104E70002521FCF78FFE9DF8000000225E21FCF743
:104E800089FE9DF80100401E0C2801D38DF80150C9
:104E90002F489DF80110153000EB810000222821D9
:104EA000FCF7B4FF0020A0862DE09DF80601412804
:104EB00029D1AC48029093A003909DF8FC004128B2
:104EC00003D19DF8FD00412820D00122002109F1E5
:104ED0000400FDF7D6FCA4A00490A9A000E065E3BF
:104EE0000590ADA0069099F904600AEB8601091DB2
:104EF0005AF826000EC9FCF758FF9DF8000157E14B
:104F0000C9E11BE353E3A2E252E352E384E151E33C
:104F100051E351E351E351E351E351E351E351E3F1
:104F200051E351E351E351E351E351E351E351E3E1
:104F300051E351E351E351E351E351E351E351E3D1
:104F400051E351E351E351E351E351E351E351E3C1
:104F50008659010020E4EBE8F2E5EBFCEDEEF1F21E
:104F6000FC202D202021F72E0000000020C2DBD0E5
:104F7000C0C2CDC8C2C0DED9C8C920C7C0D0DFC436
:104F80000000000020E2FBEAEBFEF7E5ED20202028
:104F9000202020202020202000000000C2DBD0C0E4
:104FA000C2CDC8C2C0DED9C8C920C7C0D0DFC420A6
:104FB00000000000202020C0C2D2CECCC0D2C8D772
:104FC000C5D1CAC8C92020200000000020F0E0E7B9
:104FD00020E220ECE5F1FFF62020202020202020F8
:104FE0000000000020F0E0E720E2203220ECE5F1B4
:104FF000FFF6E020202020200000000020E4EBE865
:10500000F2E5EBFCEDEEF1F2FC20202028F72E205B
:105010000000000020EEF7E5F0E5E4EDEEE520E22B
:10502000EAEBFEF7E5EDE8E50000000020F0E0E740
:1050300020E2203320ECE5F1FFF6E02020202020C4
:105040000000000020F0E0E720E220EFEEEBE3EECE
:10505000E4E02020202020200000000020F0E0E7F5
:1050600020E220E3EEE42020202020202020202029
:105070000000000020C6F3F0EDE0EB20EFF3F1F2CA
:1050800020202020202020200000000020CEF7E853
:10509000F1F2E8F2FC20E6F3F0EDE0EB2020202036
:1050A0000000000020282020202020202020202078
:1050B000202020202020202000000000202020C6CA
:1050C000D3D0CDC0CB20D1CEC1DBD2C8C9202020C7
:1050D00000000000207B20202020202020202020F5
:1050E000202020202020202000000000205B202005
:1050F00020202020202020202020202020202020B0
:105100000000000020203025282020305E20304084
:105110003A30233A302420200000000020202020B4
:1051200020202020C8C1DDCF2020202020202020CA
:1051300000000000202020E8EBE820E2EAEBFEF788
:10514000E5EDE8E5202020200000000020202020C0
:10515000CFE5F0E5E7E0E3F0F3E7EAE02020202008
:105160000000000028390000202020202020F3F13A
:10517000F2F0E0EDE5EDE02020202020000000002E
:105180002020305B5D2020303C20303E3A303D3ADC
:105190003029202000000000202020202055ECE8AD
:1051A000ED3D20202BC220202020202000000000E8
:1051B00000223E21FCF7EEFC9DF8010100223D217A
:1051C000FCF7E8FC9DF8020100222921FCF7E2FC33
:1051D0009DF8FE0000225B21FCF7DCFC9DF8FC0042
:1051E00000223C21FCF7D6FC9DF8FD00401E0C2857
:1051F00001D38DF8FD509DF8FD10FF48002200EB13
:1052000081005D21FCF702FE9DF818019DF819113F
:1052100000EB012080B2D3E0F8A00490FDA002AE24
:105220000346059007CEFCF7C0FD608E00222B21BF
:105230001FFA80F0FCF7AEFC9DF80400002240212C
:10524000FCF7A8FC9DF8050000222321FCF7A2FC36
:105250009DF8060000222421FCF79CFC9DF802002A
:1052600000222521FCF796FC9DF8000000225E211B
:10527000FCF790FC9DF80100401E0C287DD200BF79
:105280009DF80110DC48002200EB81002821FCF78A
:10529000BDFDA586DBE09DF80601432808D05A280D
:1052A00038D04FF00508572868D04B2867D0CEE09B
:1052B000AFF27C700290DDA00390AFF2B8100490C2
:1052C0009DF8FC00412803D19DF8FD00412814D031
:1052D0000122002109F10400FDF7D3FAAFF27810A2
:1052E0000590AFF26410069099F904600AEB86010C
:1052F000091D5AF826000EC92CE0C0A057E000BFD7
:105300009DF8FD10BC48002200EB81005D21FCF7F8
:105310007DFD52E0CBA00290D0A00390D5A00490D8
:105320009DF8FC00412803D19DF8FD0041283DD0A7
:105330000122002109F10400FDF7A3FAD3A0059092
:10534000D8A0069099F904700AEB8700001D0EC8DA
:105350005AF82700FCF729FD9DF8000100223E21A4
:10536000FCF718FC9DF8010100223D21FCF712FC1E
:1053700000229DF80201292102E024E026E067E0F6
:10538000FCF708FC9DF8FE0000225B21FCF702FC04
:105390009DF8FC0000223C21FCF7FCFB9DF8FD0081
:1053A000401E0C28ACD38DF8FD50A9E7C3A002AE77
:1053B0000346059007CEFCF7F8FC9DF80501401C5C
:1053C00000222B2136E78DF8015059E7C1A0029049
:1053D000C6A00390CBA00490A6A00590CFA00690F5
:1053E000D4A00790D9A00890DEA00990E3A00A906D
:1053F00099F904600AEB8601091D5AF826000EC9C6
:1054000040E000BF8DF8015068E000BF9DF8FD004E
:10541000002206EB80007721FCF7F8FCBDF81401B0
:1054200001227A21FCF7B6FB9DF803009DF80710D6
:10543000012200EB012080B23C21FCF7ABFBBDF860
:10544000160101223E21FCF7A5FBA4F8348076E387
:10545000D0480290A5A00390AAA0049085A0059032
:10546000CDA00690B3A00790B8A00890D0A0099056
:10547000D5A00A9099F904700AEB8700001D0EC8A8
:105480005AF82700FCF791FC9DF805010022401C0A
:105490002121FCF77FFB9DF8040000224021FCF74E
:1054A00079FB9DF8050000222321FCF773FB9DF892
:1054B000060000222421FCF76DFB9DF8020000226B
:1054C0002521FCF767FB9DF8000000225E21FCF718
:1054D00061FB9DF80100401E0C2893D29DF801004D
:1054E000454E002206EB80002821FCF78FFC9DF83A
:1054F000000100226921FCF74DFB9DF8010100220B
:105500006C21FCF747FB9DF8020100227321FCF798
:1055100041FB9DF8FE0000227121FCF73BFB9DF84A
:10552000FC0000227221FCF735FB9DF8FD00401EB7
:105530000C28FFF46BAF8DF8FD5067E7A8A0029030
:105540009DF806014C2806D0542806D0552806D0D0
:10555000752806D007E0A8A004E0ADA002E0B2A044
:1055600000E0B7A00390AFF2644004909DF8FC0007
:10557000412803D19DF8FD00412816D001220021C9
:1055800009F10400FDF77DF9AFF22440059000E039
:10559000D6E2AFF21440069099F904700AEB870046
:1055A000001D0EC85AF8270056E1B9E1C9E2C9E268
:1055B000C9E2BEE1C8E2C8E2C8E2C8E2C8E2C8E2A5
:1055C000C8E2C8E2C8E2C8E2C8E2C8E2C8E2C8E28B
:1055D000C8E2C8E2C8E2C8E2C8E2C8E2C8E2C8E27B
:1055E000C8E2C8E2C8E2C8E2C8E2C8E2C8E2C8E26B
:1055F000C8E2C8E2C8E200009B5901002020202038
:10560000EDE520F3F1F2F0E0EDE5EDE020202020E3
:1056100000000000202020202055F1E5F2E83D2088
:10562000202BC2202020202000000000202020204D
:105630002020E1E0F2E0F0E5E820202020202020FA
:1056400000000000202020C2FBF0E0E2EDE8E2E0F4
:10565000FEF9E8E920202020000000002020202082
:10566000202020E7E0F0FFE4202020202020202040
:10567000000000002030252F2820202F305E203011
:10568000403A30233A30242000000000202020201F
:105690002020E7E0E2E5F0F8E5ED202020202020C2
:1056A0000000000020305B2F5D20202F303C203098
:1056B0003E3A303D3A3029200000000020202020D2
:1056C000EDE520E7E0E2E5F0F8E5ED202020202000
:1056D0000000000020202020202020D0E0E7F0FF64
:1056E000E420202020202020000000002020202076
:1056F000202020E1E0F2E0F0E5E82020202020203A
:105700000000000020CDE0F7E0EBEE20202020207C
:105710002020202020202020000000002020202009
:1057200020202020202055E1E0F23D20203CC22016
:105730000000000020CAEEEDE5F620202020202009
:105740002020202020202020000000002030712F69
:105750007720202F30722030693A306C3A30732035
:10576000000000002020202020202020202055E1C3
:10577000E0F23D20203EC22000000000202020203A
:10578000CEF2E4E0EDEE202020207AE02AF72E2071
:10579000000000000C3900002020202020202020C4
:1057A0002055E1E0F23D20203CC220200000000016
:1057B00020202020202020202055E1E0F23D202044
:1057C0003EC220200000000020A8ECEAEEF1F2FC2E
:1057D00020202020207AE02AF72E20200000000040
:1057E000202020C0E2E0F0E8FF20C1CFD1204E2BE6
:1057F00020202020000000002020202020EEF2EABF
:10580000EBFEF7E8EBF1FF20202020200000000055
:10581000202020202020EFE5F0E5E3F0E5E2202045
:105820002020202000000000202020E7E0E2FBF8FC
:10583000E5EDEE2055E2FBF52E20202000000000D3
:10584000202020E7E0EDE8E6E5EDEE2055E2FBF56F
:105850002E20202000000000FCF7A7FA9DF8000190
:1058600000223E21FCF796F99DF8010100223D211E
:10587000FCF790F99DF8020100222921FCF78AF932
:105880009DF8FE0000225B21FCF784F99DF8FC00E6
:1058900000223C21FCF77EF99DF8FD00401E0C28FB
:1058A00001D38DF8FD509DF8FD10B848002200EBA3
:1058B00081005D21FCF7AAFA9DF805010022401C39
:1058C0002B21FCF767F99DF8040000224021FCF72A
:1058D00061F99DF8050000222321FCF75BF99DF892
:1058E000060000222421FCF755F99DF80200002251
:1058F0002521FCF74FF99DF8000000225E21FCF7FE
:1059000049F99DF80100401E0C2801D38DF8015083
:105910009DF801109D48002200EB81002821EFE353
:10592000AFF2283002AE0346059007CEFCF73DFAF1
:10593000C2E7A7F5B851883901D195A05AE0A7F57B
:10594000B8517C3901D198A054E0874201D19CA084
:1059500050E0674501D1A0A04CE0A7F5B8507A38D7
:1059600001D1A3A046E0A7F5B850753801D1A6A093
:1059700040E0A7F59050CA3801D1A9A03AE0A7F5B8
:105980009050C53801D1ACA034E040F67810874281
:1059900001D1AFA02EE040F66C118F4201D1B2A030
:1059A00028E0A7F59052E83A01D1B5A022E0A7F58A
:1059B000B8528E3A01D1B8A01CE0A7F59052D43A63
:1059C00001D1BBA016E0A7F5B8527F3A01D1BEA025
:1059D00010E0A7F51062923A01D1C1A00AE0A7F544
:1059E0001062793A01D1C4A004E08742D1D08F423D
:1059F000D5D0C7A00290CCA00390D1A00490D6A08F
:105A00000590DBA00690E0A00790E5A00890EAA032
:105A10000990EFA00A90F4A00B90F9A00C90FE481A
:105A20000EF1040E0D90BEE80E005AF82600FCF7A9
:105A3000BCF999F80400082802D1F84880F83C50D5
:105A4000B4F96C00202805DA0022212180B2FCF78D
:105A5000A1F805E04FF0FF322121F1A0FCF7D6F9C3
:105A6000B4F96E000D2805DA0022402180B2FCF75F
:105A700091F805E04FF0FF324021E9A0FCF7C6F9AC
:105A8000B4F97000642805DA0022232180B2FCF703
:105A900081F805E04FF0FF322321E1A0FCF7B6F9D1
:105AA000E04EE14D3068A84206DB6FF004023F2172
:105AB000DEA0FCF7ABF903E000223F21FBF701FF7A
:105AC00000222B210920FCF765F80022282105205F
:105AD000FCF760F87068A84206DB6FF00402292129
