:020000040000FA
:10000000884A0010E1000000E5000000E700000061
:10001000E9000000EB000000ED000000000000001F
:10002000000000000000000000000000EF000000E1
:10003000F100000000000000F300000007EB0000EA
:10004000F7000000470300007B040000F7000000F9
:10005000F700000083430100F7000000F7000000F4
:10006000F7000000F7000000F7000000F7000000B4
:10007000F7000000F7000000F7000000F7000000A4
:10008000F7000000F7000000F7000000F700000094
:10009000F7000000F7000000073A0000F70000003A
:1000A000F7000000A15B0100F7000000F70000006E
:1000B000FD090000F7000000F7000000F700000055
:1000C000F7000000F7000000F7000000DFF80CD098
:1000D00015F008FE0048004709EB0000884A0010B0
:1000E00005480047FEE7FEE7FEE7FEE7FEE7FEE71E
:1000F000FEE7FEE7FEE7FEE7CD000000FEE710B5F5
:1001000017F0C0FC17F04CFD17F03EFD17F0CCFCCB
:10011000AFF30080BDE8104017F008BD10B518F02F
:1001200019FB19F089F918F06DFBBDE8104018F0C3
:10013000E5BC18F02DBA17F0F5BF09B100207047E3
:1001400016F04ABD0020704730B565494FF02000D9
:10015000C1F8A001D1F8A0014006FBD501F1800152
:100160004FF00303C1F884304FF40030C1F8280188
:100170004FF00002C1F82C214FF00100C1F88C00B3
:10018000584C4C6008604FF0AA05CD604FF0550404
:10019000CC60A1F18001D1F888004001FBD541F885
:1001A000803FCD60CC60C1F888204F484864C1F8DA
:1001B000482188684D4A6FEA1060A1F180018007EC
:1001C0000BD0D1F80C0110F0030066D001286ED0DE
:1001D000022877D003287FD15FE0D1F80C0110F01E
:1001E000030005D001281FD0022839D0032873D17D
:1001F00051F8880FC0F30E0000F101004FEA4003F0
:100200000868C0F3074000F10100B3FBF0F0384B81
:1002100000FB03F0CB6FA1F18801DBB203F1010316
:10022000B0FBF3F0106057E051F8880FC0F30E00F8
:1002300000F101004FEA40030868C0F3074000F1F5
:100240000100B3FBF0F02B4B00FB03F0CB6FA1F1EF
:100250008801DBB203F10103B0FBF3F010603BE077
:1002600051F8880FC0F30E0000F101004FEA40037F
:100270000868C0F3074000F10100B3FBF0F04FF451
:10028000FA4300FB03F0CB6FA1F18801DBB203F16D
:100290000103B0FBF3F010601EE0D1F80401144B31
:1002A000C0B200F10100B3FBF0F0106014E0D1F82F
:1002B0000401104BC0B200F10100B3FBF0F010607C
:1002C0000AE0FFE7D1F804014FF4FA43C0B200F1AD
:1002D0000100B3FBF0F0106043F23A00086030BD5B
:1002E00000C00F404F0003004AF1444008000010D6
:1002F00000093D008096980070477047FFFFFFFFA0
:1003000070B542F22734614300230222FF24042502
:10031000012660B1012809D183484260C360816130
:100320000460456146604168C907FCD170BD4FF06B
:1003300040204260C360816104604561466041685D
:10034000C907FCD170BD2DE9F0414FF040204FF0BE
:10035000010505607548016801F1010101607448FB
:100360004FF00004048073480570734E7069734940
:10037000C0F380200870724A72491378984203D003
:100380000B8803F101030B8010706F4A1088401C2A
:1003900000B21080142802DB14806C4805706C4A8F
:1003A0001088401C00B21080092802DB14806948C4
:1003B0000570694A1088401C00B210800A2856DB7C
:1003C000148066480570664A108800F1010000B28A
:1003D0001080B0F5FA7F04DB1480624A0888108030
:1003E0000C80614F3888401C00B238800A2804DB3A
:1003F0003C805E48057001F08DF93888052801D1F0
:1004000001F088F95A490888401C00B20880142875
:1004100013DB0C80574805705748017809B1047008
:1004200000E005705548007838B1306C40F48060C9
:100430003064706D80F48060706551490888401C9C
:1004400000B20880322808DB0C804E4805704E4808
:10045000017809B1047000E005704C490888401C1F
:1004600000B20880642802DB0C8049480570F069FE
:1004700040F00100F061BDE8F0812B494FF0010030
:1004800008602A48416801F101014160704701217B
:1004900010B12548416070474FF0402041607047DF
:1004A000002110B12048416070474FF0402041606A
:1004B000704728B11C49486840F002004860704706
:1004C0004FF04021486840F002004860704710B586
:1004D0000023164C032218B101280CD0002010BDB7
:1004E00023604FF04020816142614FF0010000F035
:1004F0000CF8012010BD63600B48816142614FF030
:10050000020000F002F8012010BD00F01F024FF0C1
:10051000010101FA02F14FEA50104FF0E02202EB24
:100520008000C0F8001170470080004008C007201C
:10053000D0010010CA01001000C0092044C00720EB
:10054000D601001042C007203EC00720CB0100109A
:10055000D20100101E00001038C007201800001043
:1005600040C00720D4010010CC0100101900001079
:100570003AC007201A0000101F0000100F000010E2
:10058000CE0100101B000010200000103CC007200E
:100590001C00001030B54FF00000FF4C0246FF4930
:1005A00001F1180300EB400504EB452541F83050FC
:1005B00001EBC0056A6043F8202000F10100032828
:1005C000F0D3F748016043604FF002018160C260E0
:1005D00030BD70B54FF00000F04CF24D04F1240432
:1005E000A4F16403014603F1200200EB400604EB92
:1005F000462643F8306003EBC006756042F83010C1
:1006000002EBC006716000F101000428EDD3E6485A
:10061000036042604FF003028260016170BDE348F5
:10062000016C21F4007101644FF48071816500BF99
:1006300000BF00BFC16500BF00BF00BF704710B55D
:100640004FF000000146D94A4FF480734FEA400052
:10065000936500BF00BF00BFD365546DA40501D5ED
:1006600040F0010001F101011029EFD310BD10B5D8
:10067000C1F1200200FA02F04FF40073CB4A4FF4AC
:10068000807410E0002801DA936500E0D36500BFB4
:1006900000BF00BF946500BF00BF00BFD4654FEA34
:1006A0004000A1F101010029ECD110BD10B50446B4
:1006B000BF480078012818D04FF0A04144F4807062
:1006C00088624FF0010048624FF000004FF4A02311
:1006D0004A6BD20703D000F101009842F8D34FF0E3
:1006E000000048620C6BA0B210BDB048016C41F430
:1006F000007101644FF020014FF0FF30FFF7B7FFAA
:1007000004210620FFF7B3FF05210120FFF7AFFF0B
:1007100005212046FFF7ABFFFFF781FFFFF78FFFB3
:100720000446FFF77CFFDEE770B505460C46A0489F
:100730000078012811D04FF0A04245F480709062FB
:10074000D4624FF000004FF4A023516BC90703D0CF
:1007500000F101009842F8D370BD9448016C41F457
:10076000007101644FF020014FF0FF30FFF77FFF71
:1007700004210520FFF77BFF05210120FFF777FF0C
:1007800005212846FFF773FF02210846FFF76FFF98
:1007900010212046FFF76BFFBDE870403FE72DE9D1
:1007A000FC41834C4FF0000626704FF0360000905D
:1007B000626869466846904701982521B1EB106F41
:1007C00002D14FF0010020707A48016841F0804169
:1007D00001607A48784981602178002971D00169E7
:1007E00021F4702101617148016C41F48071016450
:1007F0004FF0A0454FF44F4028604FF07800C5F807
:1008000000014FF06400A0F101000028FBD14FF07F
:10081000020028604FF0300068604FF4C0606861EB
:1008200043F20F7028614FF01207EF604FF4107021
:10083000C5F800014FF40060A8614FF06404A4F112
:100840000104002CFBD1AE614FF400414FF00000D9
:10085000FFF76AFF4FF480180020FFF727FF10F41E
:10086000084F03D004F101044445F5D30220FFF7FB
:100870001DFF04464FF00300FFF718FF4FF6F0711D
:1008800008404F4940EA044088420FD14FF440519C
:100890000020FFF749FF4FF000040120FFF706FF9B
:1008A000800603D404F101044445F6D34FF000045C
:1008B0004FF480381020FFF7F9FEC1070CD107E094
:1008C000FFE7C16821F00F0101F10501C1608FE769
:1008D00004F101044445EDD341070DD5696841F0A9
:1008E00001016960D5F8001141F48061C5F800117B
:1008F0004FF01501A96000E0AF60800701D5AE613F
:1009000002E04FF48070A8612E480179427941EAF3
:10091000022129648178C27841EA02216964017860
:10092000407841EA0020A864FFF753FEFFF732FE4B
:100930004FF02600C5F800024FF08800C5F8E40F1C
:100940004FF6FF70C5F8E80FD5F8000140F003003E
:10095000C5F80001286840F001002860BDE8FC816E
:1009600019484FF080510160704718484FF080518E
:1009700001607047F0B54FF0A045D5F8284100F16F
:100980000402064E56F83430018801F103014FEAA3
:10099000910111B380CA1BE04C2C001028140010E8
:1009A0001C010050FF0500800801005000C0092014
:1009B00010C00720C4C00F400501155000C0024000
:1009C000905C00200000001000E100E080E100E009
:1009D00080C3A1F101010029DCD1008806EBC4012C
:1009E000A0F1010040F04040486004F10104032CF4
:1009F00001D14FF00004C5F82841F0BD70B54FF0AB
:100A0000A0463AE0C6F8E80F000736D5D6F81841F8
:100A10002FE01D4850F83400410023D5C0F30A05EB
:100A2000A5F1030540F2EA518D421BD8174908424F
:100A300018D145F0004015F089FC98B100F104028E
:100A40001149A1F1200151F8343005F103054FEAB5
:100A5000950129B120CB20C2A1F101010029F9D1D2
:100A600017F0F8FD641C042C01D14FF00004C6F807
:100A70001841D6F81401A042CBD1D6F8E00FD6F831
:100A8000E41F0840BED170BD081400100000901B88
:100A9000FA49886048680006FCD58868C0B270478B
:100AA000F748016841F040410160416821F00301CD
:100AB0004160416841F00C014160416841F0300102
:100AC0004160EE484FF00801C1604FF02001016025
:100AD0007047EB48016821F040410160416821F016
:100AE00003014160416821F00C014160416821F03F
:100AF00030014160E1494FF000000860704700B5E7
:100B0000FFF7CEFFDF4A106840F000601060D06948
:100B100040F00060D0614FF00600FFF7B9FF1068A9
:100B200040F000601060906940F0006090615DF8F6
:100B300004EBCEE700B5FFF7B3FFD24A106840F0F0
:100B400000601060D06940F00060D0614FF0050097
:100B5000FFF79EFFFF20FFF79BFF0346116841F060
:100B600000611160916941F000619161FFF7B1FF8F
:100B7000184600BD01B5FFF7DDFFC007FBD1FFF749
:100B80008FFFC04A106840F000601060D06940F0EC
:100B90000060D061106840F000601060D06940F0E3
:100BA0000060D0614FF00300FFF772FF9DF8010075
:100BB000FFF76EFF9DF80000FFF76AFFFF20FFF7C9
:100BC00067FF0346106840F000601060906940F0D5
:100BD00000609061106840F000601060906940F023
:100BE00000609061FFF775FF184608BD11B5A54C70
:100BF000206840F002002060A06940F00200A0617F
:100C0000FFF798FFC007FBD1FFF74AFF206840F0CD
:100C100000602060E06940F00060E0614FF0030098
:100C2000FFF736FF9DF80100FFF732FF9DF8000047
:100C3000FFF72EFFFF20FFF72BFF02464FF0FF00CC
:100C4000FFF726FF4FEA00200244206840F00060D2
:100C50002060A06940F00060A061206840F0006062
:100C60002060A06940F00060A061FFF732FFE069FA
:100C700040F00200E061104618BD31B5FFF75AFFA1
:100C8000C007FBD1FFF70CFF7E4A106840F0006000
:100C90001060D06940F00060D0614FF00300FFF7B2
:100CA000F7FE9DF80100FFF7F3FE9DF80000FFF747
:100CB000EFFEFF20FFF7ECFE03464FF0FF00FFF7CB
:100CC000E7FE05464FF0FF00FFF7E2FE04464FF057
:100CD000FF00FFF7DDFE4FEA002020444FEA00212D
:100CE00001EB05004FEA00210B44106840F0006062
:100CF0001060906940F000609061106840F0006002
:100D00001060906940F000609061FFF7E2FE1846C5
:100D100038BD13B50C46FFF70DFFC007FBD1FFF739
:100D2000BFFE584A106840F000601060D06940F083
:100D30000060D0614FF00300FFF7AAFE9DF80100AC
:100D4000FFF7A6FE9DF80000FFF7A2FEFF20FFF7C9
:100D50009FFE2070FF20FFF79BFE6070FF20FFF7D3
:100D600097FEA070FF20FFF793FEE070106840F040
:100D700000601060906940F000609061106840F081
:100D800000601060906940F000609061BDE81C4018
:100D90009FE677B50C461646FFF7CCFEC007FBD1A1
:100DA000FFF77EFE374D286840F000602860E86954
:100DB00040F00060E8614FF00300FFF769FE9DF826
:100DC0000100FFF765FE9DF80000FFF761FE4FF0A0
:100DD000000307E0FF20FFF75BFE04F8010B03F1BF
:100DE0000103DBB2B342F5D3286840F0006028600D
:100DF000A86940F00060A861286840F000602860A1
:100E0000A86940F00060A861BDE87E4061E613B5C6
:100E10000C46FFF78FFEC007FBD1FFF770FEFFF710
:100E20003FFE184A106840F000601060D06940F042
:100E30000060D0614FF00200FFF72AFE9DF801002C
:100E4000FFF726FE9DF80000FFF722FE2046FFF781
:100E50001FFE0346106840F000601060906940F08B
:100E600000609061106840F000601060906940F090
:100E700000609061FFF72DFE18461CBD0000024087
:100E800000C0024000C0092003B5FFF753FEC007B1
:100E9000FBD1FFF734FEFFF703FE5A4A106840F01B
:100EA00000601060D06940F00060D0614FF0020037
:100EB000FFF7EEFD9DF80100FFF7EAFD9DF8000049
:100EC000FFF7E6FD9DF80400FFF7E2FD9DF8053011
:100ED0001846FFF7DDFD106840F000601060906973
:100EE00040F000609061106840F000601060906910
:100EF00040F000609061FFF7ECFD18460CBD03B5B3
:100F0000FFF718FEC007FBD1FFF7F9FDFFF7C8FD9B
:100F10003C4A106840F000601060D06940F000600A
:100F2000D0614FF00200FFF7B3FD9DF80100FFF71D
:100F3000AFFD9DF80000FFF7ABFD9DF80400FFF743
:100F4000A7FD9DF80500FFF7A3FD9DF80600FFF73C
:100F50009FFD9DF807301846FFF79AFD106840F096
:100F600000601060906940F000609061106840F08F
:100F700000601060906940F000609061FFF7A9FD8B
:100F800018460CBD13B50C46FFF7D4FDC007FBD1C6
:100F9000FFF7B5FDFFF784FD1A4A106840F00060C6
:100FA0001060D06940F00060D0614FF00200FFF7A0
:100FB0006FFD9DF80100FFF76BFD9DF80000FFF746
:100FC00067FD2078FFF764FD6078FFF761FDA0788A
:100FD000FFF75EFDE3781846FFF75AFD106840F012
:100FE00000601060906940F000609061106840F00F
:100FF00000601060906940F000609061FFF769FD4B
:1010000018463AE700C00920FF48016A21F07F71C5
:101010000162816941F40001816100BF00BF00BF2E
:1010200000BF00BF00BF00BF00BF00BF00BFC1695D
:1010300041F00051C16100BF00BF00BF00BF00BF51
:1010400000BF00BF00BF00BF00BF816941F0804109
:101050008161416B8901FCD47047EB48016A21F042
:101060007F710162816941F40001816100BF00BFAD
:1010700000BF00BF00BF00BF00BF00BF00BF00BF78
:10108000C16941F00051C16100BF00BF00BF00BF96
:1010900000BF00BF00BF00BF00BF00BF816941F0BB
:1010A00080718161416B8901FCD4704700B50346B2
:1010B000D54A106840F0C1401060FFF7A5FF00BF9F
:1010C00000BF00BF00BF00BF00BF00BF00BF00BF28
:1010D00000BFD06940F00050D06100BF00BF00BF2A
:1010E00000BF00BF00BF00BF00BF00BF00BFD0698E
:1010F00040F40000D06100BF00BF00BF00BF00BFD0
:1011000000BF00BF00BF00BF00BF106A40F07F708B
:101110001062906B40EA83409063D06B6FEA0301EA
:10112000C9B240EA8140D06300BF00BF00BF00BF2A
:1011300000BF00BF00BF00BF00BF00BFD06940F0CC
:101140008040D06100BF00BF00BF00BF00BF00BF34
:1011500000BF00BF00BF00BF00BD00B50346AA4AE4
:10116000106840F000501060106840F0C0701060CF
:10117000FFF773FF00BF00BF00BF00BF00BF00BF8D
:1011800000BF00BF00BF00BFD06940F00050D06179
:1011900000BF00BF00BF00BF00BF00BF00BF00BF57
:1011A00000BF00BFD06940F40000D06100BF00BFA5
:1011B00000BF00BF00BF00BF00BF00BF00BF00BF37
:1011C000106A40F07F701062906B40EA8340906339
:1011D000D06B6FEA0301C9B240EA8140D06300BF1F
:1011E00000BF00BF00BF00BF00BF00BF00BF00BF07
:1011F00000BFD06940F08070D06100BF00BF00BF69
:1012000000BF00BF00BF00BF00BF00BF00BF00BDE8
:1012100000B503467C4A106840F0C040106010687A
:1012200040F400001060FFF7EFFE00BF00BF00BFFA
:1012300000BF00BF00BF00BF00BF00BF00BF90697C
:1012400040F00050906100BF00BF00BF00BF00BF72
:1012500000BF00BF00BF00BF00BFD06940F4000066
:10126000D06100BF00BF00BF00BF00BF00BF00BF14
:1012700000BF00BF00BF106A40F07F701062906B2B
:1012800040EA83409063D06B6FEA0301C9B240EA41
:101290008140D06300BF00BF00BF00BF00BF00BFE0
:1012A00000BF00BF00BF00BFD06940F08040D061E8
:1012B00000BF00BF00BF00BF00BF00BF00BF00BF36
:1012C00000BF00BF184600BD00B503464E4A106877
:1012D00040F000501060106840F0C0701060FFF7E0
:1012E000BCFE00BF00BF00BF00BF00BF00BF00BF0B
:1012F00000BF00BF00BF906940F00050906100BF88
:1013000000BF00BF00BF00BF00BF00BF00BF00BFE5
:1013100000BFD06940F40000D06100BF00BF00BF33
:1013200000BF00BF00BF00BF00BF00BF00BF106A0A
:1013300040F07F701062906B40EA83409063D06B06
:101340006FEA0301C9B240EA8140D06300BF00BF29
:1013500000BF00BF00BF00BF00BF00BF00BF00BF95
:10136000D06940F08070D06100BF00BF00BF00BFF7
:1013700000BF00BF00BF00BF00BF00BF00BD10B571
:1013800040F0B8042046FFF791FE2046BDE810402B
:10139000E3E610B504462046FFF788FE2046BDE888
:1013A0001040DAE610B540F0C0042046FFF77EFE9C
:1013B0002046BDE81040D0E61448416821F44011B1
:1013C0004160816821F040518160816821F44031A1
:1013D0008160816821F040618160816821F4404131
:1013E0008160416821F030014160416821F0C00115
:1013F0004160416821F440714160416821F44061DD
:101400004160416804E0000000C0092000C00240C3
:1014100021F440514160416821F4404141604168FC
:1014200021F440314160416821F4402141609249FA
:10143000086A924A40EA02000862086840F0C34025
:1014400008604FF00000CA6B42F08062CA6300F18E
:1014500001006428F7DB4FF00000894A00BF00F16B
:1014600001009042FADB4FF000008B6B43F0806389
:101470008B6300F101003228F7DB4FF0000000BF62
:1014800000F101009042FADB70477B484FF00051B9
:10149000C1614FF4000181614FF08042826100BF61
:1014A00000BF00BF00BF416B8901F9D4C261704722
:1014B0004FF0000000BF00F1010000B26428F9DB2A
:1014C000704730B50346FFF7E0FF6B494FF4000467
:1014D0008C614FF00050C8614FF080428A614FF03C
:1014E000807088618D6B45EA83458D63CD6B6FEAB3
:1014F0000303DBB245EA8343CB63CA61C861CC61B5
:1015000030BD6048416821F440114160816821F09C
:1015100040618160816821F040518160816821F4DF
:1015200040318160816821F440418160416821F04F
:1015300030014160416821F0C0014160416821F4FF
:1015400040714160416821F440614160416821F48B
:1015500040514160416821F440414160416821F4BB
:1015600040314160416821F4402141604249086AAC
:10157000424A40EA02000862086840F0C34008603E
:101580004FF00000CA6B42F08062CA6300F10100B4
:101590000A28F7DB4FF000004FF4FA7200BF00F1A9
:1015A00001009042FADB4FF000004CF250328B6B9E
:1015B00043F080638B6300F101009042F7DBE2208F
:1015C0007FE730B54FF000052846FFF7D8FE002032
:1015D000FFF7DFFE4FF000045820FFF719FE7A20D6
:1015E000FFF772FE04F10104E4B23C2CF4D905F1DA
:1015F0000105EDB2032DE7D930BD00B5AF20FFF7EF
:1016000055FDAF205DF804EBA7E500B5AE20FFF770
:101610004DFDAE205DF804EB9FE52DE9F0418046DD
:101620004FF00000FFF7BEFE4FF0000707EB47004A
:10163000C0EB871008EB400404F13D053846FFF786
:101640009EFE0020FFF7A5FE4FF000062078FFF772
:10165000DFFD2878FFF738FE04F1010405F10105EC
:1016600006F10106F6B23D2EF0D307F10107FFB2F5
:10167000032FDBD9BDE8F08100C009200000FC0782
:101680007088020000C00240204BDA601870597068
:1016900070471E48C16800290ED0491EC1600BD199
:1016A0001B4A017811704178517011714FF000019F
:1016B000C1700171417181717047144A116190705C
:1016C00070471248016900290CD0491E016109D1F7
:1016D0000F4A817811704FF000015170C170017193
:1016E0004171817170470949088170470749B1F913
:1016F0000800002809D0A0F1010000B208810028EC
:1017000003D10146084601F090BC704718C007207D
:10171000480100102049086A40F0006008621F4A32
:101720005068C3070AD01E4B1B883BB18B6B43F03C
:1017300000638B634FF00601517003E0CB6B43F005
:101740000063CB634FEA500050601078A0F10100B5
:1017500010F0FF00107004D14FF02000107090685E
:101760005060704710B50D4A002420234F2909D03E
:1017700041290BD052290DD0532902D154609460D5
:10178000137010BD50609460137010BD5060906075
:10179000137010BD906010BD00C009202CC0072040
:1017A000580000104FF00000FD4A4FF02001115486
:1017B00000F10100C0B2C828F9D3704701464FF0CC
:1017C0000000F74A00F10100C0B2135C8B4201D067
:1017D000C828F7D3704710B54FF00001F14C4FF017
:1017E0000A020346B0FBF2F002FB1033635401F12E
:1017F0000101C9B20529F4D310BDF0B5EA4D4FF08F
:10180000010129704FF00501E64B4FF020064FF023
:1018100000072A7842B15A1812F8014C24B98142C3
:1018200002D902F8016C07E003EB010212F8014D46
:1018300004F1300414702F70A1F10101C9B2002924
:10184000E7D1F0BD70B50D461446002804DA6FEA02
:10185000000000F1010000B2FFF7BDFF601CC0B244
:10186000FFF7CBFF2846FFF7A9FFFF2822D04FF054
:101870000001CC4DCA4AA14202D26B5C135411E064
:1018800008D14FF02E03135402EB00066B5C06F8F0
:10189000013C07E06B5C202B04D064B102EB000636
:1018A00006F8013CA0F10100C0B201F10101C9B28A
:1018B0000529E0D370BD1354F4E7F0B50C46154686
:1018C000002802DAC0F1000000B24FF02D06FFF749
:1018D00082FF681CC0B2FFF790FF2046FFF76EFF43
:1018E0004FF00001AF4AAE4C7DB9535C202B0CD0B9
:1018F00057187F78202F06D12D2E04D104EB000C31
:1019000037460CF8017C235417E0A94202D2535CFD
:10191000235412E008D14FF02E03235404EB0007A8
:10192000535C07F8013C08E0535C202B04D004EB27
:10193000000707F8013C00E02D2EA0F10100C0B225
:1019400001F10101C9B20529CED3F0BDFEB50346B0
:101950004FF02B07002B04DAC3F1000003B24FF065
:101960002D074FF000004FF00A046D4693FBF4F68C
:1019700004FB16332B5433B200F1010040B20A28A5
:10198000F4DB4FF001034FF000044FF009004FF07B
:10199000200643B115F800C0BCF1000F03D19042FE
:1019A00001DD2E5408E02B5C03F130032B544FF083
:1019B000000304F10104E4B2A0F1010040B20028E8
:1019C000E7DA2D2F04D1204604F10104E4B22F54AC
:1019D0008AB160B207E005EB000313F8013C2B5419
:1019E000A0F1010040B29042F5DC4FF02E00A85467
:1019F00004F10104E4B20846FFF7E0FE4FF00001F5
:101A0000674A06E0A0EB01066B5C935501F101010A
:101A100049B2A142F6DBFEBDFEB503464FF02B07EF
:101A2000002B03DAC3F100034FF02D074FF0000045
:101A30004FF00A046D461E4693FBF4F304FB136655
:101A40002E5400F1010040B20A28F4DB4FF00103EC
:101A50004FF000044FF009004FF0200643B115F895
:101A600000C0BCF1000F03D1904201DD2E5408E00C
:101A70002B5C03F130032B544FF0000304F10104FD
:101A8000E4B2A0F1010040B20028E7DA2D2F04D122
:101A9000204604F10104E4B22F548AB160B207E099
:101AA00005EB000313F8013C2B54A0F1010040B2F8
:101AB0009042F5DC4FF02E00A85404F10104E4B28A
:101AC0000846FFF77BFE4FF00001354A06E0A0EB29
:101AD00001066B5C935501F1010149B2A142F6DBAD
:101AE000FEBD2DE9FE414FF02B0C002803DAC0F1BA
:101AF00000004FF02D0C4FF000044FF00A056F4628
:101B0000064690FBF5F005FB10663E5504F1010416
:101B100064B20A2CF4DB4FF001054FF000044FF0E3
:101B200009004FF0200645B117F80080B8F1000F0A
:101B300003D1984201DD3E5408E03D5C05F13005DB
:101B40003D544FF0000504F10104E4B2A0F101009E
:101B500040B20028E7DABCF12D0F05D1204604F190
:101B60000104E4B207F800C08BB160B207E007EBF4
:101B7000000515F8015C3D54A0F1010040B2984207
:101B8000F5DC4FF02E00F85404F10104E4B201EB4F
:101B9000810002EB8000C1B24FF00000004A0CE06F
:101BA000E201082048C00720DA010010A1EB00057F
:101BB0003B5C535500F1010040B2A042F6DBBDE8AA
:101BC000FE8170B50D4616461C46FFF704FE601CEC
:101BD000C0B2FFF712FE05EB850006EB8000C1B234
:101BE0004FF00000FE4BFF4DA04201D21A5C6A5438
:101BF00007D31A5C202A04D064B105EB010606F86D
:101C0000012CA1F10101C9B200F10100C0B2052807
:101C1000EAD370BD6A54F4E7F0B5044608461646A8
:101C20001F46FFF7CBFD02461046EE4DFF2806D1BA
:101C300008E0295404F1010400F10100C0B2217848
:101C40000029F6D1E8480078002806D0002F04D0FB
:101C500002EB06014FF05F006854F0BD2DE9F04F34
:101C60000746DDE90905884691469A46FFF7A6FD35
:101C7000DD4B2021DB4C0A224FF0640C012D09D1F1
:101C80001E783EB104EB0006A6F10E06B17071702D
:101C9000317017E097FBF2FB02FB1B7E04EB0006A2
:101CA0000EF1300E06F80CEC9BFBF2FE02FB1EBBA5
:101CB0000BF1300B06F80DBC97FBFCF707F1300772
:101CC00006F80E7C022D09D11E783EB104EB000609
:101CD000A6F10A06B1707170317017E098FBF2F747
:101CE00002FB178B04EB0006A6F10A060BF1300B82
:101CF00086F802B097FBF2FB02FB1B7707F1300777
:101D0000777098FBFCF707F130073770032D09D186
:101D10001E783EB104EB0006A6F10606B1707170A4
:101D2000317017E099FBF2F702FB179804EB0006FD
:101D3000A6F1060608F1300886F8028097FBF2F853
:101D400002FB187707F13007777099FBFCF707F172
:101D500030073770042D09D11B783BB12154204442
:101D6000A0F1020041700170BDE8F08F9AFBF2F122
:101D700002FB11A303F13003235491FBF2F302FBA6
:101D800013112044A0F1020001F1300141709AFBCF
:101D9000FCF101F130010170E6E770B50D46144623
:101DA000FFF719FD601CC0B2FFF727FD2846FFF7BB
:101DB00005FD4FF000018A4A8A4D24B9535C202B5F
:101DC00001D02B5415E0A14202D2535C2B5410E0F9
:101DD00008D14FF02E032B5405EB0006535C06F898
:101DE000013C06E0535C202B03D005EB000606F80F
:101DF000013CA0F10100C0B201F10101C9B2052905
:101E0000DBD370BD17B501EB810002EB8000C2B2DD
:101E10009DF80030754803F00F01445C71498C5403
:101E2000A2F10102D2B200EB13131B788B54A2F182
:101E30000102D2B29DF8013003F00F04045D8C540E
:101E4000A2F10102D2B200EB13131B788B54A2F162
:101E50000102D2B29DF8023003F00F04045D8C54ED
:101E6000A2F10102D2B200EB13131B788B54A2F142
:101E70000102D3B29DF8032002F00F04045DCC549C
:101E8000A3F10103DBB200EB12100078C8541EBDB1
:101E900010B504460846FFF791FC544A04F00F01C0
:101EA000535C50490B54A0F10100C0B202EB141274
:101EB00012780A5410BD10B501EB810102EB8101CB
:101EC000C9B24A4A00F00F03D45C464B5C54A1F1FE
:101ED0000101C9B202EB10100078585410BD30B5A2
:101EE00001EB810102EB8101C9B24FEAE07200EB24
:101EF000127222F00F03A0EB03003C4B394C185C2C
:101F00006054A1F10101C9B24FEA22104FEAE07218
:101F100000EB127222F00F05A0EB0500185C605474
:101F2000A1F10101C9B24FEA22104FEAE07200EBC1
:101F3000127222F00F05A0EB0500185C6054A1F1AD
:101F40000101C8B24FEA2211595C215430BD30B5AD
:101F500001EB810102EB8101CCB2244900F00102C6
:101F60008D5CA4F10102D3B21E4A15554FEA50040C
:101F700004F001000D5CA3F10100C0B2D5544FEA9A
:101F8000540404F00103CD5CA0F10103DBB215544D
:101F90004FEA540404F001000D5CA3F10100C0B24B
:101FA000D5544FEA540404F00103CD5CA0F10103C1
:101FB000DBB215544FEA540404F001000D5CA3F1A8
:101FC0000100C0B2D5544FEA540303F001040D5D83
:101FD000A0F10104E4B215544FEA5300085C07E095
:101FE00048C00720E201082020000010C7A401001B
:101FF000105530BD104400B2002802DA084400B287
:1020000070478842FCDBA0EB010000B270474FF044
:102010000000FF49087048708870FE49487070479A
:102020002DE9F04180460F461646FFF7BBFBFA4C00
:102030004FF0000518F8010B04F8010B05F101053C
:10204000EDB2142DF6D34FF0000017F8011B04F881
:10205000011B00F10100C0B21428F6D34FF00000BC
:1020600016F8011B04F8011B00F10100C0B214288E
:10207000F6D34FF0000013F8011B04F8011B00F128
:102080000100C0B21428F6D3BDE8F08130B5044693
:1020900008461546FFF792FBFF280CD0DE4A07E002
:1020A00000EB050304F10104D15400F10100C0B2BA
:1020B00021780029F4D130BD70B5D84D95F9004094
:1020C00004F101062E70D64D04EB84042544D14C56
:1020D00026682E6026792E71207061702271A3709F
:1020E00070BD10B5029CFFF79BFFCA48C378827889
:1020F00041784820FFF7E0FF642094FBF0F0BDE852
:102100001040C0B2FFF7EFBA00EB800001EB800097
:10211000C4490870C448027070472DE9FE4F0D464F
:102120004FEA401000F58060044602A92046FEF701
:10213000F0FD01A904F10800FEF7EBFD694604F18A
:102140000C00FEF7E6FD2846FFF738FBB24C4FF0D7
:10215000200700F10101CAB227544FF0300602F106
:102160000100C1B2A6544FF0210801F10100C0B234
:1021700004F801804FF02F0200F10101C9B222548E
:102180004FF0400901F10100C0B204F8019000F1E4
:102190000101C9B2275401F10100C0B2675400F136
:1021A0000101C9B2225401F10100C0B266544FF0DE
:1021B000230A00F10101CDB204F800A09DF8060049
:1021C0004FF000024FF02101FFF7E7FD9DF80400FA
:1021D00000222321FFF7E1FD9DF80500401E0C2899
:1021E00003D34FF001008DF805009DF805008F49DD
:1021F000002201EB80004021FFF748FF05F10100BC
:10220000C0B2675500F10101C9B2265401F10100C5
:10221000C0B204F801804FF03A0200F10101C9B2E6
:10222000225401F10100C0B2665400F10101C9B2AB
:1022300004F8009001F10100C0B2625400F1010104
:10224000C9B2265404F801A09DF800004FF0000226
:102250004FF02101FFF7A1FD9DF801000022402170
:10226000FFF79BFD9DF8020000222321FFF795FD5B
:10227000BDE8FE8F2DE9FE4F04460D464FF4606029
:10228000FEF7B4FC6242402100B2FFF7B3FE4FEA12
:10229000401000F58060044602A92046FEF739FD93
:1022A00001A904F10800FEF734FD694604F10C00B1
:1022B000FEF72FFD2846FFF781FA83469DF80800B8
:1022C000DFF86CA1DFF850914FF040064FF0300579
:1022D0004FF021074FF023084FF0200455282FD04E
:1022E000CF22D12150287DD042287CD053287BD0CA
:1022F00049287AD14FF0C8010BF10100C0B209F8AA
:102300000B104FF0ED0200F10101C9B209F80020F5
:102310004FF0E20201F10100C0B209F801209DF87E
:102320000910092972D201F1310100F10102D2B282
:1023300009F8001002F10100C0B209F80240FDE303
:102340009DF80A00522815D14FF0C2010BF101008F
:10235000C0B209F80B104FF0EA0200F10101C9B256
:1023600009F800204FF0EB0201F1010000F0FF0B33
:1023700009F801200BF10100C0B209F80B4000F18F
:102380000101C9B209F8004001F10100C2B209F827
:10239000014002F10100C0B209F802409DF80410AA
:1023A000BAF83C20914261D19DF805109AF8382086
:1023B00091425BD19DF806109AF82C20914255D19C
:1023C00000F10101C9B209F8005001F10100C0B2E9
:1023D00009F801704FF03A0200F10101C9B209F8A1
:1023E000002003E088E03EE1FEE33EE001F1010071
:1023F000C0B209F8015000F10101C9B209F800604A
:1024000001F10100C0B209F8012013E0EDE3000082
:102410000201001048010010E20108200C00001029
:10242000B001082021000010220000100CA50100BE
:102430000040024000F10101C9B209F8005009F85A
:1024400001809DF800004FF000024FF02101FFF7DE
:10245000A4FC9DF8010000224021FFF79EFC9DF89E
:10246000020000222321FFF798FC01E700F101019F
:10247000C9B209F8004001F10100C0B209F80150E9
:1024800000F10101C9B209F8007001F10100C0B208
:1024900009F8016000F10101C9B209F8004001F139
:1024A0000100C0B209F8014000F10101C9B209F808
:1024B000005009F801809DF806004FF000024FF02F
:1024C0002101FFF76AFC9DF8040000222321FFF799
:1024D00064FC9DF80500401E0C2803D34FF001005A
:1024E0008DF805009DF80510FF48002200EB8100E3
:1024F0004021FFF7CBFDBBE60BF10100C0B209F8AC
:102500000B2000F10102D2B209F8001002F1010023
:10251000C0B209F8024000F10101C9B209F8004057
:1025200001F10100C0B209F8014000F10101C9B296
:1025300009F8004001F10100C0B209F801409DF81E
:102540000410BAF83C20914247D19DF805109AF842
:102550003820914241D19DF806109AF82C209142E2
:102560003BD100F10101C9B209F8005001F10100AD
:10257000C0B209F801704FF03A0200F10101C9B28E
:1025800009F8002001F10100C0B209F8015000F182
:102590000101C9B209F8006001F10100C0B209F8F7
:1025A000012000F10101C9B209F8005009F80180C9
:1025B0009DF800004FF000024FF02101FFF7EDFB06
:1025C0009DF8010000224021FFF7E7FB9DF8020083
:1025D00000222321FFF7E1FB4AE600F10101C9B225
:1025E00009F8004001F10100C0B209F8015000F102
:1025F0000101C9B209F8007001F10100C0B209F887
:10260000016000F10101C9B209F8004001F10100C7
:10261000C0B209F8014000F10101C9B209F8005047
:1026200009F801809DF806004FF000024FF02101EB
:10263000FFF7B3FB9DF8040000222321FFF7ADFB59
:102640009DF80500401E0C2803D34FF001008DF8C3
:1026500005009DF80510A448002200EB81004021F0
:10266000FFF714FD04E69DF80A0043287DD14FF0E2
:10267000C1010BF10100C0B209F80B104FF0E002EC
:1026800000F10101C9B209F800204FF0F20001F198
:102690000102D3B209F801009DF809104FF0C00EF5
:1026A000092911D201F1310103F10100C0B209F889
:1026B000031000F10101C9B209F800E001F10100C5
:1026C000C2B209F801402EE0A1F109005A281BD23C
:1026D00001F101014FF00A0BB1FBFBF202F1300CEA
:1026E00003F10100C0B209F803C00BFB121202F1A2
:1026F000300200F10101C9B209F8002001F1010026
:10270000C2B209F801E00EE003F10100C0B209F81D
:10271000034000F10101C9B209F8004001F10100D4
:10272000C2B209F8014002F10100C0B209F802404A
:102730009DF80410BAF83C2091424DD19DF8051047
:102740009AF83820914247D19DF806109AF82C202B
:10275000914241D100F10101C9B209F8005001F1E3
:102760000100C0B209F8017000E07EE04FF03A03CA
:1027700000F10101CAB209F8003002F10100C1B252
:1027800009F8025001F10100C0B209F8016000F13E
:102790000101C9B209F8003001F10100C0B209F825
:1027A000015000F1010101F0FF0B09F800809DF8D4
:1027B00000004FF000024FF02101FFF7EEFA9DF804
:1027C000010000224021FFF7E8FA9DF802000022F4
:1027D0002321FFF7E2FA48E000F10101C9B209F84C
:1027E000004001F10100C2B209F8015002F10100FC
:1027F000C0B209F8027000F10101C9B209F8006025
:1028000001F10100C0B209F8014000F10101C9B2B3
:1028100009F8004001F10100C0B209F8015000F1CF
:10282000010101F0FF0B09F800809DF806004FF050
:1028300000024FF02101FFF7B0FA9DF804000022DA
:102840002321FFF7AAFA9DF80500401E0C2803D3A8
:102850004FF001008DF805009DF805102248002278
:1028600000EB81004021FFF711FC9DF80A005A2877
:102870007BD14FF0C2000BF10101C9B209F80B0086
:102880004FF0C70201F10100C0B209F8012000F1C8
:102890000101C9B209F8004001F10100C0B209F814
:1028A000014000F10101C9B209F8004001F1010045
:1028B000C2B209F8014002F10100C0B209F80240B9
:1028C0009DF80410BAF83C2091424FD19DF80510B4
:1028D0009AF83820914249D19DF806109AF82C2098
:1028E000914243D102E000000CA5010000F101017A
:1028F000C9B209F8005001F10100C0B209F8017035
:102900004FF03A0300F10101CAB209F8003002F1B8
:102910000100C1B209F8025001F10100C0B209F88A
:10292000016000F10101C9B209F8003001F10100B4
:10293000C0B209F8015000F1010101F0FF0B09F8E4
:1029400000809DF800004FF000024FF02101FFF7DA
:1029500024FA9DF8010000224021FFF71EFA9DF89D
:10296000020000222321FFF718FA48E000F10101DC
:10297000C9B209F8004001F10100C2B209F80150E2
:1029800002F10100C0B209F8027000F10101C9B200
:1029900009F8006001F10100C0B209F8014000F13E
:1029A0000101C9B209F8004001F10100C0B209F803
:1029B000015000F1010101F0FF0B09F800809DF8C2
:1029C00006004FF000024FF02101FFF7E6F99DF8F5
:1029D000040000222321FFF7E0F99DF80500401EC6
:1029E0000C2803D34FF001008DF805009DF8051069
:1029F000FF48002200EB81004021FFF747FB9DF8D4
:102A00000A0057287DD14FF0C1000BF10101C9B276
:102A100009F80B004FF0E00201F10100C0B209F823
:102A200001204FF0F20100F10102D3B209F80010C9
:102A30009DF809104FF0F00E092911D201F1310172
:102A400003F10100C0B209F8031000F10101C9B29D
:102A500009F800E001F10100C2B209F801402EE0DE
:102A6000A1F109005A281BD201F101014FF00A0B14
:102A7000B1FBFBF202F1300C03F10100C0B209F826
:102A800003C00BFB121202F1300200F10101C9B2C6
:102A900009F8002001F10100C2B209F801E00EE0DE
:102AA00003F10100C0B209F8034000F10101C9B20D
:102AB00009F8004001F10100C2B209F8014002F139
:102AC0000100C0B209F802409DF80410BAF83C2099
:102AD00091424FD19DF805109AF83820914249D182
:102AE0009DF806109AF82C20914243D100F1010183
:102AF000C9B209F8005001F10100C2B209F8017031
:102B000000E083E04FF03A0302F10100C0B209F89F
:102B1000023000F10101C9B209F8005001F10100D1
:102B2000C0B209F8016000F10101C9B209F8003032
:102B300001F10100C0B209F8015000E067E200F1C4
:102B4000010101F0FF0B09F800809DF800004FF033
:102B500000024FF02101FFF720F99DF8010000224B
:102B60004021FFF71AF99DF8020000222321FFF708
:102B700014F94BE000F10101C9B209F8004001F17C
:102B80000100C0B209F8015000F10101C9B209F811
:102B9000007001F10100C0B209F8016000F101010B
:102BA000C9B209F8004001F10100C0B209F80140C2
:102BB00000F10101C9B209F8005001F1010000F073
:102BC000FF0B09F801809DF806004FF000024FF05E
:102BD0002101FFF7E2F89DF8040000222321FFF70E
:102BE000DCF89DF8050001E012E1F6E1401E0C283A
:102BF00003D34FF001008DF805009DF805107C48C7
:102C0000002200EB81004021FFF740FA9DF80A0006
:102C10004B287FF42AAC4FF0C1010BF10100C0B288
:102C200009F80B104FF0E00200F10101C9B209F8F8
:102C300000204FF0F20201F10100C0B209F80120BA
:102C40009DF80910092915D201F1310100F10102A5
:102C5000D2B209F800104FF0EA0102F10100C0B24F
:102C600009F802104FF0E50200F10101C9B209F8BC
:102C7000002030E0A1F109025A2A1DD201F1010120
:102C80004FF00A0BB1FBFBF303F1300C00F1010232
:102C9000D2B209F800C00BFB131101F1300102F1AF
:102CA0000100C0B209F802104FF0EA0200F1010180
:102CB000C9B209F800200EE000F10101C9B209F81B
:102CC000004001F10100C0B209F8014000F101012A
:102CD000C9B209F8004001F10100C0B209F8014091
:102CE0009DF80410BAF83C20914247D19DF8051098
:102CF0009AF83820914241D19DF806109AF82C207C
:102D000091423BD100F10101C9B209F8005001F133
:102D10000100C0B209F801704FF03A0200F1010160
:102D2000C9B209F8002001F10100C0B209F8015050
:102D300000F10101C9B209F8006001F10100C0B25F
:102D400009F8012000F10101C9B209F8005009F8A1
:102D500001809DF800004FF000024FF02101FFF7C5
:102D60001CF89DF8010000224021FFF716F89DF89D
:102D7000020000222321FFF710F82DE400F10101E9
:102D8000C9B209F8004001F10100C0B209F80150D0
:102D900000F10101C9B209F8007001F10100C0B2EF
:102DA00009F8016000F10101C9B209F8004001F120
:102DB0000100C0B209F8014000F10101C9B209F8EF
:102DC000005009F801809DF806004FF000024FF016
:102DD0002101FEF7E2FF9DF8040000222321FEF707
:102DE000DCFF9DF80500401E0C2807D302E0000020
:102DF0000CA501004FF001008DF805009DF80510AD
:102E0000C248002200EB81004021FFF73FF929E48E
:102E10004FF0C1030BF10100C0B209F80B3000F113
:102E20000103DBB209F8002003F10100C0B209F888
:102E300003109DF80920092A0CD202F1310200F199
:102E40000101C9B209F8002001F10100C0B209F87E
:102E5000014024E0A2F109015A2916D202F101022F
:102E60004FF00A0BB2FBFBF303F1300C00F1010150
:102E7000C9B209F800C00BFB132202F1300201F1C4
:102E80000100C0B209F8012009E000F10101C9B256
:102E900009F8004001F10100C0B209F8014000F159
:102EA0000101C9B209F8004001F10100C0B209F8FE
:102EB00001409DF80410BAF83C20914247D19DF89A
:102EC00005109AF83820914241D19DF806109AF8E1
:102ED0002C2091423BD100F10101C9B209F8005008
:102EE00001F10100C0B209F801704FF03A0200F19F
:102EF0000101C9B209F8002001F10100C0B209F8CE
:102F0000015000F10101C9B209F8006001F10100AE
:102F1000C0B209F8012000F10101C9B209F800505E
:102F200009F801809DF800004FF000024FF02101E8
:102F3000FEF733FF9DF8010000224021FEF72DFF30
:102F40009DF8020000222321FEF727FF15E700F17C
:102F50000101C9B209F8004001F10100C0B209F84D
:102F6000015000F10101C9B209F8007001F101003E
:102F7000C0B209F8016000F10101C9B209F80040CE
:102F800001F10100C0B209F8014000F10101C9B22C
:102F900009F8005009F801809DF806004FF0000282
:102FA0004FF02101FEF7F9FE9DF8040000222321D5
:102FB000FEF7F3FE9DF80500401E0C2803D34FF0EA
:102FC00001008DF805009DF805105048002200EB27
:102FD00081004021FFF75AF8CFE6A1F109025A2AF1
:102FE00016D201F101014FF00A05B1FBF5F303F12F
:102FF000300600F10102D2B209F8006005FB13119E
:1030000001F1300102F10100C0B209F8021009E03B
:1030100000F10101C9B209F8004001F10100C0B29C
:1030200009F8014009F80040A7E6394A1378A3F1EE
:103030000103184440B21070002802DA4FF000007B
:10304000107092F90000334A00EB800002443248CD
:10305000136803601279027142781144417070471D
:1030600030B52D4901242D4B91F9012091F904101F
:103070008A4204D100EB800003F8204030BD4D1C93
:10308000AA4206D100F1010000EB800003F82040C5
:1030900030BD8D1CAA4206D100F1020000EB800079
:1030A00003F8204030BDCD1CAA4206D100F1030038
:1030B00000EB800003F8204030BD0D1DAA4206D170
:1030C00000F1040000EB800003F8204030BD4D1DEE
:1030D000AA4206D100F1050000EB800003F8204071
:1030E00030BD8D1DAA4206D100F1060000EB800024
:1030F00003F8204030BDC91D8A42FBD100F1070012
:1031000000EB800003F8204030BD00000CA501005A
:103110000C000010B001082048010010E201082056
:1031200090F900308B4200DA027090F9003093423F
:1031300000DD0170704790F900308B4200DA0170B9
:1031400090F90010914200DD02707047B0F9003034
:103150008B4200DA0180B0F90010914200DD02805C
:103160007047B0F900308B4200DA0280B0F90030CD
:10317000934200DD0180704703688B4200DA0260F1
:103180000368934200DD0160704700002DE9F04FB5
:10319000099C20293DD2CD1701EB5575EE1037461D
:1031A0006FF03C0C06FB0CF64FF4B77C0CEB4606BC
:1031B00025F007050644A1EB05084FF0010CFF4D73
:1031C000002A4BD0B0B2C8F10701C9B223DD00EB31
:1031D00002031CE024B1012C09D0022C0ED013E014
:1031E0002A5C0CFA01F642EA06022A540CE02A5C38
:1031F0000CFA01F682EA06022A5405E02E5C0CFA6B
:1032000001F206EA02062E5400F1010080B2834268
:10321000E0DCBDE8F08F00EB02031CE024B1012CE0
:1032200009D0022C0ED013E02A5C0CFA01F642EA17
:1032300006022A540CE02A5C0CFA01F682EA060225
:103240002A5405E02A5C0CFA01F602EA06022A5426
:10325000A0F1010080B28342E0DBDAE74FF0FF0E1D
:10326000002BD6D0BAB201EB03064FEAE67706EBA5
:10327000577ACAF3CF071FFA88F92AF00708A6EB96
:1032800008061FFA86F846DDBA4245D14E4640E0B0
:1032900024B1012C15D0022C26D037E0C2F1030155
:1032A00001EB410ACAEB811100EB4101C6F1070BAA
:1032B00015F801A00CFA0BFB4AEA0B0A05F801A06D
:1032C00024E0C2F1030101EB410ACAEB811100EBDA
:1032D0004101C6F1070B15F801A00CFA0BFB8AEAB5
:1032E0000B0A05F801A011E0C2F1030101EB410A4C
:1032F000CAEB811100EB4101C6F1070B15F801A0E3
:103300000CFA0BFB2AEA0B0A05F801A006F10106EC
:10331000B6B24645BCD39CE0CE1701EB567BCBF34F
:10332000CF06C6F1030606EB460ACAEB86162BF05B
:10333000070AA1EB0A0B4FF0FF0A00EB46062AFA38
:103340000BFA24B1012C09D0022C0ED013E015F891
:1033500006B04BEA0A0B05F806B00CE015F806B00B
:103360008BEA0A0B05F806B005E015F806B02BEA63
:103370000A0B05F806B0CE18F11706EB517BCBF31C
:10338000CF01C1F1030101EB410ACAEB81112BF01E
:10339000070AA6EB0A06B6B2C6F1080AFF2600EB3A
:1033A000410106FA0AF624B1012C09D0022C0ED0F4
:1033B00013E015F801A04AEA060A05F801A00CE09E
:1033C00015F801A08AEA060A05F801A005E015F83B
:1033D00001A02AEA060A05F801A0B91A012938DD78
:1033E00002F1010189B232E024B1012C11D0022C8A
:1033F0001ED029E0C1F1030606EB460ACAEB861689
:1034000000EB460615F806A04FF0FF3A05F806A0B7
:103410001AE0C1F1030606EB460ACAEB861600EB7A
:10342000460615F806A06FEA0A0A05F806A00BE0A2
:10343000C1F1030606EB460BCBEB861600EB460606
:103440004FF0000A05F806A001F1010189B2B94266
:10345000CAD3002BBFF601AFBA4242D1A9F101098C
:103460001FFA89F13AE024B1012C13D0022C22D0AA
:1034700031E0C2F1030303EB4306C6EB831300EB19
:103480004303C1F10707EE5C0CFA07F746EA0706AB
:10349000EE5420E0C2F1030303EB4306C6EB8313B3
:1034A00000EB4303C1F10707EE5C0CFA07F786EA6D
:1034B0000706EE540FE0C2F1030303EB4306C6EB2D
:1034C000831300EB4303C1F10707EE5C0CFA07F727
:1034D00026EA0706EE54A1F1010189B24145C2D2A4
:1034E00097E624B1012C13D0022C22D031E0C2F196
:1034F000030101EB4103C3EB811100EB4101C9F171
:1035000008066B5C0EFA06F643EA06036B5420E0ED
:10351000C2F1030101EB4103C3EB811100EB410157
:10352000C9F108066B5C0EFA06F683EA06036B54D3
:103530000FE0C2F1030101EB4103C3EB811100EB8A
:103540004101C9F108066B5C0EFA06F623EA060390
:103550006B5424B1012C11D0022C1ED02BE0C7F1EA
:10356000030101EB4103C3EB811100EB41012EFA92
:1035700008FE6B5C43EA0E036B541CE0C7F10301C9
:1035800001EB4103C3EB811100EB41012EFA08FE70
:103590006B5C83EA0E036B540DE0C7F1030101EB92
:1035A0004103C3EB811100EB41012EFA08FE6B5C75
:1035B00023EA0E036B54D11B012901E0AA02082063
:1035C0008EDDA2F1010291B22DE024B1012C0FD0C9
:1035D000022C1AD024E0C1F1030202EB4203C3EB38
:1035E000821200EB4202AB5C4FF0FF33AB5417E0AA
:1035F000C1F1030202EB4203C3EB821200EB420271
:10360000AB5C6FEA0303AB540AE0C1F1030202EBC7
:103610004206C6EB821200EB42024FF00003AB54AD
:10362000A1F1010189B2B942CFD8F2E52DE9F847FD
:103630000446DDE90905884692461F4604EB0A0662
:1036400050B90DE03B460022414620460095FFF769
:103650009DFD04F1010424B2A642F3DABDE8F88727
:103660003B460022414620460095FFF78FFD08EBC0
:103670000709A9F1010001B2002352462046009536
:10368000FFF784FD761E784234B203B20FFA89F157
:10369000002220460095FFF779FDCAF1000002B232
:1036A0000023414620460095FFF770FDD6E72DE93F
:1036B000F84381460E461D464FF0000822B1022A0B
:1036C0001BD14FF000042EE04FF0000413E0371937
:1036D000621B002339464846CDF80080FFF756FDAF
:1036E0002A1B002339464846CDF80080FFF74EFDDF
:1036F00004F10104E4B2AC42E9D3BDE8F883371B1E
:10370000621B002339464846CDF80080FFF73EFD96
:103710002A1B002339464846CDF80080FFF736FDC6
:1037200004F10104E4B2AC42E9D3E6E72DE9F8473D
:10373000DDF824904FF0FF34C3F1200304FA03F4C2
:103740000094009B03EA02030093009A22FA01F21C
:1037500000929DF800609DF801709DF802C09DF8F0
:103760000380DFF890A2B9F1000F0AEB00011AF80C
:10377000002091F87A3091F8F44091F86E5110D011
:1037800082EA06020AF8002083EA070381F87A3009
:1037900084EA0C0481F8F44085EA080581F86E514A
:1037A0005CE742EA06020AF8002043EA070381F8D0
:1037B0007A3044EA0C0481F8F44045EA080581F8BF
:1037C0006E514BE72DE9FC4F0646DDE90D890C9D56
:1037D0008A4617469B464FF0000422E004FB058012
:1037E000A5F10101415C8DF80710A5F10201415CD2
:1037F0008DF80610A5F10301415C8DF80510A5F1C7
:103800000401405C8DF8040006EB040000B25B4646
:10381000CDF800905146019AFFF788FF04F10104AA
:1038200024B2BC42DADBBDE8FC8F2DE9FF4F97B034
:103830000546DDE92587279E24994FF02B044FF09C
:1038400000004FF020090DF1500C0CF8009000F131
:10385000010000B20A28F8DB4FF0000006E012F881
:1038600000A00CF800A000F1010000B29842F6DBC5
:10387000002904DAC1F1000001B24FF02D044FF02D
:1038800000004FF00A0B0DF1080A91FBFBF20BFB55
:1038900012110AF8001011B200F1010040B20A281A
:1038A000F3DB4FF001004FF000024FF0090148B187
:1038B0001AF801B0BBF1000F04D1414502DD0AF84E
:1038C00001900AE01AF8010000F130000AF8010046
:1038D0004FF0000002F10102D2B2A1F1010149B2A0
:1038E0000029E4DA2D2C05D1104602F10102D2B2F2
:1038F0000AF80040B8F1000F13D051B208E00AEB0B
:10390000010010F8010C0AF80100A1F1010149B20F
:103910004145F4DC4FF02E000AF8080002F10102E4
:10392000D2B24FF0000109E0A7EB0108E0441AF819
:10393000010008F8010C01F1010149B29142F3DBE9
:103940002D2C07D1A7EB0100604400F8014C03F1D6
:1039500001031BB24FF000010DF1140824E01CF824
:103960000100DFF8949000EB400001EB410219F8F0
:1039700010A008F812A009EB400008EB420290F8F2
:10398000019082F8019090F8029082F8029090F8ED
:10399000039082F8039090F8049082F804904079A4
:1039A000507101F1010109B29942D8DB2D2C07D1E8
:1039B000A7EB0100604400F8014C03F101031BB2C6
:1039C0004FF0000403EB43070EE018F804008DF8F5
:1039D0000700281900B208230096019A1899FFF7EA
:1039E000A5FE04F1010424B2B4EB470FEDDB1BB0DC
:1039F0000FE40000AA020820C79E0100002801DA97
:103A0000404200B2704710B5FF4A106820F0E060F5
:103A100010605068C0F30B11FC484180038803F12B
:103A200001030380A0F1F20300F18004D87F24F8A1
:103A3000101000F10100C0B2D877032803D210683B
:103A400040F08070106010BD10B54FF40270FDF7AB
:103A5000CDF8EF4C207040F20A20FDF7C7F86070F7
:103A60004FF40370FDF7C2F8A07040F20E20FDF78E
:103A7000BDF8E0704FF40470FDF7B8F8207240F222
:103A80001220FDF7B3F860724FF40570FDF7AEF841
:103A9000A07240F21620FDF7A9F8E0724FF4117001
:103AA000FDF7A4F8207140F24620FDF79FF8607101
:103AB0004FF41270FDF79AF8A07140F24A20FDF71A
:103AC00095F8E07110BDD1490E318A6B8B6B9B1A52
:103AD0008342FBD37047CF494FF011000872704703
:103AE000CD48C16941F44021C161C16941F440112F
:103AF000C161CA484FF00001C1604FF44061C16428
:103B00004FF0020141614FF47A7282614FF44872C2
:103B100002624FF4967242624FF001020265416008
:103B20004FF0090141607047B8494FF00100A1F121
:103B3000F20181F8320070472DE9F04F85B04FF067
:103B40000000B74B4FF4F47105461D5400F101001D
:103B500000B28842F9DBDFF8B482A8F1F20898F8E5
:103B6000010088B14FF000024FF014084FF07A01C5
:103B700002FB01F002EB82014FEA810109B202EB84
:103B8000820408EB840CA0E298F820004FF0320B7E
:103B9000C0074FF002044FF003061AD098F8140043
:103BA000002815D09F48CDE90205CDE900B60321D4
:103BB000182332220846FFF705FE9B48CDE902058F
:103BC000CDE900B60321182332220846FFF7FAFD9B
:103BD000C8E0B8F96200DFF83492DFF850A20F278E
:103BE000A9F1100901285CDB1423002100951A4675
:103BF00008460195FFF71AFD1223012100951A4688
:103C000008460195FFF712FD99F8000010F03C0FEF
:103C10000FD0C10619D598F8140038B3CDE902A524
:103C2000CDE900740F231A4602210320FFF7CAFDD5
:103C30001CE07F48CDE90205CDE900740F231A4648
:103C400002210320FFF7BEFD10E010F00C0F0DD095
:103C500098F8140050B17748CDE90205CDE9007419
:103C60000F2302211A460846FFF7ACFD724840694F
:103C7000C00516D40B230022142109200095FFF75C
:103C800085FA00235B221F2109200095FFF77EFAA9
:103C900098F8050004231330C1B200220920FFF771
:103CA00006FDB8F9620002285CDB142300951A4671
:103CB000002117200195FFF7B9FC122300951A4641
:103CC000012118200195FFF7B1FC99F8010010F0CF
:103CD0003C0F0FD0C10619D598F8140038B3CDE9C0
:103CE00002A5CDE900740F231A4602211920FFF71F
:103CF00069FD1CE05148CDE90205CDE900740F23B0
:103D00001A4602211920FFF75DFD10E010F00C0F9C
:103D10000DD098F8140050B14648CDE90205CDE920
:103D200000740F231A4602211920FFF74BFD424869
:103D30004069800516D40B23002214212020009511
:103D4000FFF724FA002344221F2120200095FFF7CB
:103D50001DFA98F8050004231330C1B20022202078
:103D6000FFF7A5FCB8F86000DFF8A09001274FF03E
:103D70000A0AA9F1720900282AD0009514232322E7
:103D8000002132200195FFF751FC00950223032208
:103D9000142135200195FFF749FC009502230322E9
:103DA00014214F200195FFF741FC98F8200080076F
:103DB0000FD598F814000028DED01B48CDE9020585
:103DC000CDE900B61823322200212B20FFF7FAFCA0
:103DD000C8E00B230022142142200095FFF7D6F9FA
:103DE000002322221F2142200095FFF7CFF9B9F9C5
:103DF0005E00002827DA98F805000423133000221B
:103E0000C1B242201CE0000000400340FE00001050
:103E1000440A08200040024000C0024000800140E7
:103E2000AA020820239D0100B99D01008B9E01007C
:103E30004F9E0100A99E010000C009206D9E010057
:103E4000FFF735FC09E098F805000423C0F12200D3
:103E5000C1B202224220FFF72AFC98F808000A2883
:103E60005ED2B8F96800A0F5AA4155397AD098F920
:103E700021004FF0050190FBF1F004904FF0140287
:103E80004FF0000104A8FFF761F9CDE90075BDF915
:103E90001030202200213320FFF7C8FB98F92100C1
:103EA0000A2813DACDE9007409230C2205213D20EC
:103EB000FFF7BCFB98F9210002238DE8A100FFA2C7
:103EC00005213D200397FFF7B0FC4BE0642814DA8E
:103ED000CDE900740923122205213A20FFF7A6FB41
:103EE00098F92100CDE90005CDE902470323F4A2AA
:103EF00005213A20FFF799FC34E0CDE9007409234D
:103F0000182205213720FFF791FB98F9210004239F
:103F10008DE8E100EBA205213720FFF786FC21E0C8
:103F2000B9F95E00B0F57A7F02DA10F57A7F0CDC21
:103F3000642190FBF1F000B28DE8E1000423E3A2DC
:103F400005213A20FFF771FC0CE090FBFAF0CDE977
:103F5000017600B200900423DCA2052103973A20E9
:103F6000FFF763FC00950E231B2202215C200195C4
:103F7000FFF75CFB00231A1F08215C200095FFF768
:103F800005F900230422082176200095FFF7FEF8AA
:103F9000002327221F2143200095FFF7F7F86FF039
:103FA0000F0300221F2169200095FFF7EFF898F812
:103FB00007000423C0F12200C1B202226920FFF7EA
:103FC00076FBB9F968100420CDE90017CDE90207A6
:103FD0000523C0A216214620FFF727FCB9F9660089
:103FE00064280ADACDE9017600900423B7A20521FE
:103FF00003975D20FFF719FC0AE090FBFAF000B28E
:104000008DE8E1000423B1A205215A20FFF70DFC41
:1040100098F8040000F10100C0B288F804000328F9
:104020002DD388F8045098F8050000F10100C0B2C3
:1040300088F805000D2801D388F8055098F8060087
:1040400000F10100C0B288F80600202801D388F8EA
:10405000065098F8070000F10100C0B288F8070088
:10406000112801D388F8075098F8080000F10100E2
:10407000C0B288F80800142801D388F8085005B0A9
:10408000BDE8F08F954C964D645C04EB440600F15E
:10409000010415F816701F5405EB460004F10105E4
:1040A00046781E55847805F101065C55C47806F102
:1040B00001079C55057907F10104DD55457904F1A7
:1040C00001001D5501F1010109B28C45DADC02F154
:1040D000010212B2042AFFF649ADD0E72DE9F04FF4
:1040E000CBB04FF005014FF000007E4A0DF1200BE0
:1040F0004FF0010412784A92052A03D04A9A212AE5
:1041000007D00CE078A14FF0010008914FF00601B4
:1041100005E07BA14FF0010008914FF006017E4DB4
:1041200095F82030DA0709D002467CA600F101009C
:10413000C0B24BF8226001F10101C9B29A0709D55A
:1041400002467CA600F10100C0B24BF8226001F1EA
:104150000101C9B2704AE232167816F01C0F09D07C
:1041600006467AA700F10100C0B24BF8267001F1B3
:104170000101C9B2684AE232527812F01C0F09D02C
:10418000024678A600F10100C0B24BF8226001F1AE
:104190000101C9B2604AFF3216786732012EB2F9C6
:1041A000002000D112B1022E0BD015E0024673A6FA
:1041B00000F10100C0B24BF8226001F10101C9B267
:1041C0000AE04AB9024673A600F10100C0B24BF8FA
:1041D000226001F10101C9B2744E3278552A0DD125
:1041E00006F1910212884AB9024671A700F1010056
:1041F000C0B24BF8227001F10101C9B27278552AA0
:1042000009D16A4A913252882AB96FA24BF820200C
:1042100001F10101C9B2A87A00F10100C0B2A8728F
:104220004FF00007142808D3AF72687A00F101003C
:10423000C0B26872884200D36F72DFF870A1DFF8F5
:104240009C900AF1370A51469AF8000091F9011042
:1042500026AEAAF1BC0829282CD008F1BC0CD64601
:104260009CF90120DFF878A1921C9CF904C0002879
:1042700021D0DFF8A4B004289BF814B0CDF824B105
:104280001AD008F1BC0E05289EF904209EF901B051
:10429000ABEB02029EF902B0CDF820B10DD0F3468F
:1042A000112801F07280022801F086805B465B785D
:1042B0009B1E97E059E1FDE3FDE3FDE320250000AF
:1042C0002020250020202025000000002020204163
:1042D000000000002020202042000000E201082011
:1042E000C79E01002B02001020C2FBF0E0E2ED2E81
:1042F000E7E0F0FFE420207A3A305A200000000086
:104300002020CAEEEDF2F0EEEBFC20E5ECEAEEF157
:10431000F2E82020000000000C000010202020C047
:10432000E2E0F0E8FF20F1E5F2E821212120202061
:104330000000000020C0E2E0F0E8FF20E1E0F2E051
:10434000F0E5E821212120200000000020C0E2E06B
:10435000F0E8FF20E8F1F2EEF7EDE8EAE0204E3178
:104360000000000020C0E2E0F0E8FF20E8F1F2EEFB
:10437000F7EDE8EAE0204E3200000000C2EDE5F87B
:104380002EF2E5ECEF2E4E31E7E0E2FBF8E5EDE052
:1043900000000000C2EDE5F82EF2E5ECEF2E4E3104
:1043A000E7E0EDE8E6E5EDE00000000011010010B7
:1043B00020D1F0E0E1EEF2E0EB20F8EBE5E9F420CB
:1043C0004E3120200000000020D1F0E0E1EEF2E0CC
:1043D000EB20F8EBE5E9F4204E322020000000004D
:1043E000F7A401005BB20C2801F00280142801F050
:1043F0002480102801F03480152801F057804128CE
:1044000001F06E80442801F0DE82452801F06983C6
:104410009BF904E03428F3460EF1030ECDF81CE1BD
:104420000BF1020E0BF1010BCDF818E1DE46A8F1FD
:10443000800BBBF96EB002F09081362802F08284C6
:1044400008F1BC0B032802F02986DE46A8F1800B98
:1044500025289BF813B0CDF814B103F07D80A8F1A6
:10446000800B28289BF819B0CDF810B103F0998083
:1044700008F1BC0B1A2803F019811F2803F07D8175
:10448000202803F0B681212803F0E081222803F0E0
:104490003782232803F0D283172803F051843E2863
:1044A00003F08E84462803F0B5849BF801B03F28C2
:1044B000ABF1010B4FFA8BFE04F0968008F1BC0BB8
:1044C000402804F04E81272804F0C8820A2804F00E
:1044D000CC821C2804F0EF821B2804F069831E287C
:1044E00004F053851D2804F07685372804F0AD8547
:1044F000A8F1800B2A289BF81BB004F0008608F175
:10450000BC082B2804F04F86A8F59E73C346B3F968
:10451000383009F2C948A3F1010A382804F072863C
:10452000392804F0C1863A2805F06A803B2805F056
:10453000B8803C2805F06C81D8463D2805F0B9814B
:10454000072805F0CE820828FBD01228F9D01328BE
:10455000F7D03528F5D01928F3D0092805F0E882DE
:104560002C2805F0EC8205F0F0BA89B9FAA0269063
:10457000FFA02790FEA02890FDA0299026A80FC894
:10458000FDF74EFD002221214FF47D70FDF705FC63
:104590009AF90100FC4C70B1012862D002287ED04B
:1045A00003287DD004287CD005287BD006287AD02B
:1045B000072879D0D7E7EEA3EDA2EDA1ECA0FDF797
:1045C0002FFD0023208803221946FDF7FAFA6088A0
:1045D000002303220121FDF7F4FAA088002303221F
:1045E0000221FDF7EEFA0322E08800231146FDF7D1
:1045F000E8FA0023208909221946FDF7E2FA6089CA
:10460000002309220121FDF7DCFAA08900230922F9
:104610000221FDF7D6FAE089002309220321FDF7E4
:10462000D0FA208A002313220121FDF7CAFA608AFA
:10463000002313220321FDF7C4FAD44C00230F22D8
:1046400020881946FDF7BDFA208800230F2201219A
:10465000FDF7B7FA208800230F220221FDF7B1FAF7
:1046600081E7C3A3C2A2C2A1C1A0FDF7D9FC9AF9F8
:104670000200002380B21A461946FDF7A2FA9AF901
:104680000200C34C002304EB4010042200881946AA
:10469000FDF797FA9AF9020004EB401005E097E065
:1046A000C4E0D0E0FCE036E16DE240880023042263
:1046B0000121FDF786FA9AF90200002304EB40106D
:1046C000042280880221FDF77CFA9AF90200002377
:1046D00004EB40100422C0880321FDF772FA9AF916
:1046E0000200002304EB4010092200891946FDF75F
:1046F00068FA9AF90200002304EB4010092240896D
:104700000121FDF75EFA9AF90200002304EB401044
:10471000092280890221FDF754FA9AF90200002348
:1047200004EB40100922C0890321FDF74AFA9AF9E7
:104730000200002304EB40100E22008A1946FDF708
:1047400040FA9AF90200002304EB40100E22408A3E
:104750000121FDF736FA9AF90200002304EB40101C
:104760000E22808A0221FDF72CFA9AF9020000231A
:1047700004EB40100E22C08A0321FDF722FA9AF9B9
:104780000200002304EB40101322008B1946FDF7B2
:1047900018FA9AF90200002304EB40101322408B10
:1047A0000121FDF70EFA9AF90200002304EB4010F4
:1047B0001322808B0221FDF704FA9AF902000023EC
:1047C00004EB40101322C08B0321FDF7FAF9CAE66F
:1047D00067A367A266A166A0FDF722FC9AF9020012
:1047E000002380B21A461946FDF7EBF99AF9020048
:1047F0000023042234F810000121FDF7E2F9624998
:104800009AF902001831002331F810000422022125
:10481000FDF7D7F95D499AF902003431002331F8E8
:10482000100004220321FDF7CCF99CE650A350A20E
:104830004FA14FA0FDF7F4FB00231A4619460920AB
:10484000FDF7BFF98FE6534B53A11A4658A0FDF769
:10485000E7FB4D4C00233A34072220880121FDF765
:10486000B0F96088002307220221FDF7AAF9A08889
:10487000002307220321FDF7A4F9E0880023112279
:104880000121FDF79EF92089002311220221FDF765
:1048900098F96089002311220321FDF792F962E65D
:1048A00033A333A232A132A0FDF7BAFB374800236D
:1048B0007938012290F90000194680B2FDF781F99C
:1048C000324801227638002390F90000114680B268
:1048D000FDF777F92D480023733801220078022173
:1048E000FDF76FF9294800232A3805220088194668
:1048F000FDF767F925480023801D05220088012166
:10490000FDF75FF9214800231E38052200880221A7
:10491000FDF757F927E62CA0269031A0279036A066
:1049200028903BA0299040A02A9045A02B904AA017
:104930002C909AF90400C11C56F82130811C56F8BD
:104940002120411C56F8200056F82110FDF768FB85
:1049500002223F218CE0000020204D5332344C4194
:104960004E20202020212020202020200000000098
:104970002020202020202020202020202020202037
:1049800020202020000000006A0808207E0100107E
:10499000EA060820E2A401002020202020203E205A
:1049A0002020202020202020202020200000000087
:1049B00020CAC0CD202D20EEF2EBE0E4EAE020207A
:1049C0002020202000000000202020203F20202048
:1049D000202020202024202320402021000000002F
:1049E0002020202020202020202020202020204A9D
:1049F0002020206A000000002020202020202020ED
:104A00002020202020202059202020790000000094
:104A1000202020682020206D20202020205120717F
:104A2000205A207A000000002020207320202053EC
:104A300020202020202020432020204400000000AF
:104A400020202066202020462020202020202063B7
:104A50002020206400000000202020202020202092
:104A60002020202020412061204220620000000000
:104A7000B8F95E00FCF76AFFFE4C60690022C0F3E3
:104A800000202421FDF789F9FB4E23213078FDF722
:104A9000FFF960690022C0F340204021FDF77DF955
:104AA00070782121FDF7F4F906F1420400222088F4
:104AB0004A2102E095E085E1CCE3FDF76EF96088DC
:104AC00000226A21FDF769F9EC4C00225921207877
:104AD000FDF763F9607800227921FDF75EF9E84C73
:104AE00000226821206880B2FDF757F9E5480022CE
:104AF0006D21006880B2FDF750F9E34E002251218C
:104B00003088FDF74AF9E14F002271213888FDF71E
:104B100044F9708800225A21FDF73FF97888002275
:104B20007A21FDF73AF9DA4E002241213078FDF77B
:104B300034F9D84F002261213878FDF72EF97078CA
:104B400000224221FDF729F9787800226221FDF741
:104B500024F92068002280B24321FDF71EF9606825
:104B6000002280B24421FDF718F9CB4C00226321CA
:104B7000206880B2FDF711F96068002280B26421DC
:104B8000FDF70BF9EFE4C54B1A4611460846FDF751
:104B900047FAC34C20784FF000034FF00602194645
:104BA000FDF70FF8002306220121A87EFDF709F882
:104BB0006820FCF71BF880B2002306220221FDF7D3
:104BC00000F8A088002310221946FCF7FAFF6A209B
:104BD000FCF70CF880B2002310220221FCF7F1FF51
:104BE000C1E4B0A02690A4484230B0F90030B0F93A
:104BF0000200C82B04DDC82802DDB0A026900FE01B
:104C0000C82B02DDB3A026900AE0C82802DDB7A0B9
:104C1000269005E0B8F95C00C82801DDB9A026900F
:104C2000BEA02790C3A02890C8A02990CDA02A900C
:104C3000D2A02B90D7A02C90DCA02D90E1A02E909C
:104C4000E6A02F90EBA03090F0A03190F5A032902C
:104C5000FAA03390FFA03490CDF8D4A0F24631B141
:104C6000ACEB0100022805DD8AF8042006E08AF892
:104C7000047003E0614501DD8AF804106F7A052FA6
:104C80000ED29AF90400C11C56F82130811C401C38
:104C900056F8212056F820102698FDF7C1F90FE0AC
:104CA0009AF904007F1FC11C56F82130811C401C5A
:104CB00056F8212056F820105BF82700FDF7B0F9D0
:104CC0009AF9040090B19AF9011079B1884202D1A1
:104CD00089F83C400AE0401A012802D0022803D09B
:104CE00004E089F8284001E089F81440B8F85C0035
:104CF00001226C2180B2FDF750F802224021B8F960
:104D00005E00FCF723FEB8F868000122232180B280
:104D1000FDF743F8B8F866000122242180B2FDF7C0
:104D20003CF8D24C20784FF000024FF02601FDF7FE
:104D300034F8207900225E21FDF72FF8207A002236
:104D40002521FDF72AF8207B00223C21FDF725F8DC
:104D5000217E524800222A3000EB81003E21FDF7DF
:104D600095F9A08B00227B21FDF717F8287D88B1EB
:104D70003A20FCF723FD4FF0200409F800404FF0E3
:104D80003A00FCF71BFD09F800403A20FCF716FD3D
:104D900009F80040B64C4FF4616100222068B0FB76
:104DA000F1F080B27A21FCF7F8FF21683C20B1FBDA
:104DB000F0F1B1FBF0F200FB121000225A21FCF7D7
:104DC000ECFF4DE4B5F8600050B1980716D549984E
:104DD00068B1324BA7A2ADA1B2A0FDF721F93FE423
:104DE000B6A3BCA2C1A1C7A0FDF71AF938E42B4BAA
:104DF0001A4611460846FDF713F931E4C7A026907C
:104E0000CC48007858B1CCA02790D1A02990D6A04A
:104E1000289095F8240038B1D9A02A9006E0DEA0A9
:104E20002790E3A02990F2E7E7A02A90ECA02B902E
:104E3000F1A02C90CDF8B4A0C81C491C56F8203025
:104E4000774656F8222056F82110B4A0FDF7E8F86E
:104E5000B8F85C000122402180B2FCF79EFF0222DC
:104E60002121B8F95E00FCF771FD00222421B8F879
:104E70005A00CDE100C00920EE00001046020010EB
:104E80008002001084C007206A0200106602001031
:104E90001A0200101C02001088020010E2A4010097
:104EA000384002402020CDE5EEEFF0E5E4E5EBE50B
:104EB000EDEDEEF1F2FC20200000000020C220F019
:104EC000E0E1EEF2E520C1CFD1312CC1CFD13220CB
:104ED0000000000020202020C220F0E0E1EEF2E5FA
:104EE00020C1CFD131202020000000002020202030
:104EF000C220F0E0E1EEF2E520C1CFD13220202047
:104F0000000000002020D0E0E1EEF2E020EEF220F0
:104F1000E1E0F2E0F0E5E820000000002055E13D8E
:104F20002020206CC22049E13D2020202040C020CC
:104F3000000000002055ED3D20202023C22049ED37
:104F40003D2020202024C020000000002030253AF1
:104F5000305E3A302620303C2F3E20202F307B2000
:104F60000000000020C1E0F2E0F0E5FF202020205A
:104F700020202020202020200000000020C1CFD1B0
:104F80003120202020202020202020202020202010
:104F90000000000020C1CFD132202020202020207E
:104FA00020202020202020200000000020CDE0E351
:104FB000F0F3E7EAE02020202020202020202020FD
:104FC0000000000020D1E5F2FC202020202020203D
:104FD00020202020202020200000000020D1EFE50C
:104FE000F6F4F3EDEAF6E8E8202020202020202047
:104FF0000000000020C6F3F0EDE0EB20F1EEE1FB55
:10500000F2E8E920202020200000000020C1E0F28A
:10501000E0F0E5E9EDFBE920E6F3F0EDE0EB202040
:105020000000000020CFE0F1EFEEF0F22020202081
:1050300020202020202020200000000020D3F1F29A
:10504000E0EDEEE2EAE820202020202020202020B1
:105050000000000020D1E1F0EEF120E0E2E0F0E815
:10506000E9202020202020200000000020400240D5
:105070007002001020202020EDE520EFEEE4EAEBA6
:10508000FEF7E5EDE0202020202000002020202059
:10509000202020C1E0F2E0F0E5FF202020202020A9
:1050A0002020000020202020202020C0C2C0D0C806
:1050B000DF2121202020202020200000E220E1E02C
:1050C000F2E0F0E5E9EDEEEC20E6F3F0EDE0EBE503
:1050D000000000002020202020E2E2E5E4E8F2E5E4
:1050E00020E5B820202020200000000020CFF0E89C
:1050F0002020EDE5EEE1F5EEE4E8ECEEF1F2E8205B
:105100000000000020C1C0D2C0D0C5DF20CDC52026
:10511000C2C2C5C4C5CDC020000000002020202090
:105120002020C1C0D2C0D0C5DF20202020202020D8
:10513000000000003A020010202020F0E0E7F0FF1D
:10514000E6E0E5F2F1FF2020202020200000000012
:1051500020202049F0E0E7F03D2020202021C02041
:10516000202020200000000020202055E1E0F23D1A
:10517000202020202040C2202020202000000000ED
:1051800020202020C4D22E20EDE5E8F1EFF0E0E26F
:10519000E5ED20200000000020202020E7E0F0FFC7
:1051A000E6E0E5F2F1FF20202020202000000000B2
:1051B00020202049E7E0F03D202020202021C020B1
:1051C000202020200000000020202074E1E0F220B8
:1051D0003D20202024B0432020202020000000007B
:1051E000202020C7E0F0FFE43D202020207725206C
:1051F000202020200000000020202043E1E0F23D9C
:10520000202020202051C02AF7202020000000006C
:1052100080B2FCF7C2FD95F921000022772180B20F
:10522000FCF7BBFDB5F96800A0F5AA41553905D1D9
:105230004A1E5121B8A0FCF729FF04E001225121A8
:1052400080B2FCF7AAFD7878042844F07E8489F8BF
:105250003C4097E4B24F489848B1B2484069C0F327
:105260004020DDF82081B8F1010F05D009E0AD48FC
:105270004069C0F30020F4E7B5F86280B8F1010F8F
:1052800002D048B1A8A008E0ADA0B3A32693B8A36C
:105290002793BD4B289338E0BCA0DB0702D0C1A305
:1052A00026931CE09E4BDDF820815A3B13F8083012
:1052B0005FEAC36802D5C1A3269310E05FEA0378D2
:1052C00002D5C4A326930AE05FEA437802D5C7A3B8
:1052D000269304E013F03C0F10D0CAA32693CFA36B
:1052E0002793D4A32893DFF83882489BA8F1580865
:1052F00018F803302BB1D5A3299304E0D9A3269342
:10530000EDE7DEA32993CDF8A8A0002A01DD3971CD
:1053100002E0614500DA397197F904108A1C56F8E9
:1053200022304A1C56F8211056F82220FCF778FE4D
:1053300097F902000022401C80B22121FCF72DFDCC
:10534000774897F902101838012230F811004021EF
:10535000FCF723FD724897F902101438012230F847
:1053600011002321FCF719FD6D4897F902101C3834
:10537000002230F811002421FCF70FFD7878022874
:1053800044F0E38389F83C402AE4C2A3C7A2CDA13C
:10539000D2A0FCF745FE89F83C40B8F8680001222D
:1053A000212180B2FCF7F9FCB8F866000122402107
:1053B00080B2FCF7F2FC13E4D80707D0499810B18B
:1053C000CCA0269004E07048269001E0CEA0269064
:1053D000AFF66423AFA2D2A12698FCF721FE89F88C
:1053E0002840E88E0022232180B2FCF7D6FCE8E4B6
:1053F000D1A02690D6A02790DBA02890CDF8A4A01D
:10540000AFF694202A90022A02DD8BF8043003E0E4
:10541000614501DA8BF804109BF90400811C56F8F1
:105420002130411C56F8212056F82010D4A0FCF75A
:10543000F7FD0120FDF714FEC3E44A9821280CD0A3
:10544000D5A02690504BDAA003F115022699FCF75F
:10545000E7FD0120FDF704FEB3E4DBA02690F1E7B1
:10546000DF482690DFA0279031B1012909D0022919
:105470000CD003290FD012E0E0A02690E5A02790E1
:105480000DE0EAA02690EFA0279008E0F3A0269078
:10549000F8A0279003E0F1A02690FCA02790DDE97A
:1054A0002623D0A1CE48FCF7BBFD8AE44A98052804
:1054B00013D0B9A02690344BFAA11533FFA0269A39
:1054C000FCF7AEFD0120FDF7CBFDB5F85C00002236
:1054D000212180B2FCF761FC73E4BBA02690EAE7CF
:1054E000F6A3F6A2F5A1F5A0FCF79AFD4FF0040093
:1054F0002876A87E01280AD0022809D0032808D0DF
:10550000062807D00C2806D0F2A02690EEE107E28C
:1055100009E20BE20DE20FE22D2D2D2D2D2D0000C5
:105520004801001000C0092020202020C1CFD12137
:1055300020C2DBCACBDED7C5CD2020200000000072
:105540002020202020202020C1CFD1322020202048
:10555000202020200000000020202020CED2D1D307
:10556000D2D1D2C2D3C5D2202020202000000000FA
:105570002020C220D1D2D0D3CAD2D3D0C520C8C116
:10558000DDCF202000000000E2A401002020202028
:10559000C1CFD12120C2CACBDED7C5CD202020204B
:1055A0000000000020E0E2E0F0E8FF20F1E5F2E892
:1055B00020202020202020200000000020E0E2E029
:1055C000F0E8FF20EFE5F0E5E3F0E5E22020202021
:1055D0000000000020E0E2E0F0E8FF2055E2FBF5EB
:1055E0003C55ECE8ED2020200000000020E0E2E047
:1055F000F0E8FF2055E2FBF53E55ECE0EAF1202013
:105600000000000020E7E0E1EBEEEAE8F0EEE2E087
:10561000ED20E8E7E2EDE520000000002055E8F18C
:10562000F2203D2020202040C220202020202020C9
:10563000000000002049E8F1F2203D202020202336
:10564000C0202020202020200000000020C4D220E4
:10565000EDE5E8F1EFF0E0E2E5ED2020202020206C
:105660000000000020F1EEF1F2EEFFEDE8E5202D64
:1056700020EDEEF0ECE02020000000002074E8F1C6
:10568000F2203D20202024B0432020202020202074
:105690000000000020C2FBF5EEE4202020202020A6
:1056A0002020202020202020000000002049EDE0C4
:1056B000E3F03D20202020202020404120202020F9
:1056C000000000002055EDE0E3F03D2020202020E8
:1056D000202021C2202020200000000020202020A7
:1056E0002020CDC0C3D0D3C7CAC020202020202076
:1056F00000000000202020C0C2C0D0C8DF20D1C5DB
:10570000D2C821212120200020202020202020D1AB
:10571000C5D2DC20202020202020202000000000F6
:105720002055F1E5F2E83D2020202020202023C252
:10573000202020200000000020CAEEEDF2F0EEEB69
:10574000FC20E5ECEAEEF1F2E82020200000000069
:1057500020C2FBF0E0E2EDE8E2E0FEF9E8E920E754
:10576000E0F0FFE40000000020C0E2F22EE2FBF0D7
:10577000E0E2EDE8E22E20E7E0F0FFE400000000C8
:1057800020202020D1CFC5D6D4D3CDCAD6C8C8209A
:10579000202020200000000020C2FBEAEBFEF7E5FD
:1057A000ED202020202020202020202000000000AC
:1057B0002020CACECDD2D0CECBDC20C5CCCACED113
:1057C000D2C820200000000020C2EAEBFEF7E5ED81
:1057D0002020202020202020202020200000000049
:1057E00000430000202020EDE5E2EEE7ECEEE6E5E8
:1057F000ED21212120202020000000002020202059
:10580000CEF2F1F3F2F1F2E2F3E5F22020202020D3
:1058100000000000202020202020E1E0F2E0F0E560
:10582000FF20202020202020000000002020202019
:10583000202020C0E2E0F0E8FF20202020202020CF
:10584000000000002020202020202020F1E5F2E8A8
:1058500020202020202020200000000020202020C8
:105860002020C1E0F2E0F0E5FF20202020202020D1
:105870000000000020202020F0E0E7F0FFE6E0E557
:10588000F2F1FF2020202020000000002020202016
:1058900020E7E0F0FFE6E0E5F2F1FF202020202005
:1058A0000000000020E4EBE8F2E5EBFCEDEEF1F2A5
:1058B000FC202D202021F72E0000000020C2DBD08C
:1058C000C0C2CDC8C2C0DED9C8C920C7C0D0DFC4DD
:1058D0000000000020E2FBEAEBFEF7E5ED202020CF
:1058E0002020202020202020000000002C76287E70
:1058F000042824D0CDF89CA09BF904005C46411CF0
:1059000056F8202056F82130DDA1E3A0FCF788FBF3
:1059100094F9010094F9041088421ADA20711EE00B
:10592000E3A02690E3E7E8A02690E0E7ECA026902D
:10593000DDE7F1A02690DAE7F5A02690D7E7FAA0F8
:105940002790FFA02890AFF6FC102990CDF8A8A0D2
:10595000D2E7411A012902DDA0F1010121710228DB
:1059600000D120710220FDF77BFB0022252135F8B4
:10597000780FFCF712FA00225E216888FCF70DFA16
:1059800000222621A888FCF708FAE88800223C219A
:10599000A5F17805FCF701FAEF48B8F800100022ED
:1059A00000EB81003E21FCF771FB00227B21B8F85F
:1059B0000200FCF7F2F9B8F804000022282180B2B6
:1059C000FCF7EBF945E440F60260FBF70FF900B293
:1059D0002887402800DD2F87B5F9380068B10128F5
:1059E00016D002281ED066DD9BF901109BF9042019
:1059F0005B4691423BDA19713FE0D74BD7A12A3B76
:105A000003F11502DBA0FCF70BFB8BF8047052E0EE
:105A1000D14ADEA3153AE3A1D6A0FCF701FB8BF82F
:105A2000047048E09BF901009BF904105A46884233
:105A300001DA107105E0411A022902DDA0F102002D
:105A4000107192F9040010B1012808D033E0C24B64
:105A5000DAA2153BD3A1C7A0FCF7E2FA2BE0BE4ABD
:105A6000CAA3153ACFA1C3A0FCF7DAFA23E08A1A39
:105A7000022A02DDA1F10201197193F90410421EFC
:105A8000914207D1B44AC1A3153AC6A1B9A0FCF707
:105A9000C7FA10E0801E814207D1AF4BC7A2153B69
:105AA000C0A1B4A0FCF7BCFA05E0CAA3C3A2BDA183
:105AB000B0A0FCF7B5FA0120FDF7D2FA5C469BF8DE
:105AC00004002821FCF7D6FB20795B21401CC0B2E2
:105AD000FCF7D0FB20797B21801CC0B2FCF7CAFB0D
