:020000040000FA
:1000000028430010E1000000E5000000E7000000C8
:10001000E9000000EB000000ED000000000000001F
:10002000000000000000000000000000EF000000E1
:10003000F100000000000000F3000000B514000013
:10004000F7000000F7000000F7000000F7000000D4
:10005000F7000000F7000000F7000000F7000000C4
:10006000F7000000F7000000F7000000F7000000B4
:10007000F7000000F7000000F7000000F7000000A4
:10008000F7000000F7000000F7000000F700000094
:10009000F7000000F700000075140000F7000000F2
:1000A000F700000039570000F7000000F7000000DB
:1000B000D7640000F7000000F7000000F700000020
:1000C000F7000000F7000000F7000000DFF80CD098
:1000D00000F094F800480047851500002843001000
:1000E00005480047FEE7FEE7FEE7FEE7FEE7FEE71E
:1000F000FEE7FEE7FEE7FEE7CD00000006280AD295
:10010000DFE800F003040506070804E003E002E06E
:1001100001E000E000BF00BF00BFFEE710B506F041
:1001200095FE06F0DFFE06F0D1FEAFF30080BDE8DD
:10013000104006F09DBE10B507F03EFC07F0F2FF40
:10014000BDE8104007F090BC07F0A4BB07F06CB905
:1001500009B10020704706F0C3BD0020704790F938
:1001600000308B4200DA027090F90030934200DDDB
:100170000170704790F900308B4200DA017090F9FD
:100180000030934200DD02707047B0F900308B42BE
:1001900000DA0180B0F90030934200DD0280704740
:1001A000B0F900308B4200DA0280B0F9003093429F
:1001B00000DD0180704703688B4200DA026003684B
:1001C000934200DD0160704740EA01039B0703D0C2
:1001D00009E008C9121F08C0042AFAD203E011F886
:1001E000013B00F8013B521EF9D270470146002046
:1001F00000E0401C0A5C002AFBD17047064C074D0A
:1002000006E0E06840F0010394E8070098471034E6
:10021000AC42F6D3FFF75EFFD0990000109A0000C1
:1002200070B501EB020410F8015B15F0070301D172
:1002300010F8013B2A1106D110F8012B03E010F849
:10024000016B01F8016B5B1EF9D12B0705D400236C
:10025000521E0FD401F8013BFAE710F8013B02F1FE
:100260000202A1EB030303E013F8015B01F8015B59
:10027000521EF9D5A142D6D3002070BD00B5002290
:1002800000F008F8C04380B2010241EA102080B2B9
:1002900000BD000005E000BF30F8023B891E5BBADC
:1002A0001A440129F8DC11B1007802EB002290B267
:1002B00000EB124000EB104080B27047084400EBA6
:1002C000104080B27047010241EA102080B27047AE
:1002D00002E008C8121F08C1002AFAD1704770470F
:1002E000002001E001C1121F002AFBD17047002845
:1002F00000DAC043400008F04DBA7047FFFFFFFF2F
:100300004FF020008749086000BF8648006810F061
:10031000400FFAD04FF00300834908604FF40030DB
:100320008249C1F8A8014FF00000814908604FF0F0
:100330000100804908608048804908604FF0010052
:10034000A1F1040108604FF0AA007D4908604FF058
:1003500055007649C1F88C0000BF7848001D006840
:1003600010F0806FF9D04FF00300764908604FF02D
:10037000AA006E49C1F88C004FF055007049086022
:100380004FF02300704908604FF00100A1F1040113
:1003900008604FF0AA006D4908604FF055000860F2
:1003A00000BF6948001D006810F4806FF9D04FF05D
:1003B0000300674908604FF0AA005C49C1F8AC002F
:1003C0004FF05500614908606248634908604FF08A
:1003D00000005649C1F8C8010846D0F88800C0F3AB
:1003E0000160032868D15348006810F0030006D06C
:1003F000012823D002283FD003285CD100E000BFB1
:1004000056480068C0F30E0000F101004FEA4001B9
:100410004648D0F88800C0F3074000F10100B1FB66
:10042000F0F04F4900FB01F03F490968C9B201F102
:100430000101B0FBF1F04B4908603CE0474800681F
:10044000C0F30E0000F101004FEA40013748D0F838
:100450008800C0F3074000F10100B1FBF0F0424911
:1004600000FB01F030490968C9B201F10101B0FB9C
:10047000F1F03C4908601EE038480068C0F30E0007
:1004800000F101004FEA40012848D0F88800C0F38D
:10049000074000F10100B1FBF0F04FF4FA4100FB1E
:1004A00001F021490968C9B201F10101B0FBF1F085
:1004B0002C49086000BF2FE01E48006810F00300C0
:1004C00006D0012810D0022819D0032823D100E03B
:1004D00000BF15480068C0B200F101002049B1FB1F
:1004E000F0F02049086016E00F480068C0B200F143
:1004F00001001D49B1FBF0F01A4908600BE00A4801
:100500000068C0B200F101004FF4FA41B1FBF0F015
:100510001449086000BF00BF43F23A000349086075
:1005200070470000A0C10F4004C10F4000C00F4041
:10053000ACC10F400CC10F404F00030084C00F40FE
:100540008CC00F4080C00F40A4C00F40ACC00F4013
:10055000A0C00F4048F10041C4C00F4088C00F4008
:1005600000093D0000C0072080969800704700EB0E
:100570008002114600BFA1F101021100FBD17047BA
:10058000014600BFA1F101021100FBD1704770B517
:100590004FF00004224607E04FF00004FF4DAC543A
:1005A00002F1010424B2224640F2FF34A242F3DBFE
:1005B0004FF00004224620E14FF00004234615E1ED
:1005C0000A2404FB0234F64D2C5DBF2C0ADD4FF0EB
:1005D0000A0404FB02342C5DA4F1810404EB4404FE
:1005E0004FEAC4000A2404FB0234ED4D2C5D1F2C9D
:1005F0000CDD4FF00A0404FB02342C5DA4F120044E
:1006000004EB44044FEAC404204602E04FF0000427
:1006100020464FEA02244FF00C0505FB0341E14C54
:10062000265C0C4601F101052946DC4D2E55DD4DB9
:1006300000F102042E5D0C4601F101052946D74D5B
:100640002E55D84D00F104042E5D0C4601F1010534
:100650002946D24D2E55D34D00F106042E5D0C4691
:1006600001F101052946CD4D2E55CE4D00F108046E
:100670002E5D0C4601F101052946C84D2E55C94D88
:1006800000F10A042E5D0C4601F101052946C34D17
:100690002E55C44D00F10C042E5D0C4601F10105F0
:1006A0002946BE4D2E55BF4D00F10E042E5D0C4661
:1006B00001F101052946B94D2E55BA4D00F110043E
:1006C0002E5D0C4601F101052946B44D2E55B54D60
:1006D00000F112042E5D0C4601F101052946AF4DD3
:1006E0002E55B04D00F114042E5D0C4601F10105AC
:1006F0002946AA4D2E554FEA02244FF00C0505FB62
:10070000034404F180042146A64D00F101042E5D4E
:100710000C4601F101052946A04D2E55A14D00F1D1
:1007200003042E5D0C4601F1010529469B4D2E5513
:100730009C4D00F105042E5D0C4601F10105294692
:10074000964D2E55974D00F107042E5D0C4601F194
:1007500001052946914D2E55924D00F109042E5D5B
:100760000C4601F1010529468C4D2E558D4D00F1A9
:100770000B042E5D0C4601F101052946874D2E55CF
:10078000884D00F10D042E5D0C4601F1010529464E
:10079000824D2E55834D00F10F042E5D0C4601F164
:1007A000010529467D4D2E557E4D00F111042E5D2B
:1007B0000C4601F101052946784D2E55794D00F181
:1007C00013042E5D0C4601F101052946734D2E558B
:1007D000744D00F115042E5D0C4601F1010529460A
:1007E0006E4D2E5503F1010424B223460A2BFFF669
:1007F000E7AE02F1010424B22246042AFFF6DCAE81
:1008000070BD1FB56848007800B98BE3012211461E
:1008100066A003F05DFD6F48007800BB6E4800786D
:10082000782803D06C480078772803D14FF0010076
:1008300068490870684800787D2806D14FF00A00A2
:10084000644908704FF00000487063480078F7284A
:1008500004D10122114655A003F03AFD61E35D4841
:10086000007801287ED15C480078782803D05A4867
:1008700000787728F2D14FF00000564908704FF009
:10088000C000564908804FF0A800554908804FF035
:10089000010054490880544908805048B0F90010BC
:1008A0004FF06E0004F00DFA4D48B0F900107020C2
:1008B00004F007FA4B48B0F90010722004F001FA76
:1008C0004948B0F90010742004F0FBF94FF0FF0024
:1008D0004649088046490880464908804FF0000094
:1008E000454908804148B0F900104FF0760004F007
:1008F000E8F93F48B0F90010782004F0E2F93D48EB
:10090000B0F900107A2004F0DCF93B48B0F900108F
:100910007C2004F0D6F94FF0C000384908804FF031
:10092000A800374908804FF00100364908804FF091
:10093000FE00354908803148B0F900104FF07E00C4
:1009400004F0BFF92E48B0F90010802004F0B9F986
:100950002C48B0F90010822004F0B3F92A48B0F90D
:10096000001000E083E0842004F0ABF94FF0700049
:10097000264908704FF0750048704FF0620088708B
:100980004FF06C00C8704FF0690008714FF06300C1
:1009900048714FF000008871C87139E09606001068
:1009A0002C0000100D880000F00100104D61696EF0
:1009B00020706F77657220616C61726D2E20506FB0
:1009C00077657220736F7572636520697320414388
:1009D0004200000070010010F101001094010010AD
:1009E00096010010980100109A0100109C0100105F
:1009F0009E010010A0010010A2010010A40100102F
:100A0000A6010010A8010010AA010010B0130010E8
:100A1000087248728872C872087348738873C87302
:100A200004460BE0FC4A125D114604F1CC0210466C
:100A300004F003F904F10100C0B20446102CF1DB0C
:100A40004FF0A100F54908800846B0F900104FF0BA
:100A5000C80004F036F94FF0A200F14908800846BA
:100A6000B0F900104FF0CA0004F02BF959E2ED483C
:100A700000780A28FAD1EC4800787D2803D14FF09D
:100A80000000E8490870E8480078FD280FD1E548E3
:100A9000407800F1010040B2E2494870084690F900
:100AA00001000628E2DB4FF00000487039E2DD4823
:100AB000407878BBDC480078FE280BD10020022368
:100AC000CDE900300290EE2207210390084604F0A1
:100AD00035FA26E2D44800787E280BD10020032383
:100AE000CDE900300290EE2207210390084604F081
:100AF00025FA16E2CC480078FB280CD1002004230C
:100B0000CDE900300290EE2207210390084604F060
:100B100015FA06E20FE0C44800787B28A6D1002031
:100B20000523CDE900300290EE220721039008460C
:100B300004F004FAF5E1BB48407801284FD1BA48E7
:100B40000078FE280BD100202223CDE9003002904E
:100B5000EE2207210390084604F0F0F9E1E1B248E3
:100B600000787E280BD100202323CDE900300290AD
:100B7000EE2207210390084604F0E0F9D1E1AA48EB
:100B80000078FB280BD100202423CDE9003002900F
:100B9000EE2207210390084604F0D0F9C1E1A248F3
:100BA00000787B280BD100202523CDE9003002906E
:100BB000EE2207210390084604F0C0F9B1E19A48FB
:100BC0000078FA2885D100202123CDE90030029059
:100BD000EE2207210390084604F0B0F9A1E1914804
:100BE000407802283FD190480078FE280BD10020A1
:100BF0003223CDE900300290EE220721039008460F
:100C000004F09CF98DE1884800787E280BD1002003
:100C10003323CDE900300290EE22072103900846ED
:100C200004F08CF97DE180480078FB280BD100208E
:100C30003423CDE900300290EE22072103900846CC
:100C400004F07CF96DE1784800787B2886D100209B
:100C50003523CDE900300290EE22072103900846AB
:100C600004F06CF95DE16F484078032867D16E4865
:100C70000078FE2815D16D48008800F1020000B20E
:100C80006A49088040F6340240F2DC516748FFF7B9
:100C90007CFA6648B0F900000146102004F011F813
:100CA0003FE1614800787E2815D16048008800F156
:100CB000050000B25D49088040F6340240F2DC5184
:100CC0005A48FFF762FA5948B0F90000014610206F
:100CD00003F0F7FF25E154480078FB2815D153486D
:100CE0000088A0F1020000B25049088040F63402AA
:100CF00040F2DC514D48FFF748FA4C48B0F900008B
:100D00000146102003F0DDFF0BE1474800787B2807
:100D100088D146480088A0F1050000B24349088008
:100D200040F6340240F2DC514048FFF72EFA3F48CB
:100D3000B0F900000146102003F0C3FFF1E039488C
:100D40004078042867D138480078FE2815D1384803
:100D5000008800F1050000B23549088040F2DC52FD
:100D60004FF4FA713248FFF710FA3148B0F9000039
:100D70000146162003F0A5FFD3E02B4800787E281B
:100D800015D12B48008800F1140000B228490880D2
:100D900040F2DC524FF4FA712548FFF7F6F9244887
:100DA000B0F900000146162003F08BFFB9E01E48A1
:100DB0000078FB2815D11E480088A0F1050000B27C
:100DC0001B49088040F2DC524FF4FA711848FFF7D3
:100DD000DCF91748B0F900000146162003F071FF56
:100DE0009FE0114800787B2824D111480088A0F1A9
:100DF000140000B20E49088040F2DC524FF4FA7140
:100E00000B48FFF7C2F90A48B0F900000146162066
:100E100003F057FF85E01DE0B0130010AC01001097
:100E2000AE01001070010010F101001080010010EF
:100E300088010010FF480078FA2872D1FE484088E7
:100E4000FE4908800846B0F900000146142003F06E
:100E500038FF66E0FA484078052862D1F548007806
:100E6000FE2814D1F748008800F1010000B2F549CE
:100E7000088040F214524FF46171F248FFF785F98F
:100E8000F048B0F90010202003F01BFF49E0E948CA
:100E900000787E2814D1EB48008800F1050000B2EC
:100EA000E849088040F214524FF46171E548FFF7B9
:100EB0006CF9E448B0F90010202003F002FF30E0A4
:100EC000DC480078FB2814D1DE480088A0F101003E
:100ED00000B2DC49088040F214524FF46171D948E5
:100EE000FFF753F9D748B0F90010202003F0E9FECE
:100EF00017E0D04800787B2813D1D2480088A0F1B1
:100F0000050000B2CF49088040F214524FF46171DD
:100F1000CC48FFF73AF9CB48B0F90010202003F095
:100F2000D0FE00BF4FF00000C74908701FBDC74882
:100F3000006A20F08070C5490862C548C06C20F482
:100F40007C30C349C8640846C06C20F44030C86493
:100F50000846C06C20F44020C8640846C06C20F4E9
:100F60004010C864B948006A20F08040B749086260
:100F7000B748C06C20F04050B549C864B348406BD6
:100F800060F0E060B3490860084600684FEA10600E
:100F90000860AE48406B10F0804F05D008460068EE
:100FA00040F00800086005E0AA48006820F008004A
:100FB000A8490860A7480068FF2805D0A548006830
:100FC000A5490968884234D04FF00000A349087051
:100FD000A3480078042802DAA248007850B1A24859
:100FE000007838B94FF00100974908709A480068B6
:100FF000904908709B4800789C490978884209DB31
:101000004FF00100904908709348006800F07F009D
:10101000884908704FF00000934908704FF01400A1
:10102000924908704FF000008D4908708D49087092
:101030003FE08848006888490968884238D1884874
:10104000007800F1010086490870084600780428FD
:101050002EDB4FF0000008708248007800F101009C
:1010600080490870084600788049097888421FDB6B
:101070007948006800F07F006E4908704FF000006A
:10108000784908704FF001006F4908707649087080
:101090007248007860B1754800784FEA6000734983
:1010A000087008460078022802DC4FF00200087041
:1010B00000BF68480068684908606448006A20F01A
:1010C000E0606249086270474FF011006849087299
:1010D00070471FB567480078401CC0B2654908706A
:1010E000182802DB4FF000000870624800780728DB
:1010F0007EDC60480078C0EBC00000EB40005E4939
:1011000001EB800090F831005A490978C1EBC10128
:1011100001EB4101584A02EB810191F83010554A28
:101120001278C2EBC20202EB4202534B03EB820283
:1011300092F82D204F4B1B78C3EBC30303EB430303
:101140004D4C04EB830393F82C30CDE90032CDE90C
:10115000021048480078C0EBC00000EB4000214678
:1011600001EB800090F828000346ED224148017809
:10117000007803F0E3FE3F48007840490978884250
:1011800057DA3C480078C0EBC00000EB4000214635
:1011900001EB8000C0780A2835DA36480078C0EBC9
:1011A000C00000EB400001EB8000C07800F10100BE
:1011B00030490978C1EBC10101EB4101224602EB44
:1011C0008101C8702B480078C0EBC00000EB4000E4
:1011D000114601EB8000C0780A2820DB2548007802
:1011E000C0EBC00000EB400001EB8000407800E065
:1011F0007EE010F0080F12D1012203211D48007873
:1012000001F0A7FB0BE04FF00A001A490978C1EB87
:10121000C10101EB4101184A02EB8101C870154878
:101220000078C0EBC00000EB4000134901EB8000E8
:1012300026E075E0F1010010881200108401001012
:10124000700100108C010010F001001000C0092096
:1012500000C00240F4010010F8010010EE0100107F
:10126000FC010010FD010010EF010010FE01001054
:1012700000400240EC010010980A001059010010D3
:10128000C07803281FDBFF480078C0EBC00000EBEC
:10129000400001EB80000079032814DAF948007857
:1012A000C0EBC00000EB400001EB8000407900F192
:1012B0000100F4490978C1EBC10101EB4101F24A97
:1012C00002EB81014871EF480078C0EBC00000EBF1
:1012D0004000ED4901EB8000C078EA490978C1EB94
:1012E000C10101EB4101E84A02EB8101087167E0AD
:1012F000E4480078082863D0E248007809285FD0E5
:10130000E04800780A280CD100200090019002905B
:10131000034602460390DB480178007803F00EFE96
:101320004EE0D84800780C284AD0D64800780D28DE
:1013300046D0D44800780E2842D0D24800781428ED
:101340000CD10020009001900290034602460390C9
:10135000CC480178007803F0F1FD31E0C94800780D
:1013600015280CD1002000900190029003460246FF
:101370000390C4480178007803F0E0FD20E0C14804
:10138000007816280CD100200090019002900346AE
:1013900002460390BB480178007803F0CFFD0FE0D0
:1013A000B848007817280BD10020009001900290D7
:1013B000034602460390B3480178007803F0BEFD6F
:1013C0001FBD10B56E2003F0E8FAB0490870702018
:1013D00003F0E3FAAD494870722003F0DEFAAB493E
:1013E0008870742003F0D9FAA849C870762003F0F9
:1013F000D4FAA6490872782003F0CFFAC1B2A34804
:1014000041724FF07A0003F0C8FAC1B29F4881726E
:101410004FF07C0003F0C1FAC1B29C48C1724FF09A
:101420007E0003F0BAFA99490871802003F0B5FAFA
:10143000C1B2964841714FF0820003F0AEFAC1B2DA
:10144000924881714FF0840003F0A7FAC1B28F482F
:10145000C17110BD10B507F0A7F84FF001008C491D
:10146000087010BD0146002902DA484200B27047F8
:101470000846FCE78748006820F0E060854908607E
:1014800008464068C0F30B108349844A127821F85B
:1014900012008248007800F1010080490870084677
:1014A0000078032805DA7B48006840F080707949AD
:1014B000086070474FF0010079490870794800884A
:1014C00000F1010000B2774908800A2807D14FF0E7
:1014D0000100754908704FF0000072490880734898
:1014E0000088401C00B271490880142807D14FF0D1
:1014F00001006F4908704FF000006C4908806D488A
:101500000088401C00B26B490880642807D14FF066
:101510000100694908704FF000006649088067487B
:101520000088401C00B265490880C82807D14FF0E8
:101530000100634908704FF000006049088061486D
:101540000088401C00B25F490880B0F5FA7F07D1DF
:101550004FF001005C4908704FF0000059490880C5
:101560005A480088401C00B258490880B0F57A7F7C
:1015700007D14FF00100564908704FF00000534961
:10158000088070471CB553A103C9CDE90001FEF7DF
:10159000B7FE524800684FF47A72B0FBF2F0A0F147
:1015A0000101B1F1807F00D327E021F07F40A0F15D
:1015B00001004FF0E02250614FF0FF304FF01F026A
:1015C00000280ADA4FEAC2634FEA1363444D00F081
:1015D0000F06A6F10406AB5505E04FEAC2634FEAD9
:1015E0001363404D2B5400BF4FF000004FF0E0223A
:1015F00090614FF00700106100BF3B48006A40F463
:101600008010394908620846006A20F0805008625C
:101610003648FEF7B5FF00F0C3FB4FF4AF7003F0A0
:1016200008FA33490860084600788DF80500084636
:1016300040788DF80400084680788DF80300062273
:1016400069462C4805F090FD2748406B80F48010D7
:10165000254948634FF0CC0003F051F92649087042
:101660000846007818B108460078202803D14FF0CA
:10167000000021490870CD2003F041F91E4948704F
:1016800008463BE0EC010010980A0010E84000100A
:1016900064010010004003400EC0072005C0072071
:1016A0005D010010200000105E01001022000010FB
:1016B0005F010010240000106001001026000010DF
:1016C0006101001028000010620100102A000010C3
:1016D00063010010007305323C46000000C0072083
:1016E00018ED00E000E400E000C0092080969800BA
:1016F000900100101000001016000010407818B182
:1017000008464078202803D14FF000007E494870F9
:10171000CE2003F0F4F87C4988700846807818B130
:1017200008468078202803D14FF000007649887061
:10173000CF2003F0E4F87449C8700846C07818B1A7
:101740000846C078202803D14FF000006E49C870C9
:10175000D02003F0D4F86C4908710846007918B11C
:1017600008460079202803D14FF00000664908712F
:10177000D12003F0C4F8644948710846407918B193
:1017800008464079202803D14FF000005E49487197
:10179000D22003F0B4F85C4988710846807918B10A
:1017A00008468079202803D14FF0000056498871FF
:1017B000D32003F0A4F85449C8710846C07918B181
:1017C0000846C079202803D14FF000004E49C87167
:1017D000D42003F094F84C4908720846007A18B1F6
:1017E0000846007A202803D14FF0000046490872CD
:1017F000D52003F084F8444948720846407A18B16D
:101800000846407A202803D14FF000003E49487234
:10181000D62003F074F83C4988720846807A18B1E3
:101820000846807A202803D14FF00000364988729C
:10183000D72003F064F83449C8720846C07A18B15A
:101840000846C07A202803D14FF000002E49C87204
:10185000D82003F054F82C4908730846007B18B1CF
:101860000846007B202803D14FF00000264908736A
:10187000D92003F044F8244948730846407B18B146
:101880000846407B202803D14FF000001E494873D2
:10189000DA2003F034F81C4988730846807B18B1BD
:1018A0000846807B202803D14FF00000164988733A
:1018B000DB2003F024F81449C8730846C07B18B134
:1018C0000846C07B202803D14FF000000E49C873A2
:1018D00004F0FCF8022004F04AF8FEF758FE4FF03E
:1018E000000408E00949095D084604F025F804F100
:1018F000010000B20446B4F5806FF3DB02E0044857
:10190000FEF73EFEFBE700001600001096060010F2
:10191000809698007047704710B5FF48B0F90000F6
:10192000B4280CDAFD48B0F90000032807DDFC48B4
:101930000088A0F1010000B2F949088006E0F848EB
:10194000008800F1010000B2F5490880F448B0F9C0
:10195000000010F10A0F03DA6FF00900F049088067
:10196000EF48B0F900000A2803DD4FF00A00EC4907
:101970000880EB48B0F9000010F1050F0ADAE948D9
:10198000007838B9012000F083FF4FF00000E649ED
:1019900008800EE0E248B0F90000052809DDE148C2
:1019A000007830B1002000F073FF4FF00100DE49F5
:1019B000088010BD10B54FF007021046C0EBC00202
:1019C00002EB4202D94B03EB8202D278052A7EDA7F
:1019D000C0EBC00202EB420203EB82029379C0EB40
:1019E000C00202EB4202D14C04EB8202D27903EB3B
:1019F0000222C0EBC00303EB430304EB83031A6230
:101A0000C0EBC00202EB4202234603EB8202137AD0
:101A1000C0EBC00202EB420204EB8202527A03EBFB
:101A20000222C0EBC00303EB430304EB8303DA6140
:101A3000C0EBC00202EB4202234603EB8202937A20
:101A4000C0EBC00202EB420204EB8202D27A03EB4B
:101A50000222C0EBC00303EB430304EB83039A6150
:101A6000C0EBC00202EB4202234603EB8202127B70
:101A7000C0EBC00303EB430304EB83035A62C0EBE8
:101A8000C00202EB4202234603EB8202527BC0EB10
:101A9000C00303EB430304EB830383F85220C0EB42
:101AA000C00202EB4202234603EB8202927BC0EBB0
:101AB000C00303EB430304EB830383F83E20C0EB36
:101AC000C00202EB4202234603EB820200E011E077
:101AD000137CC0EBC00202EB420204EB8202527C98
:101AE00003EB0222C0EBC00303EB430304EB8303CD
:101AF000DA642DE04FF00002C0EBC00303EB4303B8
:101B00008A4C04EB83039A61C0EBC00303EB4303ED
:101B100004EB83031A62C0EBC00303EB430304EB43
:101B20008303DA61C0EBC00303EB430304EB8303DD
:101B30005A62C0EBC00303EB430304EB830383F857
:101B40003E20C0EBC00303EB430304EB8303DA64E2
:101B5000C0EBC00202EB4202744B03EB82029269BB
:101B600040F26C739A421ADDC0EBC00202EB4202F3
:101B70006E4B03EB82029269B2F5166F0FDCC0EB7D
:101B8000C00202EB420203EB82029269A2F26C7283
:101B90004FF0320392FBF3F2654B1A7013E0C0EB87
:101BA000C00202EB4202614B03EB82029269B2F582
:101BB000166F04DD4FF00A025D4B1A7003E04FF020
:101BC00000025B4B1A705A4A12780A2A03DD4FF062
:101BD0000A02574B1A70C0EBC00202EB4202534B91
:101BE00003EB820292694FF00A0392FBF3F212B206
:101BF000504B1A80C0EBC00202EB42024B4B03EB8E
:101C00008202126A002A1ADDC0EBC00202EB420215
:101C100003EB8202126A9B2A11DCC0EBC00202EBCA
:101C2000420203EB8202126A02EB82024FEA420294
:101C30004FF0960392FBF3F23F4B1A7012E0C0EBA9
:101C4000C00202EB4202394B03EB8202126A9B2A6A
:101C500004DD4FF00002384B1A7003E04FF0000231
:101C6000354B1A70344A12780A2A03DD4FF00A0203
:101C7000314B1A70C0EBC00202EB42022B4B03EB5C
:101C80008202126A12B22D4B1A80C0EBC00202EB24
:101C90004202264B03EB8202526A12B2284B1A8090
:101CA000284AB2F900201146274AB2F9002001FB68
:101CB00002F14FF4C85291FBF2F211460AB2234BE3
:101CC0001A80B1F5FA7F0BDDB1F5347F08DCA1F5A0
:101CD000FA724FF0160392FBF3F21D4B1A700BE0F1
:101CE000B1F5347F04DD4FF00A02194B1A7003E09E
:101CF0004FF00002164B1A70154A12780A2A03DDBB
:101D00004FF00A02124B1A700E4AB2F90220114625
:101D1000104AB2F900201FE032E007200002001054
:101D20005A010010ED01001034E00720980A00105D
:101D30006501001056E007206601001058E00720FA
:101D40005AE0072088120010800100104EE00720A2
:101D50006701001084010010A1EB02021146FF4A46
:101D6000B2F9002001FB02F14FF47A7291FBF2F21A
:101D70001146C1F1000212B2F94B1A80F94AB2F9C8
:101D800004201146F84AB2F9002001FB02F143F6A3
:101D9000982291FBF2F211460AB2F44B1A8010BD60
:101DA000F348406820F4403040F48030F049486007
:101DB0000846406820F4404040F4804048600846AF
:101DC000C06840F04040C8600846406C20F4403095
:101DD00040F4003048640846406C20F4404040F431
:101DE000004048640846C06C20F0404040F000408D
:101DF000C864E048006820F0E060DE4908600846FA
:101E0000006840F4001008600846006820F4803044
:101E100008600846006820F47F4040F48070086045
:101E20004FF48070C8604FF016004FF0010101FAC6
:101E300000F14FEA50124FF0E02303EB8202C2F8A8
:101E4000001100BF704710B5CB494988CA4A1288B3
:101E5000891A09B20846FFF705FBC8490880C64938
:101E60008988C54A5288891A09B20846FFF7FAFAE2
:101E7000C2494880C0498988BF4A1288891A09B274
:101E80000846FFF7EFFABD4988800846B0F904001C
:101E9000B0F5967F04DAB8488088B949088014E024
:101EA000B648B0F90200B0F5967F04DAB24840882F
:101EB000B349088009E0B148B0F90000B0F5967F59
:101EC00003DAAD480088AE490880AD48B0F900009B
:101ED000AC49AD4A127801EB8211AC4A127841F854
:101EE0002200AA48007810F0030F1CD14FF0000226
:101EF000114610460CE0A34AA34B1B7802EB831259
:101F000052F820200A44114600F10102D2B21046D4
:101F10001028F0DB4FEA211212B2924B9A4C24782F
:101F200023F8142000BF98480078401CC0B296499E
:101F3000087003280FDB4FF000000870934800780A
:101F400000F101009149087008460078102802DB72
:101F50004FF0000008704FF000008D4908708A486B
:101F6000007840B98348006820F0FF0000F10100CC
:101F70008049086018E084480078012808D17D482D
:101F8000006820F0FF0000F102007A4908600BE0D1
:101F90007D480078022807D17648006820F0FF00CD
:101FA00040F02000734908607248006840F080707B
:101FB0007049086010BD7748006A40F40000754918
:101FC0000862754890F84D0210F01F0F0FD073484B
:101FD000008800F1010000B2704908800846B0F99D
:101FE0000000322812DD4FF0320008800EE06B480E
:101FF0000088A0F1010000B2684908800846B0F9E5
:102000000000002802DA4FF0000008806348B0F9B1
:102010000000302804DD4FF001006149087008E03D
:102020005E48B0F90000022803DA4FF000005C4976
:1020300008705B48007830B15648C06B40F400002F
:102040005449C86305E05348806B40F4000051498F
:102050008863704770B50446C4EBC40000EB4000D1
:102060004D4901EB800090F83E000546C4EBC400EA
:1020700000EB400001EB8000006A6E284CDBC4EBF3
:10208000C40000EB400001EB8000006AC82843DC7C
:10209000C4EBC40000EB400001EB8000B0F940004D
:1020A0000A2838DAC4EBC40000EB400001EB8000E2
:1020B000B0F8400000F1010000B2C4EBC40101EB34
:1020C0004101354A02EB8101A1F84000C4EBC40094
:1020D00000EB4000114601EB8000B0F940000A28F7
:1020E00019DB4FF00A00C4EBC40101EB410102EB24
:1020F0008101A1F84000C4EBC40000EB4000114690
:1021000001EB8000407810F0200F04D1012205215E
:10211000204600F01EFC91E0C4EBC40000EB400040
:102120001D4901EB8000006A6E2870DAC4EBC40020
:1021300000EB400001EB8000006A00287EDBC4EB6E
:10214000C40000EB400001EB8000B0F94000002823
:102150005EDDC4EBC40000EB400023E0880100100A
:1021600050E00720881200108C01001032E0072098
:1021700000C00240004003400EC0072014C00720EA
:102180001AC00720880E001008C0072009C00720C9
:1021900005C0072000C00920980A001004020010A2
:1021A0000602001001EB8000B0F84000A0F1010031
:1021B00000B2C4EBC40101EB4101F84A02EB81011A
:1021C000A1F84000C4EBC40000EB4000114601EB55
:1021D0008000B0F94000002830DC4FF00000C4EB74
:1021E000C40101EB410102EB8101A1F84000C4EB05
:1021F000C40000EB4000114601EB8000407810F075
:10220000200F1BD000220521204600F0A2FB15E084
:10221000C4EBC40000EB4000E04901EB8000B0F9E2
:10222000400000280ADA4FF00000C4EBC40101EBC3
:102230004101DA4A02EB8101A1F8400015F0010FDB
:1022400044D0C4EBC40000EB4000D44901EB800053
:10225000B0F942000A2838DAC4EBC40000EB4000B1
:1022600001EB8000B0F8420000F1010000B2C4EBC5
:10227000C40101EB4101C94A02EB8101A1F842000E
:10228000C4EBC40000EB4000114601EB8000B0F944
:1022900042000A2878DB4FF00A00C4EBC40101EBCE
:1022A000410102EB8101A1F84200C4EBC40000EB44
:1022B0004000114601EB8000407810F0100F63D110
:1022C00001220421204600F044FB5DE015F0010FDF
:1022D0005AD1C4EBC40000EB4000B04901EB8000D0
:1022E000B0F94200002839DDC4EBC40000EB400027
:1022F00001EB8000B0F84200A0F1010000B2C4EB95
:10230000C40101EB4101A54A02EB8101A1F84200A1
:10231000C4EBC40000EB4000114601EB8000B0F9B3
:102320004200002830DC4FF00000C4EBC40101EB98
:10233000410102EB8101A1F84200C4EBC40000EBB3
:102340004000114601EB8000407810F0100F1BD0C8
:1023500000220421204600F0FCFA15E0C4EBC40082
:1023600000EB40008D4901EB8000B0F942000028ED
:102370000ADA4FF00000C4EBC40101EB4101874AC7
:1023800002EB8101A1F8420015F0020F46D0C4EB28
:10239000C40000EB4000814901EB8000B0F944002B
:1023A000B0F5966F74DAC4EBC40000EB400001EBAB
:1023B0008000B0F8440000F1010000B2C4EBC40199
:1023C00001EB4101754A02EB8101A1F84400C4EB25
:1023D000C40000EB4000114601EB8000B0F944005E
:1023E000B0F5966F54DB4FF49660C4EBC40101EB7B
:1023F000410102EB8101A1F84400C4EBC40000EBF1
:102400004000114601EB8000407810F0010F3FD1F1
:1024100001220021204600F09CFA39E015F0020F5D
:1024200036D1C4EBC40000EB40005C4901EB8000F6
:10243000B0F8440060B3C4EBC40000EB400001EB13
:102440008000B0F84400A0F1010000B2C4EBC40168
:1024500001EB4101514A02EB8101A1F84400C4EBB8
:10246000C40000EB4000114601EB8000B0F84400CE
:1024700070B9C4EBC40000EB400001EB8000407871
:1024800010F0010F04D000221146204600F061FA3E
:1024900015F0080F44D0C4EBC40000EB40003F49E6
:1024A00001EB8000B0F94600282838DAC4EBC400FC
:1024B00000EB400001EB8000B0F8460000F10100A5
:1024C00000B2C4EBC40101EB4101344A02EB8101CB
:1024D000A1F84600C4EBC40000EB4000114601EB3C
:1024E0008000B0F94600282870DB4FF02800C4EBCC
:1024F000C40101EB410102EB8101A1F84600C4EBEC
:10250000C40000EB4000114601EB8000407810F061
:10251000020F5BD101221146204600F01AFA55E065
:1025200015F0080F52D1C4EBC40000EB40001B496A
:1025300001EB8000B0F94600002831DDC4EBC40097
:1025400000EB400001EB8000B0F84600A0F1010074
:1025500000B2C4EBC40101EB4101104A02EB81015E
:10256000A1F84600C4EBC40000EB4000114601EBAB
:102570008000B0F8460048BB4FF00000C4EBC40137
:1025800001EB410102EB8101A1F8460002464FF048
:102590000101204600F0DDF918E00000980A001063
:1025A000C4EBC40000EB40005A4901EB8000B0F9D5
:1025B000460000280ADA4FF00000C4EBC40101EB2A
:1025C0004101544A02EB8101A1F8460015F0100FB9
:1025D00044D0C4EBC40000EB40004E4901EB800046
:1025E000B0F94800282838DAC4EBC40000EB4000FA
:1025F00001EB8000B0F8480000F1010000B2C4EB2C
:10260000C40101EB4101434A02EB8101A1F84800FA
:10261000C4EBC40000EB4000114601EB8000B0F9B0
:102620004800282875DB4FF02800C4EBC40101EBFB
:10263000410102EB8101A1F84800C4EBC40000EBAA
:102640004000114601EB8000407810F0040F60D18B
:1026500001220221204600F07CF95AE015F0100F0B
:1026600057D1C4EBC40000EB40002A4901EB8000C5
:10267000B0F8480070B3C4EBC40000EB400001EBBD
:102680008000B0F84800A0F1010000B2C4EBC40122
:1026900001EB41011F4A02EB8101A1F84800C4EBA4
:1026A000C40000EB4000114601EB8000B0F8480088
:1026B00078BB4FF00000C4EBC40101EB410102EB19
:1026C0008101A1F8480002464FF00201204600F0C7
:1026D00040F91EE0C4EBC40000EB40000D4901EBE3
:1026E0008000B0F948000A2813DDC4EBC40000EBF9
:1026F000400001EB8000B0F84800A0F1010000B2FA
:10270000C4EBC40101EB4101024A02EB8101A1F8D3
:10271000480070BD980A0010FF49097841B1FF498F
:10272000096821F0010101F10101FC4A116005E095
:10273000FA49096821F00101F84A11604FF00000E0
:1027400077E0C0EBC00101EB4101F54A02EB8101EA
:102750004978E1B1C0EBC00101EB410112F8211051
:10276000032914D100F103014FF0010202FA01F232
:10277000EA49096821EA020100F103024FF001036E
:1027800003FA02F341EA0301E44A11604DE0C0EBB1
:10279000C00101EB4101E24A02EB81014978E1B15C
:1027A000C0EBC00101EB410112F82110052914D141
:1027B00000F10F014FF0010202FA01F2D749096856
:1027C00021EA020100F10F024FF0010303FA02F3C4
:1027D00041EA0301D14A116027E000F103014FF003
:1027E000010202FA01F2CD49096821EA020100F171
:1027F00003024FF0000303FA02F341EA0301C74A60
:10280000116000F10F014FF0010202FA01F2C34919
:10281000096821EA020100F10F024FF0000303FAF8
:1028200002F341EA0301BD4A116000F10101C9B29E
:1028300008460C2885DBB9490968BA4A126881EA5A
:102840000201B64A126801EA0201B74A1160B749AB
:102850000968126841EA0201B44A1160AF49096887
:10286000B04A126881EA0201AE4A126801EA020126
:102870006FEA0101AE4A1160AC490968126801EAC9
:102880000201AA4A1160A5490968A64A1160704769
:1028900038B50446012C30D1A64908704FF01E000F
:1028A0004FF4FA734FF000024FF0320100904FF0F6
:1028B000010001F0C3FE204697490870984890F83F
:1028C0004D0220F01700964981F84D024FF00001AB
:1028D0009348A0F89012A0F88E12A0F88C12A0F8DD
:1028E0009212A0F8941294480088002830D0012257
:1028F000114692A001F0ECFC2AE04FF000008D4957
:102900000870034602460146009001F097FE4FF022
:10291000000081490870824890F84D0220F01700AD
:102920007F4981F84D024FF000017D48A0F89012D8
:10293000A0F88E12A0F88C12A0F89212A0F89412AF
:102940008848008820B10022012187A001F0C0FC46
:1029500038BDF8B504460D461646012E7DD1072C2C
:10296000FCD1E5B9C4EBC40000EB40006C4901EBBD
:102970008000407840F00100C4EBC40101EB41014C
:10298000674A02EB8101487040F213134FF00002D6
:102990004FF019014FF0010002F0E6FEBBE0012DFF
:1029A00023D1C4EBC40000EB40005D4901EB800083
:1029B000407840F00200C4EBC40101EB4101584AE9
:1029C00002EB810148704FF0E1034FF0190211460C
:1029D0004FF0030002F0C8FE0020E1231922114647
:1029E0000090032001F02AFE95E0022D23D1C4EBD4
:1029F000C40000EB40004A4901EB8000407840F001
:102A00000400C4EBC40101EB4101454A02EB810122
:102A100048704FF0C8034FF0190211464FF0040000
:102A200002F0A2FE0020C8231922114600900420C3
:102A300001F004FE6FE0032D21D1C4EBC40000EBD4
:102A40004000374901EB8000407840F00800C4EBBB
:102A5000C40101EB4101324A00E0ABE002EB81012D
:102A600048704FF000031A464FF064014FF0010028
:102A700002F07AFE4FF00000484908704BE0042D48
:102A800023D1C4EBC40000EB4000254901EB8000DA
:102A9000407840F01000C4EBC40101EB4101204A32
:102AA00002EB810148704FF096034FF01902114676
:102AB0004FF0020002F058FE002096231922114622
:102AC0000090022001F0BAFD25E0052D23D1C4EBD2
:102AD000C40000EB4000124901EB8000407840F058
:102AE0002000C4EBC40101EB41010D4A02EB81015E
:102AF00048704FF0FA034FF000024FF019014FF009
:102B0000010002F031FE1E20FA230022192100905C
:102B1000012001F093FD43E0ED01001008020010D8
:102B2000980A001010020010140200100C0200108D
:102B30001802001058010010D80100104D61696E94
:102B400020706F77657220616C61726D2E20506FFE
:102B500077657220736F75726365206973204143D6
:102B600042000000DA0100104D61696E20706F773D
:102B7000657220616C61726D20636C6561722E20DC
:102B8000506F77657220736F75726365206973206B
:102B90006D61696E20706F77657200007C010010B6
:102BA000C4EBC40000EB40008B4901EB800080F8CF
:102BB00053500FE1002EFCD1072CFAD1FDB94FF094
:102BC000000086490870844890F84D0220F03F00CC
:102BD000814981F84D024FF000017F48A0F88E1224
:102BE000A0F88C12A0F89012A0F89212A0F89412FB
:102BF0000B461A461946184602F0B6FDEAE0012DCA
:102C000038D1C4EBC40000EB4000734901EB8000F5
:102C1000407820F00200C4EBC40101EB41016E4A90
:102C200002EB810148704FF000006C4908701046BB
:102C300090F84D0220F03F00114681F84D024FF010
:102C400000011046A0F88E12A0F88C12A0F8901285
:102C5000A0F89212A0F894120B461A46194618468C
:102C600002F082FD0020034602460146009001F07A
:102C7000E5FCAFE0022D38D1C4EBC40000EB40000E
:102C8000554901EB8000407820F00400C4EBC401FA
:102C900001EB4101504A02EB810148704FF0000006
:102CA0004E490870104690F84D0220F03F00114642
:102CB00081F84D024FF000011046A0F88E12A0F8E6
:102CC0008C12A0F89012A0F89212A0F894120B4661
:102CD0001A461946184602F047FD002003460246F0
:102CE0000146009001F0AAFC74E0032D21D14FF0C1
:102CF00000003A490870C4EBC40000EB40003649BC
:102D000001EB8000407820F03F00C4EBC40101EBF0
:102D10004101314A02EB810148704FF000031A462D
:102D20001946184602F020FD4FF001002C490870AA
:102D300050E0042D26D14FF00000284908702648A5
:102D400090F84D0220F03F00234981F84D024FF0EA
:102D500000012148A0F88E12A0F88C12A0F8901261
:102D6000A0F89212A0F894120B461A46194618467B
:102D700002F0FAFC0020034602460146009001F0F2
:102D80005DFC27E0052D25D14FF0000013490870A8
:102D9000114890F84D0220F03F000F4981F84D0294
:102DA0004FF000010C48A0F88E12A0F88C12A0F889
:102DB0009012A0F89212A0F894120B461A461946E7
:102DC000184602F0D1FC002003460246014600905E
:102DD00001F034FC00BFF8BD980A0010ED010010AE
:102DE0007C010010FF48B0F90000FF490880FF484F
:102DF000B0F90000FE490880FE4800884FEA0060F4
:102E0000FD49098800EB0140FC49B1F9001000EBD5
:102E10000120FB49B1F900100844FA490860FA485A
:102E200000884FEA0060F949098800EB0140F84941
:102E3000B1F9001000EB0120F649B1F90010084487
:102E4000F5490860F54800884FEA0060F4490988B0
:102E500000EB0140F349B1F9001000EB0120F24909
:102E6000B1F900100844F1490860F14800884FEAC0
:102E70000060F049098800EB0140EF49B1F900100A
:102E800000EB0120ED49B1F900100844EC4908605D
:102E9000EC4800884FEA0060EB49098800EB0140EC
:102EA000EA49B1F9001000EB0120E949B1F900103D
:102EB0000844E8490860E84800884FEA0060E749AC
:102EC000098800EB0140E649B1F9001000EB012050
:102ED000E449B1F900100844E3490860E348008878
:102EE0004FEA0060E249098800EB0140E149B1F98D
:102EF000001000EB0120E049B1F900100844DF495F
:102F00000860DF4800884FEA0060DE49098800EB6E
:102F10000140DD49B1F9001000EB0120DB49B1F9B6
:102F200000100844DA490860DA48B0F90000DA49CC
:102F30000880DA48B0F900000880D948B0F90000EC
:102F4000D8490880D848B0F90000D8490880D84846
:102F5000B0F90000D7490880D748B0F90000D74938
:102F60000880D748B0F90000D6490880D648B0F9A3
:102F70000000D6490880D648B0F90000D54908803D
:102F8000D548B0F90000D5490880D54890F88A02A4
:102F9000D4490880704770B50546012D10D14FF017
:102FA00000040BE0D04A125D114604F596721046FB
:102FB00001F043FE04F10100C0B20446402CF1DBF5
:102FC00070BD70B50546012D10D14FF000040BE027
:102FD000C64A125D114604F1CC02104601F02DFEE6
:102FE00004F10100C0B20446102CF1DB70BD70B5D5
:102FF0000546012D10D14FF000040BE0BC4A125DD4
:10300000114604F1DC02104601F017FE04F1010044
:10301000C0B20446102CF1DB70BD704710B50446F9
:10302000012C05D17048B0F90010C82001F049FE0C
:1030300010BD10B50446012C05D16D48B0F9001043
:10304000CA2001F03EFE10BD10B50446012C2FD160
:103050006C480068C0B26A4908806A480068C0F3DA
:1030600007206649088067480068C0F30740624946
:103070000880644800684FEA10605E490880604834
:10308000B0F900104FF0EC0001F01BFE5B48B0F906
:103090000010EE2001F015FE5748B0F90010F020A6
:1030A00001F00FFE5348B0F90010F22001F009FEC4
:1030B00010BD10B50446012C2FD157480068C0B28E
:1030C0005449088054480068C0F3072050490880DC
:1030D00051480068C0F307404C4908804E480068DA
:1030E0004FEA1060484908804A48B0F900104FF094
:1030F000F40001F0E6FD4648B0F90010F62001F0BA
:10310000E0FD4248B0F90010F82001F0DAFD3E4839
:10311000B0F90010FA2001F0D4FD10BD10B504463E
:10312000012C30D141480068C0B23F4908803F4877
:103130000068C0F307203B4908803C480068C0F3A2
:10314000074037490880394800684FEA1060334922
:1031500008803548B0F900104FF0FC0001F0B1FDD7
:103160003048B0F90010FE2001F0ABFD2C48B0F95A
:103170000010200201F0A5FD2848B0F900104FF41E
:10318000817001F09EFD10BD10B50446012C28D1C0
:103190002B480068C0B22949088029480068C0F35C
:1031A00007202549088026480068C0F307402149C8
:1031B0000880234800684FEA10601D4908801F48B6
:1031C000B0F900104FF4827001F07BFD1A48B0F99D
:1031D00000104FF4837001F074FD1648B0F9001030
:1031E00088E092E0AC01001060E00720AE01001022
:1031F00062E00720B6010010B4010010B201001017
:10320000B001001064E00720BE010010BC010010F6
:10321000BA010010B801001068E00720C6010010D4
:10322000C4010010C2010010C00100106CE00720B2
:10323000CE010010CC010010CA010010C80100101E
:1032400070E00720D6010010D4010010D201001058
:10325000D001001074E007209A01001098010010BE
:10326000960100109401001078E00720A2010010E0
:10327000A00100109E0100109C0100107CE00720BE
:10328000AA010010A8010010A6010010A40100105E
:1032900080E00720D801001086E00720DA01001046
:1032A000DC01001088E00720DE0100108AE0072022
:1032B000E00100108CE00720E20100108EE0072002
:1032C000E401001090E00720E601001092E00720E2
:1032D000E801001094E00720EA01001096E00720C2
:1032E000980A0010BAE00720E8120010B01300108E
:1032F000C01300104FF4847001F0E3FCFF48B0F9F4
:1033000000104FF4857001F0DCFC10BD10B50446D0
:10331000012C32D1FA480068C0B2FA490880F84856
:103320000068C0F30720F8490880F5480068C0F33A
:103330000740F6490880F24800684FEA1060F449F7
:103340000880F048B0F900104FF4867001F0B9FC25
:10335000ED48B0F900104FF4877001F0B2FCEB4873
:10336000B0F900104FF4887001F0ABFCE848B0F9F8
:1033700000104FF4897001F0A4FC10BD10B5044694
:10338000012C2FD1E3480068C0B2E3490880E1482E
:103390000068C0F30720E1490880DE480068C0F3F8
:1033A0000740DF490880DB4800684FEA1060DD49CC
:1033B0000880D948B0F900104FF06E0001F081FC90
:1033C000D648B0F90010702001F07BFCD448B0F969
:1033D0000010722001F075FCD248B0F90010742082
:1033E00001F06FFC10BD10B50446012C2FD1CE4862
:1033F0000068C0B2CD490880CB480068C0F3072000
:10340000CB490880C8480068C0F30740C949088014
:10341000C54800684FEA1060C7490880C348B0F942
:1034200000104FF0760001F04CFCC148B0F90010DC
:10343000782001F046FCBF48B0F900107A2001F076
:1034400040FCBD48B0F900107C2001F03AFC10BDF2
:1034500010B50446012C2FD1B8480068C0B2B84955
:103460000880B6480068C0F30720B6490880B34812
:103470000068C0F30740B4490880B04800684FEACC
:103480001060B2490880AE48B0F900104FF07E00DD
:1034900001F017FCAB48B0F90010802001F011FCDE
:1034A000A948B0F90010822001F00BFCA748B0F940
:1034B0000010842001F005FC10BD10B50446012C5D
:1034C00006D1A348B0F900104FF4C87001F0F9FB21
:1034D00010BD10B50446012C06D19E48B0F900106D
:1034E0004FF4C97001F0EDFB10BD10B50446012C7E
:1034F00006D19948B0F900104FF4CA7001F0E1FB11
:1035000010BD10B50446012C06D19448B0F9001046
:103510004FF4CB7001F0D5FB10BD10B50446012C63
:1035200006D18F48B0F900104FF4CC7001F0C9FB00
:1035300010BD10B50446012C06D18A48B0F9001020
:103540004FF4CD7001F0BDFB10BD10B50446012C49
:1035500006D18548B0F900104FF4CE7001F0B1FBF0
:1035600010BD10B50446012C06D18048B0F90010FA
:103570004FF4CF7001F0A5FB10BD10B50446012C2F
:1035800006D17B48B0F900104FF4D07001F099FBE0
:1035900010BD10B50446012C06D17648B0F90010D4
:1035A0004FF4D17001F08DFB10BD7047704770472C
:1035B000012806D100BF4EF6EE616F4A118000BFB0
:1035C00000BF70472DE9F04385B004460F4615460D
:1035D0001E46DDE90C894FF0140268A16846FCF72D
:1035E000F3FD4FF00A0094FBF0F100FB114000F1F5
:1035F0003000C0B28DF801004FF00A0094FBF0F0EB
:1036000000F13000C0B28DF80000634800EB870085
:103610000188ADF8031080788DF805004FF00A009E
:1036200095FBF0F100FB115000F13000C0B28DF8B5
:1036300008004FF00A0095FBF0F000F13000C0B236
:103640008DF807004FF00A0096FBF0F100FB1160C7
:1036500000F13000C0B28DF80C004FF00A0096FB6C
:10366000F0F000F13000C0B28DF80B004FF00A000E
:1036700098FBF0F100FB118000F13000C0B28DF832
:103680000F004FF00A0098FBF0F000F13000C0B2DC
:103690008DF80E004FF00A0099FBF0F100FB11903D
:1036A00000F13000C0B28DF812004FF00A0099FB13
:1036B000F0F000F13000C0B28DF81100684605B09E
:1036C000BDE8F08301B590B03449109801EBC0100B
:1036D0004E2233490790FCF777FD08984FEA4010D7
:1036E00008900EA9089801F006FA09A90898001D8B
:1036F00001F001FA0DA90898083053E0CE0100103E
:1037000074E00720D0010010D2010010D401001095
:10371000D601001078E007209401001096010010F7
:10372000980100109A0100107CE007209C01001015
:103730009E010010A0010010A201001080E00720EF
:10374000A4010010A6010010A8010010AA01001099
:1037500084E0072086E0072088E007208AE0072031
:103760008CE007208EE0072090E0072092E0072001
:1037700094E0072096E007205CE0072030302FFF20
:10378000EDE22F3030202030303A30303A303020E7
:103790002020202020200000C596000020C0072007
:1037A000FC96000001F0A7F90CA908980C3001F074
:1037B000A2F90BA90898103001F09DF90AA9089800
:1037C000143001F098F99DF83800552838D19DF84B
:1037D0003A00522833D1FF49109801EBC010322231
:1037E000FDA10790FCF7F0FC9DF832009DF8311028
:1037F000CDE900109DF8300006909DF8340005904A
:103800009DF8350004909DF83600039004A90EC978
:10381000FFF7D8FEEF490790109801EBC010113068
:10382000142206900799FCF7CFFCEA49109801EBA7
:10383000C01028301422F6A10790FCF7C5FCC5E2A1
:103840009DF8380050287ED14FF000000F90E149DC
:10385000109801EBC0110F9808444FF01702F2A125
:103860000790FCF7B1FC0F9800F117000F909DF83E
:1038700032009DF83110CDE900109DF8300006901F
:103880009DF8340005909DF8350004909DF83600B1
:10389000039004A90EC9FFF795FECE490790109832
:1038A00001EBC0110F980844132206900799FCF70A
:1038B0008BFC0F9800F113000F904FF04001C54AA8
:1038C000109802EBC0120F9811540F9800F10100EC
:1038D0000F909DF82C00412814D19DF82D0041280F
:1038E00010D1BC49109801EBC0110F9808440D226B
:1038F000D4A10790FCF768FC0F9800F10D00C0B24E
:103900000F909CE7B349109801EBC0110F98084441
:10391000D0A10A6802604A6842600A890281897AF5
:1039200081720F9800F10B00C0B20F909DF82A0031
:103930009DF82910CDE900109DF8280006909DF80B
:103940002C00059000E016E09DF82D0004909DF8F5
:103950002E00039004A90EC9FFF734FE9D4907907D
:10396000109801EBC0110F98084413220690079994
:10397000FCF72AFC63E79DF83800422874D14FF029
:1039800000000F909DF83A0043286CD1914910989F
:1039900001EBC0110F9808441522B2A10790FCF763
:1039A00013FC0F9800F11500C0B20F909DF8320083
:1039B0009DF83110CDE900109DF8300006909DF87B
:1039C000340005909DF8350004909DF83600039072
:1039D00004A90EC9FFF7F6FD7E490790109801EB88
:1039E000C0110F980844132206900799FCF7ECFBCE
:1039F0000F9800F11300C0B20F904FF04001754ACC
:103A0000109802EBC0120F9811540F9800F10100AA
:103A1000C0B20F906F49109801EBC0110F98084485
:103A20004FF0160295A10790FCF7CEFB0F9800F11E
:103A30001600C0B20F909DF82C00412815D19DF8BA
:103A40002D00412811D16349109801EBC0110F9846
:103A500008440D227BA10790FCF7B6FB0F9800F1FC
:103A60000D00C0B20F9036E0F3E25A49109801EB16
:103A7000C0110F98014477A002680A6042684A604A
:103A800002890A81807A88720F9800F10B00C0B217
:103A90000F909DF82A009DF82910CDE900109DF89F
:103AA000280006909DF82C0005909DF82D000490AC
:103AB0009DF82E00039004A90EC9FFF783FD454928
:103AC0000790109801EBC0110F980844132206903C
:103AD0000799FCF779FB9DF83A005A285BD13D49DC
:103AE000109801EBC0110F980844202269A107909B
:103AF000FCF76AFB0F9800F12000C0B20F909DF810
:103B000032009DF83110CDE900109DF8300006908C
:103B10009DF8340005909DF8350004909DF836001E
:103B2000039004A90EC9FFF74DFD2A49079010988C
:103B300001EBC0110F980844132206900799FCF777
:103B400043FB0F9800F11300C0B20F904FF04001FB
:103B5000204A109802EBC0120F9811540F9800F1F0
:103B60000100C0B20F909DF82C00412814D19DF89F
:103B70002D00412810D11749109801EBC0110F9862
:103B800008440D224CA10790FCF71EFB0F9800F192
:103B90000D00C0B20F90B8E00E49109801EBC011B3
:103BA0000F98014448A002680A6042684A6002898E
:103BB0000A81807A88720F9800F10B00C0B20F90D2
:103BC0009DF82A009DF82910CDE900109DF82800E5
:103BD000069081E020C00720C2EAEBFEF7E5EDE8A1
:103BE000E520C8C1DDCFE04020202020202020207B
:103BF00020202020202020202020202020202020C5
:103C000020202020202020202020202020200000F4
:103C10004020202020202020202020202020202084
:103C20002020202000000000C0E2E0F0E8FF20EFAC
:103C3000E8F2E0FEF9E5E920F1E5F2E82040202095
:103C40000000000020EDE520F3F1F2F0E0EDE5EDFD
:103C5000E020200020F3F1F2F0E0EDE5EDE020209F
:103C600020000000C1E0F2E0F0E5FF2E2020C0E2DD
:103C7000E0F0E8FF2121212040202000C1E0F2E017
:103C8000F0E5FF20EDE520EEE1EDE0F0F3E6E5ED17
:103C9000E02C2000C1E0F2E0F0E5FF2E2020C2FB86
:103CA000F0E0E2EDE8E2E0FEF9E8E920E7E0F0FF2D
:103CB000E42040202000000020EDE520E7E0E2E5E0
:103CC000F0F8E5ED2020000020E7E0E2E5F0F8E57F
:103CD000ED202020000000009DF82C0005909DF8AC
:103CE0002D0004909DF82E00039004A90EC9FFF743
:103CF00069FCFF490790109801EBC0110F98084428
:103D0000132206900799FCF75FFA9DF83A004B28BA
:103D10005CD1F749109801EBC0110F9808441D229F
:103D2000F4A10790FCF750FA0F9800F11D00C0B203
:103D30000F909DF832009DF83110CDE900109DF8EC
:103D4000300006909DF8340005909DF835000490F1
:103D50009DF83600039004A90EC9FFF733FCE4492F
:103D60000790109801EBC0110F9808441322069099
:103D70000799FCF729FA0F9800F11300C0B20F90D1
:103D80004FF04001DA4A109802EBC0120F9811541C
:103D90000F9800F10100C0B20F909DF82C0041284F
:103DA00015D19DF82D00412811D1D149109801EB72
:103DB000C0110F9808440D22AFF204110790FCF7D0
:103DC00003FA0F9800F10D00C0B20F907EE2C849CF
:103DD000109801EBC0110F980844AFF214110A6853
:103DE00002604A6842600A890281897A81720F986A
:103DF00000F10B00C0B20F909DF82A009DF8291029
:103E0000CDE900109DF8280005909DF82C00049045
:103E10009DF82D0003909DF82E00029003A90EC975
:103E2000FFF7D0FBB2490690109801EBC0110F9834
:103E30000844132205900699FCF7C6F9AC4910987E
:103E400001EBC0110F9808442722B2A10690FCF79D
:103E5000BBF99DF837109DF8330001EB002000B24C
:103E600007904FF00A01079890FBF1F201FB120056
:103E700000F13000C1B29E4A109802EBC0120F98B8
:103E800000F10A0011544FF00A01079890FBF1F07D
:103E900000B20790079890FBF1F201FB120000F1CD
:103EA0003000C1B2924A109802EBC0120F9800F194
:103EB000080011544FF00A01079890FBF1F000B28E
:103EC0000790079880B1079890FBF1F201FB120070
:103ED00000F13000C1B2864A109802EBC0120F9870
:103EE00000F10700115409E04FF02001804A1098BA
:103EF00002EBC0120F9800F1070011549DF8261034
:103F00009DF8270001EB002000B207904FF00A0156
:103F1000079890FBF1F201FB120000F13000C1B2F2
:103F2000734A109802EBC0120F9800F1160011545A
:103F30004FF00A01079890FBF1F000B20790079844
:103F400090FBF1F201FB120000F13000C1B2684AAF
:103F5000109802EBC0120F9800F1140011544FF0AA
:103F60000A01079890FBF1F000B20790079880B122
:103F7000079890FBF1F201FB120000F13000C1B292
:103F80005B4A109802EBC0120F9800F11300115415
:103F900009E04FF02001564A109802EBC0120F982A
:103FA00000F1130011549DF824109DF8250001EB39
:103FB000002000B207904FF00A02079890FBF2F140
:103FC00002FB110000F13000C1B2494A109802EB27
:103FD000C0120F9800F1230011544FF00A01079806
:103FE00090FBF1F000B20790079890FBF1F201FB13
:103FF000120000F13000C1B23D4A109802EBC0122D
:104000000F9800F1210011544FF00A01079890FB1E
:10401000F1F000B20790079880B1079890FBF1F299
:1040200001FB120000F13000C1B2314A109802EBDE
:10403000C0120F9800F12000115409E04FF0200148
:104040002B4A109802EBC0120F9800F12000115477
:104050003CE19DF838005328FAD14FF000000F9052
:104060002349109801EBC01035A10A6802608988C5
:1040700081804FF006000F909DF8390000F131006B
:10408000C1B21B4A109802EBC01041714FF00700FB
:104090000F901146109801EBC0110F9808444FF093
:1040A0000E022AA10790FCF78FF80F9800F10E007E
:1040B0000F909DF832009DF83110CDE900109DF869
:1040C000300006909DF8340005909DF8350004906E
:1040D0009DF83600039004A90EC9FFF773FA04494E
:1040E0000790109801EBC0110F980844132235E097
:1040F00020C00720C1E0F2E0F0E5FF2E2020CAEE4C
:10410000EDF2F0EEEBFC20E5ECEAEEF1F2E8204017
:10411000202000002C2055EDE0F72020202C20C28C
:104120002C2055EAEEED2020202C20C22C2043E14B
:10413000E0F2202020202C20C02AF72000000000E0
:10414000C1CFD120B920202020202000202020C055
:10415000E2E0F0E8FF2121214020200006900799AD
:10416000FCF732F80F9800F114000F909DF83A0018
:104170004C280DD1F849109801EBC01028301422BA
:10418000F6A10790FCF720F84FF041000F9052E0A5
:104190009DF83A00542812D1EF49109801EBC01154
:1041A0000F980144F4A002680A6042684A600089DE
:1041B00008810F9800F10A00C0B20F903BE09DF813
:1041C0003A00552810D1E449109801EBC0110F981E
:1041D00008441022ECA10790FBF7F6FF0F9800F1BE
:1041E0001000C0B20F9026E09DF83A00752810D15B
:1041F000D949109801EBC0110F9808441022E7A18B
:104200000790FBF7E1FF0F9800F11000C0B20F908C
:1042100011E0D149109801EBC0110F980844E4A1B6
:104220000A6802608A888280897981710F9800F11A
:104230000700C0B20F909DF82C00412814D19DF8C2
:104240002D00412810D1C449109801EBC0110F98DE
:1042500008440F22D9A10790FBF7B6FF0F9800F191
:104260000F00C0B20F9031E0BB49109801EBC011B4
:104270000F9808440D22D6A10790FBF7A5FF0F98D1
:1042800000F10D00C0B20F909DF82A009DF8291092
:10429000CDE900109DF8280006909DF82C000590AF
:1042A0009DF82D0004909DF82E00039004A90EC9DE
:1042B000FFF788F9A8490790109801EBC0110F98F3
:1042C0000844132206900799FBF77EFF11B000BD4A
:1042D0002DE9FE4306460F4690464FF00000044687
:1042E00007E04FF00000BE49085504F10100C0B2DC
:1042F0000446642CF5DB4FF00000ADF804004FF0ED
:104300000105FEB1BDF8040000F1010080B2ADF876
:1043100004004FF00000044606E0305DB049085547
:1043200004F10100C0B20446642C02DA305D0028BA
:10433000F3D14FF0260001A921F8150005F1010085
:10434000C0B20546A7F57F40FF3812D0BDF8040083
:1043500000F1010080B2ADF8040038B2A149088034
:104360004FF0270001A921F8150005F10100C0B2A6
:104370000546A8F57F40FF380FD0BDF8040000F1D6
:10438000010080B2ADF804000FFA88F09649088069
:104390004FF0280001A921F8150094480088FF2853
:1043A00027D093480088FF2823D092480088FF2810
:1043B0001FD091480088FF281BD08C480088C0B2CD
:1043C0008DF800008A480088C0B28DF80100894845
:1043D0000088C0B28DF8020087480088C0B28DF80E
:1043E000030001AB4FF003024FF00601684603F0F3
:1043F00005FD82480088FF2827D081480088FF28D3
:1044000023D07C480088FF281FD07E480088FF28E2
:104410001BD07A480088C0B28DF800007848008828
:10442000C0B28DF8010078480088C0B28DF8020053
:1044300074480088C0B28DF8030001AB4FF003024E
:104440004FF00601684603F0D9FC70480088FF2849
:1044500027D06F480088FF2823D06E480088FF28A7
:104460001FD06D480088FF281BD068480088C0B264
:104470008DF8000066480088C0B28DF801006548DC
:104480000088C0B28DF8020063480088C0B28DF881
:10449000030001AB4FF003024FF00601684603F042
:1044A000ADFC5E480088FF2827D05D480088FF28C3
:1044B00023D05C480088FF281FD05B480088FF2875
:1044C0001BD056480088C0B28DF8000054480088C0
:1044D000C0B28DF8010053480088C0B28DF80200C8
:1044E00051480088C0B28DF8030001AB4FF00302C1
:1044F0004FF00601684603F081FC4C480088FF2815
:1045000027D04B480088FF2823D04A480088FF283E
:104510001FD049480088FF281BD044480088C0B2FB
:104520008DF8000042480088C0B28DF80100414873
:104530000088C0B28DF802003F480088C0B28DF8F4
:10454000030001AB4FF003024FF00601684603F091
:1045500055FCBDE8FE83000020C0072040EEF2EAD3
:10456000EBFEF7E8EBF1FF20202020202020202088
:1045700020202020000000004020EFE5F0E5E3F0DF
:10458000E5E22020200000004020E7E0E2FBF8E523
:10459000EDEE2055E2FBF52E202000004020E7E064
:1045A000EDE8E6E5EDEE2055E2FBF52E20200000DB
:1045B0004020F4E8E3EDFF20200000002C20EDE592
:1045C00020F3F1F2F0E0EDE5EDE020200000000046
:1045D0002C2020F3F1F2F0E0EDE5EDE020202000CA
:1045E0004C130010BCE00720BEE00720B001001013
:1045F000B2010010B4010010B6010010B8010010A3
:10460000BA010010BE010010BC010010C001001072
:10461000C2010010C4010010C6010010C801001042
:10462000CA010010CC010010CE010010D001001012
:10463000D2010010D4010010D601001070B5049C06
:10464000604D2D78A8420ED15F4DB5F90050A942BA
:1046500009D15E4DB5F90050AA4204D15C4DB5F9BF
:104660000050AB4211D0574D2870574D2980574DFF
:104670002A80574D2B804FF0640504FB05F5554EFD
:1046800035804FF00105544E357070BD08B5534864
:10469000006A40F00060514908624F48007888B1D4
:1046A0000846C06B40F00060C8634FF001004C4901
:1046B00008704FF000004B4908804B49088046497C
:1046C00008707DE03F480078002879D04548B0F96F
:1046D00000003D49B1F9001088420DDA3F48806B77
:1046E00040F000603D4988633E48008800F10100C9
:1046F00000B23C4908804CE03948007831490978DB
:10470000884224DA3048B0F900003049B1F900108D
:1047100008443449B1F9001088420DDD2F48C06BC0
:1047200040F000602D49C8632E48008800F1010068
:1047300000B22C4908802CE04FF000002949088085
:104740002748007800F101002549087021E01E4843
:10475000B0F900001E49B1F9001008442149B1F92F
:10476000001088420DDD1D48C06B40F000601B4901
:10477000C8631C48008800F1010000B21949088094
:1047800007E04FF00000174908804FF0010014497E
:1047900008701048008898B11348B0F900100088DC
:1047A000401C00B2104A10800A48B0F90000814253
:1047B00006D100200346024601460090FFF73EFF67
:1047C00008BD00002302001026020010280200107D
:1047D0002A0200102C0200102202001000C0092042
:1047E000240200102E020010300200100146FD4885
:1047F000816000BFFB48406810F0800FFAD0F94894
:104800008068C0B27047F848006840F04040F64900
:1048100008600846406820F0030048600846406889
:1048200040F00C0048600846406840F030004860A6
:104830004FF00800EB49C8604FF020000860704757
:10484000E948006820F04040E749086008464068B1
:1048500020F0030048600846406820F00C004860E3
:104860000846406820F0300048604FF00000DD4905
:104870000860704700B5FFF7C6FFDC48006840F4E9
:104880008010DA4908600846C06940F48010C861A9
:104890004FF00600FFF7AAFFD448006840F48010EC
:1048A000D24908600846806940F480108861FFF7AB
:1048B000C7FF00BD00B5FFF7A6FFCC48006840F475
:1048C0008010CA4908600846C06940F48010C86179
:1048D0004FF00500FFF78AFFFF20FFF787FF024632
:1048E000C248006840F48010C049086008468069EA
:1048F00040F480108861FFF7A3FF104600BD01B5AA
:104900004FF00000034600BFFFF7D4FF10F0010F87
:10491000FAD1FFF778FFB548006840F48010B3493A
:1049200008600846C06940F48010C8610846006805
:1049300040F4801008600846C06940F48010C861E7
:104940004FF00300FFF752FF9DF8010003461846A1
:10495000FFF74CFF9DF8000003461846FFF746FF9F
:10496000FF20FFF743FF0346A048006840F4801093
:104970009E4908600846806940F4801088610846B6
:10498000006840F4801008600846806940F4801098
:104990008861FFF755FF184608BD11B500BFFFF746
:1049A00089FF10F0010FFAD1FFF72DFF8F48006843
:1049B00040F480108D4908600846C06940F48010BA
:1049C000C8614FF00300FFF711FF9DF80100044696
:1049D0002046FFF70BFF9DF8000004462046FFF736
:1049E00005FFFF20FFF702FF04464FF0FF00FFF72F
:1049F000FDFE03464FEA0320034603EB0400034693
:104A00007A48006840F48010784908600846806958
:104A100040F4801088610846006840F48010086007
:104A20000846806940F480108861FFF709FF184646
:104A300018BD71B500BFFFF73DFF10F0010FFAD1AF
:104A4000FFF7E1FE6948006840F48010674908609C
:104A50000846C06940F48010C8614FF00300FFF7BA
:104A6000C5FE9DF8010004462046FFF7BFFE9DF8F5
:104A7000000004462046FFF7B9FEFF20FFF7B6FE10
:104A800004464FF0FF00FFF7B1FE06464FF0FF006F
:104A9000FFF7ACFE05464FF0FF00FFF7A7FE034609
:104AA0004FEA0320034603EB050003464FEA0320C9
:104AB000034603EB060003464FEA0320034603EBDD
:104AC000040003464948006840F4801047490860E4
:104AD0000846806940F4801088610846006840F408
:104AE000801008600846806940F480108861FFF7F4
:104AF000A7FE184678BD13B50B4600BFFFF7DAFED8
:104B000010F0010FFAD1FFF77EFE3848006840F43C
:104B10008010364908600846C06940F48010C861BA
:104B20004FF00300FFF762FE9DF8010004462046A7
:104B3000FFF75CFE9DF8000004462046FFF756FE96
:104B4000FF20FFF753FE1870FF20FFF74FFE58704D
:104B5000FF20FFF74BFE9870FF20FFF747FED8704D
:104B60002248006840F480102049086008468069A7
:104B700040F4801088610846006840F480100860A6
:104B80000846806940F480108861FFF759FE1CBD1B
:104B900077B50B46154600BFFFF78CFE10F0010FEE
:104BA000FAD1FFF730FE1148006840F480100F4939
:104BB00008600846C06940F48010C8614FF00300E7
:104BC000FFF714FE9DF8010006463046FFF70EFE83
:104BD0009DF8000006463046FFF708FE4FF000043F
:104BE00011E000000000024000C0024000C00920A7
:104BF000FF20FFF7FBFD187003F10100034604F1ED
:104C00000100C0B20446AC42F2DBA948006840F49F
:104C10008010A74908600846806940F480108861C8
:104C20000846006840F4801008600846806940F437
:104C300080108861FFF704FE7EBD13B50B4600BFF0
:104C4000FFF738FE10F0010FFAD1FFF713FEFFF760
:104C5000DAFD9748006840F48010954908600846DE
:104C6000C06940F48010C8614FF00200FFF7BEFD3C
:104C70009DF8010004462046FFF7B8FD9DF80000AE
:104C800004462046FFF7B2FD1846FFF7AFFD044685
:104C90008748006840F480108549086008468069AC
:104CA00040F4801088610846006840F48010086075
:104CB0000846806940F480108861FFF7C1FD2046F6
:104CC0001CBD03B500BFFFF7F5FD10F0010FFAD1D1
:104CD000FFF7D0FDFFF797FD7548006840F480109E
:104CE000734908600846C06940F48010C8614FF0FD
:104CF0000200FFF77BFD9DF8010003461846FFF711
:104D000075FD9DF8000003461846FFF76FFD9DF8FE
:104D1000040003461846FFF769FD9DF805000346A9
:104D20001846FFF763FD6248006840F48010604950
:104D300008600846806940F4801088610846006871
:104D400040F4801008600846806940F48010886153
:104D5000FFF776FD18460CBD03B500BFFFF7AAFDAF
:104D600010F0010FFAD1FFF785FDFFF74CFD504819
:104D7000006840F480104E4908600846C06940F45D
:104D80008010C8614FF00200FFF730FD9DF8010070
:104D900003461846FFF72AFD9DF800000346184613
:104DA000FFF724FD9DF8040003461846FFF71EFD9B
:104DB0009DF8050003461846FFF718FD9DF806000C
:104DC00003461846FFF712FD9DF8070003461846F4
:104DD000FFF70CFD3648006840F480103449086045
:104DE0000846806940F4801088610846006840F4F5
:104DF000801008600846806940F480108861FFF7E1
:104E00001FFD18460CBD13B50B4600BFFFF752FD42
:104E100010F0010FFAD1FFF72DFDFFF7F4FC244845
:104E2000006840F48010224908600846C06940F4D8
:104E30008010C8614FF00200FFF7D8FC9DF8010018
:104E400004462046FFF7D2FC9DF8000004462046A9
:104E5000FFF7CCFC187804462046FFF7C7FC5878CB
:104E600004462046FFF7C2FC987804462046FFF728
:104E7000BDFCD87804462046FFF7B8FC0C48006813
:104E800040F480100A4908600846806940F48010A8
:104E900088610846006840F4801008600846806910
:104EA00040F480108861FFF7CBFC20461CBD000059
:104EB00000C0092010B5FA4B5B7803F01F0303F123
:104EC00004031A46F64B1B7818464FF001031946A7
:104ED0000AE0F34B5B5CF34C245C83EA0403184662
:104EE00001F10103DBB21946531C9942F1DB10B901
:104EF0004FF0FF03184610BD10B5EB4B5B7803F085
:104F00001F0303F104031A46E74B1B7818464FF0C2
:104F1000010319460AE0E44B5B5CE24C245C83EA43
:104F20000403184601F10103DBB21946531C9942F0
:104F3000F1DB10B94FF0FF03184610BD2DE9F04327
:104F400007ACF0CC4FF4002CDFF86083DFF86093FF
:104F500099F8009048F829C04FF09E0CDFF8548370
:104F6000DFF84C9399F8009048F829C0DFF848C35F
:104F7000DFF83C8398F800800CF82800DFF83083D5
:104F800098F800800CEB880C8CF80110DFF828C32F
:104F9000DFF81C8398F800800CEB880C8CF802205A
:104FA000DFF814C3DFF8088398F800800CEB880C56
:104FB0008CF80330DFF804C3DFF8F48298F800803F
:104FC0000CF82840DFF8E88298F800800CEB880C99
:104FD0008CF80150DFF8E4C2DFF8D48298F8008042
:104FE0000CEB880C8CF80260DFF8D0C2DFF8C082CE
:104FF00098F800800CEB880C8CF80370DFF8B0C2D6
:105000009CF800C00CF1010CDFF8A48288F800C005
:10501000C4469CF800C0BCF1080F03DB4FF0000C45
:1050200088F800C0DFF898C29CF800C0BCF1000FFF
:105030004DD0DFF878C2DFF88C8298F800805CF8F9
:1050400028C0DFF88482C8F830C0DFF868C2DFF813
:10505000748298F800805CF828C0DFF86C82C8F889
:1050600034C0DFF854C2DFF85C8298F800805CF846
:1050700028C0DFF85482C8F838C0DFF840C2DFF833
:10508000448298F800805CF828C0DFF83C82C8F8B9
:105090003CC04FF0210CC8F804C0DFF828C29CF8CF
:1050A00000C00CF1010CDFF81C8288F800C0C44677
:1050B0009CF800C0BCF1080F03DB4FF0000C88F82F
:1050C00000C04FF0000CDFF8F88188F800C0BDE8A0
:1050D000F0837348C0787449887071488078C870CC
:1050E0006F4800794FEA10106D49097901F00F01FE
:1050F00040EA01106C490871694840794FEA101084
:105100006749497901F00F0140EA01106649487189
:10511000704710B56D48407800F101006B49487048
:105120005F484078DA287ED15D48007810F01F0093
:1051300079D45B48007800F01F00082873DA6448CF
:10514000007B00F10100C1B261480173544800784E
:1051500000F01F045248007810F0E00F09D14FF022
:105160000300C4EBC40101EB41015A4A02F82100DB
:105170000EE04B48007800F0E000402808D14FF0E6
:105180000500C4EBC40101EB4101524A02F82100C1
:1051900043488078C4EBC40101EB41014D4A02EB66
:1051A000810188713E48C178C4EBC40000EB400027
:1051B00002EB8000C1713A480179C4EBC40000EBF6
:1051C000400002EB8000017235484179C4EBC40015
:1051D00000EB400002EB8000417231488179C4EB62
:1051E000C40000EB400002EB800081722C48C179C2
:1051F000C4EBC40000EB400002EB8000C1724FF032
:105200000000C4EBC40101EB410102EB8101C87055
:105210004FF00A00C4EBC40101EB410102EB810134
:1052200081F8340000E017E0C4EBC40000EB40005C
:10523000114601EB8000C07870B9C4EBC40000EBEC
:10524000400001EB8000407810F0080F04D00022ED
:1052500003212046FDF77DFB11484078DB287DD1F6
:105260000F48007810F01F0078D40D48007800F047
:105270001F00082872DA0A48007800F01F00044670
:105280000748007810F0E00F26D14FF00300C4EB80
:10529000C40101EB41010F4A02F821002BE000009C
:1052A000F41400104D9700001C150010D0130010CE
:1052B000C8E00720F0130010101400103014001084
:1052C000C6E00720C9E0072000400440C6150010D2
:1052D000D0150010980A0010FE48007800F0E00099
:1052E000402808D14FF00500C4EBC40101EB410197
:1052F000F94A02F82100F7488178C4EBC40000EBBA
:105300004000F54A02EB80000173F248C178C4EB1B
:10531000C40000EB400002EB80004173ED480179CE
:10532000C4EBC40000EB400002EB80008173E9484D
:105330004179C4EBC40000EB400002EB8000C17374
:10534000E4488179C4EBC40000EB400002EB80002C
:105350000174E048C179C4EBC40000E01BE000EB3D
:10536000400002EB800041744FF00000C4EBC40128
:1053700001EB410102EB8101C8704FF00A00C4EB60
:10538000C40101EB410102EB810181F83400D148F5
:105390000079D24908704FF00000D149087010BD63
:1053A0002DE9F041CF48008800F10100CD49088087
:1053B000CD48006ACD4908425FD1CA48408800F113
:1053C0000100C8494880C848006AC0F3090000EBE2
:1053D0004000C74901EB80000446C348006AC54944
:1053E00000EA01000546C44845EA00000546BE48FB
:1053F000406AC0F30A0040EA05000546256004F152
:1054000004000446B848806A206004F104000446A1
:10541000B548C06A206045F040700546A4F1080018
:1054200004462560B2484068C7B2302F04D14FF01F
:105430000000B249087005E0B048007800F10100B2
:10544000AE490870AA480068C0F303400746DFF879
:10545000A08208F104084FF000060AE098F8000066
:105460009C49885508F10100804606F10100C0B250
:105470000646BE42F2DBFFF74CFE4FF004009A49AD
:105480004860BDE8F0819E48007800F101009C4929
:1054900008709448408900F1010092494881994878
:1054A00000789949097888422CD09848964909781B
:1054B00050F821008C49086395489349097850F8C1
:1054C00021008949486393488F49097850F82100A1
:1054D0008549886390488C49097850F821008249B1
:1054E000C8634FF0210048608748007800F1010050
:1054F0008549087008460078082807DB4FF000004F
:10550000087003E04FF0010084490870704770474D
:1055100010B501468248006840F40050814AC2F844
:10552000C4008148006820F00F007F4A10601046D8
:10553000006840F0050010604FF000007B4A1080CA
:105540004FF001007A4A1060674A10604FF0000087
:1055500010619060104641614FF0000010604FF004
:1055600019004FF0010202FA00F24FEA50134FF017
:10557000E02404EB8303C3F8002100BF4FF00300D5
:10558000594A10614FF0010010BD03464FF0010071
:1055900070472DE9F04705460B464FF00100DFF854
:1055A00090A1CAF800006148008828B943F2FF7052
:1055B000DFF83CA1CAF800005C48B0F900000228FE
:1055C00002DB0020BDE8F087C3F30A00034643EA8C
:1055D000453003464FF000010CE001EB4100DFF8DD
:1055E00010A15AF8200080B2984200D907E001F1DA
:1055F000010001464D48B0F900008142EDD300BFE3
:1056000001EB4100DFF8E8A05AF8206001EB41000F
:105610004AF820304548008800F1010000B2DFF868
:105620000CA1AAF800000DE001F10100014601EB18
:105630004100DFF8BCA05AF8207001EB41004AF8A5
:1056400020603E463948B0F900008142ECD34FF06B
:105650000000014636484160364C4FF0000220E021
:105660004FEA420000EB4000DFF884A05AF8200027
:105670001FFA80F84FF0010000EB420000EB400001
:105680005AF820001FFA80F909EB084CC4F800C052
:1056900001F10400014604F10400044602F1010096
:1056A0000246DFF888A0BAF900A00AF1010A0AEB65
:1056B000DA7AB2EB6A0FD3D31D488160C160016111
:1056C00041614FF00000DFF868A0CAF800004FF019
:1056D000010077E7F4140010980A0010020200108D
:1056E000CEE00720D014001000400440000400C0A9
:1056F000DC14001000000FC000200001CCE00720E7
:10570000D2E00720C8E00720C9E00720D01300102E
:10571000F01300101014001030140010C6E0072021
:10572000C4C00F4000C00F4000C00240C4E00720CA
:1057300000C003400080034010B50948C068094913
:1057400008600846006810F0010F01D0FFF728FE3E
:105750000448006810F0020F01D0FFF794FE10BD5E
:1057600000400440D4E0072030B5504C2478A042DB
:105770000ED14F4CB4F90040A14209D14D4CB4F9BF
:105780000040A24204D14C4CB4F90040A3420BD0DB
:10579000464C2070464C2180464C2280464C23804B
:1057A0004FF00104454D2C7030BD4548006840F075
:1057B0008060434908604148007878B10846C06974
:1057C00040F08060C8614FF001003E4908704FF022
:1057D00000003D4908803949087066E03348007888
:1057E000002862D03848B0F900003149B1F9001002
:1057F00088420DDA3248806940F080603049886123
:105800003148008800F1010000B22F4908804CE0C7
:105810002C48007825490978884224DA2448B0F9D0
:1058200000002449B1F9001008442749B1F90010DB
:1058300088420DDD2248C06940F080602049C8617F
:105840002148008800F1010000B21F4908802CE0C7
:105850004FF000001C4908801A48007800F1010050
:105860001849087021E01248B0F900001249B1F956
:10587000001008441449B1F9001088420DDD1048A9
:10588000C06940F080600E49C8610F48008800F18F
:10589000010000B20C49088007E04FF000000A49FF
:1058A00008804FF00100074908707047D9E00720D1
:1058B000DCE00720DEE00720E0E00720D8E007205A
:1058C00000C00920DAE00720E2E0072010B5044616
:1058D00000F027F9782000F07AFA00F085F900B19D
:1058E0000CE0002000F073FA00F07EF900B105E052
:1058F000204600F06CFA00F077F900BF00F0D0FA13
:1059000010BD10B5044600F00CF9782000F05FFAE5
:1059100000F06AF900B10CE0002000F058FA00F045
:1059200063F900B105E0204600F051FA00F05CF99F
:1059300000BF00F0B5FA10BD10B5044600F0F1F854
:10594000782000F044FA00F04FF900B10CE040205C
:1059500000F03DFA00F048F900B105E0204600F003
:1059600036FA00F041F900BF00F09AFA10BD10B508
:10597000044600BF4FF0AE00FFF7A8FF00BF00BF16
:105980000020FFF7A3FF00BF00BF1020FFF79EFF1E
:1059900000BF00BF4020FFF799FF00BF00BF81207C
:1059A000FFF794FF00BF012C04D100BF9F20FFF739
:1059B0008DFF04E000BFCF20FFF788FF00BF00BFCE
:1059C000A120FFF783FF00BF00BFA620FFF77EFFE7
:1059D00000BF00BFA420FFF779FF00BF00BFA820D1
:1059E000FFF774FF00BF00BF3F20FFF76FFF00BF4E
:1059F00000BFD320FFF76AFF00BF00BF0020FFF702
:105A000065FF00BF00BFD520FFF760FF00BF00BFEC
:105A10008020FFF75BFF00BF00BFD920FFF756FFD4
:105A200000BF012C04D100BF2220FFF74FFF04E08C
:105A300000BFF120FFF74AFF00BF00BF2E20FFF795
:105A400045FF00BF00BFB020FFF740FF00BF00BF11
:105A5000DA20FFF73BFF00BF00BF1220FFF736FF41
:105A600000BF00BFDB20FFF731FF00BF00BF4020B9
:105A7000FFF72CFF00BF00BF2020FFF727FF00BF6C
:105A800000BF0020FFF722FF00BF00BFA120FFF7EB
:105A90001DFF00BF00BFC820FFF718FF00BF00BFF9
:105AA0008D20FFF713FF00BF012C04D100BF102091
:105AB000FFF70CFF04E000BF1420FFF707FF00BF53
:105AC00000BFAF20FFF702FF00BF10BDFF48006816
:105AD00020F44000FD4908600846006820F44010AA
